:100000000C9422010C944B010C944B010C944B0169
:100010000C944B010C944B010C944B010C944B0130
:100020000C944B010C944B010C944B010C944B0120
:100030000C944B010C944B010C942A060C944B012C
:100040000C944B010C944B010C944B010C944B0100
:100050000C944B010C944B010C944B010C944B01F0
:100060000C944B010C944B010C944B010C944B01E0
:100070000C944B010C944B010C944B010C944B01D0
:100080000C944B010C944B010C944B010C944B01C0
:100090000C944B010C944B010C944B010C944B01B0
:1000A0000C944B010C944B010C944B010C944B01A0
:1000B0000C944B010C944B010C944B010C944B0190
:1000C0000C944B010C944B010C944B010C944B0180
:1000D0000C944B010C944B010C944B010C944B0170
:1000E0000C944B010C944B010C944B010C944B0160
:1000F0000C944B010C944B010C944B010C944B0150
:100100000C944B010C944B010C944B010C944B013F
:100110000C944B010C944B010C944B010C944B012F
:100120000C944B010C944B010C944B010C944B011F
:100130000C944B010C944B010C944B010C944B010F
:100140000C944B010C944B010C944B010C944B01FF
:100150000C944B010C944B010C944B010C944B01EF
:100160000C944B010C944B010C944B010C944B01DF
:100170000C944B010C944B010C944B010C944B01CF
:100180000C944B010C944B010C944B010C944B01BF
:100190000C944B010C944B010C944B010C944B01AF
:1001A0000C944B010C944B010C944B010C944B019F
:1001B0000C9449180C944B010C944B010C944B017A
:1001C0000C944B010C944B010C944B010C944B017F
:1001D0000C944B010C944B010C944B010C944B016F
:1001E0000C944B010C944B010C944B010C944B015F
:1001F0000C944B010C944B010C944B01E311E31153
:10020000E311301218122D12E311E31130121812FB
:100210000C9401130C943A0B0C9420130C941812A8
:100220000C9430120C94F2130C944C120C945C133A
:100230000C94BA120C94E3110C942D120C94ED1939
:100240000C94080411241FBECFEFCDBFDFE3DEBF47
:1002500000E00CBFEBEEF0E38AEA90E48193E0303B
:10026000F907E0F310E2A0E0B0E2E0ECF1E400E036
:100270000BBF02C007900D92A637B107D9F720E354
:10028000A6E7B0E201C01D92AB3EB207E1F70E94C3
:1002900041140C94DE200C940000E0EAF6E080E1CA
:1002A000828380E2828380E4828380E8828308956F
:1002B0008091A80684FD0EC080917C2090917D20C5
:1002C00080362AEE9207E8F4019680937C20909382
:1002D0007D2017C080917C2090917D208B309105EE
:1002E00048F0C39718F01092E23007C081E0809385
:1002F000E23003C082E08093E23010927C201092C2
:100300007D208091A80685FD0EC080917A20909175
:100310007B2080362AEE9207E8F4019680937A20BB
:1003200090937B2017C080917A2090917B208B3016
:10033000910548F0C39718F01092E33007C081E0B0
:100340008093E33003C082E08093E33010927A2000
:1003500010927B208091A80686FD0EC080917820A7
:100360009091792080362AEE9207E8F401968093E6
:1003700078209093792017C08091782090917920EF
:100380008B30910548F0C39718F01092E43007C005
:1003900081E08093E43003C082E08093E4301092E7
:1003A0007820109279208091A806882374F080919B
:1003B00076209091772080362AEE9207E8F4019615
:1003C0008093762090937720089580917620909165
:1003D00077208B30910548F0C39718F01092E530E4
:1003E00007C081E08093E53003C082E08093E53070
:1003F00010927620109277200895813049F028F0ED
:10040000823049F0833051F00CC08091E230089581
:100410008091E33008958091E43008958091E53033
:10042000089582E008950F93CF93DF931F92CDB785
:10043000DEB72FB72983F8941BBEFC0108ED04BF7B
:10044000608389818FBF0F90DF91CF910F910895C5
:10045000662311F090E201C090E0892B482B409375
:10046000520008956F71862B809355000895E0E542
:10047000F0E09081282F209592239083908189230A
:100480000895682B81E490E00E94130208950F9371
:100490001F93CF93C82F00E410E0F8016081687FBC
:1004A000682B80E490E00E941302F80180818C2385
:1004B000CF911F910F910895FC019081907F692B3E
:1004C00060830895FC019181987F692B6183089571
:1004D000FC0196819C7F692B66830895000088ED5E
:1004E00084BF81E08093790008950E946E02089590
:1004F0008BE20E94750208950F9301110CC0DC017C
:10050000CB0182239323A423B523892B8A2B8B2B06
:1005100079F480E010C0DC01CB0182239323A42373
:10052000B523281739074A075B0721F080E003C08D
:1005300081E001C081E00F910895CF93DF9380E1C6
:1005400090E00E941804EC01009741F0FC01119228
:10055000119211921192CF010E943F04CE01DF91BE
:10056000CF9108952F923F924F925F926F927F9218
:100570008F929F92AF92BF92CF92DF92EF92FF92B3
:100580000F931F93CF93DF93EC014A015B01622E1F
:10059000702E0E94D20B288039804A805B80A50192
:1005A0009401C201B1010E947C028823A1F066205F
:1005B00089F1D501C40180959095A095B0958221CF
:1005C0009321A421B52188839983AA83BB83C12C5D
:1005D000D12C760122C0C114D104E104F104E9F068
:1005E000611004C040E050E0BA0104C040E050E0B7
:1005F00060E071E071107460482959296A297B29EB
:1006000097018601CE0104960E94E10D212C312C28
:10061000210103C0C12CD12C76010E94BA0CCD2837
:10062000CE28CF2889F1811102C00E94AA050E941C
:10063000280F6B017C0191FD24C0F091A200FF9373
:10064000F87FF093A200C880D980EA80FB80072D54
:10065000A5019401C701B6010E947C02882371F0B4
:10066000662061F080949094A094B0948C209D209A
:10067000AE20BF2088829982AA82BB82FF91F0932C
:10068000A200160127015524C201B101DF91CF91CB
:100690001F910F91FF90EF90DF90CF90BF90AF90A0
:1006A0009F908F907F906F905F904F903F902F9092
:1006B00008950F931F93F091A200FF93F87FF0939A
:1006C000A200FC0100811181228133814095509567
:1006D0006095709540235123622373234083518397
:1006E00062837383FF91F093A200C901B8011F9147
:1006F0000F9108954F925F926F927F92AF92BF9247
:10070000CF92DF92EF92FF920F931F93CF93DF93DD
:10071000EC016A017B018C01095F1F4F0E94D20B23
:10072000EB85FC8588819981AA81BB81C82AD92A59
:10073000EA2AFB2AC882D982EA82FB82C12CD12C08
:1007400076013DC0A480B58080819181A281B38172
:10075000AC01BD017727B2FD0EC0488059806A8088
:100760007B80442255226622772245284628472846
:1007700089F420E012C0488059806A807B8044223E
:10078000552266227722441555056605770521F026
:1007900020E003C021E001C021E0222371F0B0FF7E
:1007A00004C0C42AD52AE62AF72A488159816A81D9
:1007B0007B817260CF010E94690EEA2DFB2DE0174C
:1007C000F10709F0BFCFC094D094E094F0948881F1
:1007D0009981AA81BB81C822D922EA22FB22C88240
:1007E000D982EA82FB820E94BA0C688179818A816F
:1007F0009B81DF91CF911F910F91FF90EF90DF9040
:10080000CF90BF90AF907F906F905F904F90089582
:100810000E947A0308950F931F9389019A01AB01F7
:10082000BC0188E094E00E945B121F910F91089533
:10083000CF93DF93EC010E94D20B20917E20309168
:100840007F20C9018C0F9D1F803A4FE0940758F418
:100850002817390758F4E901C058DF4D80937E20EE
:1008600090937F2005C0C0E0D0E002C0C0E0D0E09F
:100870000E94BA0CCE01DF91CF9108950895FC013A
:100880000396818392834FEF5FEFBA0143835483D2
:100890006583768387839087818792871082089506
:1008A000FC01128613860895CF93DF939C01FB0110
:1008B000DC011196CD91DC911297C483D5838E8192
:1008C0009F81868397838E819F81DC0114966D932F
:1008D0007C9315976E837F8322873387F90180810C
:1008E0008F5F8083DF91CF9108950F931F93CF93F4
:1008F000DF93EB01088119812A813B810F3F4FEF84
:1009000014072407340721F4FC01A185B28511C026
:10091000DC01139601C0DF011496ED91FC9115974F
:1009200040815181628173810417150726073707BB
:1009300090F71496ED91FC911597EC83FD83C68397
:10094000D783AE83BF831496CD93DC9315978A87A4
:100950009B87FC0120812F5F2083DF91CF911F9126
:100960000F910895CF93DF93FC01A285B385C481D5
:10097000D581868197818E839F83C681D78184812B
:1009800095818C839D8311968D919C911297E81788
:10099000F90731F48681978111968D939C93129774
:1009A000128613868C9181508C938C91DF91CF911C
:1009B000089583EF91E0809326089093270865E0DF
:1009C00080E098E00E945C0261E080E098E00E9494
:1009D00068020895E0EAF0E082819281987F928334
:1009E0000895CF930E94EA04C82F0E94EA0BC09397
:1009F000A200CF910895CF92DF92EF92FF9231E162
:100A0000FC013083319722E220833197A3E3A08356
:100A10006B01E12CF12C319760833197D0823197B3
:100A2000E082319761E36083319760E860833197BA
:100A300067E860833197108231971082319762E0C6
:100A40006083319763E06083319764E0608331971E
:100A500065E06083319766E06083319767E060838B
:100A6000319768E06083319769E06083319760E196
:100A7000608331973083319732E13083319733E1AE
:100A80003083319734E13083319735E130833197CA
:100A900036E13083319737E13083319738E1308365
:100AA000319739E13083319730E23083319731E249
:100AB000308331972083319723E220836A01319775
:100AC00040833197D082319726E22083319727E205
:100AD0002083319728E22083319729E220833197C0
:100AE00020E320838897FF90EF90DF90CF900895C8
:100AF0000E94D904A0918E30B0918F300D900DBE20
:100B00000D900EBEEF91DF91CF91BF91AF919F916C
:100B10008F917F916F915F914F913F912F911F9195
:100B20000F91FF90EF90DF90CF90BF90AF909F908C
:100B30008F907F906F905F904F903F902F901F907D
:100B40000F90FF91F093A200FF91FFBFFF910895D6
:100B500081E00895FF93FFB7FF93F091A200FF9308
:100B6000F87FF093A2000F921F9211242F923F92D0
:100B70004F925F926F927F928F929F92AF92BF92AD
:100B8000CF92DF92EF92FF920F931F932F933F9399
:100B90004F935F936F937F938F939F93AF93BF9385
:100BA000CF93DF93EF93A0918E30B0918F300DB63D
:100BB0000D920EB60D920E94480DA0918E30B0910C
:100BC0008F300D900DBE0D900EBEEF91DF91CF9145
:100BD000BF91AF919F918F917F916F915F914F9155
:100BE0003F912F911F910F91FF90EF90DF90CF9049
:100BF000BF90AF909F908F907F906F905F904F903D
:100C00003F902F901F900F90FF91F093A200FF91C3
:100C1000FFBFFF910895CF939091E630892B809389
:100C2000E6309091A000913041F09091A000923078
:100C300021F09091A000943059F4882349F00E944B
:100C4000EA04C82F1092E6300E94480DC093A2001B
:100C5000CF910895FF93FFB7FF93F091A200FF9308
:100C6000F87FF093A2000F921F9211242F923F92CF
:100C70004F925F926F927F928F929F92AF92BF92AC
:100C8000CF92DF92EF92FF920F931F932F933F9398
:100C90004F935F936F937F938F939F93AF93BF9384
:100CA000CF93DF93EF93A0918E30B0918F300DB63C
:100CB0000D920EB60D920E94F10481E00E940B0687
:100CC000A0918E30B0918F300D900DBE0D900EBE64
:100CD000EF91DF91CF91BF91AF919F918F917F91D4
:100CE0006F915F914F913F912F911F910F91FF90C5
:100CF000EF90DF90CF90BF90AF909F908F907F90BC
:100D00006F905F904F903F902F901F900F90FF91AA
:100D1000F093A200FF91FFBFFF911895F091A20000
:100D2000FF93F87FF093A200FC01868D811102C031
:100D300081E001C080E0FF91F093A2000895F0915E
:100D4000A200FF93F87FF093A200FC01268D878D0F
:100D5000281302C081E001C080E0FF91F093A2005F
:100D600008950F931F93CF93DF93EC01042F1E8DF3
:100D700048A14423B9F1011116C050E08C819D8136
:100D80000E94BC1D28A18C819D81820F911D8C83A6
:100D90009D832A813B818217930720F18881998165
:100DA0008C839D831FC050E08E819F810E94BC1D5B
:100DB00088A190E09195819591092E813F81280F1E
:100DC000391F2E833F83488159812417350730F41A
:100DD0002A813B81820F931F8E839F83023011F4FF
:100DE000111111501F5F1E8F80E0DF91CF911F9175
:100DF0000F910895FC0140A14423A9F050E0268101
:100E00003781240F351F26833783828193812817EA
:100E1000390720F08081918186839783CB01668199
:100E200077810E94BC1D08951F93CF93DF93EC013F
:100E3000F091A200FF93F87FF093A2001AA10BC0DB
:100E40008B89882351F0CE0143960E94270E811191
:100E50000E94160F115011169CF38FEF8AA3FF9179
:100E6000F093A200F091A200FF93F87FF093A2000C
:100E700019A10BC08885882351F0CE0108960E94E5
:100E8000270E81110E94160F115011169CF38FEF3F
:100E900089A3FF91F093A200DF91CF911F91089554
:100EA000CF93DF93EC01F091A200FF93F87FF093D2
:100EB000A200E881F9818F8D90E028A130E0829F27
:100EC000A001839F500D929F500D11244E0F5F1F64
:100ED0004A835B831E8EEC83FD830197289FA001CC
:100EE000299F500D389F500D1124CF01840F951F5D
:100EF0008E839F838FEF89A38AA361110CC088859D
:100F0000882389F0CE0108960E94270E882359F085
:100F10000E94AA0508C0CE0108960E943F04CE0197
:100F200043960E943F04FF91F093A20081E0DF917D
:100F3000CF910895FF920F931F93CF93DF93F22EDB
:100F4000E801611103C00883198302C048835983F3
:100F50008F8F68A361E0CE010E945007FCA2DF9151
:100F6000CF911F910F91FF900895DF92EF92FF9222
:100F70000F931F93CF93DF93E82EF62ED42E662384
:100F800021F0869FC001112402C080E090E0859688
:100F90000E941804EC01009749F08C012D2DAC0142
:100FA0004B5D5F4F6F2D8E2D0E949A07CE01DF9112
:100FB000CF911F910F91FF90EF90DF900895CF9206
:100FC000DF92EF92FF920F931F93CF93DF93CDB7F2
:100FD000DEB72997CDBFDEBF7C016B012E833F8337
:100FE0004887598710E0F091A200FF93F87FF093B3
:100FF000A200F701968D878D981710F00230D1F47A
:10100000402FB601C7010E94B106F70193899923C9
:1010100049F0C70143960E94270E882331F00E94B1
:10102000AA0503C081110E94AA05FF91F093A200B6
:1010300081E058C08E819F81A885B985892B8A2B34
:101040008B2B29F4FF91F093A20080E04BC011118B
:1010500005C0CE0101960E949D0E11E0FF91F09314
:10106000A2000E94D20BF091A200FF93F87FF093B0
:10107000A200F70181A18F3F09F411A2F70182A11B
:101080008F3F09F412A2FF91F093A200BE016A5FA4
:101090007F4FCE0101960E94AE0E81111DC0C70187
:1010A0000E949F06882391F04E815F816885798533
:1010B000C70108960E94C90DC7010E9414070E942B
:1010C000BA0C811190CF0E94AA058DCFC7010E9452
:1010D00014070E94BA0C87CFC7010E9414070E9410
:1010E000BA0C80E02996CDBFDEBFDF91CF911F9172
:1010F0000F91FF90EF90DF90CF900895AF92BF9245
:10110000CF92DF92FF920F931F93CF93DF93EC0167
:101110006B015A01022F0E94EA04F82E9E8D8F8DDA
:10112000981710F00230E1F41AA1402FB601CE0159
:101130000E94B1061F3F81F48B89882399F0CE016C
:1011400043960E94270E882379F0A114B10471F010
:1011500081E0F50180830BC01F5F1AA381E007C007
:1011600080E005C081E003C081E001C081E0F09231
:10117000A200DF91CF911F910F91FF90DF90CF9050
:10118000BF90AF900895CF92DF92EF92FF920F93AE
:101190001F93CF93DF93CDB7DEB72997CDBFDEBFC7
:1011A0008C016B012E833F8348875987E12CF09196
:1011B000A200FF93F87FF093A200F801F68CFF20C5
:1011C000B1F0B601C8010E94FA06FA94F801F68E51
:1011D0008085882339F0C80108960E94270E811166
:1011E0000E94AA05FF91F093A20081E05FC08E816A
:1011F0009F81A885B985892B8A2B8B2B29F4FF9198
:10120000F093A20080E052C0E11006C0CE0101962A
:101210000E949D0EEE24E394FF91F093A2000E94A1
:10122000D20BF091A200FF93F87FF093A200F80197
:1012300081A18F3F09F411A2F80182A18F3F09F427
:1012400012A2FF91F093A200BE016A5F7F4FCE0110
:1012500001960E94AE0E81111DC0C8010E948E062B
:10126000882391F04E815F8168857985C801439616
:101270000E94C90DC8010E9414070E94BA0C811176
:1012800096CF0E94AA0593CFC8010E9414070E941E
:10129000BA0C8DCFC8010E9414070E94BA0CC80175
:1012A0000E948E06882309F482CF80E02996CDBF64
:1012B000DEBFDF91CF911F910F91FF90EF90DF90F4
:1012C000CF900895F091A200FF93F87FF093A200D1
:1012D000FC01868DFF91F093A2000895CF93DF93D8
:1012E000EC01F091A200FF93F87FF093A20089A196
:1012F0008F3F09F419A28AA18F3F09F41AA2FF9126
:10130000F093A2008E8D811104C0CE0143960E94FD
:10131000060ECE010E941407DF91CF910895E0914F
:101320004A30F0914B30808181110CC08FEF9FEFDC
:10133000DC018093233090932430A0932530B09328
:1013400026300895E0914A30F0914B300780F085C7
:10135000E02D0084F185E02D82819381A481B58107
:101360008093233090932430A0932530B09326307F
:1013700008952F923F924F925F926F927F928F9239
:101380009F92AF92BF92CF92DF92EF920F931F93F3
:10139000CF93DF93CDB7DEB71C014B0129013A0192
:1013A000A90165EA70E0F501838D948D0E94C51D49
:1013B000F501838D948DF1E04F1A5108480E591EA6
:1013C00020E00FC0822F90E0F401E80FF91F308178
:1013D000D501A80FB91F5D963C938081882319F031
:1013E0002F5F283078F3F50114A2F3E0FE1520F406
:1013F0000F2EF3E0EF2EF02DF501E28EC5010296DF
:101400000E945004C5010E960E945004F501A28668
:10141000B38684E090E0A0E0B0E08E199109A109C4
:10142000B10986879787A08BB18BA68AB78A17A246
:1014300010A611A612A613A6A801B101C2010E940E
:10144000FB04F50180839183C114D10419F0F601E6
:10145000A082B182DF91CF911F910F91EF90DF9029
:10146000CF90BF90AF909F908F907F906F905F9044
:101470004F903F902F900895CF93C0E009C02BE08C
:10148000C29FC00111248E599F4C0E943F04CF5F20
:10149000C430A8F387E590E30E943F048CE490E316
:1014A0000E943F048DE390E30E943F0482E390E3B7
:1014B0000E943F0487E590E380934A3090934B303D
:1014C0008CE490E38093483090934930CF91089515
:1014D000CF93DF93EC01F091A200FF93F87FF0939C
:1014E000A200809131308F5F8093313080918E30B7
:1014F00090918F30892B59F4C0938E30D0938F30D8
:1015000080913130813099F40E943C0A10C0809162
:101510002B3081110CC0E0918E30F0918F30928D84
:101520008A8D891720F0C0938E30D0938F308091B0
:1015300027308F5F809327308DA38A8D90912C3038
:10154000981710F480932C302BE0829FC001112457
:10155000BE016E5F7F4F8E599F4C0E945404FF91D5
:10156000F093A20080912B30882351F0E0918E30CF
:10157000F0918F30928D8A8D981710F40E94AA05F1
:10158000DF91CF9108958F929F92AF92BF92CF92A9
:10159000DF92EF92FF92CF936B017C01C42F80907A
:1015A0002D3090902E30A0902F30B0903030809120
:1015B0008E3090918F3002960E94B2048FEFC81641
:1015C000D806E806F80669F4CC2359F060918E300D
:1015D00070918F306E5F7F4F82E390E30E945404DE
:1015E0003FC0C80CD91CEA1CFB1CE0918E30F09166
:1015F0008F30C282D382E482F582C814D904EA040F
:10160000FB0468F460918E3070918F308091483087
:10161000909149306E5F7F4F0E94750421C06091A8
:101620008E3070918F3080914A3090914B306E5F48
:101630007F4F0E9475048091233090912430A091B7
:101640002530B0912630C816D906EA06FB0640F4CC
:10165000C0922330D0922430E0922530F092263090
:10166000CF91FF90EF90DF90CF90BF90AF909F9081
:101670008F90089580916230823010F00E94AA0508
:101680000E944014F7CF2F923F924F925F926F9239
:101690007F928F929F92AF92BF92CF92DF92EF9202
:1016A000FF920F931F93CF93DF933C011B015A01CD
:1016B0002901CA010E9418046C01892B71F08CE287
:1016C00090E00E941804EC01892B19F0CB8EDC8E7F
:1016D00006C0C6010E943E0402C0C0E0D0E02097D0
:1016E00091F0950140E050E0812C912C5E01670162
:1016F000E02E8201B101C3010E94B909CE010E940E
:10170000680A81E001C08FEFDF91CF911F910F91A7
:10171000FF90EF90DF90CF90BF90AF909F908F9011
:101720007F906F905F904F903F902F900895EF9231
:10173000FF920F930F2EF1E2EF2EF0E3FF2EF02D2C
:1017400000E020E030E048EC50E064E070E28AE342
:101750009BE00E94430B813011F40E94DE0F813028
:10176000E9F4E0EAF0E08281887F82838FEF9FEFE7
:10177000DC018093233090932430A0932530B093E4
:10178000263081E080932B3010922D3010922E3035
:1017900010922F30109230300E9478050F91FF90F8
:1017A000EF900895809120308F5F809320300895CE
:1017B000F091A200FF93F87FF093A20060912D308A
:1017C00070912E3080912F3090913030FF91F093B6
:1017D000A2000895BF92CF92DF92EF92FF920F93F3
:1017E0001F93CF93DF93809120308111A9C0C090C7
:1017F0002D30D0902E30E0902F30F09030302FEF01
:10180000C21AD20AE20AF20AC0922D30D0922E30C9
:10181000E0922F30F0923030C114D104E104F10491
:10182000B9F480914A3090914B30209148303091FA
:10183000493020934A3030934B3080934830909316
:101840004930809128308F5F809328300E948F0923
:101850008091233090912430A0912530B091263092
:10186000C816D906EA06FB0628F4B12C5AC0BB24D8
:10187000B39401C0B12CE0914A30F0914B3080819B
:1018800081110CC08FEF9FEFDC0180932330909388
:101890002430A0932530B093263043C0E0914A30E5
:1018A000F0914B300780F085E02DC085D1858A818D
:1018B0009B81AC81BD81C816D906EA06FB0648F4B7
:1018C0008093233090932430A0932530B09326301A
:1018D00028C08E010E5F1F4FC8010E94B204888D80
:1018E000998D892B21F0CE010E960E94B2048A8D2B
:1018F00090912C30981710F480932C302BE0829F1D
:10190000C0011124B8018E599F4C0E9454049A8D35
:10191000E0918E30F0918F30828D981708F0A7CF2C
:10192000AACFE0918E30F0918F30E28D8BE0E89F6E
:10193000F0011124EE59FF4C8081823040F409C03F
:1019400080912A308F5F80932A30B12C02C0BB2453
:10195000B39480912930882311F0BB24B3948B2D4C
:10196000DF91CF911F910F91FF90EF90DF90CF907B
:10197000BF9008950F931F93CF93DF93F091A20030
:10198000FF93F87FF093A2008091203081508093E4
:10199000203080912030811152C0809131308111EE
:1019A0002DC050C0E0914430F0914530C085D185C4
:1019B000CE010E960E94B2048E010E5F1F4FC80129
:1019C0000E94B2048A8D90912C30981710F4809365
:1019D0002C302BE0829FC0011124B8018E599F4CFE
:1019E0000E9454049A8DE0918E30F0918F30828D58
:1019F000981730F081E08093293002C0C0E0D0E039
:101A000080913D308111CECFCD2B11F00E948F09F6
:101A1000C0912A30CC2359F00E94EA0B882319F098
:101A200081E080932930C150B9F710922A3080911B
:101A30002930882331F00E94AA0581E003C080E0AC
:101A400001C080E0FF91F093A200DF91CF911F9140
:101A50000F910895CF92DF92EF92FF926B017C017C
:101A6000672B682B692B51F00E94D20B40E0C70115
:101A7000B6010E94C30A0E94BA0C01C080E0811125
:101A800002C00E94AA05FF90EF90DF90CF900895CA
:101A900080912030882321F081E0809329300895BF
:101AA00010922930E0918E30F0918F30038CF48DBC
:101AB000E02D80819181A281B381853A954AA54A22
:101AC000B54AD9F484819581A681B781853A954A32
:101AD000A54AB54A91F480859185A285B385853A5A
:101AE000954AA54AB54A49F484859585A685B78562
:101AF000853A954AA54AB54A61F060918E30709159
:101B00008F30635E7F4F80918E3090918F300E9436
:101B1000780280912C3001C08150282F30E09BE06A
:101B2000929FF001939FF00D1124EE59FF4C90818C
:101B3000992391F39BE0929FA001939F500D112454
:101B4000DF010180F281E02D0480F581E02D119606
:101B5000ED93FC9312974B595F4CE417F50729F46A
:101B600044815581FD01418352839BE0929FF001A6
:101B7000939FF00D1124EE59FF4C0180F281E02D6E
:101B80002085318520938E3030938F3080932C3098
:101B90000895CF92DF92EF92FF926A017B016091EC
:101BA0008E3070918F30625F7F4F0E94750441E0EC
:101BB000C701B6010E94C30AFF90EF90DF90CF905B
:101BC0000895CF92DF92EF92FF920F931F936801D7
:101BD0007901E0918E30F0918F3070684687578799
:101BE000608B718B60918E3070918F30625F7F4F10
:101BF0000E94540441E0C701B6010E94C30A1F912C
:101C00000F91FF90EF90DF90CF900895CF92DF92E9
:101C1000EF92FF92CF936A017B01C22F60918E30C9
:101C200070918F30625F7F4F0E945404CC2321F06B
:101C3000CC24CA94DC2C76014C2FC701B6010E943B
:101C4000C30ACF91FF90EF90DF90CF9008950F934C
:101C50001F93CF93DF93DC011796ED91FC911897BA
:101C6000C085D1858E01025F1F4FC8010E94B2045A
:101C700080912030811116C00C501109C8010E94BA
:101C8000B2048A8D90912C30981710F480932C30E8
:101C9000BBE08B9FC0011124B8018E599F4C0E945C
:101CA000540405C0B8018DE390E30E9454049A8D5A
:101CB000E0918E30F0918F30828D891720F481E091
:101CC0008093293001C080E0DF91CF911F910F9167
:101CD00008950F931F93CF93DF937068FC014083A7
:101CE000518362837383C085D1850E94B2048E01C3
:101CF0000E5F1F4FC8010E94B2048A8D90912C3054
:101D0000981710F480932C30FBE08F9FC0011124B2
:101D1000B8018E599F4C0E9454049A8DE0918E30E8
:101D2000F0918F30828D891718F481E080932930EB
:101D3000DF91CF911F910F91089520912830FC01E0
:101D4000208340912D3050912E3060912F30709132
:101D50003030418352836383748308958F929F92BE
:101D6000AF92BF92CF92DF92EF92FF920F931F93A9
:101D7000CF93DF93DB01F091A200FF93F87FF09304
:101D8000A200C0902D30D0902E30E0902F30F090F7
:101D90003030EC0109811A812B813C8146015701C9
:101DA000801A910AA20AB30A4D915D916D917C91BE
:101DB00013974F3FDFEF5D076D077D0721F1EC01C2
:101DC000F881E0912830FE1729F0C016D106E2060E
:101DD000F306D8F484169506A606B70668F44819E3
:101DE00059096A097B094D935D936D937C93139711
:101DF0000E949D0E80E00AC01D921D921D921C92B1
:101E0000139781E003C080E001C081E0FF91F0936F
:101E1000A200DF91CF911F910F91FF90EF90DF9083
:101E2000CF90BF90AF909F908F90089581E0809366
:101E30002930089580912B30882331F08091203013
:101E4000811104C082E0089581E0089580E0089542
:101E5000CF92DF92EF92FF92E0918E30F0918F302F
:101E60006685778580899189E0918E30F0918F30F9
:101E7000A0918E30B0918F305A962C91C12CD12CDC
:101E800076016894C2F8C21AD108E108F108C68642
:101E9000D786E08AF18AFF90EF90DF90CF90089587
:101EA000DC01E0919A30F0919B30808191E08111CA
:101EB00090E09C93911108C00780F085E02D60812F
:101EC000718182819381089560E070E0CB01089573
:101ED000CF92DF92EF92FF920F931F93FC01428308
:101EE00053836483758382879387041715072607B6
:101EF0003707C0F00C191D092E093F098685978503
:101F0000A089B189081719072A073B0700F5BF0107
:101F10006E5F7F4F80919830909199300E94750448
:101F200080E018C00C151D052E053F0528F44C1542
:101F30005D056E057F0568F4BF016E5F7F4F809180
:101F40009A3090919B300E94750480E003C081E03C
:101F500001C081E01F910F91FF90EF90DF90CF9033
:101F60000895F091A200FF93F87FF093A200809172
:101F7000963090919730892BE9F487EA90E30E949C
:101F80003F048CE990E30E943F0487EA90E380934A
:101F90009A3090939B308CE990E3809398309093A3
:101FA000993040E069E085E00E94B5078093963063
:101FB00090939730FF91F093A2000895EF92FF92D3
:101FC0000F930E94B10F8091963090919730892B9A
:101FD00091F00F2EF4E9EF2EF0E3FF2EF02D03E049
:101FE00020E030E048EC50E069E070E28CE492E1FF
:101FF0000E94430B01C080E00F91FF90EF90089585
:102000008F929F92AF92BF92CF92DF92EF92FF9208
:102010000F931F93CF93DF93CDB7DEB72997CDBF33
:10202000DEBFE0919630F0919730309789F1698367
:102030002A833B834C835D838E839F836630FCF4CD
:102040000E941A0F823069F400E0A7019601BE01D8
:102050006F5F7F4F80919630909197300E94DF079D
:1020600018C000E020E030E0A901BE016F5F7F4FA3
:1020700080919630909197300E94DF070AC020E04F
:10208000A801BE016F5F7F4FCF010E947E0801C093
:1020900080E02996CDBFDEBFDF91CF911F910F91D8
:1020A000FF90EF90DF90CF90BF90AF909F908F9078
:1020B00008958F929F92AF92BF92CF92DF92EF924C
:1020C000FF920F931F93CF93DF933CC00780F0855F
:1020D000E02D80809180A280B380C085D1858E0163
:1020E0000E5F1F4FC8010E94B204ED89FE89CE0128
:1020F00019958A89813031F58E859F85A889B9899E
:10210000880D991DAA1DBB1D88169906AA06BB0637
:1021100070F48A839B83AC83BD83CA87DB87B80155
:1021200080919A3090919B300E9475040BC0C12C15
:10213000D12C760100E010E0A501940160E0CE0111
:102140000E940010E0919A30F0919B3080818111C3
:10215000BDCF809198309091993080939A30909330
:102160009B30E0939830F0939930DF91CF911F919D
:102170000F91FF90EF90DF90CF90BF90AF909F9026
:102180008F900895CF92DF92EF92FF92CF93DF93DB
:10219000EC010E94D80B6B017C01809190309091F2
:1021A0009130A0919230B0919330C816D906EA06CA
:1021B000FB0628F40E94591081E0888301C0188230
:1021C000C0929030D0929130E0929230F092933061
:1021D000C701B601DF91CF91FF90EF90DF90CF90D4
:1021E00008954F925F926F927F928F929F92AF92DB
:1021F000BF92CF92DF92EF92FF920F931F93CF93F4
:10220000DF934B015C0129013A01E0919A30F09192
:102210009B300780F085E02DC085D185CE010296E8
:102220000E94B2048A898130E1F44E855F85688915
:102230007989480D591D6A1D7B1D75016401930143
:102240008201CE010E94680F882359F0C12CD12C45
:10225000760100E010E0A501940160E0CE010E944B
:102260000010ED89FE89CE011995DF91CF911F9164
:102270000F91FF90EF90DF90CF90BF90AF909F9025
:102280008F907F906F905F904F9008958F929F9264
:10229000AF92BF92CF92DF92EF92FF921F93CF93B4
:1022A000DF931F92CDB7DEB76B017C01142F0E9424
:1022B000D20BCE0101960E94C2104B015C018981B4
:1022C00081112EC011110EC08C149D04AE04BF04E8
:1022D00048F00E94BA0CA5019401C701B6010E9402
:1022E000F11020C0112341F0E0919830F091993025
:1022F000808111E0811110E0B701A6014819590948
:102300006A097B09212F80919630909197300E9425
:102310006E090E94BA0C811105C00E94AA0502C074
:102320000E94BA0C0F90DF91CF911F91FF90EF9018
:10233000DF90CF90BF90AF909F908F900895AF9215
:10234000BF92CF92DF92EF92FF920F931F93CF93A2
:10235000DF93CDB7DEB72A97CDBFDEBF81C08981BD
:1023600088234CF4EA81FB814E815F816885798501
:102370008C819D811995898188230CF471C0AE8070
:10238000BF80D5011C968D919C911D97892B21F0C2
:10239000C50102960E94B204CE010A960E94C210A4
:1023A0008B019C018981082E000C990BAA0BBB0B99
:1023B0008A30910508F054C0FC018827E250FF4F95
:1023C0008F4F0C94A01DCA80DB80EC80FD80F5014E
:1023D00046855785608971894C0D5D1D6E1D7F1D79
:1023E000C5010E94680F8823D9F1D5015596ED915A
:1023F000FC915697C5011995F5018289813081F5C7
:102400004A815B816C817D8186859785A089B189B0
:102410009A01AB01280F391F4A1F5B1FC12CD12C19
:10242000760100E010E060E0C5010E94001018C0D5
:102430004A815B816C817D81D5011E964D935D93B0
:102440006D937C935197400F511F621F731F68015A
:102450007901C5010E94680F03C0C5010E943E04B6
:1024600020E030E0A901BE016F5F7F4F8091963080
:10247000909197300E94C308811171CF2A96CDBFE9
:10248000DEBFDF91CF911F910F91FF90EF90DF9012
:10249000CF90BF90AF900895CF93DF931F92CDB7A9
:1024A000DEB7CE0101960E94500F49810E9446116D
:1024B0000E949F11F6CF0F931F93CF93DF93CDB759
:1024C000DEB72997CDBFDEBFEEEFE9838A839B831A
:1024D0006C837D832E833F834887598720E0A80142
:1024E000BE016F5F7F4F80919630909197300E9430
:1024F0007E082996CDBFDEBFDF91CF911F910F914E
:102500000895E0E5F0E08081816080838091510052
:1025100080FFFCCF80E00E9447028EE10E943702DC
:1025200060E080E00E94410243E060E080E40E94BD
:102530002802E0E5F0E0808188608083809151008E
:1025400083FFFCCF64E080EC0E943202E0E5F0E023
:1025500080818061808360E080E00E944102809100
:10256000510084FFFCCF84E00E94470287E00E9474
:10257000370208950F2E812C912CF0E8AF2EFFE347
:10258000BF2EF02DC12CD12C7601D701C601880FAA
:10259000991FAA1FBB1FBC01CD016F5F7F4F8F4FDB
:1025A0009F4F0E940D1C9B01AC01C501B4010E940C
:1025B000651B20E030E040E850E40E94C41C2091FC
:1025C000B6303091B7304091B8305091B9300E9458
:1025D000F41A6093B6307093B7308093B83090930C
:1025E000B930B7FAB094B7F8B0948FEFC81AD80AD8
:1025F000E80AF80A6AE070E080E090E00E942A0DA4
:10260000C4CF8091B2309091B330A091B430B091EA
:10261000B5308091B6309091B730A091B830B0917C
:10262000B9308091002090910120A0910220B091BA
:1026300003206AE070E080E090E00E942A0DE1CF84
:10264000812C912C54010F2EC12CD12CF0E8EF2EAF
:10265000FFE3FF2EF02D20E030E040E050E4C50124
:10266000B4010E94F41A0E94371D4B015C0120E066
:1026700030E040E05FE30E94C41C9B01AC01C70155
:10268000B6010E94C41C6B017C019B01AC0160E09F
:1026900070E080E090E40E94651B6093B23070931C
:1026A000B3308093B4309093B5306AE070E080E04E
:1026B00090E00E942A0DCFCFCF93DF93CDB7DEB746
:1026C000EC97CDBFDEBF6091B2307091B330809196
:1026D000B4309091B53020E836E948E15BE40E94DF
:1026E000C41C0E94D71BCB016FEF7FE70E948C1D9B
:1026F000282F392F6091B2307091B3308091B4306F
:102700009091B5303F932F930E94DE1B9F938F9340
:102710007F936F9381E190E29F938F938E010F5F80
:102720001F4F1F930F930E94F11D8091B63090911F
:10273000B730A091B830B091B930BF93AF939F93A9
:102740008F938DE190E29F938F936E0185E1C80E88
:10275000D11CDF92CF920E94F11D809100209091B8
:102760000120A0910220B0910320BF93AF939F93CB
:102770008F9385E290E29F938F937E0199E2E90E19
:10278000F11CFF92EF920E94F11D1F930F930FE235
:1027900010E21F930F931F921F921F921F920E948D
:1027A000E11ACDBFDEBFDF92CF921F930F931F922E
:1027B0001F921F9281E08F930E94E11AFF92EF9285
:1027C0001F930F931F921F921F9283E08F930E947B
:1027D000E11A6AE070E080E090E00E942A0DCDBF2F
:1027E000DEBF71CFCF93DF93CDB7DEB72C97CDBFD0
:1027F000DEBF0E944D010E94580180E00E94FD0151
:10280000813011F580E48F9389E48F938FE08F936B
:102810008BED8F9386E290E29F938F938E010F5FF3
:102820001F4F1F930F930E94F11D1F930F938FE271
:1028300090E29F938F931F921F921F9281E08F933C
:102840000E94E11ACDBFDEBF81E00E94FD0182E05F
:102850000E94FD0183E00E94FD0180E00E94FD01D5
:1028600081E00E94FD0182E00E94FD0183E00E9460
:10287000FD016AE070E080E090E00E942A0DBBCF8D
:102880000895EF92FF920F930E9481120E945519B2
:10289000E12CF12C03E020E030E04EE551E062E372
:1028A00070E282EF93E10E94430B02E020E030E00F
:1028B00042ED50E06EE370E28AEB92E10E94430B3E
:1028C00020E030E042ED50E06AE470E280E293E123
:1028D0000E94430B03E020E030E042ED50E067E56A
:1028E00070E281E093E10E94430B02E020E030E0DF
:1028F00042ED50E061E670E28CE593E10E94430B0B
:102900000E94970B80E090E00F91FF90EF90089568
:10291000CF92DF92EF92FF920F931F93CF93DF93AB
:102920008C01FC01C080D180E280F380C0E0D0E067
:102930000BC020E030E040E251E4C701B6010E9444
:10294000651B6B017C01219620E030E040E85FE3ED
:10295000C701B6010E94BF1C88235CF70BC020E0B2
:1029600030E040E251E4C701B6010E94C41C6B0193
:102970007C0121972DEC3CEC4CEC5DE3C701B601EA
:102980000E94601B88235CF3F801C082D182E2823E
:10299000F382CE01DF91CF911F910F91FF90EF90C5
:1029A000DF90CF9008954F925F926F927F928F92B7
:1029B0009F92AF92BF92CF92DF92EF92FF920F93CE
:1029C0001F93CF93DF9300D01F92CDB7DEB75C018A
:1029D000E42EF52E062F172F49835A836B837C83B1
:1029E00020E030E0A9016E2D7F2D802F912F0E94D5
:1029F000601B811105C080E3F50180831182B9C09D
:102A000020E030E0A9016E2D7F2D802F912F0E94B4
:102A1000601B88237CF48DE2F501808389819A8193
:102A2000AB81BC81B05889839A83AB83BC83C501D9
:102A300001965C01CE0101960E9488147C0100E0A1
:102A400010E038C020E030E040E251E469817A8152
:102A50008B819C810E94C41C0E94D71B2B013C01CE
:102A600065019FEFC91AD90A80E3840DF5018083BF
:102A700020E030E040E251E469817A818B819C81E1
:102A80000E94C41C4B015C01B201550C880B990BD0
:102A90000E940F1C9B01AC01C501B4010E94F31AF6
:102AA00069837A838B839C830F5F1F4FF1E0EF1A5A
:102AB000F10856011E141F042CF20115110531F402
:102AC00080E3F5018083C50101965C0165019FEFFC
:102AD000C91AD90A8EE2F50180830BC080E3F601A2
:102AE0008083F1E0EF1AF1080F5F1F4FC6010196D6
:102AF0006C01FF20CCF50430110584F335C020E0D3
:102B000030E040E251E469817A818B819C810E94AE
:102B1000C41C0E94D71B4B015C0176019FEFE91A90
:102B2000F90A80E3880DF601808320E030E040E27E
:102B300051E469817A818B819C810E94C41C2B01A4
:102B40003C01B401990C880B990B0E940F1C9B014E
:102B5000AC01C301B2010E94F31A69837A838B83AB
:102B60009C830F5F1F4F67010430110544F2F6018B
:102B700010822496CDBFDEBFDF91CF911F910F91C0
:102B8000FF90EF90DF90CF90BF90AF909F908F908D
:102B90007F906F905F904F9008952F923F924F9249
:102BA0005F926F927F928F929F92AF92BF92CF92DD
:102BB000DF92EF92FF920F931F93CF93DF93CDB7E6
:102BC000DEB72897CDBFDEBF7C01C42ED52E062FE1
:102BD000172F49835A836B837C8320E030E0A9015F
:102BE0006C2D7D2D802F912F0E94601B811105C0BF
:102BF00080E3F70180831182A2C020E030E0A901C8
:102C00006C2D7D2D802F912F0E94601B88237CF4DA
:102C10008DE2F701808389819A81AB81BC81B058B4
:102C200089839A83AB83BC83C70101967C01CE0163
:102C300001960E9488145C0120E030E040E251E4FB
:102C400069817A818B819C810E94C41C0E94D71B60
:102C50002B013C0180E3840DF701808320E030E00C
:102C600040E251E469817A818B819C810E94C41C7D
:102C70006D837E838F839887B201550C880B990BE7
:102C80000E940F1C9B01AC016D817E818F81988514
:102C90000E94F31A69837A838B839C831501F1E088
:102CA0002F1A310887010E5F1F4F8EE2F7018183D3
:102CB000E12CF12C36C020E030E040E251E46981A3
:102CC0007A818B819C810E94C41C0E94D71B2B019E
:102CD0003C016801FFEFCF1ADF0A80E3840DF801A1
:102CE000808320E030E040E251E469817A818B8189
:102CF0009C810E94C41C4B015C01B201550C880BE5
:102D0000990B0E940F1C9B01AC01C501B4010E94EC
:102D1000F31A69837A838B839C83FFEFEF1AFF0A90
:102D2000860184E0E816F10434F2B8016F5F7F4F4A
:102D300085E6F80180834AE0C1010E94CC1D2896F7
:102D4000CDBFDEBFDF91CF911F910F91FF90EF902C
:102D5000DF90CF90BF90AF909F908F907F906F90BB
:102D60005F904F903F902F9008956F927F928F9237
:102D70009F92BF92CF92DF92EF92FF920F931F9399
:102D8000CF93DF93CDB7DEB76697CDBFDEBFB82E4A
:102D90008B01DA01390180E090E005C0FC01E253CB
:102DA000FF4C1082019684319105C4F380E090E0DD
:102DB00005C0FC01E654FF4C108201968431910558
:102DC000C4F3E12CF12C14C1853209F001C16D016D
:102DD00082E0C80ED11C11968C91853609F4CDC0C5
:102DE00038F48336C1F008F049C0853251F0FFC095
:102DF0008337F9F0883709F46BC0863609F0F7C0DD
:102E000091C0D701A654BF4C85E28C939FEFE91A7D
:102E1000F90AD601EDC0F3018081D701A654BF4C59
:102E20008C93FFEFEF1AFF0AC30102963C01D60113
:102E3000DFC093012E5F3F4FF301A081B18180E09D
:102E400090E00DC0B701680F791FAD01480F591F01
:102E5000FA014081FB01E654FF4C40830196FD01DD
:102E600001900020E9F73197EA1BFB0B8E179F07B3
:102E700048F3EE0EFF1E3901D601BAC04301F2E05D
:102E80008F0E911C4AE06EEC70E3F301808191811A
:102E90000E94CC1D80E090E00BC0F701E80FF91F05
:102EA000DC01A253BF4C2C91E654FF4C20830196C9
:102EB000EEECF0E301900020E9F73197EE5CF0438F
:102EC0008E179F0750F3EE0EFF1E3401D60190C0FF
:102ED0004301F2E08F0E911C40E16EEC70E3F301D0
:102EE000808191810E94CC1D80E090E00BC0F701B1
:102EF000E80FF91FDC01A253BF4C2C91E654FF4CA4
:102F000020830196EEECF0E301900020E9F7319781
:102F1000EE5CF0438E179F0750F3EE0EFF1E340158
:102F2000D60166C04301F4E08F0E911CF30140818D
:102F30005181628173818EEC90E30E94D31480E012
:102F400090E00BC0F701E80FF91FDC01A253BF4C62
:102F50002C91E654FF4C20830196EEECF0E30190B7
:102F60000020E9F73197EE5CF0438E179F0750F38E
:102F7000EE0EFF1E3401D6013BC04301F4E08F0E7C
:102F8000911CF30140815181628173818EEC90E349
:102F90000E94CD1580E090E00BC0F701E80FF91F0B
:102FA000DC01A253BF4C2C91E654FF4C20830196C8
:102FB000EEECF0E301900020E9F73197EE5CF0438E
:102FC0008E179F0750F3EE0EFF1E3401D60110C07E
:102FD000D701A654BF4C8C938A3021F4D701A65454
:102FE000BF4C1C92FFEFEF1AFF0AD90101C0D601B6
:102FF0009D012F5F3F4F8C918111E6CEC701800F5D
:10300000911F44972CF084E190E07C01E01AF10AD2
:1030100080E090E008C0E3E0F0E0EC0FFD1FE80F77
:10302000F91F1082019684319105ACF3B9820A83AD
:1030300080E090E00CC0FC01E654FF4C2081E3E00E
:10304000F0E0EC0FFD1FE80FF91F208301968E15AD
:103050009F058CF300E02FEF3FEFA901BE016F5FEA
:103060007F4F8091E7309091E8300E94DF07C701E1
:103070006696CDBFDEBFDF91CF911F910F91FF907C
:10308000EF90DF90CF90BF909F908F907F906F9048
:1030900008951F920F920FB60F9211240BB60F9244
:1030A0002F933F934F935F936F937F938F939F9350
:1030B000AF93BF93EF93FF93CF93DF931F92CDB75F
:1030C000DEB719829E012F5F3F4F41E050E060E084
:1030D00070E08091E9309091EA300E940B0460E04A
:1030E00080E09BE00E945C021092060B0F90DF9143
:1030F000CF91FF91EF91BF91AF919F918F917F9170
:103100006F915F914F913F912F910F900BBE0F9058
:103110000FBE0F901F901895CF92DF92EF92FF9203
:103120000F936B017C0182E0C816D104E104F10425
:1031300028F4C12CD12C76016894C1F8E0E0FBE0C2
:1031400081E0868310A211A260E080E09BE00E94F3
:1031500062028EEFC8168FEFD806E104F10470F416
:10316000F694E794D794C794C092260BD092270B7D
:1031700065E080E09BE00E945C0219C080E4C81614
:1031800082E4D8068FE0E806F10488F4689414F825
:10319000F694E794D794C7941694D1F7C092260B6F
:1031A000D092270B67E080E09BE00E945C020F2E2C
:1031B000F4EFCF2EDD24D394E12CF12CF02D00E0A0
:1031C00021E041E050E060E070E08091E9309091D2
:1031D000EA300E94B2020F91FF90EF90DF90CF9003
:1031E00008958295807FE0E0F6E09481282F2F609B
:1031F000922394839481892B84830895882321F0DA
:1032000081E080936506089581E0809366060895C5
:10321000882321F082E080936506089582E0809300
:1032200066060895882321F084E08093650608955A
:1032300084E080936606089581E00E94121961E09F
:1032400070E080E090E00E948C1880E00E941219EB
:103250000895CF93C82F82958F700E94F11880E057
:103260000E94FE1880E00E9408190E941C198C2FF1
:103270008F700E94F1180E941C19CF910895CF936E
:10328000C82F82958F700E94F11881E00E94FE186D
:1032900080E00E9408190E941C198C2F8F700E94D8
:1032A000F1180E941C19CF910895EF92FF920F938D
:1032B000E0E0F6E080E1818380E2818380E4818345
:1032C00080E88183A0E6B6E081E011968C931197A7
:1032D00082E011968C93119784E011968C9311974C
:1032E00084818F70848314968C911497887F1496B0
:1032F0008C9340E066E188E00E94B5078093E73058
:103300009093E8300E949D028093E9309093EA30D8
:10331000E12CF12C01E020E030E04EE551E06BE6DD
:1033200070E28DEE99E10E94430B0F91FF90EF90B8
:1033300008958130910579F01CF4892B39F019C07A
:103340008230910569F0039781F013C080E8860F01
:103350000E9429190EC080EC860F0E94291909C00D
:1033600084E9860F0E94291904C084ED860F0E940B
:10337000291967E270E080E090E00E948C180895BF
:103380000E943F196BE270E080E090E00E948C1890
:1033900008950F931F93CF93DF938C01C0E0D0E08B
:1033A00009C0F801EC0FFD1F8081882331F00E94D5
:1033B000C0192196C431D105A4F3DF91CF911F919B
:1033C0000F910895CF93DF93EA010E949919CE01DE
:1033D0000E94C919DF91CF910895CF93DF93CDB7A4
:1033E000DEB7C656D109CDBFDEBF80E090E019C080
:1033F00044E1489FF001499FF00D112441E050E065
:103400004C0F5D1FE40FF51FE20FF31F40E24083F6
:103410002F5F3F4F02C020E030E02431310544F3FC
:10342000019684309105BCF360E47CE980E090E093
:103430000E948C1883E00E94F11868E873E180E034
:1034400090E00E948C180E941C1960EA70E080E0F5
:1034500090E00E948C180E941C1960EA70E080E0E5
:1034600090E00E948C180E941C1960EA70E080E0D5
:1034700090E00E948C1882E00E94F1180E941C19B2
:1034800088E20E94291980E10E9429198CE00E949B
:10349000291986E00E94291968EC70E080E090E02C
:1034A0000E942A0D40E050E0BA018091E9309091ED
:1034B000EA300E945903672B682B692B09F45FC01F
:1034C00042E050E060E070E08091E9309091EA30B5
:1034D0000E94590340E050E019C024E1249FF0010C
:1034E000259FF00D112421E030E02C0F3D1FE20F4D
:1034F000F31FE80FF91F20E22083019602C080E04D
:1035000090E0843191054CF34F5F5F4F443051059B
:10351000B4F335C02FEF3FEFA901BE016F5A7F4FC3
:103520008091E7309091E8300E94C308882339F1F8
:1035300012C062964FAD6297E1E0F0E0EC0FFD1F24
:1035400074E1479FE00DF11D1124E80FF91F60831E
:103550002F5F3F4F02C020E030E063968FAD63974E
:10356000F901E80FF11DCF0174974CF4E1E5F0E0AB
:10357000EC0FFD1FE20FF31F62816111DACF809122
:10358000E7309091E8300E9462098111C3CF00E0DA
:1035900010E013C084E1809FA001819F500D112491
:1035A00021E030E02C0F3D1F420F531F60E070E020
:1035B000C8010E94E2190F5F1F4F0430110554F338
:1035C0006BCFCF93DF93CDB7DEB79E01245F3F4F24
:1035D0004A855B85688579858E819F810E94B516B5
:1035E000DF91CF9108955058BB27AA270E940B1B4B
:1035F0000C94851C0E94771C38F00E947E1C20F0E1
:1036000039F49F3F19F426F40C94741C0EF4E095E1
:10361000E7FB0C946E1CE92F0E94961C58F3BA1716
:10362000620773078407950720F079F4A6F50C94D8
:10363000B81C0EF4E0950B2EBA2FA02D0B01B9018A
:1036400090010C01CA01A0011124FF27591B99F018
:10365000593F50F4503E68F11A16F040A22F232F24
:10366000342F4427585FF3CF469537952795A79574
:10367000F0405395C9F77EF41F16BA0B620B730B1B
:10368000840BBAF09150A1F0FF0FBB1F661F771F8C
:10369000881FC2F70EC0BA0F621F731F841F48F441
:1036A000879577956795B795F7959E3F08F0B0CFCA
:1036B0009395880F08F09927EE0F979587950895B1
:1036C0000E944A1C08F481E008950E94791B0C9422
:1036D000851C0E947E1C58F00E94771C40F029F443
:1036E0005F3F29F00C946E1C51110C94B91C0C9482
:1036F000741C0E94961C68F39923B1F3552391F32F
:10370000951B550BBB27AA2762177307840738F050
:103710009F5F5F4F220F331F441FAA1FA9F335D0AD
:103720000E2E3AF0E0E832D091505040E695001C61
:10373000CAF72BD0FE2F29D0660F771F881FBB1F1B
:10374000261737074807AB07B0E809F0BB0B802DF9
:10375000BF01FF2793585F4F3AF09E3F510578F025
:103760000C946E1C0C94B91C5F3FE4F3983ED4F3A8
:10377000869577956795B795F7959F5FC9F7880FF9
:10378000911D9695879597F90895E1E0660F771F4B
:10379000881FBB1F621773078407BA0720F0621BDC
:1037A000730B840BBA0BEE1F88F7E09508950E9407
:1037B000DE1B6894B1110C94B91C08950E949E1CE4
:1037C00088F09F5798F0B92F9927B751B0F0E1F0E2
:1037D000660F771F881F991F1AF0BA95C9F714C092
:1037E000B13091F00E94B81CB1E008950C94B81C5F
:1037F000672F782F8827B85F39F0B93FCCF38695CB
:1038000077956795B395D9F73EF490958095709527
:1038100061957F4F8F4F9F4F0895E89409C097FBA4
:103820003EF490958095709561957F4F8F4F9F4F97
:103830009923A9F0F92F96E9BB279395F6958795DB
:1038400077956795B795F111F8CFFAF4BB0F11F49E
:1038500060FF1BC06F5F7F4F8F4F9F4F16C0882345
:1038600011F096E911C0772321F09EE8872F762F7B
:1038700005C0662371F096E8862F70E060E02AF0BC
:103880009A95660F771F881FDAF7880F96958795A8
:1038900097F90895990F0008550FAA0BE0E8FEEF7D
:1038A00016161706E807F907C0F012161306E40704
:1038B000F50798F0621B730B840B950B39F40A26FD
:1038C00061F0232B242B252B21F408950A2609F4DB
:1038D000A140A6958FEF811D811D089597F99F67DF
:1038E00080E870E060E008959FEF80EC0895002488
:1038F0000A941616170618060906089500240A9455
:1039000012161306140605060895092E0394000CDA
:1039100011F4882352F0BB0F40F4BF2B11F460FF69
:1039200004C06F5F7F4F8F4F9F4F089557FD905892
:10393000440F551F59F05F3F71F04795880F97FB73
:10394000991F61F09F3F79F087950895121613062D
:103950001406551FF2CF4695F1DF08C0161617065C
:103960001806991FF1CF8695710561050894089591
:10397000E894BB2766277727CB0197F908950E9423
:103980004A1C08F48FEF08950E94D71C0C94851CE4
:103990000E94771C38F00E947E1C20F0952311F0C5
:1039A0000C946E1C0C94741C11240C94B91C0E9471
:1039B000961C70F3959FC1F3950F50E0551F629FC1
:1039C000F001729FBB27F00DB11D639FAA27F00D78
:1039D000B11DAA1F649F6627B00DA11D661F829F9F
:1039E0002227B00DA11D621F739FB00DA11D621F84
:1039F000839FA00D611D221F749F3327A00D611DA1
:103A0000231F849F600D211D822F762F6A2F112482
:103A10009F5750409AF0F1F088234AF0EE0FFF1FB5
:103A2000BB1F661F771F881F91505040A9F79E3F0C
:103A3000510580F00C946E1C0C94B91C5F3FE4F3AC
:103A4000983ED4F3869577956795B795F795E79562
:103A50009F5FC1F7FE2B880F911D9695879597F96B
:103A6000089519F416F40C94741C0C94771D0E949C
:103A70009E1CB8F39923C9F3B6F39F57550B87FFE4
:103A80000E94851D0024A0E640EA900180585695CA
:103A9000979528F4805C660F771F881F20F0261703
:103AA0003707480730F4621B730B840B2029312938
:103AB0004A2BA69517940794202531254A2758F7B5
:103AC000660F771F881F20F026173707480730F446
:103AD000620B730B840B200D311D411DA09581F7E6
:103AE000B901842F9158880F9695879508959F3F27
:103AF00031F0915020F4879577956795B795880FA9
:103B0000911D9695879597F9089591505040660FAD
:103B1000771F881FD2F7089597FB072E16F400949D
:103B200007D077FD09D00E94A81D07FC05D03EF400
:103B3000909581959F4F0895709561957F4F089559
:103B4000EE0FFF1F881F8BBF0790F691E02D199491
:103B5000AA1BBB1B51E107C0AA1FBB1FA617B707B3
:103B600010F0A61BB70B881F991F5A95A9F78095CF
:103B70009095BC01CD010895FB01DC0102C00190CC
:103B80000D9241505040D8F70895DC0101C06D936B
:103B900041505040E0F70895BB274A3031F4992353
:103BA00022F4BDE2909581959F4F0C94D81DBB27C0
:103BB000FB015527AA27880F991FAA1FA41710F0E9
:103BC000A41B83955051B9F7A05DAA3308F0A95DF5
:103BD000A193009779F7B111B1931192CB010C9495
:103BE00034200F931F93CF93DF93CDB7DEB72E977B
:103BF000CDBFDEBF0E891F8986E08C8309831A83BF
:103C00008FEF9FE78D839E83AE01465E5F4F688D89
:103C1000798DCE0101960E941A1EEF81F885E00F82
:103C2000F11F10822E96CDBFDEBFDF91CF911F9185
:103C30000F9108952F923F924F925F926F927F92D1
:103C40008F929F92AF92BF92CF92DF92EF92FF92AC
:103C50000F931F93CF93DF93CDB7DEB72B97CDBFD5
:103C6000DEBF6C017B018A01FC0116821782838111
:103C700081FFCCC1CE0101963C01F6019381F70191
:103C800093FD859193FF81917F01882309F4BAC147
:103C9000853239F493FD859193FF81917F018532BF
:103CA00029F4B60190E00E944420E7CF912C212C0A
:103CB000312CFFE1F315D8F08B3279F038F48032F3
:103CC00079F08332A1F4232D20611DC08D3261F083
:103CD000803369F4232D216016C0832D8260382E35
:103CE000E32DE4603E2E2AC0F32DF8601DC037FCA2
:103CF0002DC020ED280F2A3040F08E32B9F436FC6A
:103D000081C1232D2064322E19C036FE06C08AE000
:103D1000989E200D1124922E11C0EAE02E9E200DB7
:103D20001124222EF32DF0623F2E08C08C3621F490
:103D3000832D8068382E02C0883641F4F70193FD48
:103D4000859193FF81917F018111B3CF982F9F7D42
:103D50009554933028F40C5F1F4F9FE399830DC057
:103D6000833631F0833771F0833509F059C021C0B3
:103D7000F801808189830E5F1F4F88248394912CE2
:103D8000530113C02801F2E04F0E511CF801A0802E
:103D9000B18036FE03C0692D70E002C06FEF7FEF87
:103DA000C5010E9429204C018201F32DFF773F2E8F
:103DB00016C0280122E0420E511CF801A080B180FB
:103DC00036FE03C0692D70E002C06FEF7FEFC501C2
:103DD0000E941E204C01F32DF0683F2E820133FC1F
:103DE0001BC0822D90E088169906B0F4B60180E2DF
:103DF00090E00E9444202A94F4CFF50137FC85918D
:103E000037FE81915F01B60190E00E9444202110AD
:103E10002A9421E0821A91088114910471F7E8C074
:103E2000843611F0893641F5F80137FE07C060810C
:103E30007181828193810C5F1F4F08C06081718105
:103E4000072E000C880B990B0E5F1F4FF32DFF768A
:103E50003F2E97FF09C090958095709561957F4F93
:103E60008F4F9F4FF0683F2E2AE030E0A3010E9461
:103E70008020882E861845C0853731F4232D2F7E6B
:103E8000B22E2AE030E025C0932D997FB92E8F36CF
:103E9000C1F018F4883579F0B5C0803719F088374B
:103EA00021F0B0C0E92FE061BE2EB4FE0DC0FB2DA5
:103EB000F460BF2E09C034FE0AC0292F2660B22E3E
:103EC00006C028E030E005C020E130E002C020E17B
:103ED00032E0F801B7FE07C0608171818281938171
:103EE0000C5F1F4F06C06081718180E090E00E5F23
:103EF0001F4FA3010E948020882E8618FB2DFF777C
:103F00003F2E36FE0DC0232D2E7FA22E891458F48D
:103F100034FE0BC032FC09C0832D8E7EA82E05C056
:103F2000B82CA32C03C0B82C01C0B92CA4FE0FC020
:103F3000FE01E80DF11D8081803321F49A2D997ED8
:103F4000A92E09C0A2FE06C0B394B39404C08A2D62
:103F5000867809F0B394A3FC11C0A0FE06C0B21489
:103F600088F4280C922C9B180EC0B21460F4B60191
:103F700080E290E00E944420B394F7CFB21418F48A
:103F80002B1802C0982C212CA4FE10C0B60180E38F
:103F900090E00E944420A2FE17C0A1FC03C088E765
:103FA00090E002C088E590E0B6010CC08A2D8678CA
:103FB00059F0A1FE02C08BE201C080E2A7FC8DE2B5
:103FC000B60190E00E944420891438F4B60180E3E1
:103FD00090E00E9444209A94F7CF8A94F301E80D70
:103FE000F11D8081B60190E00E9444208110F5CF40
:103FF000222009F442CEB60180E290E00E944420E3
:104000002A94F6CFF6018681978102C08FEF9FEF49
:104010002B96CDBFDEBFDF91CF911F910F91FF9007
:10402000EF90DF90CF90BF90AF909F908F907F9058
:104030006F905F904F903F902F900895FC010590F6
:10404000615070400110D8F7809590958E0F9F1F9A
:104050000895FC016150704001900110D8F78095DF
:1040600090958E0F9F1F0895DC01FC01672F7191C1
:104070007723E1F7329704C07C916D93708362914E
:10408000AE17BF07C8F308950F931F93CF93DF9325
:10409000FB01238121FD03C08FEF9FEF2CC022FF86
:1040A00016C046815781248135814217530744F455
:1040B000A081B1819D012F5F3F4F208331838C937D
:1040C000268137812F5F3F4F2683378314C08B01B2
:1040D000EC01FB010084F185E02D1995892BE1F6B7
:1040E000D80116968D919C911797019616968D93EF
:1040F0009C931797CE01DF91CF911F910F91089557
:10410000FA01AA27283051F1203181F1E8946F9308
:104110006E7F6E5F7F4F8F4F9F4FAF4FB1E03ED0AE
:10412000B4E03CD0670F781F891F9A1FA11D680F4C
:10413000791F8A1F911DA11D6A0F711D811D911D7F
:10414000A11D20D009F468943F912AE0269F1124F4
:104150003019305D3193DEF6CF010895462F477058
:10416000405D4193B3E00FD0C9F7F6CF462F4F70B3
:10417000405D4A3318F0495D31FD4052419302D011
:10418000A9F7EACFB4E0A6959795879577956795B7
:10419000BA95C9F700976105710508959B01AC01B7
:1041A0000A2E06945795479537952795BA95C9F7DE
:1041B000620F731F841F951FA01D0895F894FFCFF1
:1041C000DB0F494049444C4500546D7220537663DF
:1041D000005650493A2025692C253869004C504931
:1041E0003A202566005250493A20252E386600258F
:1041F0007300636F6E74726F6C5F74736B004C65E9
:1042000069626E697A5F74736B0076566965746172
:1042100050695F74736B0076436F6D705F74736B7E
:104220000076446973705F74736B006469737055D2
:064230007064617465007A
:00000001FF
