S01300004E59435F50495F43414C432E73726563BD
S11300000C941C010C9445010C9445010C9445017D
S11300100C9445010C9445010C9445010C94450144
S11300200C9445010C9445010C9445010C94450134
S11300300C9445010C9445010C940E060C94450156
S11300400C9445010C9445010C9445010C94450114
S11300500C9445010C9445010C9445010C94450104
S11300600C9445010C9445010C9445010C944501F4
S11300700C9445010C9445010C9445010C944501E4
S11300800C9445010C9445010C9445010C944501D4
S11300900C9445010C9445010C9445010C944501C4
S11300A00C9445010C9445010C9445010C944501B4
S11300B00C9445010C9445010C9445010C944501A4
S11300C00C9445010C9445010C9445010C94450194
S11300D00C9445010C9445010C9445010C94450184
S11300E00C9445010C9445010C9445010C94450174
S11300F00C9445010C9445010C9445010C94450164
S11301000C9445010C9445010C9445010C94450153
S11301100C9445010C9445010C9445010C94450143
S11301200C9445010C9445010C9445010C94450133
S11301300C9445010C9445010C9445010C94450123
S11301400C9445010C9445010C9445010C94450113
S11301500C9445010C9445010C9445010C94450103
S11301600C9445010C9445010C9445010C944501F3
S11301700C9445010C9445010C9445010C944501E3
S11301800C9445010C9445010C9445010C944501D3
S11301900C9445010C9445010C9445010C944501C3
S11301A00C9445010C9445010C9445010C944501B3
S11301B00C9418130C9445010C9445010C944501BE
S11301C00C9445010C9445010C9445010C94450193
S11301D00C9445010C9445010C9445010C94450183
S11301E00C9445010C9445010C9445010C94450173
S11301F00C9445010C9445010C944501C711C71199
S1130200C7111412FC111112C711C7111412FC11D9
S11302100C94DF120C94BC140C941E0B0C94FC1163
S11302200C9414120C9430120C949E120C94C7115A
S11302300C9411120C94EC0311241FBECFEFCDBF0C
S1130240DFE3DEBF00E00CBFE9E8FCE28AEA90E409
S11302508193E030F907E0F310E2A0E0B0E2E8E4D3
S1130260FFE200E00BBF02C007900D92A832B10775
S1130270D9F72CE2A8E2B0E201C01D92A938B20776
S1130280E1F70E94F1120C94A2170C940000E0EA2A
S1130290F6E080E1828380E2828380E4828380E8E6
S11302A0828308958091A80684FD0EC080912E203B
S11302B090912F2080362AEE9207E8F401968093DD
S11302C02E2090932F2017C080912E2090912F20C4
S11302D08B30910548F0C39718F01092802C07C01A
S11302E081E08093802C03C082E08093802C109264
S11302F02E2010922F208091A80685FD0EC080919B
S11303002C2090912D2080362AEE9207E8F4019655
S113031080932C2090932D2017C080912C209091B5
S11303202D208B30910548F0C39718F01092812C42
S113033007C081E08093812C03C082E08093812CEC
S113034010922C2010922D208091A80686FD0EC0BC
S113035080912A2090912B2080362AEE9207E8F48F
S1130360019680932A2090932B2017C080912A20F5
S113037090912B208B30910548F0C39718F0109280
S1130380822C07C081E08093822C03C082E080939A
S1130390822C10922A2010922B208091A806882368
S11303A074F0809128209091292080362AEE9207BB
S11303B0E8F4019680932820909329200895809151
S11303C02820909129208B30910548F0C39718F08C
S11303D01092832C07C081E08093832C03C082E0B9
S11303E08093832C109228201092292008950F9333
S11303F0CF93DF931F92CDB7DEB72FB72983F8943D
S11304001BBEFC0108ED04BF608389818FBF0F9080
S1130410DF91CF910F910895662311F090E201C00E
S113042090E0892B482B4093520008956F71862BDE
S1130430809355000895E0E5F0E09081282F209501
S113044092239083908189230895682B81E490E01E
S11304500E94F70108950F931F93CF93C82F00E4D0
S113046010E0F8016081687F682B80E490E00E94CE
S1130470F701F80180818C23CF911F910F9108958A
S1130480FC019081907F692B60830895FC01918128
S1130490987F692B61830895FC0196819C7F692B69
S11304A066830895000088ED84BF81E0809379001D
S11304B008950E94520208958BE20E945902089501
S11304C00F9301110CC0DC01CB0182239323A423DD
S11304D0B523892B8A2B8B2B79F480E010C0DC01A7
S11304E0CB0182239323A423B523281739074A0772
S11304F05B0721F080E003C081E001C081E00F913F
S11305000895CF93DF9380E190E00E94FC03EC0117
S1130510009741F0FC011192119211921192CF01B6
S11305200E942304CE01DF91CF9108952F923F9230
S11305304F925F926F927F928F929F92AF92BF92EF
S1130540CF92DF92EF92FF920F931F93CF93DF939B
S1130550EC014A015B01622E702E0E94B60B2880CA
S113056039804A805B80A5019401C201B1010E94D7
S113057060028823A1F0662089F1D501C401809529
S11305809095A095B09582219321A421B5218883CB
S11305909983AA83BB83C12CD12C760122C0C114B8
S11305A0D104E104F104E9F0611004C040E050E03A
S11305B0BA0104C040E050E060E071E07110746082
S11305C0482959296A297B2997018601CE01049675
S11305D00E94C50D212C312C210103C0C12CD12C2A
S11305E076010E949E0CCD28CE28CF2889F1811156
S11305F002C00E948E050E940C0F6B017C0191FDCC
S113060024C0F091A200FF93F87FF093A200C88069
S1130610D980EA80FB80072DA5019401C701B601AA
S11306200E946002882371F0662061F080949094A7
S1130630A094B0948C209D20AE20BF208882998203
S1130640AA82BB82FF91F093A200160127015524D0
S1130650C201B101DF91CF911F910F91FF90EF90F3
S1130660DF90CF90BF90AF909F908F907F906F90CE
S11306705F904F903F902F9008950F931F93F091A8
S1130680A200FF93F87FF093A200FC010081118186
S11306902281338140955095609570954023512374
S11306A0622373234083518362837383FF91F093A6
S11306B0A200C901B8011F910F9108954F925F9252
S11306C06F927F92AF92BF92CF92DF92EF92FF929E
S11306D00F931F93CF93DF93EC016A017B018C018D
S11306E0095F1F4F0E94B60BEB85FC8588819981B9
S11306F0AA81BB81C82AD92AEA2AFB2AC882D982BC
S1130700EA82FB82C12CD12C76013DC0A480B58045
S113071080819181A281B381AC01BD017727B2FDB3
S11307200EC0488059806A807B804422552266220C
S1130730772245284628472889F420E012C04880BB
S113074059806A807B804422552266227722441590
S113075055056605770521F020E003C021E001C0BE
S113076021E0222371F0B0FF04C0C42AD52AE62A6E
S1130770F72A488159816A817B817260CF010E9486
S11307804D0EEA2DFB2DE017F10709F0BFCFC09401
S1130790D094E094F09488819981AA81BB81C82285
S11307A0D922EA22FB22C882D982EA82FB820E94F1
S11307B09E0C688179818A819B81DF91CF911F9101
S11307C00F91FF90EF90DF90CF90BF90AF907F900C
S11307D06F905F904F9008950E945E0308950F9369
S11307E01F9389019A01AB01BC018CEE93E00E9436
S11307F03F121F910F910895CF93DF93EC010E9454
S1130800B60B2091302030913120C9018C0F9D1FEF
S1130810883B4BE0940758F42817390758F4E9014A
S1130820CE5CDF4D809330209093312005C0C0E032
S1130830D0E002C0C0E0D0E00E949E0CCE01DF9167
S1130840CF9108950895FC010396818392834FEF1D
S11308505FEFBA01438354836583768387839087EC
S11308608187928710820895FC0112861386089569
S1130870CF93DF939C01FB01DC011196CD91DC91B8
S11308801297C483D5838E819F81868397838E81BB
S11308909F81DC0114966D937C9315976E837F83FF
S11308A022873387F90180818F5F8083DF91CF9125
S11308B008950F931F93CF93DF93EB010881198160
S11308C02A813B810F3F4FEF14072407340721F49B
S11308D0FC01A185B28511C0DC01139601C0DF01C2
S11308E01496ED91FC911597408151816281738139
S11308F0041715072607370790F71496ED91FC9116
S11309001597EC83FD83C683D783AE83BF83149688
S1130910CD93DC9315978A879B87FC0120812F5FF9
S11309202083DF91CF911F910F910895CF93DF938F
S1130930FC01A285B385C481D581868197818E838C
S11309409F83C681D781848195818C839D831196F1
S11309508D919C911297E817F90731F4868197815C
S113096011968D939C931297128613868C918150C5
S11309708C938C91DF91CF91089583EF91E08093D4
S113098026089093270865E080E098E00E944002E2
S113099061E080E098E00E944C020895E0EAF0E013
S11309A082819281987F92830895CF930E94CE048E
S11309B0C82F0E94CE0BC093A200CF910895CF926E
S11309C0DF92EF92FF9231E1FC013083319722E212
S11309D020833197A3E3A0836B01E12CF12C3197A1
S11309E060833197D0823197E082319761E36083ED
S11309F0319760E86083319767E8608331971082AC
S1130A0031971082319762E06083319763E06083AD
S1130A10319764E06083319765E06083319766E0E5
S1130A206083319767E06083319768E06083319732
S1130A3069E06083319760E1608331973083319757
S1130A4032E13083319733E13083319734E13083BD
S1130A50319735E13083319736E13083319737E18F
S1130A603083319738E13083319739E130833197DE
S1130A7030E23083319731E23083319720833197EC
S1130A8023E220836A01319740833197D0823197E2
S1130A9026E22083319727E22083319728E22083BE
S1130AA0319729E22083319720E320838897FF90B0
S1130AB0EF90DF90CF9008950E94BD04A091582C30
S1130AC0B091592C0D900DBE0D900EBEEF91DF919B
S1130AD0CF91BF91AF919F918F917F916F915F91D2
S1130AE04F913F912F911F910F91FF90EF90DF90C5
S1130AF0CF90BF90AF909F908F907F906F905F90BA
S1130B004F903F902F901F900F90FF91F093A20071
S1130B10FF91FFBFFF91089581E00895FF93FFB710
S1130B20FF93F091A200FF93F87FF093A2000F923D
S1130B301F9211242F923F924F925F926F927F9255
S1130B408F929F92AF92BF92CF92DF92EF92FF92D9
S1130B500F931F932F933F934F935F936F937F93C1
S1130B608F939F93AF93BF93CF93DF93EF93A09112
S1130B70582CB091592C0DB60D920EB60D920E94C0
S1130B802C0DA091582CB091592C0D900DBE0D90A8
S1130B900EBEEF91DF91CF91BF91AF919F918F9155
S1130BA07F916F915F914F913F912F911F910F9181
S1130BB0FF90EF90DF90CF90BF90AF909F908F9079
S1130BC07F906F905F904F903F902F901F900F9069
S1130BD0FF91F093A200FF91FFBFFF910895CF937F
S1130BE09091842C892B8093842C9091A000913037
S1130BF041F09091A000923021F09091A0009430A7
S1130C0059F4882349F00E94CE04C82F1092842CF2
S1130C100E942C0DC093A200CF910895FF93FFB7BB
S1130C20FF93F091A200FF93F87FF093A2000F923C
S1130C301F9211242F923F924F925F926F927F9254
S1130C408F929F92AF92BF92CF92DF92EF92FF92D8
S1130C500F931F932F933F934F935F936F937F93C0
S1130C608F939F93AF93BF93CF93DF93EF93A09111
S1130C70582CB091592C0DB60D920EB60D920E94BF
S1130C80D50481E00E94EF05A091582CB091592C15
S1130C900D900DBE0D900EBEEF91DF91CF91BF91DF
S1130CA0AF919F918F917F916F915F914F913F9100
S1130CB02F911F910F91FF90EF90DF90CF90BF90F5
S1130CC0AF909F908F907F906F905F904F903F90E8
S1130CD02F901F900F90FF91F093A200FF91FFBF00
S1130CE0FF911895F091A200FF93F87FF093A20072
S1130CF0FC01868D811102C081E001C080E0FF917A
S1130D00F093A2000895F091A200FF93F87FF0936E
S1130D10A200FC01268D878D281302C081E001C04A
S1130D2080E0FF91F093A20008950F931F93CF9357
S1130D30DF93EC01042F1E8D48A14423B9F1011166
S1130D4016C050E08C819D810E94921728A18C814D
S1130D509D81820F911D8C839D832A813B81821703
S1130D60930720F1888199818C839D831FC050E073
S1130D708E819F810E94921788A190E09195819520
S1130D8091092E813F81280F391F2E833F8348818B
S1130D9059812417350730F42A813B81820F931F30
S1130DA08E839F83023011F4111111501F5F1E8F27
S1130DB080E0DF91CF911F910F910895FC0140A134
S1130DC04423A9F050E026813781240F351F268360
S1130DD03783828193812817390720F0808191819C
S1130DE086839783CB01668177810E949217089549
S1130DF01F93CF93DF93EC01F091A200FF93F87F50
S1130E00F093A2001AA10BC08B89882351F0CE0164
S1130E1043960E940B0E81110E94FA0E1150111676
S1130E209CF38FEF8AA3FF91F093A200F091A200AC
S1130E30FF93F87FF093A20019A10BC08885882343
S1130E4051F0CE0108960E940B0E81110E94FA0EF9
S1130E50115011169CF38FEF89A3FF91F093A20018
S1130E60DF91CF911F910895CF93DF93EC01F0911F
S1130E70A200FF93F87FF093A200E881F9818F8D9F
S1130E8090E028A130E0829FA001839F500D929FA3
S1130E90500D11244E0F5F1F4A835B831E8EEC831B
S1130EA0FD830197289FA001299F500D389F500D65
S1130EB01124CF01840F951F8E839F838FEF89A305
S1130EC08AA361110CC08885882389F0CE01089615
S1130ED00E940B0E882359F00E948E0508C0CE0193
S1130EE008960E942304CE0143960E942304FF9196
S1130EF0F093A20081E0DF91CF910895FF920F93C8
S1130F001F93CF93DF93F22EE801611103C008838E
S1130F10198302C0488359838F8F68A361E0CE018F
S1130F200E943407FCA2DF91CF911F910F91FF9093
S1130F300895DF92EF92FF920F931F93CF93DF9365
S1130F40E82EF62ED42E662321F0869FC0011124AC
S1130F5002C080E090E085960E94FC03EC010097BB
S1130F6049F08C012D2DAC014B5D5F4F6F2D8E2D03
S1130F700E947E07CE01DF91CF911F910F91FF90C8
S1130F80EF90DF900895CF92DF92EF92FF920F934C
S1130F901F93CF93DF93CDB7DEB72997CDBFDEBFC5
S1130FA07C016B012E833F834887598710E0F091C1
S1130FB0A200FF93F87FF093A200F701968D878D2E
S1130FC0981710F00230D1F4402FB601C7010E94E7
S1130FD09506F7019389992349F0C70143960E9426
S1130FE00B0E882331F00E948E0503C081110E94EC
S1130FF08E05FF91F093A20081E058C08E819F81FD
S1131000A885B985892B8A2B8B2B29F4FF91F09322
S1131010A20080E04BC0111105C0CE0101960E94D0
S1131020810E11E0FF91F093A2000E94B60BF091A3
S1131030A200FF93F87FF093A200F70181A18F3FF4
S113104009F411A2F70182A18F3F09F412A2FF91C2
S1131050F093A200BE016A5F7F4FCE0101960E9409
S1131060920E81111DC0C7010E948306882391F04E
S11310704E815F8168857985C70108960E94AD0D10
S1131080C7010E94F8060E949E0C811190CF0E9415
S11310908E058DCFC7010E94F8060E949E0C87CF53
S11310A0C7010E94F8060E949E0C80E02996CDBFDD
S11310B0DEBFDF91CF911F910F91FF90EF90DF90F2
S11310C0CF900895AF92BF92CF92DF92FF920F9389
S11310D01F93CF93DF93EC016B015A01022F0E94FF
S11310E0CE04F82E9E8D8F8D981710F00230E1F407
S11310F01AA1402FB601CE010E9495061F3F81F42C
S11311008B89882399F0CE0143960E940B0E882385
S113111079F0A114B10471F081E0F50180830BC072
S11311201F5F1AA381E007C080E005C081E003C00F
S113113081E001C081E0F092A200DF91CF911F9184
S11311400F91FF90DF90CF90BF90AF900895CF9212
S1131150DF92EF92FF920F931F93CF93DF93CDB75C
S1131160DEB72997CDBFDEBF8C016B012E833F8391
S113117048875987E12CF091A200FF93F87FF09300
S1131180A200F801F68CFF20B1F0B601C8010E945C
S1131190DE06FA94F801F68E8085882339F0C801BA
S11311A008960E940B0E81110E948E05FF91F09308
S11311B0A20081E05FC08E819F81A885B985892BBB
S11311C08A2B8B2B29F4FF91F093A20080E052C06C
S11311D0E11006C0CE0101960E94810EEE24E39434
S11311E0FF91F093A2000E94B60BF091A200FF932E
S11311F0F87FF093A200F80181A18F3F09F411A2B6
S1131200F80182A18F3F09F412A2FF91F093A2008A
S1131210BE016A5F7F4FCE0101960E94920E81113A
S11312201DC0C8010E947206882391F04E815F811F
S113123068857985C80143960E94AD0DC8010E9456
S1131240F8060E949E0C811196CF0E948E0593CFC2
S1131250C8010E94F8060E949E0C8DCFC8010E940E
S1131260F8060E949E0CC8010E947206882309F4A5
S113127082CF80E02996CDBFDEBFDF91CF911F9151
S11312800F91FF90EF90DF90CF900895F091A2001E
S1131290FF93F87FF093A200FC01868DFF91F093F9
S11312A0A2000895CF93DF93EC01F091A200FF9385
S11312B0F87FF093A20089A18F3F09F419A28AA1B3
S11312C08F3F09F41AA2FF91F093A2008E8D811131
S11312D004C0CE0143960E94EA0DCE010E94F80696
S11312E0DF91CF910895E091142CF091152C808119
S11312F081110CC08FEF9FEFDC018093ED2B909355
S1131300EE2BA093EF2BB093F02B0895E091142CC7
S1131310F091152C0780F085E02D0084F185E02DF7
S113132082819381A481B5818093ED2B9093EE2BE0
S1131330A093EF2BB093F02B08952F923F924F92EE
S11313405F926F927F928F929F92AF92BF92CF9251
S1131350DF92EF920F931F93CF93DF93CDB7DEB756
S11313601C014B0129013A01A90165EA70E0F5016C
S1131370838D948D0E949B17F501838D948DF1E0EC
S11313804F1A5108480E591E20E00FC0822F90E0DA
S1131390F401E80FF91F3081D501A80FB91F5D963C
S11313A03C938081882319F02F5F283078F3F5016E
S11313B014A2F3E0FE1520F40F2EF3E0EF2EF02D2F
S11313C0F501E28EC50102960E943404C5010E9611
S11313D00E943404F501A286B38684E090E0A0E084
S11313E0B0E08E199109A109B10986879787A08B6E
S11313F0B18BA68AB78A17A210A611A612A613A6A5
S1131400A801B101C2010E94DF04F5018083918328
S1131410C114D10419F0F601A082B182DF91CF91F9
S11314201F910F91EF90DF90CF90BF90AF909F905E
S11314308F907F906F905F904F903F902F90089582
S1131440CF93C0E009C02BE0C29FC0011124845D8A
S1131450934D0E942304CF5FC430A8F381E29CE241
S11314600E94230486E19CE20E94230487E09CE21C
S11314700E9423048CEF9BE20E94230481E29CE2FD
S11314808093142C9093152C86E19CE28093122C6B
S11314909093132CCF910895CF93DF93EC01F091A7
S11314A0A200FF93F87FF093A2008091FB2B8F5F43
S11314B08093FB2B8091582C9091592C892B59F4B3
S11314C0C093582CD093592C8091FB2B813099F4E4
S11314D00E94200A10C08091F52B81110CC0E0916C
S11314E0582CF091592C928D8A8D891720F0C09335
S11314F0582CD093592C8091F12B8F5F8093F12B32
S11315008DA38A8D9091F62B981710F48093F62B67
S11315102BE0829FC0011124BE016E5F7F4F845D6A
S1131520934D0E943804FF91F093A2008091F52B13
S1131530882351F0E091582CF091592C928D8A8D8A
S1131540981710F40E948E05DF91CF9108958F9221
S11315509F92AF92BF92CF92DF92EF92FF92CF937E
S11315606B017C01C42F8090F72B9090F82BA090F6
S1131570F92BB090FA2B8091582C9091592C02960B
S11315800E9496048FEFC816D806E806F80669F498
S1131590CC2359F06091582C7091592C6E5F7F4F79
S11315A08CEF9BE20E9438043FC0C80CD91CEA1C93
S11315B0FB1CE091582CF091592CC282D382E48216
S11315C0F582C814D904EA04FB0468F46091582C29
S11315D07091592C8091122C9091132C6E5F7F4F37
S11315E00E94590421C06091582C7091592C80910B
S11315F0142C9091152C6E5F7F4F0E94590480919A
S1131600ED2B9091EE2BA091EF2BB091F02BC816FF
S1131610D906EA06FB0640F4C092ED2BD092EE2BDD
S1131620E092EF2BF092F02BCF91FF90EF90DF90B0
S1131630CF90BF90AF909F908F90089580912C2C65
S1131640823010F00E948E050E94F012F7CF2F9284
S11316503F924F925F926F927F928F929F92AF923E
S1131660BF92CF92DF92EF92FF920F931F93CF938B
S1131670DF933C011B015A012901CA010E94FC03AA
S11316806C01892B71F08CE290E00E94FC03EC0168
S1131690892B19F0CB8EDC8E06C0C6010E94220471
S11316A002C0C0E0D0E0209791F0950140E050E006
S11316B0812C912C5E016701E02E8201B101C301EE
S11316C00E949D09CE010E944C0A81E001C08FEF67
S11316D0DF91CF911F910F91FF90EF90DF90CF900A
S11316E0BF90AF909F908F907F906F905F904F903E
S11316F03F902F900895EF92FF920F930F2EFBEEE1
S1131700EF2EFBE2FF2EF02D00E020E030E048EC6D
S113171050E060E070E28EE19BE00E94270B813094
S113172011F40E94C20F8130E9F4E0EAF0E0828112
S1131730887F82838FEF9FEFDC018093ED2B909362
S1131740EE2BA093EF2BB093F02B81E08093F52B3D
S11317501092F72B1092F82B1092F92B1092FA2B6F
S11317600E945C050F91FF90EF9008958091EA2B01
S11317708F5F8093EA2B0895F091A200FF93F87F86
S1131780F093A2006091F72B7091F82B8091F92BC4
S11317909091FA2BFF91F093A2000895BF92CF92FB
S11317A0DF92EF92FF920F931F93CF93DF93809179
S11317B0EA2B8111A9C0C090F72BD090F82BE090B0
S11317C0F92BF090FA2B2FEFC21AD20AE20AF20A8E
S11317D0C092F72BD092F82BE092F92BF092FA2BCF
S11317E0C114D104E104F104B9F48091142C909152
S11317F0152C2091122C3091132C2093142C3093FF
S1131800152C8093122C9093132C8091F22B8F5FC4
S11318108093F22B0E9473098091ED2B9091EE2B13
S1131820A091EF2BB091F02BC816D906EA06FB065F
S113183028F4B12C5AC0BB24B39401C0B12CE0915C
S1131840142CF091152C808181110CC08FEF9FEF27
S1131850DC018093ED2B9093EE2BA093EF2BB093B0
S1131860F02B43C0E091142CF091152C0780F085E7
S1131870E02DC085D1858A819B81AC81BD81C8164C
S1131880D906EA06FB0648F48093ED2B9093EE2BE1
S1131890A093EF2BB093F02B28C08E010E5F1F4F47
S11318A0C8010E949604888D998D892B21F0CE0160
S11318B00E960E9496048A8D9091F62B981710F438
S11318C08093F62B2BE0829FC0011124B801845D24
S11318D0934D0E9438049A8DE091582CF091592C24
S11318E0828D981708F0A7CFAACFE091582CF091D9
S11318F0592CE28D8BE0E89FF0011124E45DF34D57
S11319008081823040F409C08091F42B8F5F8093F2
S1131910F42BB12C02C0BB24B3948091F32B882305
S113192011F0BB24B3948B2DDF91CF911F910F91B4
S1131930FF90EF90DF90CF90BF9008950F931F9387
S1131940CF93DF93F091A200FF93F87FF093A2006E
S11319508091EA2B81508093EA2B8091EA2B8111AC
S113196052C08091FB2B81112DC050C0E0910E2CF0
S1131970F0910F2CC085D185CE010E960E9496045D
S11319808E010E5F1F4FC8010E9496048A8D9091AC
S1131990F62B981710F48093F62B2BE0829FC0014E
S11319A01124B801845D934D0E9438049A8DE0910E
S11319B0582CF091592C828D981730F081E0809347
S11319C0F32B02C0C0E0D0E08091072C8111CECF70
S11319D0CD2B11F00E947309C091F42BCC2359F044
S11319E00E94CE0B882319F081E08093F32BC15021
S11319F0B9F71092F42B8091F32B882331F00E94D5
S1131A008E0581E003C080E001C080E0FF91F09387
S1131A10A200DF91CF911F910F910895CF92DF9291
S1131A20EF92FF926B017C01672B682B692B51F0BD
S1131A300E94B60B40E0C701B6010E94A70A0E94AB
S1131A409E0C01C080E0811102C00E948E05FF90AF
S1131A50EF90DF90CF9008958091EA2B882321F0B6
S1131A6081E08093F32B08951092F32BE091582C8E
S1131A70F091592C038CF48DE02D80819181A28109
S1131A80B381853A954AA54AB54AD9F484819581AA
S1131A90A681B781853A954AA54AB54A91F48085CD
S1131AA09185A285B385853A954AA54AB54A49F4F4
S1131AB084859585A685B785853A954AA54AB54A0C
S1131AC061F06091582C7091592C635E7F4F809126
S1131AD0582C9091592C0E945C028091F62B01C0E5
S1131AE08150282F30E09BE0929FF001939FF00DEE
S1131AF01124E45DF34D9081992391F39BE0929F2F
S1131B00A001939F500D1124DF010180F281E02D8B
S1131B100480F581E02D1196ED93FC931297415DBD
S1131B20534DE417F50729F444815581FD014183A0
S1131B3052839BE0929FF001939FF00D1124E45D8A
S1131B40F34D0180F281E02D208531852093582CBE
S1131B503093592C8093F62B0895CF92DF92EF9215
S1131B60FF926A017B016091582C7091592C625F3D
S1131B707F4F0E94590441E0C701B6010E94A70AA1
S1131B80FF90EF90DF90CF900895CF92DF92EF9285
S1131B90FF920F931F9368017901E091582CF09103
S1131BA0592C706846875787608B718B6091582CCD
S1131BB07091592C625F7F4F0E94380441E0C70145
S1131BC0B6010E94A70A1F910F91FF90EF90DF903A
S1131BD0CF900895CF92DF92EF92FF92CF936A0154
S1131BE07B01C22F6091582C7091592C625F7F4FFA
S1131BF00E943804CC2321F0CC24CA94DC2C760136
S1131C004C2FC701B6010E94A70ACF91FF90EF9015
S1131C10DF90CF9008950F931F93CF93DF93DC0150
S1131C201796ED91FC911897C085D1858E01025FBE
S1131C301F4FC8010E9496048091EA2B811116C09F
S1131C400C501109C8010E9496048A8D9091F62BBC
S1131C50981710F48093F62BBBE08B9FC0011124DE
S1131C60B801845D934D0E94380405C0B80187E033
S1131C709CE20E9438049A8DE091582CF091592CE2
S1131C80828D891720F481E08093F32B01C080E0DA
S1131C90DF91CF911F910F9108950F931F93CF93CD
S1131CA0DF937068FC014083518362837383C08532
S1131CB0D1850E9496048E010E5F1F4FC8010E94B9
S1131CC096048A8D9091F62B981710F48093F62B36
S1131CD0FBE08F9FC0011124B801845D934D0E94E5
S1131CE038049A8DE091582CF091592C828D8917E3
S1131CF018F481E08093F32BDF91CF911F910F9122
S1131D0008952091F22BFC0120834091F72B5091F0
S1131D10F82B6091F92B7091FA2B418352836383E2
S1131D20748308958F929F92AF92BF92CF92DF9265
S1131D30EF92FF920F931F93CF93DF93DB01F09108
S1131D40A200FF93F87FF093A200C090F72BD090ED
S1131D50F82BE090F92BF090FA2BEC0109811A8111
S1131D602B813C8146015701801A910AA20AB30AC9
S1131D704D915D916D917C9113974F3FDFEF5D071E
S1131D806D077D0721F1EC01F881E091F22BFE173C
S1131D9029F0C016D106E206F306D8F48416950697
S1131DA0A606B70668F4481959096A097B094D93D0
S1131DB05D936D937C9313970E94810E80E00AC01B
S1131DC01D921D921D921C92139781E003C080E026
S1131DD001C081E0FF91F093A200DF91CF911F91A8
S1131DE00F91FF90EF90DF90CF90BF90AF909F90B6
S1131DF08F90089581E08093F32B08958091F52BC3
S1131E00882331F08091EA2B811104C082E0089587
S1131E1081E0089580E00895CF92DF92EF92FF92DF
S1131E20E091582CF091592C6685778580899189A9
S1131E30E091582CF091592CA091582CB091592C28
S1131E405A962C91C12CD12C76016894C2F8C21AEE
S1131E50D108E108F108C686D786E08AF18AFF90A6
S1131E60EF90DF90CF900895DC01E091642CF09125
S1131E70652C808191E0811190E09C93911108C0C0
S1131E800780F085E02D60817181828193810895BE
S1131E9060E070E0CB010895CF92DF92EF92FF9261
S1131EA00F931F93FC01428353836483758382875A
S1131EB093870417150726073707C0F00C191D0967
S1131EC02E093F0986859785A089B18908171907C6
S1131ED02A073B0700F5BF016E5F7F4F8091622C9C
S1131EE09091632C0E94590480E018C00C151D05C4
S1131EF02E053F0528F44C155D056E057F0568F435
S1131F00BF016E5F7F4F8091642C9091652C0E947D
S1131F10590480E003C081E001C081E01F910F916A
S1131F20FF90EF90DF90CF900895F091A200FF937F
S1131F30F87FF093A2008091602C9091612C892B02
S1131F40E9F481E79CE20E94230486E69CE20E9475
S1131F50230481E79CE28093642C9093652C86E6AD
S1131F609CE28093622C9093632C40E069E085E0CE
S1131F700E9499078093602C9093612CFF91F093B9
S1131F80A2000895EF92FF920F930E94950F809103
S1131F90602C9091612C892B91F00F2EFEE5EF2E91
S1131FA0FCE2FF2EF02D03E020E030E048EC50E0AE
S1131FB065E070E280E392E10E94270B01C080E0BB
S1131FC00F91FF90EF9008958F929F92AF92BF92DE
S1131FD0CF92DF92EF92FF920F931F93CF93DF93F1
S1131FE0CDB7DEB72997CDBFDEBFE091602CF0916D
S1131FF0612C309789F169832A833B834C835D8309
S11320008E839F836630FCF40E94FE0E823069F456
S113201000E0A7019601BE016F5F7F4F8091602CA5
S11320209091612C0E94C30718C000E020E030E0CA
S1132030A901BE016F5F7F4F8091602C9091612C4C
S11320400E94C3070AC020E0A801BE016F5F7F4F52
S1132050CF010E94620801C080E02996CDBFDEBF97
S1132060DF91CF911F910F91FF90EF90DF90CF9070
S1132070BF90AF909F908F9008958F929F92AF9250
S1132080BF92CF92DF92EF92FF920F931F93CF9361
S1132090DF933CC00780F085E02D80809180A28092
S11320A0B380C085D1858E010E5F1F4FC8010E9489
S11320B09604ED89FE89CE0119958A89813031F51E
S11320C08E859F85A889B989880D991DAA1DBB1D78
S11320D088169906AA06BB0670F48A839B83AC8390
S11320E0BD83CA87DB87B8018091642C9091652CED
S11320F00E9459040BC0C12CD12C760100E010E0E1
S1132100A501940160E0CE010E94E40FE091642CEB
S1132110F091652C80818111BDCF8091622C9091CA
S1132120632C8093642C9093652CE093622CF09341
S1132130632CDF91CF911F910F91FF90EF90DF906F
S1132140CF90BF90AF909F908F900895CF92DF92E1
S1132150EF92FF92CF93DF93EC010E94BC0B6B01D3
S11321607C0180915A2C90915B2CA0915C2CB091B5
S11321705D2CC816D906EA06FB0628F40E943D1019
S113218081E0888301C01882C0925A2CD0925B2CC3
S1132190E0925C2CF0925D2CC701B601DF91CF91E7
S11321A0FF90EF90DF90CF9008954F925F926F92DF
S11321B07F928F929F92AF92BF92CF92DF92EF92D3
S11321C0FF920F931F93CF93DF934B015C0129017F
S11321D03A01E091642CF091652C0780F085E02DA4
S11321E0C085D185CE0102960E9496048A898130E9
S11321F0E1F44E855F8568897989480D591D6A1D0A
S11322007B1D7501640193018201CE010E944C0F74
S1132210882359F0C12CD12C760100E010E0A501EF
S1132220940160E0CE010E94E40FED89FE89CE01A5
S11322301995DF91CF911F910F91FF90EF90DF904F
S1132240CF90BF90AF909F908F907F906F905F9052
S11322504F9008958F929F92AF92BF92CF92DF9248
S1132260EF92FF921F93CF93DF931F92CDB7DEB708
S11322706B017C01142F0E94B60BCE0101960E94C3
S1132280A6104B015C01898181112EC011110EC071
S11322908C149D04AE04BF0448F00E949E0CA5015A
S11322A09401C701B6010E94D51020C0112341F04A
S11322B0E091622CF091632C808111E0811110E097
S11322C0B701A601481959096A097B09212F809190
S11322D0602C9091612C0E9452090E949E0C8111E5
S11322E005C00E948E0502C00E949E0C0F90DF91D3
S11322F0CF911F91FF90EF90DF90CF90BF90AF9060
S11323009F908F900895AF92BF92CF92DF92EF92F9
S1132310FF920F931F93CF93DF93CDB7DEB72A9726
S1132320CDBFDEBF81C0898188234CF4EA81FB8163
S11323304E815F81688579858C819D81199589811C
S113234088230CF471C0AE80BF80D5011C968D919A
S11323509C911D97892B21F0C50102960E94960439
S1132360CE010A960E94A6108B019C018981082E39
S1132370000C990BAA0BBB0B8A30910508F054C0D2
S1132380FC018827E250FF4F8F4F0C948A17CA80B4
S1132390DB80EC80FD80F501468557856089718975
S11323A04C0D5D1D6E1D7F1DC5010E944C0F8823C1
S11323B0D9F1D5015596ED91FC915697C501199522
S11323C0F5018289813081F54A815B816C817D814F
S11323D086859785A089B1899A01AB01280F391F99
S11323E04A1F5B1FC12CD12C760100E010E060E095
S11323F0C5010E94E40F18C04A815B816C817D8114
S1132400D5011E964D935D936D937C935197400F28
S1132410511F621F731F68017901C5010E944C0F8F
S113242003C0C5010E94220420E030E0A901BE01DE
S11324306F5F7F4F8091602C9091612C0E94A70860
S1132440811171CF2A96CDBFDEBFDF91CF911F914D
S11324500F91FF90EF90DF90CF90BF90AF900895D1
S1132460CF93DF931F92CDB7DEB7CE0101960E94C2
S1132470340F49810E942A110E948311F6CF0F93D1
S11324801F93CF93DF93CDB7DEB72997CDBFDEBFC0
S1132490EEEFE9838A839B836C837D832E833F8362
S11324A04887598720E0A801BE016F5F7F4F809164
S11324B0602C9091612C0E9462082996CDBFDEBFEA
S11324C0DF91CF911F910F910895E0E5F0E08081B5
S11324D0816080838091510080FFFCCF80E00E9466
S11324E02B028EE10E941B0260E080E00E94250224
S11324F043E060E080E40E940C02E0E5F0E08081CB
S1132500886080838091510083FFFCCF64E080EC7D
S11325100E941602E0E5F0E080818061808360E043
S113252080E00E9425028091510084FFFCCF84E06A
S11325300E942B0287E00E941B0208950F2E812C1B
S1132540912CF0E8AF2EFFE3BF2EF02DC12CD12C3F
S11325507601D701C601880F991FAA1FBB1FBC01B2
S1132560CD016F5F7F4F8F4F9F4F0E948F169B014E
S1132570AC01C501B4010E941D1620E030E040E822
S113258050E40E941D1720917C2C30917D2C4091A9
S11325907E2C50917F2C0E94B11560937C2C7093FB
S11325A07D2C80937E2C90937F2CB7FAB094B7F84F
S11325B0B0948FEFC81AD80AE80AF80ACACF0E9462
S11325C0470168EB7BE080E090E00E940E0D0E94E2
S11325D0520161E070E080E090E00E940E0DF7CFC0
S11325E00895EF92FF920F930E9465120E942414A3
S11325F0E12CF12C02E020E030E048EC50E06DE00A
S113260070E28FED92E10E94270B01E020E030E0C0
S113261042ED50E064E170E28EE992E10E94270B02
S11326200E947B0B80E090E00F91FF90EF90089563
S11326301F920F920FB60F9211240BB60F922F9385
S11326403F934F935F936F937F938F939F93AF9336
S1132650BF93EF93FF93CF93DF931F92CDB7DEB772
S113266019829E012F5F3F4F41E050E060E070E02F
S11326708091872C9091882C0E94EF0360E080E089
S11326809BE00E9440021092060B0F90DF91CF91C5
S1132690FF91EF91BF91AF919F918F917F916F9136
S11326A05F914F913F912F910F900BBE0F900FBEF2
S11326B00F901F901895CF92DF92EF92FF920F9395
S11326C06B017C0182E0C816D104E104F10428F412
S11326D0C12CD12C76016894C1F8E0E0FBE081E0E4
S11326E0868310A211A260E080E09BE00E94460273
S11326F08EEFC8168FEFD806E104F10470F4F69457
S1132700E794D794C794C092260BD092270B65E028
S113271080E09BE00E94400219C080E4C81682E475
S1132720D8068FE0E806F10488F4689414F8F69467
S1132730E794D794C7941694D1F7C092260BD092FD
S1132740270B67E080E09BE00E9440020F2EF4EF2D
S1132750CF2EDD24D394E12CF12CF02D00E021E0E8
S113276041E050E060E070E08091872C9091882CEB
S11327700E9496020F91FF90EF90DF90CF90089502
S11327808295807FE0E0F6E09481282F2F609223E9
S113279094839481892B84830895882321F081E094
S11327A080936506089581E08093660608958823E2
S11327B021F082E080936506089582E080936606A6
S11327C00895882321F084E080936506089584E0C9
S11327D080936606089581E00E94E11361E070E051
S11327E080E090E00E945B1380E00E94E113089572
S11327F0CF93C82F82958F700E94C01380E00E94EF
S1132800CD1380E00E94D7130E94EB138C2F8F709E
S11328100E94C0130E94EB13CF910895CF93C82F49
S113282082958F700E94C01381E00E94CD1380E0D6
S11328300E94D7130E94EB138C2F8F700E94C01339
S11328400E94EB13CF910895EF92FF920F93E0E073
S1132850F6E080E1818380E2818380E4818380E803
S11328608183A0E6B6E081E011968C93119782E013
S113287011968C93119784E011968C93119784810F
S11328808F70848314968C911497887F14968C93FC
S113289040E066E188E00E9499078093852C90933C
S11328A0862C0E9481028093872C9093882CE12CA3
S11328B0F12C01E020E030E04EE551E06CE170E203
S11328C08CEB94E10E94270B0F91FF90EF900895F9
S11328D08130910579F01CF4892B39F019C08230CC
S11328E0910569F0039781F013C080E8860F0E9478
S11328F0F8130EC080EC860F0E94F81309C084E917
S1132900860F0E94F81304C084ED860F0E94F8130A
S113291067E270E080E090E00E945B1308950E94FB
S11329200E146BE270E080E090E00E945B13089567
S11329300F931F93CF93DF938C01C0E0D0E009C0C5
S1132940F801EC0FFD1F8081882331F00E948F1461
S11329502196C431D105A4F3DF91CF911F910F913A
S11329600895CF93DF93EA010E946814CE010E9478
S11329709814DF91CF910895CF93DF93CDB7DEB74D
S1132980C656D109CDBFDEBF80E090E019C044E156
S1132990489FF001499FF00D112441E050E04C0F95
S11329A05D1FE40FF51FE20FF31F40E240832F5F2A
S11329B03F4F02C020E030E02431310544F301965A
S11329C084309105BCF360E47CE980E090E00E94EF
S11329D05B1383E00E94C01368E873E180E090E039
S11329E00E945B130E94EB1360EA70E080E090E0C9
S11329F00E945B130E94EB1360EA70E080E090E0B9
S1132A000E945B130E94EB1360EA70E080E090E0A8
S1132A100E945B1382E00E94C0130E94EB1388E2C1
S1132A200E94F81380E10E94F8138CE00E94F813CE
S1132A3086E00E94F81368EC70E080E090E00E9469
S1132A400E0D40E050E0BA018091872C9091882CC3
S1132A500E943D03672B682B692B09F45FC042E099
S1132A6050E060E070E08091872C9091882C0E9467
S1132A703D0340E050E019C024E1249FF001259F6C
S1132A80F00D112421E030E02C0F3D1FE20FF31F65
S1132A90E80FF91F20E22083019602C080E090E055
S1132AA0843191054CF34F5F5F4F44305105B4F3CB
S1132AB035C02FEF3FEFA901BE016F5A7F4F8091C0
S1132AC0852C9091862C0E94A708882339F112C086
S1132AD062964FAD6297E1E0F0E0EC0FFD1F74E108
S1132AE0479FE00DF11D1124E80FF91F60832F5F4C
S1132AF03F4F02C020E030E063968FAD6397F90149
S1132B00E80FF11DCF0174974CF4E1E5F0E0EC0F10
S1132B10FD1FE20FF31F62816111DACF8091852CD2
S1132B209091862C0E9446098111C3CF00E010E0E9
S1132B3013C084E1809FA001819F500D112421E0E6
S1132B4030E02C0F3D1F420F531F60E070E0C801BE
S1132B500E94B1140F5F1F4F0430110554F36BCF63
S1132B605058BB27AA270E94C8150C94E3160E944C
S1132B70D51638F00E94DC1620F039F49F3F19F482
S1132B8026F40C94D2160EF4E095E7FB0C94CC16C4
S1132B90E92F0E94F41658F3BA17620773078407E3
S1132BA0950720F079F4A6F50C9416170EF4E09529
S1132BB00B2EBA2FA02D0B01B90190010C01CA01F3
S1132BC0A0011124FF27591B99F0593F50F4503E9E
S1132BD068F11A16F040A22F232F342F4427585F90
S1132BE0F3CF469537952795A795F0405395C9F7A8
S1132BF07EF41F16BA0B620B730B840BBAF0915060
S1132C00A1F0FF0FBB1F661F771F881FC2F70EC0FE
S1132C10BA0F621F731F841F48F4879577956795D1
S1132C20B795F7959E3F08F0B0CF9395880F08F0BD
S1132C309927EE0F9795879508950E9431160C9465
S1132C40E3160E94DC1658F00E94D51640F029F4D1
S1132C505F3F29F00C94CC1651110C9417170C9467
S1132C60D2160E94F41668F39923B1F3552391F315
S1132C70951B550BBB27AA2762177307840738F0E7
S1132C809F5F5F4F220F331F441FAA1FA9F335D044
S1132C900E2E3AF0E0E832D091505040E695001CF8
S1132CA0CAF72BD0FE2F29D0660F771F881FBB1FB2
S1132CB0261737074807AB07B0E809F0BB0B802D90
S1132CC0BF01FF2793585F4F3AF09E3F510578F0BC
S1132CD00C94CC160C9417175F3FE4F3983ED4F38E
S1132CE0869577956795B795F7959F5FC9F7880F90
S1132CF0911D9695879597F90895E1E0660F771FE2
S1132D00881FBB1F621773078407BA0720F0621B72
S1132D10730B840BBA0BEE1F88F7E0950895E894C3
S1132D2009C097FB3EF490958095709561957F4F0F
S1132D308F4F9F4F9923A9F0F92F96E9BB279395BD
S1132D40F695879577956795B795F111F8CFFAF4CD
S1132D50BB0F11F460FF1BC06F5F7F4F8F4F9F4FFE
S1132D6016C0882311F096E911C0772321F09EE85C
S1132D70872F762F05C0662371F096E8862F70E0C2
S1132D8060E02AF09A95660F771F881FDAF7880F9C
S1132D909695879597F9089597F99F6780E870E06D
S1132DA060E008959FEF80EC089500240A941616BD
S1132DB0170618060906089500240A941216130625
S1132DC0140605060895092E0394000C11F48823B3
S1132DD052F0BB0F40F4BF2B11F460FF04C06F5FCF
S1132DE07F4F8F4F9F4F089557FD9058440F551FA5
S1132DF059F05F3F71F04795880F97FB991F61F079
S1132E009F3F79F087950895121613061406551FEF
S1132E10F2CF4695F1DF08C0161617061806991F5B
S1132E20F1CF86957105610508940895E894BB2750
S1132E3066277727CB0197F908950E9430170C94E1
S1132E40E3160E94D51638F00E94DC1620F0952374
S1132E5011F00C94CC160C94D21611240C94171760
S1132E600E94F41670F3959FC1F3950F50E0551F1F
S1132E70629FF001729FBB27F00DB11D639FAA27CB
S1132E80F00DB11DAA1F649F6627B00DA11D661F1A
S1132E90829F2227B00DA11D621F739FB00DA11D3B
S1132EA0621F839FA00D611D221F749F3327A00DF5
S1132EB0611D231F849F600D211D822F762F6A2F91
S1132EC011249F5750409AF0F1F088234AF0EE0FF6
S1132ED0FF1FBB1F661F771F881F91505040A9F723
S1132EE09E3F510580F00C94CC160C9417175F3F4D
S1132EF0E4F3983ED4F3869577956795B795F7955F
S1132F00E7959F5FC1F7FE2B880F911D96958795D6
S1132F1097F90895EE0FFF1F881F8BBF0790F69156
S1132F20E02D1994FB01DC0102C001900D92415087
S1132F305040D8F70895DC0101C06D9341505040D2
S10B2F40E0F70895F894FFCFB7
S1132F4849444C4500546D722053766300627454AE
S1132F5861736B004C6569626E697A0064697370A9
S10B2F685570646174650000FA
S9030000FC
