:100000000C9420010C9449010C9449010C94490171
:100010000C9449010C9449010C9449010C94490138
:100020000C9449010C9449010C9449010C94490128
:100030000C9449010C9449010C9428060C94490134
:100040000C9449010C9449010C9449010C94490108
:100050000C9449010C9449010C9449010C944901F8
:100060000C9449010C9449010C9449010C944901E8
:100070000C9449010C9449010C9449010C944901D8
:100080000C9449010C9449010C9449010C944901C8
:100090000C9449010C9449010C9449010C944901B8
:1000A0000C9449010C9449010C9449010C944901A8
:1000B0000C9449010C9449010C9449010C94490198
:1000C0000C9449010C9449010C9449010C94490188
:1000D0000C9449010C9449010C9449010C94490178
:1000E0000C9449010C9449010C9449010C94490168
:1000F0000C9449010C9449010C9449010C94490158
:100100000C9449010C9449010C9449010C94490147
:100110000C9449010C9449010C9449010C94490137
:100120000C9449010C9449010C9449010C94490127
:100130000C9449010C9449010C9449010C94490117
:100140000C9449010C9449010C9449010C94490107
:100150000C9449010C9449010C9449010C944901F7
:100160000C9449010C9449010C9449010C944901E7
:100170000C9449010C9449010C9449010C944901D7
:100180000C9449010C9449010C9449010C944901C7
:100190000C9449010C9449010C9449010C944901B7
:1001A0000C9449010C9449010C9449010C944901A7
:1001B0000C945B170C9449010C9449010C9449016F
:1001C0000C9449010C9449010C9449010C94490187
:1001D0000C9449010C9449010C9449010C94490177
:1001E0000C9449010C9449010C9449010C94490167
:1001F0000C9449010C9449010C944901E111E1115D
:10020000E1112E1216122B12E111E1112E1216120B
:100210000C94F9120C94380B0C94FE120C941612D8
:100220000C942E120C944A120C940F130C94B812C6
:100230000C94E1110C942B120C9406040C94FF18EE
:1002400011241FBECFEFCDBFDFE3DEBF00E00CBF48
:10025000E9EDFCE28AEA90E48193E030F907E0F30B
:1002600010E2A0E0B0E2E8E5F0E400E00BBF02C07D
:1002700007900D92A035B107D9F72CE2A0E5B0E2C6
:1002800001C01D92A93DB207E1F70E945E130C94D4
:100290002A200C940000E0EAF6E080E1828380E20C
:1002A000828380E4828380E8828308958091A80617
:1002B00084FD0EC0809156209091572080362AEE02
:1002C0009207E8F40196809356209093572017C028
:1002D00080915620909157208B30910548F0C3971C
:1002E00018F01092D02C07C081E08093D02C03C06E
:1002F00082E08093D02C109256201092572080914B
:10030000A80685FD0EC0809154209091552080361E
:100310002AEE9207E8F4019680935420909355209A
:1003200017C080915420909155208B30910548F052
:10033000C39718F01092D12C07C081E08093D12C84
:1003400003C082E08093D12C10925420109255204B
:100350008091A80686FD0EC0809152209091532076
:1003600080362AEE9207E8F401968093522090930B
:10037000532017C080915220909153208B309105CB
:1003800048F0C39718F01092D22C07C081E08093F8
:10039000D22C03C082E08093D22C10925220109273
:1003A00053208091A806882374F08091502090916A
:1003B000512080362AEE9207E8F40196809350206F
:1003C00090935120089580915020909151208B302E
:1003D000910548F0C39718F01092D32C07C081E024
:1003E0008093D32C03C082E08093D32C10925020B2
:1003F000109251200895813049F028F0823049F060
:10040000833051F00CC08091D02C08958091D12C74
:1004100008958091D22C08958091D32C089582E084
:1004200008950F93CF93DF931F92CDB7DEB72FB709
:100430002983F8941BBEFC0108ED04BF6083898109
:100440008FBF0F90DF91CF910F910895662311F028
:1004500090E201C090E0892B482B40935200089510
:100460006F71862B809355000895E0E5F0E0908150
:10047000282F209592239083908189230895682BBB
:1004800081E490E00E94110208950F931F93CF938F
:10049000C82F00E410E0F8016081687F682B80E4D9
:1004A00090E00E941102F80180818C23CF911F916E
:1004B0000F910895FC019081907F692B60830895CE
:1004C000FC019181987F692B61830895FC019681DD
:1004D0009C7F692B66830895000088ED84BF81E0CE
:1004E0008093790008950E946C0208958BE20E9427
:1004F000730208950F9301110CC0DC01CB0182231C
:100500009323A423B523892B8A2B8B2B79F480E0AA
:1005100010C0DC01CB0182239323A423B523281729
:1005200039074A075B0721F080E003C081E001C082
:1005300081E00F910895CF93DF9380E190E00E94D6
:100540001604EC01009741F0FC01119211921192F6
:100550001192CF010E943D04CE01DF91CF91089509
:100560002F923F924F925F926F927F928F929F92C3
:10057000AF92BF92CF92DF92EF92FF920F931F93B1
:10058000CF93DF93EC014A015B01622E702E0E9433
:10059000D00B288039804A805B80A5019401C2017C
:1005A000B1010E947A028823A1F0662089F1D50169
:1005B000C40180959095A095B09582219321A421A6
:1005C000B52188839983AA83BB83C12CD12C760162
:1005D00022C0C114D104E104F104E9F0611004C0A7
:1005E00040E050E0BA0104C040E050E060E071E05B
:1005F00071107460482959296A297B29970186015D
:10060000CE0104960E94DF0D212C312C210103C064
:10061000C12CD12C76010E94B80CCD28CE28CF2831
:1006200089F1811102C00E94A8050E94260F6B016A
:100630007C0191FD24C0F091A200FF93F87FF0931C
:10064000A200C880D980EA80FB80072DA501940113
:10065000C701B6010E947A02882371F0662061F01A
:1006600080949094A094B0948C209D20AE20BF20C4
:1006700088829982AA82BB82FF91F093A200160120
:1006800027015524C201B101DF91CF911F910F9134
:10069000FF90EF90DF90CF90BF90AF909F908F90A2
:1006A0007F906F905F904F903F902F9008950F93A1
:1006B0001F93F091A200FF93F87FF093A200FC013A
:1006C000008111812281338140955095609570950C
:1006D00040235123622373234083518362837383B6
:1006E000FF91F093A200C901B8011F910F910895E5
:1006F0004F925F926F927F92AF92BF92CF92DF92B2
:10070000EF92FF920F931F93CF93DF93EC016A0157
:100710007B018C01095F1F4F0E94D00BEB85FC858C
:1007200088819981AA81BB81C82AD92AEA2AFB2A11
:10073000C882D982EA82FB82C12CD12C76013DC0CD
:10074000A480B58080819181A281B381AC01BD017B
:100750007727B2FD0EC0488059806A807B80442292
:1007600055226622772245284628472889F420E02A
:1007700012C0488059806A807B80442255226622BC
:100780007722441555056605770521F020E003C062
:1007900021E001C021E0222371F0B0FF04C0C42A8F
:1007A000D52AE62AF72A488159816A817B817260BD
:1007B000CF010E94670EEA2DFB2DE017F10709F02B
:1007C000BFCFC094D094E094F09488819981AA819D
:1007D000BB81C822D922EA22FB22C882D982EA82BE
:1007E000FB820E94B80C688179818A819B81DF91AC
:1007F000CF911F910F91FF90EF90DF90CF90BF901E
:10080000AF907F906F905F904F9008950E94780313
:1008100008950F931F9389019A01AB01BC0186E0F3
:1008200094E00E9459121F910F910895CF93DF9386
:10083000EC010E94D00B2091582030915920C90121
:100840008C0F9D1F883B4BE0940758F428173907FD
:1008500058F4E901C65ADF4D8093582090935920EF
:1008600005C0C0E0D0E002C0C0E0D0E00E94B80CFB
:10087000CE01DF91CF9108950895FC010396818305
:1008800092834FEF5FEFBA0143835483658376838E
:10089000878390878187928710820895FC01128652
:1008A00013860895CF93DF939C01FB01DC01119621
:1008B000CD91DC911297C483D5838E819F818683ED
:1008C00097838E819F81DC0114966D937C9315979D
:1008D0006E837F8322873387F90180818F5F8083D6
:1008E000DF91CF9108950F931F93CF93DF93EB0187
:1008F000088119812A813B810F3F4FEF140724079C
:10090000340721F4FC01A185B28511C0DC011396E6
:1009100001C0DF011496ED91FC9115974081518142
:1009200062817381041715072607370790F714961D
:10093000ED91FC911597EC83FD83C683D783AE833D
:10094000BF831496CD93DC9315978A879B87FC0110
:1009500020812F5F2083DF91CF911F910F91089508
:10096000CF93DF93FC01A285B385C481D5818681B5
:1009700097818E839F83C681D781848195818C8363
:100980009D8311968D919C911297E817F90731F488
:100990008681978111968D939C9312971286138668
:1009A0008C9181508C938C91DF91CF91089583EF3E
:1009B00091E0809326089093270865E080E098E016
:1009C0000E945A0261E080E098E00E946602089569
:1009D000E0EAF0E082819281987F92830895CF933C
:1009E0000E94E804C82F0E94E80BC093A200CF9198
:1009F0000895CF92DF92EF92FF9231E1FC013083B4
:100A0000319722E220833197A3E3A0836B01E12C8D
:100A1000F12C319760833197D0823197E082319702
:100A200061E36083319760E86083319767E86083B2
:100A30003197108231971082319762E0608331974D
:100A400063E06083319764E06083319765E06083A1
:100A5000319766E06083319767E06083319768E0A3
:100A60006083319769E06083319760E160833197FB
:100A70003083319732E13083319733E130833197DE
:100A800034E13083319735E13083319736E130837B
:100A9000319737E13083319738E13083319739E14D
:100AA0003083319730E23083319731E230833197B0
:100AB0002083319723E220836A0131974083319765
:100AC000D082319726E22083319727E22083319725
:100AD00028E22083319729E22083319720E3208385
:100AE0008897FF90EF90DF90CF9008950E94D704F1
:100AF000A091802CB091812C0D900DBE0D900EBE5A
:100B0000EF91DF91CF91BF91AF919F918F917F91A5
:100B10006F915F914F913F912F911F910F91FF9096
:100B2000EF90DF90CF90BF90AF909F908F907F908D
:100B30006F905F904F903F902F901F900F90FF917C
:100B4000F093A200FF91FFBFFF91089581E0089507
:100B5000FF93FFB7FF93F091A200FF93F87FF0930C
:100B6000A2000F921F9211242F923F924F925F92F8
:100B70006F927F928F929F92AF92BF92CF92DF92AD
:100B8000EF92FF920F931F932F933F934F935F9397
:100B90006F937F938F939F93AF93BF93CF93DF9385
:100BA000EF93A091802CB091812C0DB60D920EB6D2
:100BB0000D920E94460DA091802CB091812C0D9039
:100BC0000DBE0D900EBEEF91DF91CF91BF91AF9111
:100BD0009F918F917F916F915F914F913F912F9155
:100BE0001F910F91FF90EF90DF90CF90BF90AF904B
:100BF0009F908F907F906F905F904F903F902F903D
:100C00001F900F90FF91F093A200FF91FFBFFF9103
:100C10000895CF939091D42C892B8093D42C9091CC
:100C2000A000913041F09091A000923021F090917D
:100C3000A000943059F4882349F00E94E804C82F9A
:100C40001092D42C0E94460DC093A200CF9108951B
:100C5000FF93FFB7FF93F091A200FF93F87FF0930B
:100C6000A2000F921F9211242F923F924F925F92F7
:100C70006F927F928F929F92AF92BF92CF92DF92AC
:100C8000EF92FF920F931F932F933F934F935F9396
:100C90006F937F938F939F93AF93BF93CF93DF9384
:100CA000EF93A091802CB091812C0DB60D920EB6D1
:100CB0000D920E94EF0481E00E940906A091802C11
:100CC000B091812C0D900DBE0D900EBEEF91DF9175
:100CD000CF91BF91AF919F918F917F916F915F91D4
:100CE0004F913F912F911F910F91FF90EF90DF90C7
:100CF000CF90BF90AF909F908F907F906F905F90BC
:100D00004F903F902F901F900F90FF91F093A20073
:100D1000FF91FFBFFF911895F091A200FF93F87F1C
:100D2000F093A200FC01868D811102C081E001C018
:100D300080E0FF91F093A2000895F091A200FF934C
:100D4000F87FF093A200FC01268D878D281302C046
:100D500081E001C080E0FF91F093A20008950F931D
:100D60001F93CF93DF93EC01042F1E8D48A14423E2
:100D7000B9F1011116C050E08C819D810E94A51C23
:100D800028A18C819D81820F911D8C839D832A8156
:100D90003B818217930720F1888199818C839D8301
:100DA0001FC050E08E819F810E94A51C88A190E009
:100DB0009195819591092E813F81280F391F2E83AE
:100DC0003F83488159812417350730F42A813B81BC
:100DD000820F931F8E839F83023011F411111150E3
:100DE0001F5F1E8F80E0DF91CF911F910F910895BB
:100DF000FC0140A14423A9F050E026813781240F53
:100E0000351F26833783828193812817390720F085
:100E10008081918186839783CB01668177810E944F
:100E2000A51C08951F93CF93DF93EC01F091A200CE
:100E3000FF93F87FF093A2001AA10BC08B8988233F
:100E400051F0CE0143960E94250E81110E94140F8D
:100E5000115011169CF38FEF8AA3FF91F093A2001B
:100E6000F091A200FF93F87FF093A20019A10BC0AC
:100E70008885882351F0CE0108960E94250E8111A5
:100E80000E94140F115011169CF38FEF89A3FF914C
:100E9000F093A200DF91CF911F910895CF93DF933C
:100EA000EC01F091A200FF93F87FF093A200E8819B
:100EB000F9818F8D90E028A130E0829FA001839F6F
:100EC000500D929F500D11244E0F5F1F4A835B837C
:100ED0001E8EEC83FD830197289FA001299F500D52
:100EE000389F500D1124CF01840F951F8E839F834F
:100EF0008FEF89A38AA361110CC08885882389F0AC
:100F0000CE0108960E94250E882359F00E94A8055C
:100F100008C0CE0108960E943D04CE0143960E946F
:100F20003D04FF91F093A20081E0DF91CF910895FD
:100F3000FF920F931F93CF93DF93F22EE80161117D
:100F400003C00883198302C0488359838F8F68A325
:100F500061E0CE010E944E07FCA2DF91CF911F916C
:100F60000F91FF900895DF92EF92FF920F931F93DE
:100F7000CF93DF93E82EF62ED42E662321F0869FA2
:100F8000C001112402C080E090E085960E94160402
:100F9000EC01009749F08C012D2DAC014B5D5F4FAA
:100FA0006F2D8E2D0E949807CE01DF91CF911F915A
:100FB0000F91FF90EF90DF900895CF92DF92EF9224
:100FC000FF920F931F93CF93DF93CDB7DEB729978F
:100FD000CDBFDEBF7C016B012E833F8348875987DD
:100FE00010E0F091A200FF93F87FF093A200F701C8
:100FF000968D878D981710F00230D1F4402FB601EE
:10100000C7010E94AF06F7019389992349F0C701F0
:1010100043960E94250E882331F00E94A80503C044
:1010200081110E94A805FF91F093A20081E058C0B1
:101030008E819F81A885B985892B8A2B8B2B29F4DA
:10104000FF91F093A20080E04BC0111105C0CE01CA
:1010500001960E949B0E11E0FF91F093A2000E9466
:10106000D00BF091A200FF93F87FF093A200F7015C
:1010700081A18F3F09F411A2F70182A18F3F09F4EA
:1010800012A2FF91F093A200BE016A5F7F4FCE01D2
:1010900001960E94AC0E81111DC0C7010E949D06E1
:1010A000882391F04E815F8168857985C701089614
:1010B0000E94C70DC7010E9412070E94B80C81113F
:1010C00090CF0E94A8058DCFC7010E9412070E94F1
:1010D000B80C87CFC7010E9412070E94B80C80E0AD
:1010E0002996CDBFDEBFDF91CF911F910F91FF9069
:1010F000EF90DF90CF900895AF92BF92CF92DF92A2
:10110000FF920F931F93CF93DF93EC016B015A0172
:10111000022F0E94E804F82E9E8D8F8D981710F0F4
:101120000230E1F41AA1402FB601CE010E94AF06B1
:101130001F3F81F48B89882399F0CE0143960E944A
:10114000250E882379F0A114B10471F081E0F50136
:1011500080830BC01F5F1AA381E007C080E005C039
:1011600081E003C081E001C081E0F092A200DF9144
:10117000CF911F910F91FF90DF90CF90BF90AF90D4
:101180000895CF92DF92EF92FF920F931F93CF9328
:10119000DF93CDB7DEB72997CDBFDEBF8C016B01E2
:1011A0002E833F8348875987E12CF091A200FF935B
:1011B000F87FF093A200F801F68CFF20B1F0B601A1
:1011C000C8010E94F806FA94F801F68E80858823FB
:1011D00039F0C80108960E94250E81110E94A805C9
:1011E000FF91F093A20081E05FC08E819F81A8856E
:1011F000B985892B8A2B8B2B29F4FF91F093A200C0
:1012000080E052C0E11006C0CE0101960E949B0E04
:10121000EE24E394FF91F093A2000E94D00BF09192
:10122000A200FF93F87FF093A200F80181A18F3F05
:1012300009F411A2F80182A18F3F09F412A2FF91D3
:10124000F093A200BE016A5F7F4FCE0101960E941B
:10125000AC0E81111DC0C8010E948C06882391F03C
:101260004E815F8168857985C80143960E94C70DCC
:10127000C8010E9412070E94B80C811196CF0E94EB
:10128000A80593CFC8010E9412070E94B80C8DCF09
:10129000C8010E9412070E94B80CC8010E948C0667
:1012A000882309F482CF80E02996CDBFDEBFDF918D
:1012B000CF911F910F91FF90EF90DF90CF90089505
:1012C000F091A200FF93F87FF093A200FC01868DBD
:1012D000FF91F093A2000895CF93DF93EC01F0917A
:1012E000A200FF93F87FF093A20089A18F3F09F439
:1012F00019A28AA18F3F09F41AA2FF91F093A200CC
:101300008E8D811104C0CE0143960E94040ECE0141
:101310000E941207DF91CF910895E0913C2CF0914B
:101320003D2C808181110CC08FEF9FEFDC018093F9
:10133000152C9093162CA093172CB093182C08956D
:10134000E0913C2CF0913D2C0780F085E02D00844D
:10135000F185E02D82819381A481B5818093152C44
:101360009093162CA093172CB093182C08952F92BD
:101370003F924F925F926F927F928F929F92AF9225
:10138000BF92CF92DF92EF920F931F93CF93DF9391
:10139000CDB7DEB71C014B0129013A01A90165EA6D
:1013A00070E0F501838D948D0E94AE1CF501838D54
:1013B000948DF1E04F1A5108480E591E20E00FC0DD
:1013C000822F90E0F401E80FF91F3081D501A80FBA
:1013D000B91F5D963C938081882319F02F5F2830D8
:1013E00078F3F50114A2F3E0FE1520F40F2EF3E0DC
:1013F000EF2EF02DF501E28EC50102960E944E04FB
:10140000C5010E960E944E04F501A286B38684E0C3
:1014100090E0A0E0B0E08E199109A109B10986879A
:101420009787A08BB18BA68AB78A17A210A611A6A0
:1014300012A613A6A801B101C2010E94F904F50188
:1014400080839183C114D10419F0F601A082B18286
:10145000DF91CF911F910F91EF90DF90CF90BF90D0
:10146000AF909F908F907F906F905F904F903F9044
:101470002F900895CF93C0E009C02BE0C29FC00118
:1014800011248C5A934D0E943D04CF5FC430A8F3C1
:1014900089E49CE20E943D048EE39CE20E943D04AC
:1014A0008FE29CE20E943D0484E29CE20E943D04A3
:1014B00089E49CE280933C2C90933D2C8EE39CE24B
:1014C00080933A2C90933B2CCF910895CF93DF9348
:1014D000EC01F091A200FF93F87FF093A2008091BD
:1014E000232C8F5F8093232C8091802C9091812CD2
:1014F000892B59F4C093802CD093812C8091232C7C
:10150000813099F40E943A0A10C080911D2C8111FB
:101510000CC0E091802CF091812C928D8A8D8917DE
:1015200020F0C093802CD093812C8091192C8F5F58
:101530008093192C8DA38A8D90911E2C981710F4EE
:1015400080931E2C2BE0829FC0011124BE016E5F90
:101550007F4F8C5A934D0E945204FF91F093A2004A
:1015600080911D2C882351F0E091802CF091812CEA
:10157000928D8A8D981710F40E94A805DF91CF9163
:1015800008958F929F92AF92BF92CF92DF92EF9287
:10159000FF92CF936B017C01C42F80901F2C909001
:1015A000202CA090212CB090222C8091802C909106
:1015B000812C02960E94B0048FEFC816D806E80668
:1015C000F80669F4CC2359F06091802C7091812C3D
:1015D0006E5F7F4F84E29CE20E9452043FC0C80CC1
:1015E000D91CEA1CFB1CE091802CF091812CC2825A
:1015F000D382E482F582C814D904EA04FB0468F4B7
:101600006091802C7091812C80913A2C90913B2C90
:101610006E5F7F4F0E94730421C06091802C709197
:10162000812C80913C2C90913D2C6E5F7F4F0E94CD
:1016300073048091152C9091162CA091172CB091C9
:10164000182CC816D906EA06FB0640F4C092152CE1
:10165000D092162CE092172CF092182CCF91FF907C
:10166000EF90DF90CF90BF90AF909F908F900895B4
:101670008091542C823010F00E94A8050E945D13C6
:10168000F7CF2F923F924F925F926F927F928F92FD
:101690009F92AF92BF92CF92DF92EF92FF920F9301
:1016A0001F93CF93DF933C011B015A012901CA010B
:1016B0000E9416046C01892B71F08CE290E00E946C
:1016C0001604EC01892B19F0CB8EDC8E06C0C60106
:1016D0000E943C0402C0C0E0D0E0209791F0950148
:1016E00040E050E0812C912C5E016701E02E8201E8
:1016F000B101C3010E94B709CE010E94660A81E0D0
:1017000001C08FEFDF91CF911F910F91FF90EF906C
:10171000DF90CF90BF90AF909F908F907F906F9011
:101720005F904F903F902F900895EF92FF920F930C
:101730000F2EF3E1EF2EFCE2FF2EF02D00E020E073
:1017400030E048EC50E064E070E288E39BE00E9407
:10175000410B813011F40E94DC0F8130E9F4E0EAA2
:10176000F0E08281887F82838FEF9FEFDC0180939E
:10177000152C9093162CA093172CB093182C81E065
:1017800080931D2C10921F2C1092202C1092212C33
:101790001092222C0E9476050F91FF90EF900895F1
:1017A0008091122C8F5F8093122C0895F091A200EB
:1017B000FF93F87FF093A20060911F2C7091202C72
:1017C0008091212C9091222CFF91F093A2000895FA
:1017D000BF92CF92DF92EF92FF920F931F93CF931E
:1017E000DF938091122C8111A9C0C0901F2CD09042
:1017F000202CE090212CF090222C2FEFC21AD20A3C
:10180000E20AF20AC0921F2CD092202CE092212CE6
:10181000F092222CC114D104E104F104B9F48091B6
:101820003C2C90913D2C20913A2C30913B2C2093D4
:101830003C2C30933D2C80933A2C90933B2C809100
:101840001A2C8F5F80931A2C0E948D098091152C81
:101850009091162CA091172CB091182CC816D9066F
:10186000EA06FB0628F4B12C5AC0BB24B39401C08D
:10187000B12CE0913C2CF0913D2C808181110CC069
:101880008FEF9FEFDC018093152C9093162CA09383
:10189000172CB093182C43C0E0913C2CF0913D2CB8
:1018A0000780F085E02DC085D1858A819B81AC8140
:1018B000BD81C816D906EA06FB0648F48093152CAC
:1018C0009093162CA093172CB093182C28C08E013F
:1018D0000E5F1F4FC8010E94B004888D998D892B1F
:1018E00021F0CE010E960E94B0048A8D90911E2C9C
:1018F000981710F480931E2C2BE0829FC0011124B6
:10190000B8018C5A934D0E9452049A8DE091802C1C
:10191000F091812C828D981708F0A7CFAACFE09183
:10192000802CF091812CE28D8BE0E89FF001112456
:10193000EC5AF34D8081823040F409C080911C2C18
:101940008F5F80931C2CB12C02C0BB24B394809178
:101950001B2C882311F0BB24B3948B2DDF91CF91E6
:101960001F910F91FF90EF90DF90CF90BF9008955F
:101970000F931F93CF93DF93F091A200FF93F87F13
:10198000F093A2008091122C81508093122C8091B0
:10199000122C811152C08091232C81112DC050C076
:1019A000E091362CF091372CC085D185CE010E9672
:1019B0000E94B0048E010E5F1F4FC8010E94B00448
:1019C0008A8D90911E2C981710F480931E2C2BE07A
:1019D000829FC0011124B8018C5A934D0E94520479
:1019E0009A8DE091802CF091812C828D981730F0A7
:1019F00081E080931B2C02C0C0E0D0E080912F2CAE
:101A00008111CECFCD2B11F00E948D09C0911C2CDD
:101A1000CC2359F00E94E80B882319F081E08093D1
:101A20001B2CC150B9F710921C2C80911B2C8823C1
:101A300031F00E94A80581E003C080E001C080E091
:101A4000FF91F093A200DF91CF911F910F91089524
:101A5000CF92DF92EF92FF926B017C01672B682B94
:101A6000692B51F00E94D00B40E0C701B6010E94E3
:101A7000C10A0E94B80C01C080E0811102C00E941E
:101A8000A805FF90EF90DF90CF9008958091122CE1
:101A9000882321F081E080931B2C089510921B2C49
:101AA000E091802CF091812C038CF48DE02D8081CD
:101AB0009181A281B381853A954AA54AB54AD9F464
:101AC00084819581A681B781853A954AA54AB54A10
:101AD00091F480859185A285B385853A954AA54A7A
:101AE000B54A49F484859585A685B785853A954A92
:101AF000A54AB54A61F06091802C7091812C635E9B
:101B00007F4F8091802C9091812C0E947602809151
:101B10001E2C01C08150282F30E09BE0929FF001E5
:101B2000939FF00D1124EC5AF34D9081992391F37A
:101B30009BE0929FA001939F500D1124DF01018033
:101B4000F281E02D0480F581E02D1196ED93FC9358
:101B50001297495A534DE417F50729F444815581EA
:101B6000FD01418352839BE0929FF001939FF00D12
:101B70001124EC5AF34D0180F281E02D208531854E
:101B80002093802C3093812C80931E2C0895CF922B
:101B9000DF92EF92FF926A017B016091802C70913D
:101BA000812C625F7F4F0E94730441E0C701B60140
:101BB0000E94C10AFF90EF90DF90CF900895CF92DE
:101BC000DF92EF92FF920F931F9368017901E091EA
:101BD000802CF091812C706846875787608B718BC1
:101BE0006091802C7091812C625F7F4F0E94520423
:101BF00041E0C701B6010E94C10A1F910F91FF90F9
:101C0000EF90DF90CF900895CF92DF92EF92FF9206
:101C1000CF936A017B01C22F6091802C7091812C3F
:101C2000625F7F4F0E945204CC2321F0CC24CA94DF
:101C3000DC2C76014C2FC701B6010E94C10ACF915E
:101C4000FF90EF90DF90CF9008950F931F93CF9365
:101C5000DF93DC011796ED91FC911897C085D18533
:101C60008E01025F1F4FC8010E94B0048091122CA8
:101C7000811116C00C501109C8010E94B0048A8D50
:101C800090911E2C981710F480931E2CBBE08B9F14
:101C9000C0011124B8018C5A934D0E94520405C012
:101CA000B8018FE29CE20E9452049A8DE091802C50
:101CB000F091812C828D891720F481E080931B2C78
:101CC00001C080E0DF91CF911F910F9108950F9394
:101CD0001F93CF93DF937068FC014083518362832D
:101CE0007383C085D1850E94B0048E010E5F1F4FA3
:101CF000C8010E94B0048A8D90911E2C981710F490
:101D000080931E2CFBE08F9FC0011124B8018C5AD8
:101D1000934D0E9452049A8DE091802CF091812C79
:101D2000828D891718F481E080931B2CDF91CF916D
:101D30001F910F91089520911A2CFC01208340914E
:101D40001F2C5091202C6091212C7091222C4183CA
:101D500052836383748308958F929F92AF92BF9250
:101D6000CF92DF92EF92FF920F931F93CF93DF9367
:101D7000DB01F091A200FF93F87FF093A200C090E6
:101D80001F2CD090202CE090212CF090222CEC01E4
:101D900009811A812B813C8146015701801A910AE1
:101DA000A20AB30A4D915D916D917C9113974F3FBB
:101DB000DFEF5D076D077D0721F1EC01F881E09110
:101DC0001A2CFE1729F0C016D106E206F306D8F445
:101DD00084169506A606B70668F4481959096A09D3
:101DE0007B094D935D936D937C9313970E949B0E9B
:101DF00080E00AC01D921D921D921C92139781E0F3
:101E000003C080E001C081E0FF91F093A200DF9168
:101E1000CF911F910F91FF90EF90DF90CF90BF90E7
:101E2000AF909F908F90089581E080931B2C089530
:101E300080911D2C882331F08091122C811104C0D7
:101E400082E0089581E0089580E00895CF92DF92C6
:101E5000EF92FF92E091802CF091812C668577853E
:101E600080899189E091802CF091812CA091802C27
:101E7000B091812C5A962C91C12CD12C760168946A
:101E8000C2F8C21AD108E108F108C686D786E08AEE
:101E9000F18AFF90EF90DF90CF900895DC01E09100
:101EA0008C2CF0918D2C808191E0811190E09C939D
:101EB000911108C00780F085E02D608171818281D9
:101EC0009381089560E070E0CB010895CF92DF9296
:101ED000EF92FF920F931F93FC014283538364831D
:101EE0007583828793870417150726073707C0F085
:101EF0000C191D092E093F0986859785A089B1898E
:101F0000081719072A073B0700F5BF016E5F7F4FCF
:101F100080918A2C90918B2C0E94730480E018C0D1
:101F20000C151D052E053F0528F44C155D056E05A5
:101F30007F0568F4BF016E5F7F4F80918C2C90917C
:101F40008D2C0E94730480E003C081E001C081E019
:101F50001F910F91FF90EF90DF90CF900895F09137
:101F6000A200FF93F87FF093A2008091882C9091BB
:101F7000892C892BE9F489E99CE20E943D048EE8D2
:101F80009CE20E943D0489E99CE280938C2C909312
:101F90008D2C8EE89CE280938A2C90938B2C40E0D1
:101FA00069E085E00E94B3078093882C9093892C88
:101FB000FF91F093A2000895EF92FF920F930E9479
:101FC000AF0F8091882C9091892C892B91F00F2E46
:101FD000F6E8EF2EFCE2FF2EF02D03E020E030E0EB
:101FE00048EC50E069E070E28AE492E10E94410B23
:101FF00001C080E00F91FF90EF9008958F929F9223
:10200000AF92BF92CF92DF92EF92FF920F931F9306
:10201000CF93DF93CDB7DEB72997CDBFDEBFE09179
:10202000882CF091892C309789F169832A833B832E
:102030004C835D838E839F836630FCF40E94180F6F
:10204000823069F400E0A7019601BE016F5F7F4F07
:102050008091882C9091892C0E94DD0718C000E0A7
:1020600020E030E0A901BE016F5F7F4F8091882C96
:102070009091892C0E94DD070AC020E0A801BE01D2
:102080006F5F7F4FCF010E947C0801C080E02996DE
:10209000CDBFDEBFDF91CF911F910F91FF90EF90E9
:1020A000DF90CF90BF90AF909F908F9008958F92C8
:1020B0009F92AF92BF92CF92DF92EF92FF920F93D7
:1020C0001F93CF93DF933CC00780F085E02D808085
:1020D0009180A280B380C085D1858E010E5F1F4F95
:1020E000C8010E94B004ED89FE89CE0119958A8944
:1020F000813031F58E859F85A889B989880D991D14
:10210000AA1DBB1D88169906AA06BB0670F48A8311
:102110009B83AC83BD83CA87DB87B80180918C2CFD
:1021200090918D2C0E9473040BC0C12CD12C760190
:1021300000E010E0A501940160E0CE010E94FE0FD6
:10214000E0918C2CF0918D2C80818111BDCF8091FC
:102150008A2C90918B2C80938C2C90938D2CE093D7
:102160008A2CF0938B2CDF91CF911F910F91FF90D0
:10217000EF90DF90CF90BF90AF909F908F90089599
:10218000CF92DF92EF92FF92CF93DF93EC010E9408
:10219000D60B6B017C018091822C9091832CA091B5
:1021A000842CB091852CC816D906EA06FB0628F4C3
:1021B0000E94571081E0888301C01882C092822C4F
:1021C000D092832CE092842CF092852CC701B6012A
:1021D000DF91CF91FF90EF90DF90CF9008954F92D5
:1021E0005F926F927F928F929F92AF92BF92CF92A7
:1021F000DF92EF92FF920F931F93CF93DF934B01E8
:102200005C0129013A01E0918C2CF0918D2C078022
:10221000F085E02DC085D185CE0102960E94B004E4
:102220008A898130E1F44E855F8568897989480D16
:10223000591D6A1D7B1D7501640193018201CE0148
:102240000E94660F882359F0C12CD12C760100E042
:1022500010E0A501940160E0CE010E94FE0FED891F
:10226000FE89CE011995DF91CF911F910F91FF90BB
:10227000EF90DF90CF90BF90AF909F908F907F9026
:102280006F905F904F9008958F929F92AF92BF9200
:10229000CF92DF92EF92FF921F93CF93DF931F9223
:1022A000CDB7DEB76B017C01142F0E94D00BCE019D
:1022B00001960E94C0104B015C01898181112EC0E2
:1022C00011110EC08C149D04AE04BF0448F00E948E
:1022D000B80CA5019401C701B6010E94EF1020C0FF
:1022E000112341F0E0918A2CF0918B2C808111E038
:1022F000811110E0B701A601481959096A097B0943
:10230000212F8091882C9091892C0E946C090E9429
:10231000B80C811105C00E94A80502C00E94B80C2B
:102320000F90DF91CF911F91FF90EF90DF90CF90B2
:10233000BF90AF909F908F900895AF92BF92CF9231
:10234000DF92EF92FF920F931F93CF93DF93CDB75E
:10235000DEB72A97CDBFDEBF81C0898188234CF4C8
:10236000EA81FB814E815F81688579858C819D81C1
:102370001995898188230CF471C0AE80BF80D50186
:102380001C968D919C911D97892B21F0C501029679
:102390000E94B004CE010A960E94C0108B019C01DD
:1023A0008981082E000C990BAA0BBB0B8A30910572
:1023B00008F054C0FC018827E250FF4F8F4F0C9467
:1023C000431CCA80DB80EC80FD80F5014685578583
:1023D000608971894C0D5D1D6E1D7F1DC5010E94B8
:1023E000660F8823D9F1D5015596ED91FC9156974A
:1023F000C5011995F5018289813081F54A815B819A
:102400006C817D8186859785A089B1899A01AB0110
:10241000280F391F4A1F5B1FC12CD12C760100E009
:1024200010E060E0C5010E94FE0F18C04A815B8188
:102430006C817D81D5011E964D935D936D937C9348
:102440005197400F511F621F731F68017901C50129
:102450000E94660F03C0C5010E943C0420E030E0EA
:10246000A901BE016F5F7F4F8091882C9091892CCC
:102470000E94C108811171CF2A96CDBFDEBFDF91C6
:10248000CF911F910F91FF90EF90DF90CF90BF9071
:10249000AF900895CF93DF931F92CDB7DEB7CE01F3
:1024A00001960E944E0F49810E9444110E949D1185
:1024B000F6CF0F931F93CF93DF93CDB7DEB7299756
:1024C000CDBFDEBFEEEFE9838A839B836C837D8380
:1024D0002E833F834887598720E0A801BE016F5FA4
:1024E0007F4F8091882C9091892C0E947C0829969E
:1024F000CDBFDEBFDF91CF911F910F910895E0E531
:10250000F0E08081816080838091510080FFFCCF6A
:1025100080E00E9445028EE10E94350260E080E08A
:102520000E943F0243E060E080E40E942602E0E572
:10253000F0E08081886080838091510083FFFCCF30
:1025400064E080EC0E943002E0E5F0E08081806190
:10255000808360E080E00E943F028091510084FF10
:10256000FCCF84E00E94450287E00E943502089576
:102570000F2E812C912CF0E8AF2EFFE3BF2EF02D13
:10258000C12CD12C7601D701C601880F991FAA1F33
:10259000BB1FBC01CD016F5F7F4F8F4F9F4F0E94CC
:1025A0001F1B9B01AC01C501B4010E94771A20E0FA
:1025B00030E040E850E40E94D61B2091A42C3091DA
:1025C000A52C4091A62C5091A72C0E94061A60932E
:1025D000A42C7093A52C8093A62C9093A72CB7FACB
:1025E000B094B7F8B0948FEFC81AD80AE80AF80A7E
:1025F000CACF0E94961C0E94961CFBCF0E944B01E2
:1026000068EB7BE080E090E00E94280D0E9456017C
:1026100061E070E080E090E00E94280DF7CFCF935A
:10262000DF93CDB7DEB72C97CDBFDEBF0E944B0145
:102630000E94560180E00E94FB01813011F580E488
:102640008F9389E48F938FE08F938BED8F9381E14C
:1026500090E29F938F938E010F5F1F4F1F930F93F5
:102660000E94DA1C1F930F938AE190E29F938F934D
:102670001F921F921F9281E08F930E94F319CDBF8A
:10268000DEBF81E00E94FB0182E00E94FB0183E04B
:102690000E94FB0180E00E94FB0181E00E94FB019F
:1026A00082E00E94FB0183E00E94FB016AE070E08F
:1026B00080E090E00E94280DBBCF0895EF92FF923A
:1026C0000F930E947F120E946718E12CF12C03E007
:1026D00020E030E04EE551E06DE170E28FE093E103
:1026E0000E94410B02E020E030E048EC50E069E25B
:1026F00070E28EEF92E10E94410B20E030E042ED6B
:1027000050E060E370E288EB92E10E94410B01E04F
:1027100020E030E042ED50E06CE370E289EF92E1BE
:102720000E94410B0E94950B80E090E00F91FF907A
:10273000EF900895CF92DF92EF92FF920F931F9345
:10274000CF93DF938C01FC01C080D180E280F380C5
:10275000C0E0D0E00BC020E030E040E251E4C7012F
:10276000B6010E94771A6B017C01219620E030E0CF
:1027700040E85FE3C701B6010E94D11B88235CF7E4
:102780000BC020E030E040E251E4C701B6010E94F6
:10279000D61B6B017C0121972DEC3CEC4CEC5DE3EE
:1027A000C701B6010E94721A88235CF3F801C08247
:1027B000D182E282F382CE01DF91CF911F910F91FE
:1027C000FF90EF90DF90CF9008954F925F926F92BD
:1027D0007F928F929F92AF92BF92CF92DF92EF92B1
:1027E000FF920F931F93CF93DF9300D01F92CDB72B
:1027F000DEB75C01E42EF52E062F172F49835A838E
:102800006B837C8320E030E0A9016E2D7F2D802F2B
:10281000912F0E94721A811105C080E3F501808317
:102820001182B9C020E030E0A9016E2D7F2D802FEC
:10283000912F0E94721A88237CF48DE2F501808327
:1028400089819A81AB81BC81B05889839A83AB839B
:10285000BC83C50101965C01CE0101960E949A13CA
:102860007C0100E010E038C020E030E040E251E4BC
:1028700069817A818B819C810E94D61B0E94E91A12
:102880002B013C0165019FEFC91AD90A80E3840D31
:10289000F501808320E030E040E251E469817A81F3
:1028A0008B819C810E94D61B4B015C01B201550CAF
:1028B000880B990B0E94211B9B01AC01C501B4013F
:1028C0000E94051A69837A838B839C830F5F1F4F55
:1028D000F1E0EF1AF10856011E141F042CF2011545
:1028E000110531F480E3F5018083C50101965C0197
:1028F00065019FEFC91AD90A8EE2F50180830BC0EA
:1029000080E3F6018083F1E0EF1AF1080F5F1F4FBB
:10291000C60101966C01FF20CCF50430110584F34B
:1029200035C020E030E040E251E469817A818B815A
:102930009C810E94D61B0E94E91A4B015C01760122
:102940009FEFE91AF90A80E3880DF601808320E001
:1029500030E040E251E469817A818B819C810E9460
:10296000D61B2B013C01B401990C880B990B0E94DA
:10297000211B9B01AC01C301B2010E94051A6983AE
:102980007A838B839C830F5F1F4F6701043011058F
:1029900044F2F60110822496CDBFDEBFDF91CF91C5
:1029A0001F910F91FF90EF90DF90CF90BF90AF906D
:1029B0009F908F907F906F905F904F9008952F928F
:1029C0003F924F925F926F927F928F929F92AF92BF
:1029D000BF92CF92DF92EF92FF920F931F93CF930C
:1029E000DF93CDB7DEB72897CDBFDEBF7C01C42E05
:1029F000D52E062F172F49835A836B837C8320E0C3
:102A000030E0A9016C2D7D2D802F912F0E94721A2C
:102A1000811105C080E3F70180831182A2C020E00C
:102A200030E0A9016C2D7D2D802F912F0E94721A0C
:102A300088237CF48DE2F701808389819A81AB81C0
:102A4000BC81B05889839A83AB83BC83C70101964C
:102A50007C01CE0101960E949A135C0120E030E0D7
:102A600040E251E469817A818B819C810E94D61B6E
:102A70000E94E91A2B013C0180E3840DF701808359
:102A800020E030E040E251E469817A818B819C81D1
:102A90000E94D61B6D837E838F839887B201550C6D
:102AA000880B990B0E94211B9B01AC016D817E81DB
:102AB0008F8198850E94051A69837A838B839C8312
:102AC0001501F1E02F1A310887010E5F1F4F8EE2CA
:102AD000F7018183E12CF12C36C020E030E040E2A8
:102AE00051E469817A818B819C810E94D61B0E946E
:102AF000E91A2B013C016801FFEFCF1ADF0A80E3DE
:102B0000840DF801808320E030E040E251E46981E7
:102B10007A818B819C810E94D61B4B015C01B201A2
:102B2000550C880B990B0E94211B9B01AC01C50120
:102B3000B4010E94051A69837A838B839C83FFEF1B
:102B4000EF1AFF0A860184E0E816F10434F2B801B6
:102B50006F5F7F4F85E6F80180834AE0C1010E94E4
:102B6000B51C2896CDBFDEBFDF91CF911F910F918D
:102B7000FF90EF90DF90CF90BF90AF909F908F909D
:102B80007F906F905F904F903F902F9008956F923D
:102B90007F928F929F92BF92CF92DF92EF92FF929D
:102BA0000F931F93CF93DF93CDB7DEB76697CDBF5B
:102BB000DEBFB82E8B01DA01390180E090E005C05C
:102BC000FC01E454F34D1082019684319105C4F365
:102BD00080E090E005C0FC01E855F34D10820196BD
:102BE00084319105C4F3E12CF12C14C1853209F034
:102BF00001C16D0182E0C80ED11C11968C91853601
:102C000009F4CDC038F48336C1F008F049C08532EC
:102C100051F0FFC08337F9F0883709F46BC086366E
:102C200009F0F7C091C0D701A855B34D85E28C9348
:102C30009FEFE91AF90AD601EDC0F3018081D701AF
:102C4000A855B34D8C93FFEFEF1AFF0AC30102960C
:102C50003C01D601DFC093012E5F3F4FF301A081FD
:102C6000B18180E090E00DC0B701680F791FAD0120
:102C7000480F591FFA014081FB01E855F34D40838D
:102C80000196FD0101900020E9F73197EA1BFB0B4B
:102C90008E179F0748F3EE0EFF1E3901D601BAC00A
:102CA0004301F2E08F0E911C4AE06CEB7CE2F301F1
:102CB000808191810E94B51C80E090E00BC0F701FB
:102CC000E80FF91FDC01A454B34D2C91E855F34DE6
:102CD00020830196ECEBFCE201900020E9F73197AC
:102CE000EC5BFC428E179F0750F3EE0EFF1E340183
:102CF000D60190C04301F2E08F0E911C40E16CEBD5
:102D00007CE2F301808191810E94B51C80E090E01B
:102D10000BC0F701E80FF91FDC01A454B34D2C914F
:102D2000E855F34D20830196ECEBFCE20190002086
:102D3000E9F73197EC5BFC428E179F0750F3EE0EDC
:102D4000FF1E3401D60166C04301F4E08F0E911CD2
:102D5000F30140815181628173818CEB9CE20E947E
:102D6000E51380E090E00BC0F701E80FF91FDC01EC
:102D7000A454B34D2C91E855F34D20830196ECEB10
:102D8000FCE201900020E9F73197EC5BFC428E17E2
:102D90009F0750F3EE0EFF1E3401D6013BC04301E6
:102DA000F4E08F0E911CF3014081518162817381A7
:102DB0008CEB9CE20E94DF1480E090E00BC0F701F6
:102DC000E80FF91FDC01A454B34D2C91E855F34DE5
:102DD00020830196ECEBFCE201900020E9F73197AB
:102DE000EC5BFC428E179F0750F3EE0EFF1E340182
:102DF000D60110C0D701A855B34D8C938A3021F469
:102E0000D701A855B34D1C92FFEFEF1AFF0AD90165
:102E100001C0D6019D012F5F3F4F8C918111E6CEFD
:102E2000C701800F911F44972CF084E190E07C0152
:102E3000E01AF10A80E090E008C0E3E0F0E0EC0F77
:102E4000FD1FE80FF91F1082019684319105ACF344
:102E5000B9820A8380E090E00CC0FC01E855F34D94
:102E60002081E3E0F0E0EC0FFD1FE80FF91F208365
:102E700001968E159F058CF300E02FEF3FEFA9011F
:102E8000BE016F5F7F4F8091D52C9091D62C0E9410
:102E9000DD07C7016696CDBFDEBFDF91CF911F91E1
:102EA0000F91FF90EF90DF90CF90BF909F908F9009
:102EB0007F906F9008951F920F920FB60F9211247A
:102EC0000BB60F922F933F934F935F936F937F9324
:102ED0008F939F93AF93BF93EF93FF93CF93DF9322
:102EE0001F92CDB7DEB719829E012F5F3F4F41E0A1
:102EF00050E060E070E08091D72C9091D82C0E9437
:102F0000090460E080E09BE00E945A021092060BE8
:102F10000F90DF91CF91FF91EF91BF91AF919F9172
:102F20008F917F916F915F914F913F912F910F9072
:102F30000BBE0F900FBE0F901F901895CF92DF928F
:102F4000EF92FF920F936B017C0182E0C816D104CF
:102F5000E104F10428F4C12CD12C76016894C1F865
:102F6000E0E0FBE081E0868310A211A260E080E057
:102F70009BE00E9460028EEFC8168FEFD806E10436
:102F8000F10470F4F694E794D794C794C092260B9A
:102F9000D092270B65E080E09BE00E945A0219C0A6
:102FA00080E4C81682E4D8068FE0E806F10488F4CD
:102FB000689414F8F694E794D794C7941694D1F7CC
:102FC000C092260BD092270B67E080E09BE00E9426
:102FD0005A020F2EF4EFCF2EDD24D394E12CF12CE6
:102FE000F02D00E021E041E050E060E070E08091F1
:102FF000D72C9091D82C0E94B0020F91FF90EF90A7
:10300000DF90CF9008958295807FE0E0F6E0948194
:10301000282F2F60922394839481892B8483089591
:10302000882321F081E080936506089581E08093F4
:1030300066060895882321F082E08093650608954E
:1030400082E0809366060895882321F084E08093CF
:103050006506089584E080936606089581E00E94E5
:10306000241861E070E080E090E00E949E1780E00C
:103070000E9424180895CF93C82F82958F700E94C4
:10308000031880E00E94101880E00E941A180E9425
:103090002E188C2F8F700E9403180E942E18CF912B
:1030A0000895CF93C82F82958F700E94031881E0F6
:1030B0000E94101880E00E941A180E942E188C2F6F
:1030C0008F700E9403180E942E18CF910895EF92DE
:1030D000FF920F93E0E0F6E080E1818380E281835C
:1030E00080E4818380E88183A0E6B6E081E01196E8
:1030F0008C93119782E011968C93119784E011962E
:103100008C93119784818F70848314968C9114977B
:10311000887F14968C9340E066E188E00E94B307B4
:103120008093D52C9093D62C0E949B028093D72C11
:103130009093D82CE12CF12C01E020E030E04EE51A
:1031400051E064E470E28FEF98E10E94410B0F912F
:10315000FF90EF9008958130910579F01CF4892B50
:1031600039F019C08230910569F0039781F013C0DE
:1031700080E8860F0E943B180EC080EC860F0E94EC
:103180003B1809C084E9860F0E943B1804C084EDF7
:10319000860F0E943B1867E270E080E090E00E949A
:1031A0009E1708950E9451186BE270E080E090E055
:1031B0000E949E1708950F931F93CF93DF938C0166
:1031C000C0E0D0E009C0F801EC0FFD1F808188232A
:1031D00031F00E94D2182196C431D105A4F3DF91B9
:1031E000CF911F910F910895CF93DF93EA010E9431
:1031F000AB18CE010E94DB18DF91CF910895CF93D9
:10320000DF93CDB7DEB7C656D109CDBFDEBF80E0B4
:1032100090E019C044E1489FF001499FF00D11244E
:1032200041E050E04C0F5D1FE40FF51FE20FF31F6C
:1032300040E240832F5F3F4F02C020E030E0243166
:10324000310544F3019684309105BCF360E47CE9D8
:1032500080E090E00E949E1783E00E94031868E8D7
:1032600073E180E090E00E949E170E942E1860EAB1
:1032700070E080E090E00E949E170E942E1860EAA5
:1032800070E080E090E00E949E170E942E1860EA95
:1032900070E080E090E00E949E1782E00E94031898
:1032A0000E942E1888E20E943B1880E10E943B1881
:1032B0008CE00E943B1886E00E943B1868EC70E0AE
:1032C00080E090E00E94280D40E050E0BA0180913B
:1032D000D72C9091D82C0E945703672B682B692B11
:1032E00009F45FC042E050E060E070E08091D72CCC
:1032F0009091D82C0E94570340E050E019C024E17F
:10330000249FF001259FF00D112421E030E02C0FC7
:103310003D1FE20FF31FE80FF91F20E22083019603
:1033200002C080E090E0843191054CF34F5F5F4F25
:1033300044305105B4F335C02FEF3FEFA901BE0172
:103340006F5A7F4F8091D52C9091D62C0E94C10846
:10335000882339F112C062964FAD6297E1E0F0E048
:10336000EC0FFD1F74E1479FE00DF11D1124E80FE4
:10337000F91F60832F5F3F4F02C020E030E063966B
:103380008FAD6397F901E80FF11DCF0174974CF4ED
:10339000E1E5F0E0EC0FFD1FE20FF31F6281611128
:1033A000DACF8091D52C9091D62C0E9460098111A2
:1033B000C3CF00E010E013C084E1809FA001819F93
:1033C000500D112421E030E02C0F3D1F420F531F00
:1033D00060E070E0C8010E94F4180F5F1F4F0430D6
:1033E000110554F36BCFCF93DF93CDB7DEB79E01BA
:1033F000245F3F4F4A855B85688579858E819F81F3
:103400000E94C715DF91CF9108955058BB27AA2776
:103410000E941D1A0C94971B0E94891B38F00E9471
:10342000901B20F039F49F3F19F426F40C94861B6E
:103430000EF4E095E7FB0C94801BE92F0E94A81B7B
:1034400058F3BA17620773078407950720F079F4D9
:10345000A6F50C94CA1B0EF4E0950B2EBA2FA02DE6
:103460000B01B90190010C01CA01A0011124FF2731
:10347000591B99F0593F50F4503E68F11A16F0402C
:10348000A22F232F342F4427585FF3CF469537952B
:103490002795A795F0405395C9F77EF41F16BA0BF0
:1034A000620B730B840BBAF09150A1F0FF0FBB1F9E
:1034B000661F771F881FC2F70EC0BA0F621F731FE7
:1034C000841F48F4879577956795B795F7959E3F44
:1034D00008F0B0CF9395880F08F09927EE0F9795D5
:1034E000879508950E945C1B08F481E008950E946E
:1034F0008B1A0C94971B0E94901B58F00E94891BFA
:1035000040F029F45F3F29F00C94801B51110C947A
:10351000CB1B0C94861B0E94A81B68F39923B1F364
:10352000552391F3951B550BBB27AA2762177307E9
:10353000840738F09F5F5F4F220F331F441FAA1F7D
:10354000A9F335D00E2E3AF0E0E832D09150504039
:10355000E695001CCAF72BD0FE2F29D0660F771FE7
:10356000881FBB1F261737074807AB07B0E809F0CD
:10357000BB0B802DBF01FF2793585F4F3AF09E3F52
:10358000510578F00C94801B0C94CB1B5F3FE4F347
:10359000983ED4F3869577956795B795F7959F5F95
:1035A000C9F7880F911D9695879597F90895E1E0E1
:1035B000660F771F881FBB1F621773078407BA0740
:1035C00020F0621B730B840BBA0BEE1F88F7E0959B
:1035D00008950E94F01A6894B1110C94CB1B0895C1
:1035E0000E94B01B88F09F5798F0B92F9927B751C8
:1035F000B0F0E1F0660F771F881F991F1AF0BA9597
:10360000C9F714C0B13091F00E94CA1BB1E008950F
:103610000C94CA1B672F782F8827B85F39F0B93F01
:10362000CCF3869577956795B395D9F73EF4909549
:103630008095709561957F4F8F4F9F4F0895E894C7
:1036400009C097FB3EF490958095709561957F4FEA
:103650008F4F9F4F9923A9F0F92F96E9BB27939598
:10366000F695879577956795B795F111F8CFFAF4A8
:10367000BB0F11F460FF1BC06F5F7F4F8F4F9F4FD9
:1036800016C0882311F096E911C0772321F09EE837
:10369000872F762F05C0662371F096E8862F70E09D
:1036A00060E02AF09A95660F771F881FDAF7880F77
:1036B0009695879597F90895990F0008550FAA0BCD
:1036C000E0E8FEEF16161706E807F907C0F0121635
:1036D0001306E407F50798F0621B730B840B950B38
:1036E00039F40A2661F0232B242B252B21F408958D
:1036F0000A2609F4A140A6958FEF811D811D08952A
:1037000097F99F6780E870E060E008959FEF80EC94
:10371000089500240A941616170618060906089537
:1037200000240A9412161306140605060895092E9D
:103730000394000C11F4882352F0BB0F40F4BF2B0C
:1037400011F460FF04C06F5F7F4F8F4F9F4F08954C
:1037500057FD9058440F551F59F05F3F71F0479542
:10376000880F97FB991F61F09F3F79F08795089527
:10377000121613061406551FF2CF4695F1DF08C046
:10378000161617061806991FF1CF86957105610563
:1037900008940895E894BB2766277727CB0197F90B
:1037A00008950E945C1B08F48FEF08950E94E91BA6
:1037B0000C94971B0E94891B38F00E94901B20F0EC
:1037C000952311F00C94801B0C94861B11240C94EF
:1037D000CB1B0E94A81B70F3959FC1F3950F50E07F
:1037E000551F629FF001729FBB27F00DB11D639FB3
:1037F000AA27F00DB11DAA1F649F6627B00DA11D59
:10380000661F829F2227B00DA11D621F739FB00DFE
:10381000A11D621F839FA00D611D221F749F33276E
:10382000A00D611D231F849F600D211D822F762F07
:103830006A2F11249F5750409AF0F1F088234AF0E4
:10384000EE0FFF1FBB1F661F771F881F9150504050
:10385000A9F79E3F510580F00C94801B0C94CB1B64
:103860005F3FE4F3983ED4F3869577956795B795D7
:10387000F795E7959F5FC1F7FE2B880F911D9695F1
:10388000879597F90895EE0FFF1F881F8BBF07904C
:10389000F691E02D19948F929F92AF92BF92CF92A2
:1038A000DF92EF92FF92CF93DF93EC0168817981F1
:1038B0008A819B81611571058105910521F464E27E
:1038C00079ED8BE597E02DE133EF41E050E00E9488
:1038D000C71F49015A019B01AC01A7EAB1E40E944C
:1038E000E61F6B017C01ACEEB4EFA50194010E94D0
:1038F000F41FDC01CB018C0D9D1DAE1DBF1DB7FF5C
:1039000003C00197A109B04888839983AA83BB8328
:103910009F77DF91CF91FF90EF90DF90CF90BF9096
:10392000AF909F908F9008950C944B1C80E090E294
:103930000C944B1CA0E0B0E08093002090930120F9
:10394000A0930220B09303200895FB01DC0102C084
:1039500001900D9241505040D8F70895DC0101C00C
:103960006D9341505040E0F70895BB274A3031F441
:10397000992322F4BDE2909581959F4F0C94C11C30
:10398000BB27FB015527AA27880F991FAA1FA41739
:1039900010F0A41B83955051B9F7A05DAA3308F02D
:1039A000A95DA193009779F7B111B1931192CB0161
:1039B0000C941D1F0F931F93CF93DF93CDB7DEB7EA
:1039C0002E97CDBFDEBF0E891F8986E08C830983C9
:1039D0001A838FEF9FE78D839E83AE01465E5F4F14
:1039E000688D798DCE0101960E94031DEF81F885C7
:1039F000E00FF11F10822E96CDBFDEBFDF91CF9179
:103A00001F910F9108952F923F924F925F926F9264
:103A10007F928F929F92AF92BF92CF92DF92EF925E
:103A2000FF920F931F93CF93DF93CDB7DEB72B9702
:103A3000CDBFDEBF6C017B018A01FC0116821782BB
:103A4000838181FFCCC1CE0101963C01F6019381B7
:103A5000F70193FD859193FF81917F01882309F4FC
:103A6000BAC1853239F493FD859193FF81917F012D
:103A7000853229F4B60190E00E942D1FE7CF912CEA
:103A8000212C312CFFE1F315D8F08B3279F038F48A
:103A9000803279F08332A1F4232D20611DC08D3254
:103AA00061F0803369F4232D216016C0832D82607C
:103AB000382EE32DE4603E2E2AC0F32DF8601DC0A1
:103AC00037FC2DC020ED280F2A3040F08E32B9F49B
:103AD00036FC81C1232D2064322E19C036FE06C06B
:103AE0008AE0989E200D1124922E11C0EAE02E9EAD
:103AF000200D1124222EF32DF0623F2E08C08C36AB
:103B000021F4832D8068382E02C0883641F4F701F5
:103B100093FD859193FF81917F018111B3CF982F00
:103B20009F7D9554933028F40C5F1F4F9FE399833A
:103B30000DC0833631F0833771F0833509F059C0F9
:103B400021C0F801808189830E5F1F4F88248394F0
:103B5000912C530113C02801F2E04F0E511CF801C3
:103B6000A080B18036FE03C0692D70E002C06FEF07
:103B70007FEFC5010E94121F4C018201F32DFF77D8
:103B80003F2E16C0280122E0420E511CF801A080F1
:103B9000B18036FE03C0692D70E002C06FEF7FEF89
:103BA000C5010E94071F4C01F32DF0683F2E8201D2
:103BB00033FC1BC0822D90E088169906B0F4B60144
:103BC00080E290E00E942D1F2A94F4CFF50137FC8B
:103BD000859137FE81915F01B60190E00E942D1F13
:103BE00021102A9421E0821A91088114910471F71E
:103BF000E8C0843611F0893641F5F80137FE07C078
:103C000060817181828193810C5F1F4F08C0608148
:103C10007181072E000C880B990B0E5F1F4FF32D3F
:103C2000FF763F2E97FF09C090958095709561951E
:103C30007F4F8F4F9F4FF0683F2E2AE030E0A30167
:103C40000E94691F882E861845C0853731F4232DC0
:103C50002F7EB22E2AE030E025C0932D997FB92E19
:103C60008F36C1F018F4883579F0B5C0803719F077
:103C7000883721F0B0C0E92FE061BE2EB4FE0DC040
:103C8000FB2DF460BF2E09C034FE0AC0292F266028
:103C9000B22E06C028E030E005C020E130E002C0CE
:103CA00020E132E0F801B7FE07C0608171818281B6
:103CB00093810C5F1F4F06C06081718180E090E0AE
:103CC0000E5F1F4FA3010E94691F882E8618FB2DCF
:103CD000FF773F2E36FE0DC0232D2E7FA22E891496
:103CE00058F434FE0BC032FC09C0832D8E7EA82E02
:103CF00005C0B82CA32C03C0B82C01C0B92CA4FE5D
:103D00000FC0FE01E80DF11D8081803321F49A2D52
:103D1000997EA92E09C0A2FE06C0B394B39404C034
:103D20008A2D867809F0B394A3FC11C0A0FE06C0CA
:103D3000B21488F4280C922C9B180EC0B21460F4B4
:103D4000B60180E290E00E942D1FB394F7CFB21429
:103D500018F42B1802C0982C212CA4FE10C0B60118
:103D600080E390E00E942D1FA2FE17C0A1FC03C0BB
:103D700088E790E002C088E590E0B6010CC08A2D8B
:103D8000867859F0A1FE02C08BE201C080E2A7FC58
:103D90008DE2B60190E00E942D1F891438F4B6011F
:103DA00080E390E00E942D1F9A94F7CF8A94F3014C
:103DB000E80DF11D8081B60190E00E942D1F811059
:103DC000F5CF222009F442CEB60180E290E00E94B5
:103DD0002D1F2A94F6CFF6018681978102C08FEFBE
:103DE0009FEF2B96CDBFDEBFDF91CF911F910F913B
:103DF000FF90EF90DF90CF90BF90AF909F908F900B
:103E00007F906F905F904F903F902F900895FC01AE
:103E10000590615070400110D8F7809590958E0FF5
:103E20009F1F0895FC016150704001900110D8F768
:103E3000809590958E0F9F1F0895DC01FC01672FE0
:103E400071917723E1F7329704C07C916D93708371
:103E50006291AE17BF07C8F308950F931F93CF93D6
:103E6000DF93FB01238121FD03C08FEF9FEF2CC067
:103E700022FF16C04681578124813581421753079E
:103E800044F4A081B1819D012F5F3F4F2083318396
:103E90008C93268137812F5F3F4F2683378314C051
:103EA0008B01EC01FB010084F185E02D1995892B34
:103EB000E1F6D80116968D919C911797019616966A
:103EC0008D939C931797CE01DF91CF911F910F9106
:103ED0000895FA01AA27283051F1203181F1E894A0
:103EE0006F936E7F6E5F7F4F8F4F9F4FAF4FB1E0ED
:103EF0003ED0B4E03CD0670F781F891F9A1FA11DE8
:103F0000680F791F8A1F911DA11D6A0F711D811DE8
:103F1000911DA11D20D009F468943F912AE0269FAD
:103F200011243019305D3193DEF6CF010895462F0C
:103F30004770405D4193B3E00FD0C9F7F6CF462FED
:103F40004F70405D4A3318F0495D31FD4052419356
:103F500002D0A9F7EACFB4E0A69597958795779513
:103F60006795BA95C9F700976105710508959B019A
:103F7000AC010A2E06945795479537952795BA9523
:103F8000C9F7620F731F841F951FA01D0895052E8A
:103F900097FB1EF400940E94DE1F57FD07D00E947D
:103FA000F91F07FC03D04EF40C94DE1F509540958A
:103FB000309521953F4F4F4F5F4F089590958095D5
:103FC000709561957F4F8F4F9F4F08950E941B20E2
:103FD000A59F900DB49F900DA49F800D911D11245D
:103FE0000895B7FF0C94E61F0E94E61F821B930BF7
:103FF0000895A1E21A2EAA1BBB1BFD010DC0AA1F2A
:10400000BB1FEE1FFF1FA217B307E407F50720F041
:10401000A21BB30BE40BF50B661F771F881F991FBC
:104020001A9469F760957095809590959B01AC0105
:10403000BD01CF010895A29FB001B39FC001A39F0E
:10404000700D811D1124911DB29F700D811D1124D1
:08405000911D0895F894FFCFC3
:104058000100000049444C4500546D7220537663BA
:104068000050493A20252E386600257300636F6E8C
:1040780074726F6C5F74736B0062745461736B005D
:104088004C6569626E697A5F74736B004B464C5F6E
:1040980074736B00646973705570646174650000B3
:00000001FF
