:100000000C9424010C944D010C944D010C944D0161
:100010000C944D010C944D010C944D010C944D0128
:100020000C944D010C944D010C944D010C944D0118
:100030000C944D010C944D010C942C060C944D0124
:100040000C944D010C944D010C944D010C944D01F8
:100050000C944D010C944D010C944D010C944D01E8
:100060000C944D010C944D010C944D010C944D01D8
:100070000C944D010C944D010C944D010C944D01C8
:100080000C944D010C944D010C944D010C944D01B8
:100090000C944D010C944D010C944D010C944D01A8
:1000A0000C944D010C944D010C944D010C944D0198
:1000B0000C944D010C944D010C944D010C944D0188
:1000C0000C944D010C944D010C944D010C944D0178
:1000D0000C944D010C944D010C944D010C944D0168
:1000E0000C944D010C944D010C944D010C944D0158
:1000F0000C944D010C944D010C944D010C944D0148
:100100000C944D010C944D010C944D010C944D0137
:100110000C944D010C944D010C944D010C944D0127
:100120000C944D010C944D010C944D010C944D0117
:100130000C944D010C944D010C944D010C944D0107
:100140000C944D010C944D010C944D010C944D01F7
:100150000C944D010C944D010C944D010C944D01E7
:100160000C944D010C944D010C944D010C944D01D7
:100170000C944D010C944D010C944D010C944D01C7
:100180000C944D010C944D010C944D010C944D01B7
:100190000C944D010C944D010C944D010C944D01A7
:1001A0000C944D010C944D010C944D010C944D0197
:1001B0000C9499190C944D010C944D010C944D0123
:1001C0000C944D010C944D010C944D010C944D0177
:1001D0000C944D010C944D010C944D010C944D0167
:1001E0000C944D010C944D010C944D010C944D0157
:1001F0000C944D010C944D010C944D014612461285
:10020000461293127B1290124612461293127B12E0
:100210000C946E130C943C0B0C94D0130C947B1226
:100220000C941B150C9493120C9446140C94EF131D
:100230000C94AF120C941D130C9446120C94901253
:100240000C940A040C943D1B11241FBECFEFCDBFAC
:10025000DFE3DEBF00E00CBFE5E3F1E38AEA90E410
:100260008193E030F907E0F310E2A0E0B0E2E0E1D2
:10027000F4E400E00BBF02C007900D92AA3BB10767
:10028000D9F721E3AAEBB0E201C01D92A533B20772
:10029000E1F70E9486150C9406220C940000E0EA17
:1002A000F6E080E1828380E2828380E4828380E8DA
:1002B000828308958091A80684FD0EC08091C0209D
:1002C0009091C12080362AEE9207E8F4019680933F
:1002D000C0209093C12017C08091C0209091C12070
:1002E0008B30910548F0C39718F010922C3107C05D
:1002F00081E080932C3103C082E080932C311092F6
:10030000C0201092C1208091A80685FD0EC080916A
:10031000BE209091BF2080362AEE9207E8F4019625
:100320008093BE209093BF2017C08091BE209091F3
:10033000BF208B30910548F0C39718F010922D31F3
:1003400007C081E080932D3103C082E080932D317E
:100350001092BE201092BF208091A80686FD0EC08C
:100360008091BC209091BD2080362AEE9207E8F45F
:1003700001968093BC209093BD2017C08091BC2033
:100380009091BD208B30910548F0C39718F01092E2
:100390002E3107C081E080932E3103C082E080932C
:1003A0002E311092BC201092BD208091A806882387
:1003B00074F08091BA209091BB2080362AEE92078B
:1003C000E8F401968093BA209093BB200895809121
:1003D000BA209091BB208B30910548F0C39718F05C
:1003E00010922F3107C081E080932F3103C082E04B
:1003F00080932F311092BA201092BB200895813043
:1004000049F028F0823049F0833051F00CC08091DF
:100410002C31089580912D31089580912E310895C9
:1004200080912F31089582E008950F93CF93DF9349
:100430001F92CDB7DEB72FB72983F8941BBEFC01FE
:1004400008ED04BF608389818FBF0F90DF91CF914A
:100450000F910895662311F090E201C090E0892B7E
:10046000482B4093520008956F71862B809355005E
:100470000895E0E5F0E09081282F20959223908365
:10048000908189230895682B81E490E00E941502F1
:1004900008950F931F93CF93C82F00E410E0F80145
:1004A0006081687F682B80E490E00E941502F8016B
:1004B00080818C23CF911F910F910895FC01908131
:1004C000907F692B60830895FC019181987F692B4F
:1004D00061830895FC0196819C7F692B6683089552
:1004E000000088ED84BF81E08093790008950E9428
:1004F000700208958BE20E94770208950F93011114
:100500000CC0DC01CB0182239323A423B523892BC8
:100510008A2B8B2B79F480E010C0DC01CB01822385
:100520009323A423B523281739074A075B0721F033
:1005300080E003C081E001C081E00F910895CF9376
:10054000DF9380E190E00E941A04EC01009741F0F3
:10055000FC011192119211921192CF010E9441045B
:10056000CE01DF91CF9108952F923F924F925F92EB
:100570006F927F928F929F92AF92BF92CF92DF92B3
:10058000EF92FF920F931F93CF93DF93EC014A01F9
:100590005B01622E702E0E94D40B288039804A8025
:1005A0005B80A5019401C201B1010E947E028823F3
:1005B000A1F0662089F1D501C40180959095A095A0
:1005C000B09582219321A421B52188839983AA83A0
:1005D000BB83C12CD12C760122C0C114D104E1040B
:1005E000F104E9F0611004C040E050E0BA0104C039
:1005F00040E050E060E071E07110746048295929D2
:100600006A297B2997018601CE0104960E94440E37
:10061000212C312C210103C0C12CD12C76010E9448
:10062000BC0CCD28CE28CF2889F1811102C00E94B0
:10063000AC050E948B0F6B017C0191FD24C0F091F1
:10064000A200FF93F87FF093A200C880D980EA80CF
:10065000FB80072DA5019401C701B6010E947E020F
:10066000882371F0662061F080949094A094B094F7
:100670008C209D20AE20BF2088829982AA82BB82D6
:10068000FF91F093A200160127015524C201B10188
:10069000DF91CF911F910F91FF90EF90DF90CF905E
:1006A000BF90AF909F908F907F906F905F904F9092
:1006B0003F902F9008950F931F93F091A200FF9306
:1006C000F87FF093A200FC01008111812281338127
:1006D0004095509560957095402351236223732374
:1006E0004083518362837383FF91F093A200C90119
:1006F000B8011F910F9108954F925F926F927F9270
:10070000AF92BF92CF92DF92EF92FF920F931F931F
:10071000CF93DF93EC016A017B018C01095F1F4FCE
:100720000E94D40BEB85FC8588819981AA81BB81CD
:10073000C82AD92AEA2AFB2AC882D982EA82FB82FD
:10074000C12CD12C76013DC0A480B58080819181DF
:10075000A281B381AC01BD017727B2FD0EC04880F4
:1007600059806A807B804422552266227722452860
:100770004628472889F420E012C0488059806A80C2
:100780007B80442255226622772244155505660552
:10079000770521F020E003C021E001C021E0222301
:1007A00071F0B0FF04C0C42AD52AE62AF72A48818E
:1007B00059816A817B817260CF010E94CC0EEA2D43
:1007C000FB2DE017F10709F0BFCFC094D094E0945F
:1007D000F09488819981AA81BB81C822D922EA221A
:1007E000FB22C882D982EA82FB820E94BC0C68810B
:1007F00079818A819B81DF91CF911F910F91FF9029
:10080000EF90DF90CF90BF90AF907F906F905F9010
:100810004F9008950E947C0308950F931F938901C0
:100820009A01AB01BC018AE094E00E94BE121F91C4
:100830000F910895CF93DF93EC010E94D40B209188
:10084000C2203091C320C9018C0F9D1F803A4FE018
:10085000940758F42817390758F4E901CC53DF4DB1
:100860008093C2209093C32005C0C0E0D0E002C0B6
:10087000C0E0D0E00E94BC0CCE01DF91CF91089582
:100880000895FC010396818392834FEF5FEFBA01D5
:100890004383548365837683878390878187928798
:1008A00010820895FC01128613860895CF93DF937A
:1008B0009C01FB01DC011196CD91DC911297C48360
:1008C000D5838E819F81868397838E819F81DC0172
:1008D00014966D937C9315976E837F83228733875D
:1008E000F90180818F5F8083DF91CF9108950F930D
:1008F0001F93CF93DF93EB01088119812A813B81FC
:100900000F3F4FEF14072407340721F4FC01A185A2
:10091000B28511C0DC01139601C0DF011496ED9180
:10092000FC911597408151816281738104171507ED
:100930002607370790F71496ED91FC911597EC83F5
:10094000FD83C683D783AE83BF831496CD93DC9398
:1009500015978A879B87FC0120812F5F2083DF9179
:10096000CF911F910F910895CF93DF93FC01A28542
:10097000B385C481D581868197818E839F83C6810B
:10098000D781848195818C839D8311968D919C91D3
:100990001297E817F90731F48681978111968D93A4
:1009A0009C931297128613868C9181508C938C9114
:1009B000DF91CF91089583EF91E080932608909383
:1009C000270865E080E098E00E945E0261E080E038
:1009D00098E00E946A020895E0EAF0E08281928144
:1009E000987F92830895CF930E94EC04C82F0E94B1
:1009F000EC0BC093A200CF910895CF92DF92EF92BB
:100A0000FF9231E1FC013083319722E2208331975C
:100A1000A3E3A0836B01E12CF12C31976083319724
:100A2000D0823197E082319761E36083319760E84B
:100A30006083319767E86083319710823197108225
:100A4000319762E06083319763E06083319764E0BF
:100A50006083319765E06083319766E0608331970A
:100A600067E06083319768E06083319769E0608375
:100A7000319760E1608331973083319732E1308381
:100A8000319733E13083319734E13083319735E169
:100A90003083319736E13083319737E130833197B6
:100AA00038E13083319739E13083319730E2308358
:100AB000319731E2308331972083319723E22083CD
:100AC0006A01319740833197D082319726E22083A3
:100AD000319727E22083319728E22083319729E25A
:100AE0002083319720E320838897FF90EF90DF9059
:100AF000CF9008950E94DB04A091D230B091D33002
:100B00000D900DBE0D900EBEEF91DF91CF91BF9174
:100B1000AF919F918F917F916F915F914F913F9195
:100B20002F911F910F91FF90EF90DF90CF90BF908A
:100B3000AF909F908F907F906F905F904F903F907D
:100B40002F901F900F90FF91F093A200FF91FFBF95
:100B5000FF91089581E00895FF93FFB7FF93F0910F
:100B6000A200FF93F87FF093A2000F921F9211242E
:100B70002F923F924F925F926F927F928F929F92AD
:100B8000AF92BF92CF92DF92EF92FF920F931F939B
:100B90002F933F934F935F936F937F938F939F9385
:100BA000AF93BF93CF93DF93EF93A091D230B091E7
:100BB000D3300DB60D920EB60D920E94AB0DA091E2
:100BC000D230B091D3300D900DBE0D900EBEEF918E
:100BD000DF91CF91BF91AF919F918F917F916F9155
:100BE0005F914F913F912F911F910F91FF90EF9047
:100BF000DF90CF90BF90AF909F908F907F906F903D
:100C00005F904F903F902F901F900F90FF91F09327
:100C1000A200FF91FFBFFF910895CF9390913031D3
:100C2000892B809330319091A000913041F09091C8
:100C3000A000923021F09091A000943059F48823C4
:100C400049F00E94EC04C82F109230310E94AB0D85
:100C5000C093A200CF910895FF93FFB7FF93F09147
:100C6000A200FF93F87FF093A2000F921F9211242D
:100C70002F923F924F925F926F927F928F929F92AC
:100C8000AF92BF92CF92DF92EF92FF920F931F939A
:100C90002F933F934F935F936F937F938F939F9384
:100CA000AF93BF93CF93DF93EF93A091D230B091E6
:100CB000D3300DB60D920EB60D920E94F30481E072
:100CC0000E940D06A091D230B091D3300D900DBE90
:100CD0000D900EBEEF91DF91CF91BF91AF919F919B
:100CE0008F917F916F915F914F913F912F911F91C4
:100CF0000F91FF90EF90DF90CF90BF90AF909F90BB
:100D00008F907F906F905F904F903F902F901F90AB
:100D10000F90FF91F093A200FF91FFBFFF911895F4
:100D2000F091A200FF93F87FF093A200FC01868D62
:100D3000811102C081E001C080E0FF91F093A20028
:100D40000895F091A200FF93F87FF093A200FC01B8
:100D5000268D878D281302C081E001C080E0FF91BD
:100D6000F093A20008950F931F93CF93DF93EC01AC
:100D7000042F1E8D48A14423B9F1011116C050E083
:100D80008C819D810E94E41E28A18C819D81820F0F
:100D9000911D8C839D832A813B818217930720F1CB
:100DA000888199818C839D831FC050E08E819F81B3
:100DB0000E94E41E88A190E09195819591092E8171
:100DC0003F81280F391F2E833F8348815981241783
:100DD000350730F42A813B81820F931F8E839F83D6
:100DE000023011F4111111501F5F1E8F80E0DF914E
:100DF000CF911F910F910895FC0140A14423A9F0C8
:100E000050E026813781240F351F26833783828166
:100E100093812817390720F08081918186839783F9
:100E2000CB01668177810E94E41E08951F93CF93C2
:100E3000DF93EC01F091A200FF93F87FF093A20002
:100E40001AA10BC08B89882351F0CE0143960E94D2
:100E50008A0E81110E94790F115011169CF38FEFA9
:100E60008AA3FF91F093A200F091A200FF93F87F74
:100E7000F093A20019A10BC08885882351F0CE0100
:100E800008960E948A0E81110E94790F1150111646
:100E90009CF38FEF89A3FF91F093A200DF91CF9194
:100EA0001F910895CF93DF93EC01F091A200FF937F
:100EB000F87FF093A200E881F9818F8D90E028A15E
:100EC00030E0829FA001839F500D929F500D11240E
:100ED0004E0F5F1F4A835B831E8EEC83FD83019759
:100EE000289FA001299F500D389F500D1124CF013C
:100EF000840F951F8E839F838FEF89A38AA361112F
:100F00000CC08885882389F0CE0108960E948A0E3D
:100F1000882359F00E94AC0508C0CE0108960E94B3
:100F20004104CE0143960E944104FF91F093A20038
:100F300081E0DF91CF910895FF920F931F93CF939C
:100F4000DF93F22EE801611103C00883198302C008
:100F5000488359838F8F68A361E0CE010E945207B6
:100F6000FCA2DF91CF911F910F91FF900895DF9226
:100F7000EF92FF920F931F93CF93DF93E82EF62EFD
:100F8000D42E662321F0869FC001112402C080E088
:100F900090E085960E941A04EC01009749F08C01BC
:100FA0002D2DAC014B5D5F4F6F2D8E2D0E949C0748
:100FB000CE01DF91CF911F910F91FF90EF90DF90C5
:100FC0000895CF92DF92EF92FF920F931F93CF93EA
:100FD000DF93CDB7DEB72997CDBFDEBF7C016B01B4
:100FE0002E833F834887598710E0F091A200FF933A
:100FF000F87FF093A200F701968D878D981710F077
:101000000230D1F4402FB601C7010E94B306F701A8
:101010009389992349F0C70143960E948A0E882339
:1010200031F00E94AC0503C081110E94AC05FF9114
:10103000F093A20081E058C08E819F81A885B98578
:10104000892B8A2B8B2B29F4FF91F093A20080E04F
:101050004BC0111105C0CE0101960E94000F11E096
:10106000FF91F093A2000E94D40BF091A200FF9395
:10107000F87FF093A200F70181A18F3F09F411A23C
:10108000F70182A18F3F09F412A2FF91F093A20011
:10109000BE016A5F7F4FCE0101960E94110F811140
:1010A0001DC0C7010E94A106882391F04E815F8177
:1010B00068857985C70108960E942C0EC7010E9499
:1010C00016070E94BC0C811190CF0E94AC058DCFF9
:1010D000C7010E9416070E94BC0C87CFC7010E945F
:1010E00016070E94BC0C80E02996CDBFDEBFDF91C1
:1010F000CF911F910F91FF90EF90DF90CF900895C7
:10110000AF92BF92CF92DF92FF920F931F93CF9334
:10111000DF93EC016B015A01022F0E94EC04F82EC0
:101120009E8D8F8D981710F00230E1F41AA1402F98
:10113000B601CE010E94B3061F3F81F48B8988233C
:1011400099F0CE0143960E948A0E882379F0A1146B
:10115000B10471F081E0F50180830BC01F5F1AA319
:1011600081E007C080E005C081E003C081E001C0EC
:1011700081E0F092A200DF91CF911F910F91FF903B
:10118000DF90CF90BF90AF900895CF92DF92EF9213
:10119000FF920F931F93CF93DF93CDB7DEB72997BD
:1011A000CDBFDEBF8C016B012E833F8348875987FB
:1011B000E12CF091A200FF93F87FF093A200F801D8
:1011C000F68CFF20B1F0B601C8010E94FC06FA942B
:1011D000F801F68E8085882339F0C80108960E94B0
:1011E0008A0E81110E94AC05FF91F093A20081E06C
:1011F0005FC08E819F81A885B985892B8A2B8B2B17
:1012000029F4FF91F093A20080E052C0E11006C0E3
:10121000CE0101960E94000FEE24E394FF91F0931B
:10122000A2000E94D40BF091A200FF93F87FF093EC
:10123000A200F80181A18F3F09F411A2F80182A157
:101240008F3F09F412A2FF91F093A200BE016A5FE2
:101250007F4FCE0101960E94110F81111DC0C80160
:101260000E949006882391F04E815F816885798580
:10127000C80143960E942C0EC8010E9416070E94C6
:10128000BC0C811196CF0E94AC0593CFC8010E947F
:1012900016070E94BC0C8DCFC8010E9416070E9441
:1012A000BC0CC8010E949006882309F482CF80E01C
:1012B0002996CDBFDEBFDF91CF911F910F91FF9097
:1012C000EF90DF90CF900895F091A200FF93F87F08
:1012D000F093A200FC01868DFF91F093A200089587
:1012E000CF93DF93EC01F091A200FF93F87FF0938E
:1012F000A20089A18F3F09F419A28AA18F3F09F4A6
:101300001AA2FF91F093A2008E8D811104C0CE012C
:1013100043960E94690ECE010E941607DF91CF917D
:101320000895E0918E30F0918F30808181110CC052
:101330008FEF9FEFDC018093673090936830A0932C
:101340006930B0936A300895E0918E30F0918F301B
:101350000780F085E02D0084F185E02D8281938166
:10136000A481B5818093673090936830A0936930F1
:10137000B0936A3008952F923F924F925F926F928E
:101380007F928F929F92AF92BF92CF92DF92EF9215
:101390000F931F93CF93DF93CDB7DEB71C014B01A3
:1013A00029013A01A90165EA70E0F501838D948D68
:1013B0000E94ED1EF501838D948DF1E04F1A5108C6
:1013C000480E591E20E00FC0822F90E0F401E80F74
:1013D000F91F3081D501A80FB91F5D963C9380811C
:1013E000882319F02F5F283078F3F50114A2F3E079
:1013F000FE1520F40F2EF3E0EF2EF02DF501E28E16
:10140000C50102960E945204C5010E960E94520424
:10141000F501A286B38684E090E0A0E0B0E08E19EA
:101420009109A109B10986879787A08BB18BA68AFC
:10143000B78A17A210A611A612A613A6A801B10179
:10144000C2010E94FD04F50180839183C114D1047F
:1014500019F0F601A082B182DF91CF911F910F9117
:10146000EF90DF90CF90BF90AF909F908F907F9044
:101470006F905F904F903F902F900895CF93C0E072
:1014800009C02BE0C29FC00111248A559F4C0E94C5
:101490004104CF5FC430A8F38BE990E30E9441047C
:1014A00080E990E30E94410481E890E30E944104B6
:1014B00086E790E30E9441048BE990E380938E30AD
:1014C00090938F3080E990E380938C3090938D30AF
:1014D000CF910895CF93DF93EC01F091A200FF9399
:1014E000F87FF093A200809175308F5F8093753004
:1014F0008091D2309091D330892B59F4C093D2305F
:10150000D093D33080917530813099F40E943E0A97
:1015100010C080916F3081110CC0E091D230F091F9
:10152000D330928D8A8D891720F0C093D230D0931A
:10153000D33080916B308F5F80936B308DA38A8D19
:1015400090917030981710F4809370302BE0829F48
:10155000C0011124BE016E5F7F4F8A559F4C0E94CF
:101560005604FF91F093A20080916F30882351F0D0
:10157000E091D230F091D330928D8A8D981710F48B
:101580000E94AC05DF91CF9108958F929F92AF9208
:10159000BF92CF92DF92EF92FF92CF936B017C01CB
:1015A000C42F8090713090907230A0907330B090C2
:1015B00074308091D2309091D33002960E94B4045E
:1015C0008FEFC816D806E806F80669F4CC2359F060
:1015D0006091D2307091D3306E5F7F4F86E790E399
:1015E0000E9456043FC0C80CD91CEA1CFB1CE091A9
:1015F000D230F091D330C282D382E482F582C81413
:10160000D904EA04FB0468F46091D2307091D330BD
:1016100080918C3090918D306E5F7F4F0E94770467
:1016200021C06091D2307091D33080918E309091F2
:101630008F306E5F7F4F0E9477048091673090916A
:101640006830A0916930B0916A30C816D906EA06B0
:10165000FB0640F4C0926730D0926830E092693067
:10166000F0926A30CF91FF90EF90DF90CF90BF90D3
:10167000AF909F908F9008958091A630823010F0A7
:101680000E94AC050E948515F7CF2F923F924F9292
:101690005F926F927F928F929F92AF92BF92CF9202
:1016A000DF92EF92FF920F931F93CF93DF933C0152
:1016B0001B015A012901CA010E941A046C01892BDD
:1016C00071F08CE290E00E941A04EC01892B19F071
:1016D000CB8EDC8E06C0C6010E94400402C0C0E072
:1016E000D0E0209791F0950140E050E0812C912CC2
:1016F0005E016701E02E8201B101C3010E94BB09B6
:10170000CE010E946A0A81E001C08FEFDF91CF9184
:101710001F910F91FF90EF90DF90CF90BF90AF900F
:101720009F908F907F906F905F904F903F902F9001
:101730000895EF92FF920F930F2EF5E6EF2EF0E350
:10174000FF2EF02D00E020E030E048EC50E064E0B7
:1017500070E28CE39BE00E94450B813011F40E9403
:1017600041108130E9F4E0EAF0E08281887F8283F1
:101770008FEF9FEFDC018093673090936830A093E8
:101780006930B0936A3081E080936F30109271308D
:101790001092723010927330109274300E947A0559
:1017A0000F91FF90EF900895809164308F5F809348
:1017B00064300895F091A200FF93F87FF093A200A7
:1017C000609171307091723080917330909174306B
:1017D000FF91F093A2000895BF92CF92DF92EF9213
:1017E000FF920F931F93CF93DF9380916430811109
:1017F000A9C0C0907130D0907230E0907330F090FA
:1018000074302FEFC21AD20AE20AF20AC092713083
:10181000D0927230E0927330F0927430C114D104DF
:10182000E104F104B9F480918E3090918F302091D1
:101830008C3030918D3020938E3030938F30809368
:101840008C3090938D3080916C308F5F80936C30B2
:101850000E9491098091673090916830A091693021
:10186000B0916A30C816D906EA06FB0628F4B12CF6
:101870005AC0BB24B39401C0B12CE0918E30F091DA
:101880008F30808181110CC08FEF9FEFDC0180933E
:10189000673090936830A0936930B0936A3043C04A
:1018A000E0918E30F0918F300780F085E02DC0857B
:1018B000D1858A819B81AC81BD81C816D906EA0693
:1018C000FB0648F48093673090936830A0936930AA
:1018D000B0936A3028C08E010E5F1F4FC8010E946E
:1018E000B404888D998D892B21F0CE010E960E942B
:1018F000B4048A8D90917030981710F480937030F2
:101900002BE0829FC0011124B8018A559F4C0E9490
:1019100056049A8DE091D230F091D330828D981791
:1019200008F0A7CFAACFE091D230F091D330E28D6A
:101930008BE0E89FF0011124EA55FF4C8081823052
:1019400040F409C080916E308F5F80936E30B12C6F
:1019500002C0BB24B39480916D30882311F0BB2466
:10196000B3948B2DDF91CF911F910F91FF90EF904A
:10197000DF90CF90BF9008950F931F93CF93DF9385
:10198000F091A200FF93F87FF093A2008091643061
:1019900081508093643080916430811152C0809175
:1019A000753081112DC050C0E0918830F0918930A0
:1019B000C085D185CE010E960E94B4048E010E5FC3
:1019C0001F4FC8010E94B4048A8D909170309817FF
:1019D00010F4809370302BE0829FC0011124B80175
:1019E0008A559F4C0E9456049A8DE091D230F09116
:1019F000D330828D981730F081E080936D3002C033
:101A0000C0E0D0E0809181308111CECFCD2B11F09C
:101A10000E949109C0916E30CC2359F00E94EC0BCA
:101A2000882319F081E080936D30C150B9F710928E
:101A30006E3080916D30882331F00E94AC0581E0DA
:101A400003C080E001C080E0FF91F093A200DF912D
:101A5000CF911F910F910895CF92DF92EF92FF9255
:101A60000F931F93CF93DF93EC016A017B010E94D8
:101A7000D40B0091713010917230209173303091FD
:101A8000743088819981AA81BB81AC01BD014C0D64
:101A90005D1D6E1D7F1D081719072A073B0760F49F
:101AA000481759076A077B0798F404171507260794
:101AB000370780F080E013C0481759076A077B0793
:101AC00058F0041715072607370740F080E007C0D5
:101AD00080E005C081E003C081E001C081E048836F
:101AE00059836A837B83882349F0CB01BA01601B49
:101AF000710B820B930B40E00E94C50A0E94BC0C44
:101B0000811102C00E94AC05DF91CF911F910F910E
:101B1000FF90EF90DF90CF900895CF92DF92EF92F9
:101B2000FF926B017C01672B682B692B51F00E949F
:101B3000D40B40E0C701B6010E94C50A0E94BC0C4C
:101B400001C080E0811102C00E94AC05FF90EF90BF
:101B5000DF90CF90089580916430882321F081E058
:101B600080936D30089510926D30E091D230F091F5
:101B7000D330038CF48DE02D80819181A281B381DB
:101B8000853A954AA54AB54AD9F484819581A681BA
:101B9000B781853A954AA54AB54A91F480859185E1
:101BA000A285B385853A954AA54AB54A49F4848504
:101BB0009585A685B785853A954AA54AB54A61F0C7
:101BC0006091D2307091D330635E7F4F8091D2307C
:101BD0009091D3300E947A028091703001C0815080
:101BE000282F30E09BE0929FF001939FF00D11248D
:101BF000EA55FF4C9081992391F39BE0929FA001BD
:101C0000939F500D1124DF010180F281E02D0480AB
:101C1000F581E02D1196ED93FC93129747555F4C9B
:101C2000E417F50729F444815581FD01418352836E
:101C30009BE0929FF001939FF00D1124EA55FF4C19
:101C40000180F281E02D208531852093D2303093C0
:101C5000D330809370300895CF92DF92EF92FF924D
:101C60006A017B016091D2307091D330625F7F4F07
:101C70000E94770441E0C701B6010E94C50AFF90A7
:101C8000EF90DF90CF900895CF92DF92EF92FF9286
:101C90000F931F9368017901E091D230F091D33016
:101CA000706846875787608B718B6091D2307091D6
:101CB000D330625F7F4F0E94560441E0C701B601F6
:101CC0000E94C50A1F910F91FF90EF90DF90CF9077
:101CD0000895CF92DF92EF92FF92CF936A017B013A
:101CE000C22F6091D2307091D330625F7F4F0E94DB
:101CF0005604CC2321F0CC24CA94DC2C76014C2F42
:101D0000C701B6010E94C50ACF91FF90EF90DF9006
:101D1000CF9008950F931F93CF93DF93DC01179615
:101D2000ED91FC911897C085D1858E01025F1F4F00
:101D3000C8010E94B40480916430811116C00C5017
:101D40001109C8010E94B4048A8D909170309817CF
:101D500010F480937030BBE08B9FC0011124B80158
:101D60008A559F4C0E94560405C0B80181E890E353
:101D70000E9456049A8DE091D230F091D330828D3A
:101D8000891720F481E080936D3001C080E0DF91FD
:101D9000CF911F910F9108950F931F93CF93DF93CE
:101DA0007068FC014083518362837383C085D18551
:101DB0000E94B4048E010E5F1F4FC8010E94B4043C
:101DC0008A8D90917030981710F480937030FBE0FA
:101DD0008F9FC0011124B8018A559F4C0E94560460
:101DE0009A8DE091D230F091D330828D891718F41A
:101DF00081E080936D30DF91CF911F910F91089515
:101E000020916C30FC0120834091713050917230F0
:101E10006091733070917430418352836383748313
:101E200008958F929F92AF92BF92CF92DF92EF92DE
:101E3000FF920F931F93CF93DF93DB01F091A200EA
:101E4000FF93F87FF093A200C0907130D090723071
:101E5000E0907330F0907430EC0109811A812B818D
:101E60003C8146015701801A910AA20AB30A4D919A
:101E70005D916D917C9113974F3FDFEF5D076D078B
:101E80007D0721F1EC01F881E0916C30FE1729F01B
:101E9000C016D106E206F306D8F484169506A60607
:101EA000B70668F4481959096A097B094D935D938F
:101EB0006D937C9313970E94000F80E00AC01D92DF
:101EC0001D921D921C92139781E003C080E001C017
:101ED00081E0FF91F093A200DF91CF911F910F91CC
:101EE000FF90EF90DF90CF90BF90AF909F908F903A
:101EF000089581E080936D30089580916F3088233C
:101F000031F080916430811104C082E0089581E055
:101F1000089580E00895CF92DF92EF92FF92E091D2
:101F2000D230F091D3306685778580899189E091B0
:101F3000D230F091D330A091D230B091D3305A96B4
:101F40002C91C12CD12C76016894C2F8C21AD10808
:101F5000E108F108C686D786E08AF18AFF90EF9003
:101F6000DF90CF900895DC01E091DE30F091DF301A
:101F7000808191E0811190E09C93911108C00780CD
:101F8000F085E02D6081718182819381089560E008
:101F900070E0CB010895CF92DF92EF92FF920F9302
:101FA0001F93FC01428353836483758382879387E5
:101FB0000417150726073707C0F00C191D092E094D
:101FC0003F0986859785A089B189081719072A07CF
:101FD0003B0700F5BF016E5F7F4F8091DC30909131
:101FE000DD300E94770480E018C00C151D052E0519
:101FF0003F0528F44C155D056E057F0568F4BF01AB
:102000006E5F7F4F8091DE309091DF300E947704C9
:1020100080E003C081E001C081E01F910F91FF903B
:10202000EF90DF90CF900895F091A200FF93F87F9A
:10203000F093A2008091DA309091DB30892BE9F4A3
:102040008BEE90E30E94410480EE90E30E944104F5
:102050008BEE90E38093DE309093DF3080EE90E360
:102060008093DC309093DD3040E069E085E00E94B1
:10207000B7078093DA309093DB30FF91F093A200A2
:102080000895EF92FF920F930E9414108091DA301E
:102090009091DB30892B91F00F2EF8EDEF2EF0E3CD
:1020A000FF2EF02D03E020E030E048EC50E069E046
:1020B00070E28FEA92E10E94450B01C080E00F912F
:1020C000FF90EF9008958F929F92AF92BF92CF9220
:1020D000DF92EF92FF920F931F93CF93DF93CDB7D1
:1020E000DEB72997CDBFDEBFE091DA30F091DB306B
:1020F000309789F169832A833B834C835D838E8388
:102100009F836630FCF40E947D0F823069F400E00A
:10211000A7019601BE016F5F7F4F8091DA309091E9
:10212000DB300E94E10718C000E020E030E0A901A8
:10213000BE016F5F7F4F8091DA309091DB300E945B
:10214000E1070AC020E0A801BE016F5F7F4FCF0109
:102150000E94800801C080E02996CDBFDEBFDF91DC
:10216000CF911F910F91FF90EF90DF90CF90BF9094
:10217000AF909F908F9008958F929F92AF92BF9251
:10218000CF92DF92EF92FF920F931F93CF93DF9343
:102190003CC00780F085E02D80809180A280B380D4
:1021A000C085D1858E010E5F1F4FC8010E94B40407
:1021B000ED89FE89CE0119958A89813031F58E85A8
:1021C0009F85A889B989880D991DAA1DBB1D8816F0
:1021D0009906AA06BB0670F48A839B83AC83BD83F1
:1021E000CA87DB87B8018091DE309091DF300E9492
:1021F00077040BC0C12CD12C760100E010E0A501C2
:10220000940160E0CE010E946310E091DE30F09115
:10221000DF3080818111BDCF8091DC309091DD3045
:102220008093DE309093DF30E093DC30F093DD304C
:10223000DF91CF911F910F91FF90EF90DF90CF90A2
:10224000BF90AF909F908F900895CF92DF92EF92C2
:10225000FF92CF93DF93EC010E94DA0B6B017C01BC
:102260008091D4309091D530A091D630B091D730B4
:10227000C816D906EA06FB0628F40E94BC1081E0C5
:10228000888301C01882C092D430D092D530E092B9
:10229000D630F092D730C701B601DF91CF91FF90D1
:1022A000EF90DF90CF9008954F925F926F927F9260
:1022B0008F929F92AF92BF92CF92DF92EF92FF9256
:1022C0000F931F93CF93DF934B015C0129013A01D8
:1022D000E091DE30F091DF300780F085E02DC085A1
:1022E000D185CE0102960E94B4048A898130E1F43E
:1022F0004E855F8568897989480D591D6A1D7B1D4A
:102300007501640193018201CE010E94CB0F8823E5
:1023100059F0C12CD12C760100E010E0A501940108
:1023200060E0CE010E946310ED89FE89CE0119950F
:10233000DF91CF911F910F91FF90EF90DF90CF90A1
:10234000BF90AF909F908F907F906F905F904F90D5
:1023500008958F929F92AF92BF92CF92DF92EF92A9
:10236000FF921F93CF93DF931F92CDB7DEB76B0120
:102370007C01142F0E94D40BCE0101960E942511DE
:102380004B015C01898181112EC011110EC08C148A
:102390009D04AE04BF0448F00E94BC0CA50194014A
:1023A000C701B6010E94541120C0112341F0E091F1
:1023B000DC30F091DD30808111E0811110E0B70157
:1023C000A601481959096A097B09212F8091DA3041
:1023D0009091DB300E9470090E94BC0C811105C0F5
:1023E0000E94AC0502C00E94BC0C0F90DF91CF91FF
:1023F0001F91FF90EF90DF90CF90BF90AF909F9094
:102400008F900895AF92BF92CF92DF92EF92FF929A
:102410000F931F93CF93DF93CDB7DEB72A97CDBF2E
:10242000DEBF81C0898188234CF4EA81FB814E8123
:102430005F81688579858C819D8119958981882343
:102440000CF471C0AE80BF80D5011C968D919C911B
:102450001D97892B21F0C50102960E94B404CE017C
:102460000A960E9425118B019C018981082E000C7F
:10247000990BAA0BBB0B8A30910508F054C0FC01E4
:102480008827E250FF4F8F4F0C94DC1ECA80DB8000
:10249000EC80FD80F50146855785608971894C0D7A
:1024A0005D1D6E1D7F1DC5010E94CB0F8823D9F1D4
:1024B000D5015596ED91FC915697C5011995F501F9
:1024C0008289813081F54A815B816C817D8186853D
:1024D0009785A089B1899A01AB01280F391F4A1F3E
:1024E0005B1FC12CD12C760100E010E060E0C5013B
:1024F0000E94631018C04A815B816C817D81D50187
:102500001E964D935D936D937C935197400F511F91
:10251000621F731F68017901C5010E94CB0F03C0C0
:10252000C5010E94400420E030E0A901BE016F5FB8
:102530007F4F8091DA309091DB300E94C508811185
:1025400071CF2A96CDBFDEBFDF91CF911F910F9142
:10255000FF90EF90DF90CF90BF90AF900895CF9312
:10256000DF931F92CDB7DEB7CE0101960E94B30F65
:1025700049810E94A9110E940212F6CF0F931F9366
:10258000CF93DF93CDB7DEB72997CDBFDEBFEEEF98
:10259000E9838A839B836C837D832E833F83488773
:1025A000598720E0A801BE016F5F7F4F8091DA302C
:1025B0009091DB300E9480082996CDBFDEBFDF916D
:1025C000CF911F910F910895E0E5F0E08081816047
:1025D00080838091510080FFFCCF80E00E944902FF
:1025E0008EE10E94390260E080E00E94430243E0F5
:1025F00060E080E40E942A02E0E5F0E080818860EB
:1026000080838091510083FFFCCF64E080EC0E94C6
:102610003402E0E5F0E080818061808360E080E06A
:102620000E9443028091510084FFFCCF84E00E940D
:10263000490287E00E9439020895CF93DF9300D0CA
:102640001F92CDB7DEB70E94DA0B69837A838B8342
:102650009C838091F630823021F08091F630833077
:1026600031F58091FA309091FB3001968093FA30E9
:102670009093FB308091FA309091FB30CC976CF0C6
:102680001092FA301092FB308091F8309091F9302E
:1026900001968093F8309093F9308091F8309091C2
:1026A000F930CC9724F01092F8301092F9308091E4
:1026B000F730882351F01092FA301092FB301092CC
:1026C000F8301092F9301092F73048EE53E060E0A5
:1026D00070E0CE0101960E942C0DBBCF0F2E812CF5
:1026E000912CF0E8AF2EFFE3BF2EF02DC12CD12CA2
:1026F00076018091F6308230A9F5D701C601880FA6
:10270000991FAA1FBB1FBC01CD016F5F7F4F8F4F69
:102710009F4F0E945D1D9B01AC01C501B4010E9449
:10272000B51C20E030E040E850E40E94141E2091E7
:1027300000313091013140910231509103310E94BA
:10274000441C609300317093013180930231909367
:102750000331B7FAB094B7F8B0948FEFC81AD80A1B
:10276000E80AF80A8091F730882399F01092003136
:102770001092013110920231109203310F2E812CF0
:10278000912CF0E8AF2EFFE3BF2EF02DC12CD12C01
:1027900076016AE070E080E090E00E948D0DA9CFA4
:1027A0008091FC309091FD30A091FE30B091FF30CF
:1027B0008091003190910131A0910231B0910331AB
:1027C0008091002090910120A0910220B0910320DF
:1027D0006AE070E080E090E00E948D0DE1CF812CF6
:1027E000912C54010F2EC12CD12CF0E8EF2EFFE3D9
:1027F000FF2EF02D8091F630833051F520E030E04F
:1028000040E050E4C501B4010E94441C0E94871EB0
:102810004B015C0120E030E040E05FE30E94141EC9
:102820009B01AC01C701B6010E94141E6B017C0123
:102830009B01AC0160E070E080E090E40E94B51C78
:102840006093FC307093FD308093FE309093FF30A6
:102850008091F730882399F01092FC301092FD306F
:102860001092FE301092FF30812C912C54010F2ECB
:10287000C12CD12CF0E8EF2EFFE3FF2EF02D6AE003
:1028800070E080E090E00E948D0DB4CFCF93DF9395
:10289000CDB7DEB7C455D109CDBFDEBF0E94DA0B7C
:1028A00069837A838B839C838091F630813049F1F0
:1028B00030F0823021F0833009F045C022C080E141
:1028C000E1E1F0E2DE019D9601900D928A95E1F73B
:1028D0008091003190910131A0910231B09103318A
:1028E000BF93AF939F938F9381E290E29F938F93D7
:1028F000CE0105969F938F930E94191FCDBFDEBF17
:1029000024C08EE0E0E3F0E2DE019D9601900D929E
:102910008A95E1F78091FC309091FD30A091FE30D6
:10292000B091FF30BF93AF939F938F9381E290E27A
:102930009F938F93CE0105969F938F930E94191FAB
:10294000CDBFDEBF02C01092F63080910020909182
:102950000120A0910220B0910320BF93AF939F93D9
:102960008F938EE390E29F938F93CE0149969F932E
:102970008F930E94191F2091FA303091FB30809183
:10298000F8309091F9303F932F939F938F938BE47E
:1029900090E29F938F937E0191E4E90EF11CFF92E8
:1029A000EF920E94191FCE018D969F938F930BE596
:1029B00010E21F930F931F921F921F921F920E946B
:1029C000311CCE0105969F938F931F930F931F92F7
:1029D0001F921F9281E08F930E94311C80910020F2
:1029E00090910120A0910220B0910320CDBFDEBFC5
:1029F000BF93AF939F938F931F930F931F921F9239
:102A00001F9282E08F930E94311CFF92EF921F93DE
:102A10000F931F921F921F9283E08F930E94311C8D
:102A200044EF51E060E070E0CE0101960E942C0D71
:102A3000CDBFDEBF39CF0E944F010E945A0180E016
:102A40000E94FF01813079F48091F630811104C039
:102A500082E08093F63007C08091F630813019F41F
:102A600083E08093F63081E00E94FF01813071F4B1
:102A70008091F630823019F41092F63007C08091C0
:102A8000F630833019F481E08093F63082E00E94C2
:102A9000FF01813081F48093F7308091F6308230ED
:102AA00019F41092F63007C08091F630833019F493
:102AB00081E08093F63083E00E94FF018130F1F4E1
:102AC0008091F630811104C081E08093F63016C009
:102AD0008091F630813019F41092F6300FC0809159
:102AE000F630823021F483E08093F63007C0809185
:102AF000F630833019F482E08093F6306AE070E0BB
:102B000080E090E00E948D0D98CF0895EF92FF92A3
:102B10000F930E94E4120E94A51AE12CF12C03E00D
:102B200020E030E04EE551E06EE570E28BE195E1AA
:102B30000E94450B02E020E030E042ED50E06BE601
:102B400070E28EE693E10E94450B20E030E042ED1A
:102B500050E068E770E28FEE93E10E94450B03E0DE
:102B600020E030E042ED50E065E870E280ED93E176
:102B70000E94450B02E020E030E04EE551E06FE8B6
:102B800070E286E494E10E94450B03E020E030E02F
:102B90004CE251E069E970E28DE193E10E94450B5E
:102BA0000E94990B80E090E00F91FF90EF900895C4
:102BB000CF92DF92EF92FF920F931F93CF93DF9309
:102BC0008C01FC01C080D180E280F380C0E0D0E0C5
:102BD0000BC020E030E040E251E4C701B6010E94A2
:102BE000B51C6B017C01219620E030E040E85FE3FA
:102BF000C701B6010E940F1E88235CF70BC020E0BE
:102C000030E040E251E4C701B6010E94141E6B019E
:102C10007C0121972DEC3CEC4CEC5DE3C701B60147
:102C20000E94B01C88235CF3F801C082D182E2824A
:102C3000F382CE01DF91CF911F910F91FF90EF9022
:102C4000DF90CF9008954F925F926F927F928F9214
:102C50009F92AF92BF92CF92DF92EF92FF920F932B
:102C60001F93CF93DF9300D01F92CDB7DEB75C01E7
:102C7000E42EF52E062F172F49835A836B837C830E
:102C800020E030E0A9016E2D7F2D802F912F0E9432
:102C9000B01C811105C080E3F50180831182B9C0A9
:102CA00020E030E0A9016E2D7F2D802F912F0E9412
:102CB000B01C88237CF48DE2F501808389819A81A0
:102CC000AB81BC81B05889839A83AB83BC83C50137
:102CD00001965C01CE0101960E94D8157C0100E0AE
:102CE00010E038C020E030E040E251E469817A81B0
:102CF0008B819C810E94141E0E94271D2B013C0188
:102D000065019FEFC91AD90A80E3840DF50180831C
:102D100020E030E040E251E469817A818B819C813E
:102D20000E94141E4B015C01B201550C880B990BDB
:102D30000E945F1D9B01AC01C501B4010E94431CB0
:102D400069837A838B839C830F5F1F4FF1E0EF1AB7
:102D5000F10856011E141F042CF20115110531F45F
:102D600080E3F5018083C50101965C0165019FEF59
:102D7000C91AD90A8EE2F50180830BC080E3F601FF
:102D80008083F1E0EF1AF1080F5F1F4FC601019633
:102D90006C01FF20CCF50430110584F335C020E030
:102DA00030E040E251E469817A818B819C810E940C
:102DB000141E0E94271D4B015C0176019FEFE91A4A
:102DC000F90A80E3880DF601808320E030E040E2DC
:102DD00051E469817A818B819C810E94141E2B01B0
:102DE0003C01B401990C880B990B0E945F1D9B015B
:102DF000AC01C301B2010E94431C69837A838B83B7
:102E00009C830F5F1F4F67010430110544F2F601E8
:102E100010822496CDBFDEBFDF91CF911F910F911D
:102E2000FF90EF90DF90CF90BF90AF909F908F90EA
:102E30007F906F905F904F9008952F923F924F92A6
:102E40005F926F927F928F929F92AF92BF92CF923A
:102E5000DF92EF92FF920F931F93CF93DF93CDB743
:102E6000DEB72897CDBFDEBF7C01C42ED52E062F3E
:102E7000172F49835A836B837C8320E030E0A901BC
:102E80006C2D7D2D802F912F0E94B01C811105C0CB
:102E900080E3F70180831182A2C020E030E0A90125
:102EA0006C2D7D2D802F912F0E94B01C88237CF4E7
:102EB0008DE2F701808389819A81AB81BC81B05812
:102EC00089839A83AB83BC83C70101967C01CE01C1
:102ED00001960E94D8155C0120E030E040E251E408
:102EE00069817A818B819C810E94141E0E94271D1A
:102EF0002B013C0180E3840DF701808320E030E06A
:102F000040E251E469817A818B819C810E94141E88
:102F10006D837E838F839887B201550C880B990B44
:102F20000E945F1D9B01AC016D817E818F81988520
:102F30000E94431C69837A838B839C831501F1E093
:102F40002F1A310887010E5F1F4F8EE2F701818330
:102F5000E12CF12C36C020E030E040E251E4698100
:102F60007A818B819C810E94141E0E94271D2B0157
:102F70003C016801FFEFCF1ADF0A80E3840DF801FE
:102F8000808320E030E040E251E469817A818B81E6
:102F90009C810E94141E4B015C01B201550C880BF0
:102FA000990B0E945F1D9B01AC01C501B4010E94F9
:102FB000431C69837A838B839C83FFEFEF1AFF0A9C
:102FC000860184E0E816F10434F2B8016F5F7F4FA8
:102FD00085E6F80180834AE0C1010E94F41E28962C
:102FE000CDBFDEBFDF91CF911F910F91FF90EF908A
:102FF000DF90CF90BF90AF909F908F907F906F9019
:103000005F904F903F902F9008956F927F928F9294
:103010009F92BF92CF92DF92EF92FF920F931F93F6
:10302000CF93DF93CDB7DEB76697CDBFDEBFB82EA7
:103030008B01DA01390180E090E005C0FC01E85E17
:10304000FE4C1082019684319105C4F380E090E03B
:1030500005C0FC01EC5FFE4C1082019684319105A5
:10306000C4F3E12CF12C14C1853209F001C16D01CA
:1030700082E0C80ED11C11968C91853609F4CDC022
:1030800038F48336C1F008F049C0853251F0FFC0F2
:103090008337F9F0883709F46BC0863609F0F7C03A
:1030A00091C0D701AC5FBE4C85E28C939FEFE91ACB
:1030B000F90AD601EDC0F3018081D701AC5FBE4CA7
:1030C0008C93FFEFEF1AFF0AC30102963C01D60171
:1030D000DFC093012E5F3F4FF301A081B18180E0FB
:1030E00090E00DC0B701680F791FAD01480F591F5F
:1030F000FA014081FB01EC5FFE4C40830196FD012B
:1031000001900020E9F73197EA1BFB0B8E179F0710
:1031100048F3EE0EFF1E3901D601BAC04301F2E0BA
:103120008F0E911C4AE068E171E3F3018081918187
:103130000E94F41E80E090E00BC0F701E80FF91F39
:10314000DC01A85EBE4C2C91EC5FFE4C2083019606
:10315000E8E1F1E301900020E9F73197E851F1430C
:103160008E179F0750F3EE0EFF1E3401D60190C05C
:103170004301F2E08F0E911C40E168E171E3F3013D
:10318000808191810E94F41E80E090E00BC0F701E5
:10319000E80FF91FDC01A85EBE4C2C91EC5FFE4CE1
:1031A00020830196E8E1F1E301900020E9F73197EF
:1031B000E851F1438E179F0750F3EE0EFF1E3401C6
:1031C000D60166C04301F4E08F0E911CF3014081EB
:1031D00051816281738188E191E30E94231680E02E
:1031E00090E00BC0F701E80FF91FDC01A85EBE4CB0
:1031F0002C91EC5FFE4C20830196E8E1F1E3019015
:103200000020E9F73197E851F1438E179F0750F3FB
:10321000EE0EFF1E3401D6013BC04301F4E08F0ED9
:10322000911CF301408151816281738188E191E3B6
:103230000E941D1780E090E00BC0F701E80FF91F16
:10324000DC01A85EBE4C2C91EC5FFE4C2083019605
:10325000E8E1F1E301900020E9F73197E851F1430B
:103260008E179F0750F3EE0EFF1E3401D60110C0DB
:10327000D701AC5FBE4C8C938A3021F4D701AC5F90
:10328000BE4C1C92FFEFEF1AFF0AD90101C0D60114
:103290009D012F5F3F4F8C918111E6CEC701800FBA
:1032A000911F44972CF084E190E07C01E01AF10A30
:1032B00080E090E008C0E3E0F0E0EC0FFD1FE80FD5
:1032C000F91F1082019684319105ACF3B9820A830B
:1032D00080E090E00CC0FC01EC5FFE4C2081E3E05C
:1032E000F0E0EC0FFD1FE80FF91F208301968E150B
:1032F0009F058CF300E02FEF3FEFA901BE016F5F48
:103300007F4F80913131909132310E94E107C701A6
:103310006696CDBFDEBFDF91CF911F910F91FF90D9
:10332000EF90DF90CF90BF909F908F907F906F90A5
:1033300008951F920F920FB60F9211240BB60F92A1
:103340002F933F934F935F936F937F938F939F93AD
:10335000AF93BF93EF93FF93CF93DF931F92CDB7BC
:10336000DEB719829E012F5F3F4F41E050E060E0E1
:1033700070E080913331909134310E940D0460E00F
:1033800080E09BE00E945E021092060B0F90DF919E
:10339000CF91FF91EF91BF91AF919F918F917F91CD
:1033A0006F915F914F913F912F910F900BBE0F90B6
:1033B0000FBE0F901F901895CF92DF92EF92FF9261
:1033C0000F936B017C0182E0C816D104E104F10483
:1033D00028F4C12CD12C76016894C1F8E0E0FBE020
:1033E00081E0868310A211A260E080E09BE00E9451
:1033F00064028EEFC8168FEFD806E104F10470F472
:10340000F694E794D794C794C092260BD092270BDA
:1034100065E080E09BE00E945E0219C080E4C8166F
:1034200082E4D8068FE0E806F10488F4689414F882
:10343000F694E794D794C7941694D1F7C092260BCC
:10344000D092270B67E080E09BE00E945E020F2E87
:10345000F4EFCF2EDD24D394E12CF12CF02D00E0FD
:1034600021E041E050E060E070E0809133319091E4
:1034700034310E94B4020F91FF90EF90DF90CF9013
:1034800008958295807FE0E0F6E09481282F2F60F8
:10349000922394839481892B84830895882321F037
:1034A00081E080936506089581E080936606089523
:1034B000882321F082E080936506089582E080935E
:1034C00066060895882321F084E0809365060895B8
:1034D00084E080936606089581E00E94621A61E0AC
:1034E00070E080E090E00E94DC1980E00E94621AA7
:1034F0000895CF93C82F82958F700E94411A80E063
:103500000E944E1A80E00E94581A0E946C1A8C2F5A
:103510008F700E94411A0E946C1ACF910895CF9328
:10352000C82F82958F700E94411A81E00E944E1A26
:1035300080E00E94581A0E946C1A8C2F8F700E9493
:10354000411A0E946C1ACF910895EF92FF920F9347
:10355000E0E0F6E080E1818380E2818380E48183A2
:1035600080E88183A0E6B6E081E011968C93119704
:1035700082E011968C93119784E011968C931197A9
:1035800084818F70848314968C911497887F14960D
:103590008C9340E066E188E00E94B7078093313168
:1035A000909332310E949F02809333319093343153
:1035B000E12CF12C01E020E030E04EE551E06EEA34
:1035C00070E28DE39BE10E94450B0F91FF90EF901D
:1035D00008958130910579F01CF4892B39F019C0D8
:1035E0008230910569F0039781F013C080E8860F5F
:1035F0000E94791A0EC080EC860F0E94791A09C0C9
:1036000084E9860F0E94791A04C084ED860F0E9417
:10361000791A67E270E080E090E00E94DC1908957A
:103620000E948F1A6BE270E080E090E00E94DC194B
:1036300008950F931F93CF93DF938C01C0E0D0E0E8
:1036400009C0F801EC0FFD1F8081882331F00E9432
:10365000101B2196C431D105A4F3DF91CF911F91A6
:103660000F910895CF93DF93EA010E94E91ACE01EA
:103670000E94191BDF91CF910895CF93DF93CDB7AF
:10368000DEB7C656D109CDBFDEBF80E090E019C0DD
:1036900044E1489FF001499FF00D112441E050E0C2
:1036A0004C0F5D1FE40FF51FE20FF31F40E2408354
:1036B0002F5F3F4F02C020E030E02431310544F35A
:1036C000019684309105BCF360E47CE980E090E0F1
:1036D0000E94DC1983E00E94411A68E873E180E0EF
:1036E00090E00E94DC190E946C1A60EA70E080E0B1
:1036F00090E00E94DC190E946C1A60EA70E080E0A1
:1037000090E00E94DC190E946C1A60EA70E080E090
:1037100090E00E94DC1982E00E94411A0E946C1A1B
:1037200088E20E94791A80E10E94791A8CE00E9456
:10373000791A86E00E94791A68EC70E080E090E0E7
:103740000E948D0D40E050E0BA018091333190919C
:1037500034310E945B03672B682B692B09F45FC02F
:1037600042E050E060E070E080913331909134317C
:103770000E945B0340E050E019C024E1249FF00167
:10378000259FF00D112421E030E02C0F3D1FE20FAA
:10379000F31FE80FF91F20E22083019602C080E0AA
:1037A00090E0843191054CF34F5F5F4F44305105F9
:1037B000B4F335C02FEF3FEFA901BE016F5A7F4F21
:1037C00080913131909132310E94C508882339F1BE
:1037D00012C062964FAD6297E1E0F0E0EC0FFD1F82
:1037E00074E1479FE00DF11D1124E80FF91F60837C
:1037F0002F5F3F4F02C020E030E063968FAD6397AC
:10380000F901E80FF11DCF0174974CF4E1E5F0E008
:10381000EC0FFD1FE20FF31F62816111DACF80917F
:103820003131909132310E9464098111C3CF00E09F
:1038300010E013C084E1809FA001819F500D1124EE
:1038400021E030E02C0F3D1F420F531F60E070E07D
:10385000C8010E94321B0F5F1F4F0430110554F343
:103860006BCFCF93DF93CDB7DEB79E01245F3F4F81
:103870004A855B85688579858E819F810E940518C0
:10388000DF91CF9108955058BB27AA270E945B1C57
:103890000C94D51D0E94C71D38F00E94CE1D20F04B
:1038A00039F49F3F19F426F40C94C41D0EF4E095EE
:1038B000E7FB0C94BE1DE92F0E94E61D58F3BA17D2
:1038C000620773078407950720F079F4A6F50C9436
:1038D000081E0EF4E0950B2EBA2FA02D0B01B90196
:1038E00090010C01CA01A0011124FF27591B99F076
:1038F000593F50F4503E68F11A16F040A22F232F82
:10390000342F4427585FF3CF469537952795A795D1
:10391000F0405395C9F77EF41F16BA0B620B730B78
:10392000840BBAF09150A1F0FF0FBB1F661F771FE9
:10393000881FC2F70EC0BA0F621F731F841F48F49E
:10394000879577956795B795F7959E3F08F0B0CF27
:103950009395880F08F09927EE0F9795879508950E
:103960000E949A1D08F481E008950E94C91C0C94DD
:10397000D51D0E94CE1D58F00E94C71D40F029F4AD
:103980005F3F29F00C94BE1D51110C94091E0C943C
:10399000C41D0E94E61D68F39923B1F3552391F3EA
:1039A000951B550BBB27AA2762177307840738F0AE
:1039B0009F5F5F4F220F331F441FAA1FA9F335D00B
:1039C0000E2E3AF0E0E832D091505040E695001CBF
:1039D000CAF72BD0FE2F29D0660F771F881FBB1F79
:1039E000261737074807AB07B0E809F0BB0B802D57
:1039F000BF01FF2793585F4F3AF09E3F510578F083
:103A00000C94BE1D0C94091E5F3FE4F3983ED4F362
:103A1000869577956795B795F7959F5FC9F7880F56
:103A2000911D9695879597F90895E1E0660F771FA8
:103A3000881FBB1F621773078407BA0720F0621B39
:103A4000730B840BBA0BEE1F88F7E09508950E9464
:103A50002E1D6894B1110C94091E08950E94EE1D4C
:103A600088F09F5798F0B92F9927B751B0F0E1F03F
:103A7000660F771F881F991F1AF0BA95C9F714C0EF
:103A8000B13091F00E94081EB1E008950C94081E18
:103A9000672F782F8827B85F39F0B93FCCF3869528
:103AA00077956795B395D9F73EF490958095709585
:103AB00061957F4F8F4F9F4F0895E89409C097FB02
:103AC0003EF490958095709561957F4F8F4F9F4FF5
:103AD0009923A9F0F92F96E9BB279395F695879539
:103AE00077956795B795F111F8CFFAF4BB0F11F4FC
:103AF00060FF1BC06F5F7F4F8F4F9F4F16C08823A3
:103B000011F096E911C0772321F09EE8872F762FD8
:103B100005C0662371F096E8862F70E060E02AF019
:103B20009A95660F771F881FDAF7880F9695879505
:103B300097F90895990F0008550FAA0BE0E8FEEFDA
:103B400016161706E807F907C0F012161306E40761
:103B5000F50798F0621B730B840B950B39F40A265A
:103B600061F0232B242B252B21F408950A2609F438
:103B7000A140A6958FEF811D811D089597F99F673C
:103B800080E870E060E008959FEF80EC08950024E5
:103B90000A941616170618060906089500240A94B2
:103BA00012161306140605060895092E0394000C38
:103BB00011F4882352F0BB0F40F4BF2B11F460FFC7
:103BC00004C06F5F7F4F8F4F9F4F089557FD9058F0
:103BD000440F551F59F05F3F71F04795880F97FBD1
:103BE000991F61F09F3F79F087950895121613068B
:103BF0001406551FF2CF4695F1DF08C016161706BA
:103C00001806991FF1CF86957105610508940895EE
:103C1000E894BB2766277727CB0197F908950E9480
:103C20009A1D08F48FEF08950E94271E0C94D51D4D
:103C30000E94C71D38F00E94CE1D20F0952311F080
:103C40000C94BE1D0C94C41D11240C94091E0E94DA
:103C5000E61D70F3959FC1F3950F50E0551F629FCD
:103C6000F001729FBB27F00DB11D639FAA27F00DD5
:103C7000B11DAA1F649F6627B00DA11D661F829FFC
:103C80002227B00DA11D621F739FB00DA11D621FE1
:103C9000839FA00D611D221F749F3327A00D611DFE
:103CA000231F849F600D211D822F762F6A2F1124E0
:103CB0009F5750409AF0F1F088234AF0EE0FFF1F13
:103CC000BB1F661F771F881F91505040A9F79E3F6A
:103CD000510580F00C94BE1D0C94091E5F3FE4F367
:103CE000983ED4F3869577956795B795F795E795C0
:103CF0009F5FC1F7FE2B880F911D9695879597F9C9
:103D0000089519F416F40C94C41D0C94C71E0E9457
:103D1000EE1DB8F39923C9F3B6F39F57550B87FFF0
:103D20000E94D51E0024A0E640EA900180585695D6
:103D3000979528F4805C660F771F881F20F0261760
:103D40003707480730F4621B730B840B2029312995
:103D50004A2BA69517940794202531254A2758F712
:103D6000660F771F881F20F026173707480730F4A3
:103D7000620B730B840B200D311D411DA09581F743
:103D8000B901842F9158880F9695879508959F3F84
:103D900031F0915020F4879577956795B795880F06
:103DA000911D9695879597F9089591505040660F0B
:103DB000771F881FD2F70895EE0FFF1F881F8BBF54
:103DC0000790F691E02D1994FB01DC0102C00190EF
:103DD0000D9241505040D8F70895DC0101C06D9319
:103DE00041505040E0F70895BB274A3031F4992301
:103DF00022F4BDE2909581959F4F0C94001FBB2744
:103E0000FB015527AA27880F991FAA1FA41710F096
:103E1000A41B83955051B9F7A05DAA3308F0A95DA2
:103E2000A193009779F7B111B1931192CB010C9442
:103E30005C210F931F93CF93DF93CDB7DEB72E97FF
:103E4000CDBFDEBF0E891F8986E08C8309831A836C
:103E50008FEF9FE78D839E83AE01465E5F4F688D37
:103E6000798DCE0101960E94421FEF81F885E00F07
:103E7000F11F10822E96CDBFDEBFDF91CF911F9133
:103E80000F9108952F923F924F925F926F927F927F
:103E90008F929F92AF92BF92CF92DF92EF92FF925A
:103EA0000F931F93CF93DF93CDB7DEB72B97CDBF83
:103EB000DEBF6C017B018A01FC01168217828381BF
:103EC00081FFCCC1CE0101963C01F6019381F7013F
:103ED00093FD859193FF81917F01882309F4BAC1F5
:103EE000853239F493FD859193FF81917F0185326D
:103EF00029F4B60190E00E946C21E7CF912C212C8F
:103F0000312CFFE1F315D8F08B3279F038F48032A0
:103F100079F08332A1F4232D20611DC08D3261F030
:103F2000803369F4232D216016C0832D8260382EE2
:103F3000E32DE4603E2E2AC0F32DF8601DC037FC4F
:103F40002DC020ED280F2A3040F08E32B9F436FC17
:103F500081C1232D2064322E19C036FE06C08AE0AE
:103F6000989E200D1124922E11C0EAE02E9E200D65
:103F70001124222EF32DF0623F2E08C08C3621F43E
:103F8000832D8068382E02C0883641F4F70193FDF6
:103F9000859193FF81917F018111B3CF982F9F7DF0
:103FA0009554933028F40C5F1F4F9FE399830DC005
:103FB000833631F0833771F0833509F059C021C061
:103FC000F801808189830E5F1F4F88248394912C90
:103FD000530113C02801F2E04F0E511CF801A080DC
:103FE000B18036FE03C0692D70E002C06FEF7FEF35
:103FF000C5010E9451214C018201F32DFF773F2E14
:1040000016C0280122E0420E511CF801A080B180A8
:1040100036FE03C0692D70E002C06FEF7FEFC5016F
:104020000E9446214C01F32DF0683F2E820133FCA3
:104030001BC0822D90E088169906B0F4B60180E28C
:1040400090E00E946C212A94F4CFF50137FC859111
:1040500037FE81915F01B60190E00E946C21211032
:104060002A9421E0821A91088114910471F7E8C022
:10407000843611F0893641F5F80137FE07C06081BA
:104080007181828193810C5F1F4F08C060817181B3
:10409000072E000C880B990B0E5F1F4FF32DFF7638
:1040A0003F2E97FF09C090958095709561957F4F41
:1040B0008F4F9F4FF0683F2E2AE030E0A3010E940F
:1040C000A821882E861845C0853731F4232D2F7EF0
:1040D000B22E2AE030E025C0932D997FB92E8F367D
:1040E000C1F018F4883579F0B5C0803719F08837F9
:1040F00021F0B0C0E92FE061BE2EB4FE0DC0FB2D53
:10410000F460BF2E09C034FE0AC0292F2660B22EEB
:1041100006C028E030E005C020E130E002C020E128
:1041200032E0F801B7FE07C060817181828193811E
:104130000C5F1F4F06C06081718180E090E00E5FD0
:104140001F4FA3010E94A821882E8618FB2DFF7700
:104150003F2E36FE0DC0232D2E7FA22E891458F43B
:1041600034FE0BC032FC09C0832D8E7EA82E05C004
:10417000B82CA32C03C0B82C01C0B92CA4FE0FC0CE
:10418000FE01E80DF11D8081803321F49A2D997E86
:10419000A92E09C0A2FE06C0B394B39404C08A2D10
:1041A000867809F0B394A3FC11C0A0FE06C0B21437
:1041B00088F4280C922C9B180EC0B21460F4B6013F
:1041C00080E290E00E946C21B394F7CFB21418F40F
:1041D0002B1802C0982C212CA4FE10C0B60180E33D
:1041E00090E00E946C21A2FE17C0A1FC03C088E7EA
:1041F00090E002C088E590E0B6010CC08A2D867878
:1042000059F0A1FE02C08BE201C080E2A7FC8DE262
:10421000B60190E00E946C21891438F4B60180E365
:1042200090E00E946C219A94F7CF8A94F301E80DF4
:10423000F11D8081B60190E00E946C218110F5CFC4
:10424000222009F442CEB60180E290E00E946C2167
:104250002A94F6CFF6018681978102C08FEF9FEFF7
:104260002B96CDBFDEBFDF91CF911F910F91FF90B5
:10427000EF90DF90CF90BF90AF909F908F907F9006
:104280006F905F904F903F902F900895FC010590A4
:10429000615070400110D8F7809590958E0F9F1F48
:1042A0000895FC016150704001900110D8F780958D
:1042B00090958E0F9F1F0895DC01FC01672F71916F
:1042C0007723E1F7329704C07C916D9370836291FC
:1042D000AE17BF07C8F308950F931F93CF93DF93D3
:1042E000FB01238121FD03C08FEF9FEF2CC022FF34
:1042F00016C046815781248135814217530744F403
:10430000A081B1819D012F5F3F4F208331838C932A
:10431000268137812F5F3F4F2683378314C08B015F
:10432000EC01FB010084F185E02D1995892BE1F664
:10433000D80116968D919C911797019616968D939C
:104340009C931797CE01DF91CF911F910F91089504
:10435000FA01AA27283051F1203181F1E8946F93B6
:104360006E7F6E5F7F4F8F4F9F4FAF4FB1E03ED05C
:10437000B4E03CD0670F781F891F9A1FA11D680FFA
:10438000791F8A1F911DA11D6A0F711D811D911D2D
:10439000A11D20D009F468943F912AE0269F1124A2
:1043A0003019305D3193DEF6CF010895462F477006
:1043B000405D4193B3E00FD0C9F7F6CF462F4F7061
:1043C000405D4A3318F0495D31FD4052419302D0BF
:1043D000A9F7EACFB4E0A695979587957795679565
:1043E000BA95C9F700976105710508959B01AC0165
:1043F0000A2E06945795479537952795BA95C9F78C
:10440000620F731F841F951FA01D0895F894FFCF9E
:10441000DB0F494049444C4500546D72205376638C
:10442000004C6569626E697A20417070726F783AEB
:1044300000417070726F7850493A20252E3866001E
:10444000566965746120417070726F783A005265E8
:10445000662050493A20252E38660054696D653A29
:1044600020252E32693A252E3269002573007643C5
:104470006F6E74726F6C5F74736B00764C656962FB
:104480006E697A5F74736B00765669657461506902
:104490005F74736B0076436F6D705F74736B00763F
:1044A000446973705F74736B007654696D654D6514
:1044B00061737572656D656E745F74736B006469AA
:0A44C00073705570646174650000AC
:00000001FF
