S01300004E59435F50495F43414C432E73726563BD
S11300000C9424010C944E010C944E010C944E015A
S11300100C944E010C944E010C944E010C944E0120
S11300200C944E010C944E010C944E010C944E0110
S11300300C944E010C944E010C94AF0B0C944E0195
S11300400C944E010C944E010C944E010C944E01F0
S11300500C944E010C944E010C944E010C944E01E0
S11300600C944E010C944E010C944E010C944E01D0
S11300700C944E010C944E010C944E010C944E01C0
S11300800C944E010C944E010C944E010C944E01B0
S11300900C944E010C944E010C944E010C944E01A0
S11300A00C944E010C944E010C944E010C944E0190
S11300B00C944E010C944E010C944E010C944E0180
S11300C00C944E010C944E010C944E010C944E0170
S11300D00C944E010C944E010C944E010C944E0160
S11300E00C944E010C944E010C944E010C944E0150
S11300F00C944E010C944E010C944E010C944E0140
S11301000C944E010C944E010C944E010C944E012F
S11301100C944E010C944E010C944E010C944E011F
S11301200C944E010C944E010C944E010C944E010F
S11301300C944E010C944E010C944E010C944E01FF
S11301400C944E010C944E010C944E010C944E01EF
S11301500C944E010C944E010C944E010C944E01DF
S11301600C944E010C944E010C944E010C944E01CF
S11301700C944E010C944E010C944E010C944E01BF
S11301800C944E010C944E010C944E010C944E01AF
S11301900C944E010C944E010C944E010C944E019F
S11301A00C944E010C944E010C944E010C944E018F
S11301B00C946D240C944E010C944E010C944E013D
S11301C00C944E010C944E010C944E010C944E016F
S11301D00C944E010C944E010C944E010C944E015F
S11301E00C944E010C944E010C944E010C944E014F
S11301F00C944E010C944E010C944E011D1E1D1EB8
S11302001D1EA41E701E9E1E1D1E1D1EA41E701EDD
S11302100C9400270C9419210C949E1E0C94A92173
S11302200C9458190C94B2200C94B6220C94F0231C
S11302300C9426220C94A41E0C94FF1B0C948D0683
S11302400C94701E0C941D1E11241FBECFEFCDBF45
S1130250DFE3DEBF00E00CBFE4E4F1E38AEA90E40C
S11302608193E030F907E0F3000010E2A0E0B0E28F
S1130270EEEFF6E600E00BBF02C007900D92A63C3D
S1130280B107D9F721E3A6ECB0E201C01D92A43472
S1130290B207E1F70E944F200C947D330C940000C8
S11302A0CF93DF93CDB7DEB780EA96E020E1FC017F
S11302B0228380EA96E020E2FC01228380EA96E031
S11302C020E4FC01228380EA96E020E8FC012283FA
S11302D00000DF91CF910895CF93DF93CDB7DEB7C0
S11302E080EA96E0FC018085882F90E08071992750
S11302F095958795959587959595879595958795E2
S1130300892B89F48091C6209091C72080369A4E1B
S113031020F58091C6209091C72001968093C62035
S11303209093C7201AC08091C6209091C7200B9744
S113033068F08091C6209091C720C39718F010925E
S11303403B3107C081E080933B3103C082E080935E
S11303503B311092C6201092C72080EA96E0FC013F
S11303608085882F90E0807299279595879595953B
S11303708795959587959595879595958795892BD7
S113038089F48091C8209091C92080369A4E20F536
S11303908091C8209091C92001968093C8209093A1
S11303A0C9201AC08091C8209091C9200B9768F089
S11303B08091C8209091C920C39718F010923C31C5
S11303C007C081E080933C3103C082E080933C31DC
S11303D01092C8201092C92080EA96E0FC01808522
S11303E0882F90E080749927082E892F000C881F8D
S11303F0990B000C881F991F892B89F48091CA20BE
S11304009091CB2080369A4E20F58091CA2090910D
S1130410CB2001968093CA209093CB201AC0809160
S1130420CA209091CB200B9768F08091CA209091BC
S1130430CB20C39718F010923D3107C081E0809320
S11304403D3103C082E080933D311092CA20109266
S1130450CB2080EA96E0FC01808588238CF0809193
S1130460CC209091CD2080369A4E20F58091CC20DE
S11304709091CD2001968093CC209093CD201AC0EA
S11304808091CC209091CD200B9768F08091CC2066
S11304909091CD20C39718F010923E3107C081E0AF
S11304A080933E3103C082E080933E311092CC2091
S11304B01092CD200000DF91CF910895CF93DF9368
S11304C01F92CDB7DEB789838981882F90E0813070
S11304D0910579F0823091051CF4892B39F012C012
S11304E08230910549F0039751F00CC080913B3163
S11304F00AC080913C3107C080913D3104C0809195
S11305003E3101C082E00F90DF91CF9108950F93A7
S1130510CF93DF9300D000D0CDB7DEB78C839D831B
S11305206E838FE390E0FC0180818B83F8948C814F
S11305309D8189839A838BE390E0FC0110828981F9
S11305409A812E81FC0108ED04BF20838FE390E0A3
S11305502B81FC01208300002696CDBFDEBFDF91F6
S1130560CF910F910895CF93DF9300D0CDB7DEB72D
S113057089836A834B8380E590E02A81222311F0EA
S113058020E201C020E03981322B2B81232BFC0196
S1130590228300002396CDBFDEBFDF91CF91089563
S11305A0CF93DF931F921F92CDB7DEB789836A83FF
S11305B08A818F718A8380E590E039812A81232B97
S11305C0FC01258300000F900F90DF91CF910895D7
S11305D0CF93DF931F921F92CDB7DEB78A8380E556
S11305E090E020E530E0F9012081322F2A81209526
S11305F02323FC01208380E590E0FC0190818A8123
S11306008923898389810F900F90DF91CF91089579
S1130610CF93DF9300D0CDB7DEB78A836B839A8103
S11306208B81892B8983698181E490E00E94870210
S113063000002396CDBFDEBFDF91CF910895CF9305
S1130640DF931F921F92CDB7DEB78A8380E490E0D8
S1130650FC018081982F987F8A81892B8983698105
S113066080E490E00E94870280E490E0FC019081A5
S11306708A818923898389810F900F90DF91CF919B
S11306800895CF93DF9300D0CDB7DEB789839A83E3
S11306906B8389819A81FC018081982F907F8B8163
S11306A0892B282F89819A81FC01208300002396BD
S11306B0CDBFDEBFDF91CF910895CF93DF9300D0FC
S11306C0CDB7DEB789839A836B8389819A81FC01D4
S11306D08181982F987F8B81892B282F89819A81FA
S11306E0FC01218300002396CDBFDEBFDF91CF91B3
S11306F00895CF93DF9300D0CDB7DEB789839A8373
S11307006B8389819A81FC018681982F9C7F8B81E0
S1130710892B282F89819A81FC0126830000239646
S1130720CDBFDEBFDF91CF910895CF93DF9300D08B
S11307301F92CDB7DEB789839A836B837C838BE268
S11307400E94A90300002496CDBFDEBFDF91CF91A4
S11307500895CF93DF931F921F92CDB7DEB78A839C
S11307608A818B3219F481E089830EC08A818C32AC
S113077019F482E0898308C08A818F3219F483E0F6
S1130780898302C084E089830E94CC0300000F9017
S11307900F90DF91CF910895CF93DF93CDB7DEB75C
S11307A0000084E390E028EDFC01208388E790E0DA
S11307B021E0FC0121830000DF91CF910895CF93C4
S11307C0DF931F921F92CDB7DEB780E190E00E94C5
S11307D01C0789839A8389819A81892B61F0898195
S11307E09A81FC01108211821282138289819A817A
S11307F004960E946E0789819A810F900F90DF9171
S1130800CF910895CF92DF92EF92FF920F931F93AF
S1130810CF93DF93CDB7DEB76D97CDBFDEBF8A8BA5
S11308209B8B4C8B5D8B6E8B7F8B288F098FCA8E35
S1130830DB8EEC8EFD8E8A899B8989879A871D823F
S11308401E821F8218861B860E94711489859A85D0
S1130850FC0180819181A281B3818C879D87AE87C1
S1130860BF872C893D894E895F898C859D85AE859E
S1130870BF85098DBC01CD010E94AB06888B888998
S1130880882359F18C859D85AE85BF8589839A839C
S1130890AB83BC831A8E1B8E1C8E1D8E888D882381
S11308A009F465C089859A85FC01208131814281E2
S11308B053818C899D89AE89BF8980959095A09537
S11308C0B09582239323A423B52329853A85F9017E
S11308D080839183A283B3834AC08A8D9B8DAC8D20
S11308E0BD8D892B8A2B8B2B59F48C859D85AE85E8
S11308F0BF8589839A83AB83BC8381E08B8737C0B0
S1130900888D882349F08D819E81AF81B885B1603F
S11309108D839E83AF83B887898D882349F08D8129
S11309209E81AF81B885B4608D839E83AF83B88781
S11309302C893D894E895F898D819E81AF81B885DF
S1130940822B932BA42BB52B29853A85F901349658
S11309502A8D3B8D4C8D5D8D89019A01AC01BD01C1
S1130960CF010E94441719821A821B821C820E94A2
S11309707E14898B8A8D9B8DAC8DBD8D892B8A2BA2
S11309808B2B09F465C08989882311F40E94050B17
S11309900E94021ADC01CB0189839A83AB83BC8356
S11309A089819A81AB81BC8188279927AA27B27053
S11309B0892B8A2B8B2B09F042C0F091A200FF9364
S11309C0F87FF093A20089859A85FC01808191814A
S11309D0A281B38189839A83AB83BC832C893D89AB
S11309E04E895F8989819A81AB81BC81098DBC0163
S11309F0CD010E94AB068823E9F0888D8823D1F0CD
S1130A0089859A85FC0120813181428153818C89B9
S1130A109D89AE89BF8980959095A095B0958223D4
S1130A209323A423B52329853A85F90180839183EF
S1130A30A283B38381E08B87FF91F093A200898125
S1130A409A81AB81BC81BB2789839A83AB83BC83A6
S1130A5089819A81AB81BC81BC01CD016D96CDBFEA
S1130A60DEBFDF91CF911F910F91FF90EF90DF9048
S1130A70CF900895CF93DF93CDB7DEB72C97CDBF3A
S1130A80DEBF8F83988749875A876B877C878F81DE
S1130A90988589839A83F091A200FF93F87FF0935D
S1130AA0A20089819A81FC0180819181A281B38114
S1130AB08B839C83AD83BE8389819A81FC012081D1
S1130AC031814281538189859A85AB85BC85809526
S1130AD09095A095B09582239323A423B5232981CF
S1130AE03A81F90180839183A283B383FF91F093C8
S1130AF0A2008B819C81AD81BE81BC01CD012C966D
S1130B00CDBFDEBFDF91CF910895CF93DF93CDB7F3
S1130B10DEB76D97CDBFDEBF888F998F4A8F5B8F0D
S1130B206C8F7D8F1B821C821D821E82888D998D05
S1130B30888799871F828885998504968A879B87E9
S1130B408A859B8503968C879D870E9471148A856C
S1130B509B85FC018781908589839A838885998503
S1130B60FC0120813181428153818A8D9B8DAC8D22
S1130B70BD8D822B932BA42BB52B28853985F901A8
S1130B8080839183A283B38395C089819A81FC0178
S1130B90848195818E879F8789819A81FC018081D8
S1130BA09181A281B381888B998BAA8BBB8B1F8285
S1130BB088899989AA89BB8988279927AA278C8B30
S1130BC09D8BAE8BBF8B88899989AA89BB89BB27EA
S1130BD0888B998BAA8BBB8B8C899D89AE89BF89A5
S1130BE088279927AA27B470892B8A2B8B2BB1F4D9
S1130BF088859985FC0120813181428153818889CE
S1130C009989AA89BB8982239323A423B523892B99
S1130C108A2B8B2BE9F081E08F831AC08885998514
S1130C20FC01208131814281538188899989AA8973
S1130C30BB89282339234A235B2388899989AA8974
S1130C40BB89281739074A075B0711F481E08F83B2
S1130C508F81882359F18C899D89AE89BF89882722
S1130C609927AA27B170892B8A2B8B2B81F02B8192
S1130C703C814D815E8188899989AA89BB89822BAF
S1130C80932BA42BB52B8B839C83AD83BE83888548
S1130C909985FC0180819181A281B381B26029810F
S1130CA03A81AC01BD01C9010E941F188E859F8540
S1130CB089839A8329813A818C859D8528173907F0
S1130CC009F063CF88859985FC01208131814281B7
S1130CD053818B819C81AD81BE8180959095A09537
S1130CE0B09582239323A423B52328853985F9015C
S1130CF080839183A283B3830E947E14888599851F
S1130D00FC0180819181A281B381BC01CD016D96EA
S1130D10CDBFDEBFDF91CF910895CF93DF9300D095
S1130D2000D0CDB7DEB789839A834B835C836D8310
S1130D307E838B819C81AD81BE8129813A81AC0106
S1130D40BD01C9010E94850500002696CDBFDEBF06
S1130D50DF91CF9108950F93CF93DF93CDB7DEB793
S1130D602A97CDBFDEBF6A837B838C839D832E83CA
S1130D703F83488759870A8719828A85882399F48B
S1130D802A813B814C815D818E819F81A885B985B3
S1130D9082239323A423B523892B8A2B8B2BD1F075
S1130DA081E0898317C02A813B814C815D818E81DA
S1130DB09F81A885B985282339234A235B238E8103
S1130DC09F81A885B985281739074A075B0711F45D
S1130DD081E0898389812A96CDBFDEBFDF91CF91DF
S1130DE00F9108950F931F93CF93DF93CDB7DEB781
S1130DF02997CDBFDEBF8A839B834C835D836E833B
S1130E007F8328873987288539858C819D81AE81A8
S1130E10BF816A817B8189019C01AD018DE896E0E7
S1130E200E94AE1F898389812996CDBFDEBFDF91E1
S1130E30CF911F910F910895CF93DF9300D01F920C
S1130E40CDB7DEB78B839C8319821A820E947114FA
S1130E5020916E3030916F308B819C81820F931F73
S1130E60803A9F4018F520916E3030916F308B811D
S1130E709C81280F391F80916E3090916F308217BA
S1130E809307A0F480916E3090916F3082539F4D00
S1130E9089839A8320916E3030916F308B819C814D
S1130EA0820F931F80936E3090936F300E947E1454
S1130EB089819A812496CDBFDEBFDF91CF910895B9
S1130EC0CF93DF931F921F92CDB7DEB789839A83A6
S1130ED000000F900F90DF91CF910895CF93DF938F
S1130EE01F921F92CDB7DEB789839A8389819A8135
S1130EF09C012D5F3F4F89819A81FC0121833283BC
S1130F0029813A818FEF9FEFDC01F9018383948378
S1130F10A583B68389819A819C012D5F3F4F898186
S1130F209A81FC012783308789819A819C012D5FF6
S1130F303F4F89819A81FC012187328789819A8177
S1130F40FC01108200000F900F90DF91CF91089563
S1130F50CF93DF931F921F92CDB7DEB789839A8315
S1130F6089819A81FC011286138600000F900F90EC
S1130F70DF91CF910895CF93DF9300D000D0CDB708
S1130F80DEB78B839C836D837E838B819C81FC0184
S1130F908181928189839A838D819E8129813A817D
S1130FA0FC012483358389819A81FC012681378160
S1130FB08D819E81FC012683378389819A81FC017E
S1130FC0868197812D813E81FC012483358389812B
S1130FD09A812D813E81FC01268337838D819E81F8
S1130FE02B813C81FC01228733878B819C81FC010E
S1130FF0808121E0280F8B819C81FC0120830000EB
S11310002696CDBFDEBFDF91CF910895CF93DF93B6
S1131010CDB7DEB72A97CDBFDEBF8F8398876987A8
S11310207A8789859A85FC0180819181A281B38127
S11310308B839C83AD83BE838B819C81AD81BE8178
S11310408F3F9F4FAF4FBF4F41F48F819885FC0175
S11310508185928589839A8320C08F8198850396A0
S113106089839A8307C089819A81FC01848195814F
S113107089839A8389819A81FC0184819581FC0109
S113108020813181428153818B819C81AD81BE81DC
S113109082179307A407B50730F789819A81FC0169
S11310A02481358189859A85FC012483358389854A
S11310B09A85FC018481958129853A85FC012683E2
S11310C0378389859A8529813A81FC012683378370
S11310D089819A8129853A85FC0124833583898510
S11310E09A852F813885FC01228733878F819885E3
S11310F0FC01808121E0280F8F819885FC012083E9
S113110000002A96CDBFDEBFDF91CF910895CF9323
S1131110DF9300D01F92CDB7DEB78B839C838B8186
S11311209C81FC018285938589839A838B819C8130
S1131130FC01848195812B813C81F90126813781D1
S1131140FC01268337838B819C81FC0186819781F6
S11311502B813C81F90124813581FC012483358371
S113116089819A81FC01218132818B819C8128179C
S1131170390751F48B819C81FC0126813781898157
S11311809A81FC01218332838B819C81FC0112862C
S1131190138689819A81FC0180812FEF280F898130
S11311A09A81FC01208389819A81FC0180812496A3
S11311B0CDBFDEBFDF91CF9108951F93CF93DF930F
S11311C0CDB7DEB780EA90E0FC01128180EA90E0BE
S11311D020EA30E0F9012281287FFC012283812F5B
S11311E0DF91CF911F910895CF93DF93CDB7DEB7F1
S11311F02A97CDBFDEBF8D839E836F83788749870F
S11312005A878D819E8121E1FC0120838D819E81FD
S113121001978D839E838D819E8122E2FC01208330
S11312208D819E8101978D839E838D819E8123E391
S1131230FC0120838D819E8101978D839E838F8104
S11312409885CC01A0E0B0E089839A83AB83BC830A
S113125029818D819E81FC0120838D819E8101974E
S11312608D839E8389819A81AB81BC81892F9A2F3A
S1131270AB2FBB2789839A83AB83BC8329818D8160
S11312809E81FC0120838D819E8101978D839E83A5
S113129089819A81AB81BC81892F9A2FAB2FBB277F
S11312A089839A83AB83BC8329818D819E81FC01D0
S11312B020838D819E8101978D839E838D819E8164
S11312C021E3FC0120838D819E8101978D839E8380
S11312D08D819E8120E8FC0120838D819E81019770
S11312E08D839E838D819E8127E8FC0120838D81DF
S11312F09E8101978D839E838D819E81FC01108246
S11313008D819E8101978D839E838D819E81FC01B9
S113131010828D819E8101978D839E838D819E8114
S113132022E0FC0120838D819E8101978D839E8321
S11313308D819E8123E0FC0120838D819E81019714
S11313408D839E838D819E8124E0FC0120838D8189
S11313509E8101978D839E838D819E8125E0FC0172
S113136020838D819E8101978D839E838D819E81B3
S113137026E0FC0120838D819E8101978D839E83CD
S11313808D819E8127E0FC0120838D819E810197C0
S11313908D839E838D819E8128E0FC0120838D8135
S11313A09E8101978D839E838D819E8129E0FC011E
S11313B020838D819E8101978D839E838D819E8163
S11313C020E1FC0120838D819E8101978D839E8382
S11313D08D819E8121E1FC0120838D819E81019775
S11313E08D839E838D819E8122E1FC0120838D81EA
S11313F09E8101978D839E838D819E8123E1FC01D3
S113140020838D819E8101978D839E838D819E8112
S113141024E1FC0120838D819E8101978D839E832D
S11314208D819E8125E1FC0120838D819E81019720
S11314308D839E838D819E8126E1FC0120838D8195
S11314409E8101978D839E838D819E8127E1FC017E
S113145020838D819E8101978D839E838D819E81C2
S113146028E1FC0120838D819E8101978D839E83D9
S11314708D819E8129E1FC0120838D819E810197CC
S11314808D839E838D819E8120E2FC0120838D814A
S11314909E8101978D839E838D819E8121E2FC0133
S11314A020838D819E8101978D839E838D819E8172
S11314B022E2FC0120838D819E8101978D839E838E
S11314C08D819E8123E2FC0120838D819E81019781
S11314D08D839E8389859A85CC01A0E0B0E08983C1
S11314E09A83AB83BC8329818D819E81FC012083F7
S11314F08D819E8101978D839E8389819A81AB81A1
S1131500BC81892F9A2FAB2FBB2789839A83AB8306
S1131510BC8329818D819E81FC0120838D819E81E4
S113152001978D839E838D819E8126E2FC01208319
S11315308D819E8101978D839E838D819E8127E27B
S1131540FC0120838D819E8101978D839E838D81F3
S11315509E8128E2FC0120838D819E8101978D83E9
S11315609E838D819E8129E2FC0120838D819E8151
S113157001978D839E838D819E8120E3FC012083CE
S11315808D819E8101978D839E838D819E812A9674
S1131590CDBFDEBFDF91CF910895CF93DF93CDB759
S11315A0DEB70E94140CA0917030B09171300D9090
S11315B00DBE0D900EBEEF91DF91CF91BF91AF9113
S11315C09F918F917F916F915F914F913F912F9157
S11315D01F910F91FF90EF90DF90CF90BF90AF904D
S11315E09F908F907F906F905F904F903F902F903F
S11315F01F900F90FF91F093A200FF91FFBFFF9106
S1131600089581E0DF91CF910895FF93FFB7FF9391
S1131610F091A200FF93F87FF093A2000F921F9223
S113162011242F923F924F925F926F927F928F92EA
S11316309F92AF92BF92CF92DF92EF92FF920F935D
S11316401F932F933F934F935F936F937F938F9346
S11316509F93AF93BF93CF93DF93EF93A091703099
S1131660B09171300DB60D920EB60D920E944C16CB
S1131670A0917030B09171300D900DBE0D900EBEE2
S1131680EF91DF91CF91BF91AF919F918F917F9116
S11316906F915F914F913F912F911F910F91FF9007
S11316A0EF90DF90CF90BF90AF909F908F907F90FE
S11316B06F905F904F903F902F901F900F90FF91ED
S11316C0F093A200FF91FFBFFF91089500001F93C4
S11316D0CF93DF931F92CDB7DEB7898380913F31DB
S11316E0982F8981892B80933F3180EA90E0FC0117
S11316F08081813061F080EA90E0FC018081823059
S113170031F080EA90E0FC018081843079F48091AA
S11317103F31882359F00E94DD08182F10923F3181
S11317200E944C1680EA90E0FC01128300000F90A6
S1131730DF91CF911F9108951F93CF93DF93CDB77E
S1131740DEB70E94DD08182F0E943C1580EA90E065
S1131750FC0112830000DF91CF911F910895FF9344
S1131760FFB7FF93F091A200FF93F87FF093A200DC
S11317700F921F9211242F923F924F925F926F9279
S11317807F928F929F92AF92BF92CF92DF92EF920D
S1131790FF920F931F932F933F934F935F936F93F6
S11317A07F938F939F93AF93BF93CF93DF93EF93E5
S11317B0A0917030B09171300DB60D920EB60D92AD
S11317C00E949C0B81E00E94670BA0917030B09145
S11317D071300D900DBE0D900EBEEF91DF91CF9143
S11317E0BF91AF919F918F917F916F915F914F9135
S11317F03F912F911F910F91FF90EF90DF90CF9029
S1131800BF90AF909F908F907F906F905F904F901C
S11318103F902F901F900F90FF91F093A200FF91A3
S1131820FFBFFF9118950000CF93DF9300D01F9264
S1131830CDB7DEB780E09DE7A0E0B0E089839A836E
S1131840AB83BC8389819A81AB81BC81689415F890
S1131850B695A795979587951694D1F789839A831A
S1131860AB83BC8389819A81AB81BC810197A10937
S1131870B10989839A83AB83BC8380E098E0298192
S11318803A81FC0126A337A365E080E098E00E943A
S1131890410361E080E098E00E947903000024960F
S11318A0CDBFDEBFDF91CF910895CF93DF93CDB746
S11318B0DEB72597CDBFDEBF8B839C836D838B8181
S11318C09C8189839A83F091A200FF93F87FF0931F
S11318D0A20089819A81FC018081918129813A81C8
S11318E0F901278D422F50E029813A81F90120A185
S11318F0222F30E0429FB001439F700D529F700D24
S113190011249B01280F391F89819A81FC012283AC
S1131910338389819A81FC01168E89819A81FC0125
S11319202081318189819A81FC01248335838981D5
S11319309A81FC018081918129813A81F901278D65
S1131940222F30E0A9014150510929813A81F9013E
S113195020A1222F30E0429FB001439F700D529F7F
S1131960700D11249B01280F391F89819A81FC0174
S11319702683378389819A812FEFFC0121A38981F2
S11319809A812FEFFC0122A38D81882381F4898120
S11319909A81FC0180858823A1F089819A81089627
S11319A00E94B717882369F00E94050B0AC0898139
S11319B09A8108960E946E0789819A8143960E94B3
S11319C06E07FF91F093A20081E02596CDBFDEBFA4
S11319D0DF91CF9108950F931F93CF93DF93CDB7EA
S11319E0DEB72997CDBFDEBF8F8368874987888597
S11319F0882319F419821A820FC08F81482F50E06E
S1131A008885282F30E0429FC001439F900D529F4C
S1131A10900D112489839A8389819A8185960E94E5
S1131A201C078B839C838B819C81892B81F08B8108
S1131A309C8185968D839E832B813C818D819E81A3
S1131A4089012985AC0168858F810E94310D8B81C4
S1131A509C812996CDBFDEBFDF91CF911F910F915D
S1131A6008950F931F93CF93DF93CDB7DEB72797D6
S1131A70CDBFDEBF89836A834B835C832D830E8352
S1131A801F838A81882341F48E819F812E813F8127
S1131A90FC012083318307C08E819F812B813C818F
S1131AA0FC01208331838E819F812981FC01278F52
S1131AB08E819F812A81FC0120A38E819F8161E018
S1131AC00E94550C8E819F812D81FC0124A300006E
S1131AD02796CDBFDEBFDF91CF911F910F9108955F
S1131AE00F93CF93DF93CDB7DEB76297CDBFDEBF41
S1131AF08A879B876C877D872E873F87488B598B86
S1131B000A8B19828A859B858A839B83F091A20024
S1131B10FF93F87FF093A2008A819B81FC01268DBC
S1131B208A819B81FC01878D281718F08A8982306D
S1131B3019F52C853D858A819B814A89B9010E94CA
S1131B406E0F8C838A819B81FC018389882351F0E9
S1131B508A819B8143960E94B717882341F00E9493
S1131B60050B05C08C81882311F00E94050BFF91A1
S1131B70F093A20081E06FC08E859F85A889B98902
S1131B80892B8A2B8B2B29F4FF91F093A20080E000
S1131B9062C08981882331F4CE0105960E9482189F
S1131BA081E08983FF91F093A2000E947114F09167
S1131BB0A200FF93F87FF093A2008A819B81FC012D
S1131BC081A18F3F21F48A819B81FC0111A28A812A
S1131BD09B81FC0182A18F3F21F48A819B81FC01BE
S1131BE012A2FF91F093A2009E01225F3F4FCE010B
S1131BF00596B9010E94A518882331F58A819B8135
S1131C000E94F9108823C9F08E859F85A889B98917
S1131C102A813B81285F3F4FAC01BD01C9010E946D
S1131C201C178A819B810E9473100E947E14882352
S1131C3009F06CCF0E94050B69CF8A819B810E94B9
S1131C4073100E947E1462CF8A819B810E9473105C
S1131C500E947E1480E06296CDBFDEBFDF91CF91FB
S1131C600F910895CF93DF93CDB7DEB72C97CDBFF7
S1131C70DEBF8E839F83688779874A875B872C873B
S1131C808E819F818A839B830E94DD088C838A8155
S1131C909B81FC01268D8A819B81FC01878D2817FD
S1131CA018F08C85823089F58A819B81FC0182A1A0
S1131CB08D83288539858A819B814C85B9010E9451
S1131CC06E0F8D818F3FB9F48A819B81FC018389DA
S1131CD08823C1F08A819B8143960E94B717882389
S1131CE089F08A859B85892B69F08A859B8521E00B
S1131CF0FC01208307C08D818F5F282F8A819B81FF
S1131D00FC0122A381E0898301C0198280EA90E06A
S1131D102C81FC01228389812C96CDBFDEBFDF910B
S1131D20CF910895CF93DF93CDB7DEB76197CDBF41
S1131D30DEBF8A879B876C877D872E873F87488B8A
S1131D40598B19828A859B858A839B83F091A20093
S1131D50FF93F87FF093A2008A819B81FC01868D1A
S1131D608C838C81882311F12C853D858A819B810C
S1131D70B9010E9423108C812FEF280F8A819B8147
S1131D80FC01268F8A819B81FC018085882349F090
S1131D908A819B8108960E94B717882311F00E94BC
S1131DA0050BFF91F093A20081E076C08E859F859C
S1131DB0A889B989892B8A2B8B2B29F4FF91F0935D
S1131DC0A20080E069C08981882331F4CE010596A0
S1131DD00E94821881E08983FF91F093A2000E94FF
S1131DE07114F091A200FF93F87FF093A2008A810E
S1131DF09B81FC0181A18F3F21F48A819B81FC019D
S1131E0011A28A819B81FC0182A18F3F21F48A81E6
S1131E109B81FC0112A2FF91F093A2009E01225F1C
S1131E203F4FCE010596B9010E94A518882331F5CC
S1131E308A819B810E94D8108823C9F08E859F8552
S1131E40A889B9892A813B812D5E3F4FAC01BD0130
S1131E50C9010E941C178A819B810E9473100E94F1
S1131E607E14882309F072CF0E94050B6FCF8A81FC
S1131E709B810E9473100E947E1468CF8A819B818B
S1131E800E9473100E947E148A819B810E94D81044
S1131E90882309F45BCF80E06196CDBFDEBFDF917C
S1131EA0CF910895CF93DF9300D0CDB7DEB78A8367
S1131EB09B83F091A200FF93F87FF093A2008A81A4
S1131EC09B81FC01868D8983FF91F093A200898117
S1131ED02396CDBFDEBFDF91CF910895CF93DF93DB
S1131EE0CDB7DEB72797CDBFDEBF8B839C836D83D1
S1131EF07E834F831A828B819C81FC01868D89832A
S1131F008B819C81FC0180A1882309F48EC08F8180
S1131F108823D9F58B819C81FC0180A1482F50E056
S1131F208B819C81FC01848195812D813E81B90145
S1131F300E9447308B819C81FC01248135818B81F7
S1131F409C81FC0180A1882F90E0280F391F8B8190
S1131F509C81FC01248335838B819C81FC01248139
S1131F6035818B819C81FC018281938128173907FB
S1131F7008F45BC08B819C81FC01208131818B81C1
S1131F809C81FC012483358350C08B819C81FC019E
S1131F9080A1482F50E08B819C81FC018681978130
S1131FA02D813E81B9010E9447308B819C81FC01C7
S1131FB0268137818B819C81FC0180A1882F90E050
S1131FC0919581959109280F391F8B819C81FC0182
S1131FD0268337838B819C81FC01268137818B8109
S1131FE09C81FC018081918128173907A8F48B8199
S1131FF09C81FC01228133818B819C81FC0180A125
S1132000882F90E0919581959109280F391F8B8134
S11320109C81FC01268337838F81823031F489814E
S1132020882319F0898181508983898121E0280FCF
S11320308B819C81FC01268F8A812796CDBFDEBFD0
S1132040DF91CF910895CF93DF9300D01F92CDB746
S1132050DEB789839A836B837C8389819A81FC01AF
S113206080A18823C9F189819A81FC012681378165
S113207089819A81FC0180A1882F90E0280F391F63
S113208089819A81FC012683378389819A81FC01A5
S11320902681378189819A81FC0182819381281765
S11320A0390750F089819A81FC012081318189812D
S11320B09A81FC012683378389819A81FC0180A15E
S11320C0482F50E089819A81FC01268137818B81D8
S11320D09C81B9010E94473000002496CDBFDEBF29
S11320E0DF91CF910895CF93DF9300D01F92CDB7A6
S11320F0DEB78B839C83F091A200FF93F87FF0936B
S1132100A2008B819C81FC0182A1898312C08B81F6
S11321109C81FC018389882381F08B819C81439677
S11321200E94B717882311F00E944D1989818150AC
S11321308983898118165CF301C000008B819C811E
S11321402FEFFC0122A3FF91F093A200F091A200D3
S1132150FF93F87FF093A2008B819C81FC0181A105
S11321608A8312C08B819C81FC018085882381F045
S11321708B819C8108960E94B717882311F00E94D6
S11321804D198A8181508A838A8118165CF301C0B3
S113219000008B819C812FEFFC0121A3FF91F09320
S11321A0A20000002496CDBFDEBFDF91CF91089539
S11321B0CF93DF9300D0CDB7DEB78A839B83F091B2
S11321C0A200FF93F87FF093A2008A819B81FC0117
S11321D0868D882319F481E0898301C01982FF91D7
S11321E0F093A20089812396CDBFDEBFDF91CF910A
S11321F00895CF93DF9300D0CDB7DEB78A839B8356
S1132200F091A200FF93F87FF093A2008A819B8152
S1132210FC01268D8A819B81FC01878D281719F486
S113222081E0898301C01982FF91F093A200898122
S11322302396CDBFDEBFDF91CF910895CF93DF9377
S1132240CDB7DEB72997CDBFDEBF8B839C834D838B
S11322505E836F83788729878B819C8189839A83A6
S1132260F091A200FF93F87FF093A20089819A81F4
S1132270FC0181A18F3F21F489819A81FC0111A283
S113228089819A81FC0182A18F3F21F489819A81FD
S1132290FC0112A2FF91F093A20089819A81FC01B2
S11322A0868D882371F489819A81FC0173968D81CE
S11322B09E81AF81B8852985AC01BD01CF010E9403
S11322C0831789819A810E94731000002996CDBFDB
S11322D0DEBFDF91CF9108958F929F92AF92BF920C
S11322E0CF92DF92EF92FF920F931F93CF93DF93DE
S11322F0CDB7DEB76097CDBFDEBF8E839F8368877F
S113230079874A875B872C873D870E87EF86F88A13
S11323108A859B850E941C078C839D838C819D816B
S1132320892BB9F08CE290E00E941C0789839A8380
S113233089819A81892B41F089819A812C813D81FF
S1132340FC01238F348F07C08C819D810E9460071C
S113235002C019821A8289819A81892B09F18A859E
S11323609B85CC01A0E0B0E009811A814F85588992
S11323702C853D8568857985EE81FF81812C912CA2
S113238058016A01EE8489019C01AD01CF010E94CC
S1132390E31189819A810E94B91281E08B8302C082
S11323A08FEF8B838B816096CDBFDEBFDF91CF91A2
S11323B01F910F91FF90EF90DF90CF90BF90AF905F
S11323C09F908F9008958F929F92AF92BF92CF92D9
S11323D0DF92EF92FF920F931F93CF93DF93CDB7CA
S11323E0DEB76497CDBFDEBF8C839D836E837F830E
S11323F0288739874A875B870C871D87EE86CF86B7
S1132400D88AA98ABA8A8B8A9C8A28853985898937
S11324109A89FC01838D948DA90165EA70E00E947C
S1132420503089899A89FC01238D348D888599855A
S11324300197820F931F8A839B83198221C089810C
S1132440882F90E02981222F30E04E815F81240F74
S1132450351FF901408129893A89820F931F4D96CE
S1132460FC0140838981882F90E02E813F81820F77
S1132470931FFC018081882339F089818F5F8983D0
S113248089818830E0F201C0000089899A89FC01C1
S113249014A28E85843010F083E08E8789899A890E
S11324A02E85FC01228F89899A8902960E94A807A9
S11324B089899A890E960E94A80789899A89298907
S11324C03A89FC01228733878E85882F90E0A0E02B
S11324D0B0E024E030E040E050E079018A01E81AFD
S11324E0F90A0A0B1B0BD801C70129893A89F9019A
S11324F086879787A08BB18B89899A8929893A899C
S1132500FC01268B378B89899A89FC0117A210A6B6
S113251011A612A689899A89FC0113A64C855D85AA
S11325202C813D818A819B81B9010E94F4089C0120
S113253089899A89FC01208331838F859889892B25
S113254039F08F85988929893A89FC012083318360
S113255000006496CDBFDEBFDF91CF911F910F9134
S1132560FF90EF90DF90CF90BF90AF909F908F90AF
S11325700895CF93DF931F921F92CDB7DEB789835F
S11325809A83F091A200FF93F87FF093A2008091C8
S1132590CE308F5F8093CE308091703090917130C7
S11325A0892B69F489819A8180937030909371307A
S11325B08091CE308130C9F40E946B1916C080918D
S11325C0D430882391F48091703090917130FC0163
S11325D0228D89819A81FC01828D821730F0898154
S11325E09A8180937030909371308091D8308F5F4E
S11325F08093D8302091D83089819A81FC0125A319
S113260089819A81FC01928D8091D330891730F4AD
S113261089819A81FC01828D8093D33089819A814A
S1132620AC014E5F5F4F89819A81FC01828D282F16
S113263030E06BE0629FC001639F900D11248E58BF
S11326409F4CBA010E94BB07FF91F093A2008091B6
S1132650D430882371F08091703090917130FC01F6
S1132660228D89819A81FC01828D281710F40E94A1
S1132670050B00000F900F90DF91CF910895EF921A
S1132680FF920F931F93CF93DF93CDB7DEB760977D
S1132690CDBFDEBF8B879C874D875E876F87788B26
S11326A019820E9471148091CF309091D030A09102
S11326B0D130B091D2308A839B83AC83BD838B8528
S11326C09C85FC0120813181428153818D859E85C9
S11326D0AF85B889820F931FA41FB51F8E839F8374
S11326E0A887B9878B859C85FC0120813181428133
S11326F053818A819B81AC81BD8182179307A40792
S1132700B50700F58B859C85FC01208131814281D0
S113271053818E819F81A885B98582179307A40769
S1132720B50778F52E813F81488559858A819B813B
S1132730AC81BD8182179307A407B50710F581E02A
S113274089831FC08B859C85FC0120813181428156
S113275053818E819F81A885B98582179307A40729
S1132760B50768F02E813F81488559858A819B8110
S1132770AC81BD8182179307A407B50710F481E0EB
S113278089832B853C858E819F81A885B985F90134
S113279080839183A283B38389818823A9F02E81C6
S11327A03F81488559858A819B81AC81BD817901AE
S11327B08A01E81AF90A0A0B1B0BD801C70140E089
S11327C0BC01CD010E94481A0E947E148A878A8522
S11327D0882311F40E94050B00006096CDBFDEBF74
S11327E0DF91CF911F910F91FF90EF900895CF93B8
S11327F0DF93CDB7DEB72597CDBFDEBF6A837B837A
S11328008C839D8319828A819B81AC81BD81892BB4
S11328108A2B8B2B71F00E9471148A819B81AC816D
S1132820BD8140E0BC01CD010E94481A0E947E1483
S113283089838981882311F40E94050B0000259661
S1132840CDBFDEBFDF91CF910895EF92FF920F933A
S1132850CF93DF931F92CDB7DEB70F2EFDEDEF2E92
S1132860F0E3FF2EF02D00E020E030E048EC50E0F3
S113287064E070E288E599E10E946C1189838981A2
S1132880813019F40E94E91A89838981813009F51C
S113289080EA90E020EA30E0F9012281287FFC01FF
S11328A022838FEF9FEFDC018093D9309093DA304D
S11328B0A093DB30B093DC3081E08093D43010926D
S11328C0CF301092D0301092D1301092D2300E947A
S11328D0CD0A00000F90DF91CF910F91FF90EF9000
S11328E00895CF93DF93CDB7DEB78091DF308F5F4C
S11328F08093DF300000DF91CF910895CF93DF9371
S113290000D01F92CDB7DEB719821A821B82F091D4
S1132910A200FF93F87FF093A2008091DF308150F2
S11329208093DF308091DF30882309F074C0809178
S1132930CE30882309F46FC046C08091BF30909197
S1132940C030FC018085918589839A8389819A812D
S11329500E960E94870889819A8102960E948708B0
S113296089819A81FC01928D8091D330891730F44A
S113297089819A81FC01828D8093D33089819A81E7
S1132980AC014E5F5F4F89819A81FC01828D282FB3
S113299030E06BE0629FC001639F900D11248E585C
S11329A09F4CBA010E94BB0789819A81FC01228D48
S11329B08091703090917130FC01828D281718F04D
S11329C081E08093D6308091B830882309F0B5CF68
S11329D089819A81892B11F00E94AE198091D5309A
S11329E08C838C81882379F00E943C15882319F00C
S11329F081E08093D6308C8181508C838C818823B4
S1132A0099F71092D5308091D630882321F081E057
S1132A108B830E94050BFF91F093A2008B81249677
S1132A20CDBFDEBFDF91CF910895CF93DF9300D068
S1132A301F92CDB7DEB7F091A200FF93F87FF09319
S1132A40A2008091CF309091D030A091D130B0913C
S1132A50D23089839A83AB83BC83FF91F093A20025
S1132A6089819A81AB81BC81BC01CD012496CDBF03
S1132A70DEBFDF91CF910895CF93DF93CDB7DEB75B
S1132A802D97CDBFDEBF19828091DF30882309F0F6
S1132A90F1C08091CF309091D030A091D130B091DD
S1132AA0D2300196A11DB11D8A839B83AC83BD8363
S1132AB08A819B81AC81BD818093CF309093D0304B
S1132AC0A093D130B093D2308A819B81AC81BD81F7
S1132AD0892B8A2B8B2BD9F48091B4309091B5300B
S1132AE08E839F838091B6309091B7308093B430B9
S1132AF09093B5308E819F818093B6309093B73098
S1132B008091D7308F5F8093D7300E94AE19809127
S1132B10D9309091DA30A091DB30B091DC302A8149
S1132B203B814C815D81281739074A075B0708F40C
S1132B308AC08091B4309091B530FC0180818823A3
S1132B4061F48FEF9FEFDC018093D9309093DA30FA
S1132B50A093DB30B093DC3076C08091B430909198
S1132B60B530FC0187819085FC018085918588873B
S1132B70998788859985FC0182819381A481B58197
S1132B808A879B87AC87BD872A813B814C815D8185
S1132B908A859B85AC85BD85281739074A075B075D
S1132BA068F48A859B85AC85BD858093D9309093E4
S1132BB0DA30A093DB30B093DC3045C0888599854A
S1132BC002960E94870888859985FC01808D918DE5
S1132BD0892B29F0888599850E960E948708888517
S1132BE09985FC01928D8091D330891730F48885C2
S1132BF09985FC01828D8093D33088859985AC01B9
S1132C004E5F5F4F88859985FC01828D282F30E0C7
S1132C106BE0629FC001639F900D11248E589F4CFE
S1132C20BA010E94BB0788859985FC01228D809199
S1132C30703090917130FC01828D281708F479CF9F
S1132C4081E0898376CF8091703090917130FC015E
S1132C50828D282F30E04BE0429FC001439F900DAE
S1132C6011248E589F4CFC018081823040F081E019
S1132C70898305C08091D5308F5F8093D530809152
S1132C80D630882311F081E0898389812D96CDBFC8
S1132C90DEBFDF91CF910895CF93DF93CDB7DEB739
S1132CA02997CDBFDEBF8091DF30882321F081E0FA
S1132CB08093D630BAC01092D63080917030909103
S1132CC07130FC01838D948D8A839B8385EA95EA18
S1132CD0DC018C839D83AE83BF838A819B81FC014D
S1132CE020813181428153818C819D81AE81BF815C
S1132CF0281739074A075B0799F58A819B8104964F
S1132D00FC0120813181428153818C819D81AE817E
S1132D10BF81281739074A075B0711F58A819B8110
S1132D200896FC0120813181428153818C819D81EF
S1132D30AE81BF81281739074A075B0789F48A8166
S1132D409B810C96FC0120813181428153818C81CD
S1132D509D81AE81BF81281739074A075B0771F04F
S1132D6080917030909171309C01235E3F4F80912F
S1132D70703090917130B9010E9495038091D330E5
S1132D80898303C08981815089838981282F30E018
S1132D904BE0429FC001439F900D11248E589F4CDD
S1132DA0FC018081882371F38981282F30E04BE076
S1132DB0429FC001439F900D11248E589F4C8887D9
S1132DC0998788859985FC0181819281FC01248100
S1132DD0358188859985FC0121833283888599858D
S1132DE0FC0121813281888599850396281739074A
S1132DF069F488859985FC0181819281FC01248193
S1132E00358188859985FC0121833283888599855C
S1132E10FC0181819281FC018085918580937030D1
S1132E209093713089818093D33000002996CDBF6F
S1132E30DEBFDF91CF910895CF93DF9300D000D010
S1132E40CDB7DEB789839A834B835C836D837E839E
S1132E5080917030909171309C01225F3F4F898145
S1132E609A81B9010E9406088B819C81AD81BE8143
S1132E7041E0BC01CD010E94481A00002696CDBF56
S1132E80DEBFDF91CF9108950F931F93CF93DF930C
S1132E90CDB7DEB72A97CDBFDEBF89839A834B8334
S1132EA05C836D837E830F83188729873A872091FB
S1132EB07030309171308B819C81AD81BE81B0685E
S1132EC0F90186879787A08BB18B809170309091A0
S1132ED071309C01225F3F4F89819A81B9010E9420
S1132EE0BB078F819885A985BA8541E0BC01CD01D6
S1132EF00E94481A00002A96CDBFDEBFDF91CF9111
S1132F001F910F910895CF93DF93CDB7DEB7279725
S1132F10CDBFDEBF89839A834B835C836D837E83BD
S1132F202F8380917030909171309C01225F3F4FCC
S1132F3089819A81B9010E94BB078F81882339F066
S1132F408FEF9FEFDC018B839C83AD83BE838B81EA
S1132F509C81AD81BE814F81BC01CD010E94481A84
S1132F6000002796CDBFDEBFDF91CF910895CF93A8
S1132F70DF93CDB7DEB72597CDBFDEBF8C839D83AE
S1132F808C819D81FC0187819085FC0180859185E0
S1132F908A839B838A819B810E960E9487088091F5
S1132FA0DF30882351F58A819B8102960E9487082D
S1132FB08A819B81FC01928D8091D330891730F4F2
S1132FC08A819B81FC01828D8093D3308A819B818D
S1132FD0AC014E5F5F4F8A819B81FC01828D282F5B
S1132FE030E06BE0629FC001639F900D11248E5806
S1132FF09F4CBA010E94BB0708C08A819B810E9630
S1133000BC0188EB90E30E94BB078A819B81FC0191
S1133010228D8091703090917130FC01828D8217E5
S113302030F481E0898381E08093D63001C0198235
S113303089812596CDBFDEBFDF91CF910895CF93CF
S1133040DF93CDB7DEB72897CDBFDEBF8B839C83DC
S11330504D835E836F8378878D819E81AF81B88530
S1133060B0682B813C81F90180839183A283B3836F
S11330708B819C81FC018085918589839A838B81D6
S11330809C810E94870889819A8102960E94870800
S113309089819A81FC01928D8091D330891730F413
S11330A089819A81FC01828D8093D33089819A81B0
S11330B0AC014E5F5F4F89819A81FC01828D282F7C
S11330C030E06BE0629FC001639F900D11248E5825
S11330D09F4CBA010E94BB0789819A81FC01228D11
S11330E08091703090917130FC01828D821718F4B8
S11330F081E08093D63000002896CDBFDEBFDF91FB
S1133100CF910895CF93DF931F921F92CDB7DEB76F
S113311089839A832091D73089819A81FC01208305
S11331208091CF309091D030A091D130B091D230F5
S113313029813A81F90181839283A383B4830000B6
S11331400F900F90DF91CF910895EF92FF920F931C
S11331501F93CF93DF93CDB7DEB72D97CDBFDEBFDF
S11331608A879B876C877D87F091A200FF93F87F05
S1133170F093A2008091CF309091D030A091D130C3
S1133180B091D2308A839B83AC83BD838A859B852F
S1133190FC0181819281A381B4812A813B814C818C
S11331A05D8179018A01E81AF90A0A0B1B0BD8011F
S11331B0C7018E839F83A887B9878C859D85FC0171
S11331C080819181A281B3818F3F9F4FAF4FBF4FC9
S11331D011F4198254C08A859B85FC0190818091E9
S11331E0D730981799F08A859B85FC01218132811B
S11331F0438154818A819B81AC81BD81821793076D
S1133200A407B50718F081E0898339C08C859D85B2
S1133210FC0120813181428153818E819F81A88567
S1133220B98582179307A407B50700F58C859D859A
S1133230FC0120813181428153818E819F81A88547
S1133240B98579018A01E81AF90A0A0B1B0BD8011E
S1133250C7012C853D85F90180839183A283B383C3
S11332608A859B850E948218198209C08C859D8558
S1133270FC01108211821282138281E08983FF9102
S1133280F093A20089812D96CDBFDEBFDF91CF914F
S11332901F910F91FF90EF900895CF93DF93CDB7D7
S11332A0DEB781E08093D6300000DF91CF9108959E
S11332B0CF93DF931F921F92CDB7DEB789839A8392
S11332C00E94A61980917230823010F00E94050B82
S11332D00E944720F5CFCF93DF931F92CDB7DEB77F
S11332E0198210C08981282F30E04BE0429FC00131
S11332F0439F900D11248E589F4C0E946E07898124
S11333008F5F89838981843068F38EE990E30E941A
S11333106E0789EA90E30E946E0788EB90E30E94AF
S11333206E0783EC90E30E946E078EE990E380932E
S1133330B4309093B53089EA90E38093B63090939B
S1133340B73000000F90DF91CF910895CF93DF93B2
S1133350CDB7DEB70000DF91CF910895CF93DF930F
S11333601F921F92CDB7DEB78091B4309091B530E3
S1133370FC018081882361F48FEF9FEFDC0180934F
S1133380D9309093DA30A093DB30B093DC301BC09B
S11333908091B4309091B530FC0187819085FC0117
S11333A08085918589839A8389819A81FC018281B0
S11333B09381A481B5818093D9309093DA30A0931E
S11333C0DB30B093DC3000000F900F90DF91CF9191
S11333D00895CF93DF931F92CDB7DEB78091D43099
S11333E0882319F481E0898308C08091DF30882321
S11333F019F482E0898301C0198289810F90DF91D9
S1133400CF910895EF92FF920F931F93CF93DF9381
S113341000D01F92CDB7DEB780917030909171309B
S1133420FC0186859785A089B18989839A83AB83BA
S1133430BC83609170307091713080917030909144
S11334407130FC01828D882F90E0A0E0B0E024E090
S113345030E040E050E079018A01E81AF90A0A0BE9
S11334601B0BD801C701FB0186879787A08BB18B03
S113347089819A81AB81BC81BC01CD012496CDBFE9
S1133480DEBFDF91CF911F910F91FF90EF900895D0
S1133490CF93DF93CDB7DEB72D97CDBFDEBF69875E
S11334A07A878B879C874D878091CF309091D030DD
S11334B0A091D130B091D23089839A83AB83BC83FD
S11334C0809170309091713002960E9487088985AE
S11334D09A85AB85BC858F3F9F4FAF4FBF4F71F42B
S11334E08D85882359F080917030909171300296C7
S11334F0BC0183EC90E30E94BB0764C029813A813C
S11335004B815C8189859A85AB85BC85820F931F2D
S1133510A41FB51F8D839E83AF83B887209170301D
S1133520309171308D819E81AF81B885F90182839C
S11335309383A483B5832D813E814F8158858981EE
S11335409A81AB81BC81281739074A075B0778F455
S113355080917030909171309C012E5F3F4F80912B
S1133560B6309091B730B9010E9406082BC0809103
S11335707030909171309C012E5F3F4F8091B43038
S11335809091B530B9010E9406088091D93090918C
S1133590DA30A091DB30B091DC302D813E814F8157
S11335A05885281739074A075B0760F48D819E8187
S11335B0AF81B8858093D9309093DA30A093DB3013
S11335C0B093DC3000002D96CDBFDEBFDF91CF91EC
S11335D00895EF92FF920F93CF93DF931F92CDB78D
S11335E0DEB719820E947A1F8091FA309091FB30E5
S11335F0892B91F00F2EFCEFEF2EF0E3FF2EF02D30
S113360003E020E030E048EC50E069E070E28FEF46
S11336109BE10E946C11898389810F90DF91CF9186
S11336200F91FF90EF900895CF92DF92EF92FF9267
S11336300F931F93CF93DF93CDB7DEB76797CDBFBB
S1133640DEBF8B879C876D872E873F87488B598B7E
S11336500A8B1B8BCC8ADD8AEE8AFF8A19828091C1
S1133660FA309091FB30892B09F444C08D858A830C
S11336708E859F85A889B9898B839C83AD83BE83FE
S11336808B859C858F8398878D85863034F50E9441
S1133690E919823099F4E091FA30F091FB308C8989
S11336A09D89AE89BF89BE016E5F7F4F00E09C019A
S11336B0AD01CF010E94700D89831CC08091FA3046
S11336C09091FB30BE016E5F7F4F00E020E030E060
S11336D0A9010E94700D89830DC08091FA309091E8
S11336E0FB304A895B89BE016E5F7F4F20E00E94F8
S11336F0320E898389816796CDBFDEBFDF91CF917A
S11337001F910F91FF90EF90DF90CF900895CF928B
S1133710DF92EF92FF920F931F93CF93DF93CDB776
S1133720DEB72B97CDBFDEBF6C837D838E839F83F3
S1133730288739874A875B878091F6309091F730E4
S1133740FC0187819085FC018085918589839A831A
S113375089819A8102960E94870889819A81FC0155
S113376082898130B1F589819A81FC01268537856A
S1133770408951898C819D81AE81BF81820F931FC5
S1133780A41FB51FEC80FD800E811F81288539851B
S11337904A855B85E981FA816701780189019A018B
S11337A0AC01BD01CF010E941D1D882391F08C81C5
S11337B09D81AE81BF81E981FA81C12CD12C760132
S11337C000E010E09C01AD0160E0CF010E94141BF9
S11337D08B8389819A81FC012589368989819A8123
S11337E0F901199500002B96CDBFDEBFDF91CF9173
S11337F01F910F91FF90EF90DF90CF900895CF939A
S1133800DF93CDB7DEB72797CDBFDEBF8E839F830F
S1133810CE0105960E949A1CDC01CB0189839A8310
S1133820AB83BC832D8189819A81AB81BC81422F7A
S1133830BC01CD010E941F1C0E94B61DE9CFEF926E
S1133840FF920F931F93CF93DF93CDB7DEB72A97E1
S1133850CDBFDEBF6E837F83888799874A870E94A6
S11338607114CE0105960E94D81CDC01CB0189831A
S11338709A83AB83BC838D81882309F04EC08A85EB
S11338808823E1F42E813F814885598589819A8175
S1133890AB81BC8182179307A407B50778F00E9417
S11338A07E1429813A814B815C818E819F81A88518
S11338B0B985BC01CD010E94871B31C08A8588234C
S11338C059F08091F8309091F930FC01908181E0B9
S11338D0992309F080E08A872E813F8148855985A4
S11338E089819A81AB81BC8179018A01E81AF90A3C
S11338F00A0B1B0BD801C701E091FA30F091FB30A1
S11339002A85AC01BD01CF010E941E110E947E14C4
S1133910882329F40E94050B02C00E947E14000033
S11339202A96CDBFDEBFDF91CF911F910F91FF90FB
S1133930EF900895CF93DF9300D000D0CDB7DEB7DA
S11339408D839E838091F6309091F730FC019081B5
S113395081E0992309F080E0282F8D819E81FC016C
S113396020838D819E81FC018081882389F480914C
S1133970F6309091F730FC0187819085FC018081BD
S11339809181A281B38189839A83AB83BC8304C070
S113399019821A821B821C8289819A81AB81BC8123
S11339A0BC01CD012696CDBFDEBFDF91CF91089536
S11339B0CF93DF9300D000D0CDB7DEB78D839E8345
S11339C00E941515DC01CB0189839A83AB83BC83E8
S11339D08091FE309091FF30A0910031B09101317F
S11339E029813A814B815C81281739074A075B0793
S11339F040F40E94C01E8D819E8121E0FC01208341
S1133A0004C08D819E81FC01108289819A81AB81E1
S1133A10BC818093FE309093FF30A0930031B0932B
S1133A20013189819A81AB81BC81BC01CD0126968B
S1133A30CDBFDEBFDF91CF910895CF92DF92EF9299
S1133A40FF920F931F93CF93DF93CDB7DEB72F97DA
S1133A50CDBFDEBF8A839B834C835D836E837F836C
S1133A60088719872A873B87CC86DD86EE86FF8602
S1133A7019822A813B818C819D81AE81BF81F901AC
S1133A8082839383A483B5838A819B812A813B812A
S1133A90FC01228733872C813D814E815F8188859B
S1133AA09985AA85BB8582179307A407B50740F1BA
S1133AB0288539854A855B858C859D85AE85BF853E
S1133AC0281B390B4A0B5B0B8A819B81FC01868581
S1133AD09785A089B189281739074A075B0718F029
S1133AE081E0898336C08A819B819C012E5F3F4F90
S1133AF08091F8309091F930B9010E94060829C0EC
S1133B00288539854A855B858C859D85AE85BF85ED
S1133B10281739074A075B0780F42C813D814E81C1
S1133B205F818C859D85AE85BF85281739074A0737
S1133B305B0718F081E089830CC08A819B819C011A
S1133B402E5F3F4F8091F6309091F730B9010E947B
S1133B50060889812F96CDBFDEBFDF91CF911F91DB
S1133B600F91FF90EF90DF90CF900895CF92DF9266
S1133B70EF92FF920F931F93CF93DF93CDB7DEB7EE
S1133B806597CDBFDEBFE0C08A858823FCF4CE01F3
S1133B900A96019689839A8389819A81FC012081FE
S1133BA0318189819A81FC0184819581A681B781C3
S1133BB049815A81FA010280F381E02DEC8BFD8B5F
S1133BC0AC01BD018C899D89F90119958A858823E9
S1133BD00CF4BAC08F8598898B839C838B819C81DC
S1133BE0FC0184859585892B29F08B819C81029623
S1133BF00E948708CE0143960E94D81CDC01CB01A9
S1133C008D839E83AF83B8878A85082E000C990B19
S1133C10092E000CAA0BBB0B40E050E029E030E079
S1133C20841B950B2817390708F48DC0FC018827DD
S1133C30E250FF4F8F4F0C943F30EB84FC840D8592
S1133C401E852B853C854D855E858B819C81FC0181
S1133C5086859785A089B189820F931FA41FB51FFC
S1133C602D813E814F815885EB81FC81670178016C
S1133C7089019A01AC01BD01CF010E941D1D882359
S1133C8009F462C08B819C81FC01258936898B8172
S1133C909C81F90119958B819C81FC018289813079
S1133CA009F052C02B853C854D855E858B819C81B6
S1133CB0FC0186859785A089B189820F931FA41F73
S1133CC0B51FEB81FC81C12CD12C760100E010E002
S1133CD09C01AD0160E0CF010E94141B898734C0B0
S1133CE08B859C85AD85BE852B813C81F9018687BA
S1133CF09787A08BB18B8B819C81FC0126853785AE
S1133D00408951898D819E81AF81B885820F931F2F
S1133D10A41FB51FED80FE800F8118852D813E8183
S1133D204F815885EB81FC816701780189019A01F3
S1133D30AC01BD01CF010E941D1D06C08B819C8179
S1133D400E94600701C000008091FA309091FB301E
S1133D50BE01665F7F4F20E030E0A9010E94920E11
S1133D60882309F011CF00006596CDBFDEBFDF9137
S1133D70CF911F910F91FF90EF90DF90CF90089516
S1133D80CF92DF92EF92FF920F931F93CF93DF9323
S1133D90CDB7DEB72D97CDBFDEBF82C08091F630A0
S1133DA09091F730FC0187819085FC01808191819D
S1133DB0A281B38189839A83AB83BC838091F630DB
S1133DC09091F730FC0187819085FC018085918575
S1133DD08D839E838D819E8102960E9487088D81AA
S1133DE09E81FC01258936898D819E81F901199571
S1133DF08D819E81FC018289813009F051C08D81C1
S1133E009E81FC01268537854089518989819A8163
S1133E10AB81BC81820F931FA41FB51F8F8398872A
S1133E20A987BA872F81388549855A8589819A81DE
S1133E30AB81BC8182179307A407B507F8F42D81E1
S1133E403E818F819885A985BA85F9018283938300
S1133E50A483B5838D819E812D813E81FC012287BF
S1133E6033878D819E819C012E5F3F4F8091F63078
S1133E709091F730B9010E94060812C089819A8195
S1133E80AB81BC81ED81FE81C12CD12C760100E097
S1133E9010E09C01AD0160E0CF010E94141B8B87F0
S1133EA08091F6309091F730FC018081882309F0ED
S1133EB075CF8091F6309091F7308C879D878091F3
S1133EC0F8309091F9308093F6309093F7308C85E8
S1133ED09D858093F8309093F93000002D96CDBFE6
S1133EE0DEBFDF91CF911F910F91FF90EF90DF9094
S1133EF0CF900895CF93DF93CDB7DEB7F091A200B2
S1133F00FF93F87FF093A2008091FA309091FB30F8
S1133F10892BE9F480EE90E30E946E078BEE90E328
S1133F200E946E0780EE90E38093F6309093F73012
S1133F308BEE90E38093F8309093F93040E069E0A1
S1133F4085E00E94EB0C8093FA309093FB30FF9154
S1133F50F093A2000000DF91CF9108950F931F9377
S1133F60CF93DF93CDB7DEB76497CDBFDEBF8B872A
S1133F709C876D877E872F87388B498B5A8B0B8B59
S1133F801C8B8EEF8A838B859C858B839C838D858C
S1133F909E858D839E838F859889A989BA898F830D
S1133FA09887A987BA878091FA309091FB304B8922
S1133FB05C89BE016E5F7F4F20E00E94320E8983D0
S1133FC089816496CDBFDEBFDF91CF911F910F91A0
S1133FD00895CF93DF93CDB7DEB780E590E020E579
S1133FE030E0F90120812160FC01208380E590E02C
S1133FF0FC018181882F90E081709927892BB1F38E
S113400080E00E941F038EE10E94E80260E080E0ED
S11340100E94080343E060E080E40E94B30280E56C
S113402090E020E530E0F90120812860FC01208344
S113403080E590E0FC018181882F90E088709927C9
S1134040892BB1F364E080EC0E94D00280E590E01B
S113405020E530E0F90120812061FC01208360E04B
S113406080E00E94080380E590E0FC018181882FB4
S113407090E080719927892BB1F384E00E941F039B
S113408087E00E94E8020000DF91CF910895CF936A
S1134090DF93CDB7DEB70000DF91CF910895EF92A3
S11340A0FF920F93CF93DF93CDB7DEB70E94E91F42
S11340B00E940226E12CF12C03E020E030E04EE5E2
S11340C051E061E170E280EF93E20E946C11E12C17
S11340D0F12C02E020E030E042ED50E06EE170E2CD
S11340E089E191E20E946C11E12CF12C02E020E0C4
S11340F030E042ED50E06BE270E289EA91E20E9426
S11341006C11E12CF12C03E020E030E042ED50E0B2
S113411068E370E286E292E20E946C11E12CF12CD9
S113412002E020E030E04EE551E062E470E286EB2C
S113413092E20E946C11E12CF12C03E020E030E0CB
S11341404CE251E06CE470E282EB90E20E946C116C
S11341500E94251480E090E0DF91CF910F91FF90B1
S1134160EF900895CF93DF9300D000D0CDB7DEB7A2
S11341708D839E830E941515DC01CB0189839A836C
S1134180AB83BC83809111318823D1F180910E31AE
S113419090910F31019680930E3190930F3180915D
S11341A00E3190910F31843691056CF010920E31DE
S11341B010920F3180910A3190910B3101968093C6
S11341C00A3190930B3180910A3190910B31CC9745
S11341D06CF010920A3110920B3180910C31909155
S11341E00D31019680930C3190930D3180910C31F7
S11341F090910D31CC9724F010920C3110920D3126
S113420080911031882361F010920A3110920B31A1
S113421010920C3110920D31109210311092113114
S11342204AE050E060E070E0CE0101960E943F1346
S1134230A9CFEF92FF920F931F93CF93DF93CDB744
S1134240DEB72A97CDBFDEBF89879A8719821A8283
S11342501B821C8280E090E0A0E8BFE38D839E83F4
S1134260AF83B88780911231823009F053C08981BD
S11342709A81AB81BC81880F991FAA1FBB1F01962D
S1134280A11DB11DBC01CD010E94C02EDC01CB01DA
S11342909C01AD016D817E818F8198850E94182ECD
S11342A0DC01CB0120E030E040E850E4BC01CD016A
S11342B00E94772FDC01CB017C018D0180910231BA
S11342C090910331A0910431B09105319C01AD016D
S11342D0C801B7010E94A72DDC01CB0180930231F4
S11342E090930331A0930431B09305318D819E8165
S11342F0AF81B885B0588D839E83AF83B887898199
S11343009A81AB81BC810196A11DB11D89839A83D9
S1134310AB83BC83809110318823A1F010920231C9
S113432010920331109204311092053119821A82CD
S11343301B821C8280E090E0A0E8BFE38D839E8313
S1134340AF83B88765E070E080E090E00E94F713E7
S113435089CFCF93DF93CDB7DEB72A97CDBFDEBF2A
S113436089879A8780E090E0A0E8BFE389839A83F5
S1134370AB83BC831D821E821F82188680911231FA
S1134380833009F044C020E030E040E050E46D8127
S11343907E818F8198850E94A72DDC01CB01BC0111
S11343A0CD010E94EA2FDC01CB018D839E83AF8374
S11343B0B88720E030E040E050E46D817E818F8159
S11343C098850E94182EDC01CB019C01AD01698106
S11343D07A818B819C810E94772FDC01CB018983B8
S11343E09A83AB83BC8329813A814B815C8160E0F1
S11343F070E080E090E40E94182EDC01CB018093F1
S1134400063190930731A0930831B093093180911C
S113441010318823A1F080E090E0A0E8BFE3898315
S11344209A83AB83BC831D821E821F8218861092DE
S1134430063110920731109208311092093165E06B
S113444070E080E090E00E94F71398CFCF93DF9361
S1134450CDB7DEB72E97CDBFDEBF8D879E8719827D
S11344601A821B821C821D821E821F821886198654
S11344701A861B861C868091063190910731A09183
S11344800831B091093120E030E543EC57E4BC0138
S1134490CD010E94772FDC01CB01BC01CD010E942C
S11344A0912EDC01CB0189839A83AB83BC838091F9
S11344B0023190910331A0910431B091053120E093
S11344C030E543EC57E4BC01CD010E94772FDC01B9
S11344D0CB01BC01CD010E94912EDC01CB018D8367
S11344E09E83AF83B8878091002090910120A09192
S11344F00220B091032020E030E543EC57E4BC01F6
S1134500CD010E94772FDC01CB01BC01CD010E94BB
S1134510912EDC01CB0189879A87AB87BC87809178
S113452011318823E1F029853A854B855C858D819D
S11345309E81AF81B885281739074A075B0769F060
S113454029853A854B855C8589819A81AB81BC81BB
S1134550281739074A075B0711F4109211316AE0F2
S113456070E080E090E00E94F71385CFCF93DF9353
S1134570CDB7DEB7C655D109CDBFDEBF9E012B5ADC
S11345803F4FF901808391830E941515DC01CB0113
S113459089839A83AB83BC8380911231882F90E006
S11345A081309105C9F1823091051CF4892B39F0D1
S11345B060C08230910519F0039771F15AC0CE01A1
S11345C08D9620E1E1E6F0E2DC0101900D922A955E
S11345D0E1F78091023190910331A0910431B091BF
S11345E005312B2F2F932A2F2F93292F2F938F931E
S11345F081E790E2892F8F9381E790E28F93CE0138
S11346000596292F2F938F930E9490308DB79EB7D4
S11346100896CDBFDEBF30C0CE018D9620E1E0E824
S1134620F0E2DC0101900D922A95E1F780910631C8
S113463090910731A0910831B09109312B2F2F931C
S11346402A2F2F93292F2F938F9381E790E2892F7D
S11346508F9381E790E28F93CE010596292F2F93B4
S11346608F930E949030EDB7FEB73896CDBFDEBF72
S113467003C010921231000080910020909101201B
S1134680A0910220B09103202B2F2F932A2F2F9338
S1134690292F2F938F9380E990E2892F8F9380E9BC
S11346A090E28F93CE014996292F2F938F930E94E6
S11346B090308DB79EB70896CDBFDEBF40910E31C6
S11346C050910F3120910A3130910B3180910C318E
S11346D090910D31652F6F934F93432F4F932F93E9
S11346E0292F2F938F938FE990E2892F8F938FE94E
S11346F090E28F93CE018F5B9F4F292F2F938F933F
S11347000E949030EDB7FEB73A96CDBFDEBFCE0122
S11347108D96292F2F938F9384EB90E2892F8F937B
S113472084EB90E28F931F921F921F921F920E941C
S11347304D288DB79EB70896CDBFDEBFCE01059636
S1134740292F2F938F9384EB90E2892F8F9384EBFF
S113475090E28F931F921F921F9281E08F930E9489
S11347604D28EDB7FEB73896CDBFDEBFCE014996D2
S1134770292F2F938F9384EB90E2892F8F9384EBCF
S113478090E28F931F921F921F9282E08F930E9458
S11347904D288DB79EB70896CDBFDEBFCE018F5B87
S11347A09F4F292F2F938F9384EB90E2892F8F9320
S11347B084EB90E28F931F921F921F9283E08F935A
S11347C00E944D28EDB7FEB73896CDBFDEBF44EF4B
S11347D051E060E070E0CE0101960E943F13DCCE10
S11347E0CF93DF931F921F92CDB7DEB789839A834D
S11347F00E9450010E946C0180E00E945E028130A0
S1134800A9F480911231882339F482E08093123123
S113481081E0809311310AC080911231813031F4EA
S113482083E08093123181E08093113181E00E9412
S11348305E02813091F480911231823029F4109219
S113484012311092113109C080911231833029F450
S113485081E0809312311092113182E00E945E0255
S1134860813089F481E0809310318091123182305B
S113487019F41092123107C080911231833019F467
S113488081E08093123183E00E945E028130F1F472
S113489080911231882321F481E08093123116C073
S11348A080911231813019F4109212310FC080912D
S11348B01231823021F483E08093123107C0809159
S11348C01231833019F482E0809312316AE070E08F
S11348D080E090E00E94F7138DCF1F920F9200901A
S11348E03F000F92112400903B000F922F933F93AF
S11348F04F935F936F937F938F939F93AF93BF93E4
S1134900EF93FF93CF93DF931F92CDB7DEB7198256
S113491080914231909143319E012F5F3F4F41E09E
S113492050E060E070E00E94F20660E080E09BE00E
S11349300E94410380E09BE0FC01168200000F907E
S1134940DF91CF91FF91EF91BF91AF919F918F91A3
S11349507F916F915F914F913F912F910F900092B2
S11349603B000F9000923F000F901F901895CF923C
S1134970DF92EF92FF920F93CF93DF9300D01F92B9
S1134980CDB7DEB769837A838B839C8389819A81CF
S1134990AB81BC810297A105B10540F482E090E0AF
S11349A0A0E0B0E089839A83AB83BC8380E09BE082
S11349B021E0FC01268380E09BE0FC0110A211A20F
S11349C060E080E09BE00E945D0389819A81AB8175
S11349D0BC818E3F9F4FA105B10598F420E03BE0D8
S11349E089819A81AB81BC81B695A7959795879566
S11349F0F90186A397A365E080E09BE00E94410350
S1134A001FC089819A81AB81BC8180349244AF40BC
S1134A10B105B0F420E03BE089819A81AB81BC818F
S1134A20689414F8B695A795979587951694D1F739
S1134A30F90186A397A367E080E09BE00E9441030D
S1134A4080914231909143310F2EF4EFCF2EDD242B
S1134A50D394E12CF12CF02D00E021E041E050E072
S1134A6060E070E00E94020400002496CDBFDEBF27
S1134A70DF91CF910F91FF90EF90DF90CF90089549
S1134A80CF93DF931F92CDB7DEB7898389818F706F
S1134A90898389818295807F898380E096E020E004
S1134AA036E0F901348129812F602323FC0124831A
S1134AB080E096E020E036E0F90134812981232B5F
S1134AC0FC01248300000F90DF91CF910895CF93D0
S1134AD0DF931F92CDB7DEB789838981882331F0B4
S1134AE080E696E021E0FC01258305C080E696E09F
S1134AF021E0FC01268300000F90DF91CF910895FF
S1134B00CF93DF931F92CDB7DEB789838981882342
S1134B1031F080E696E022E0FC01258305C080E6C2
S1134B2096E022E0FC01268300000F90DF91CF91F4
S1134B300895CF93DF931F92CDB7DEB78983898120
S1134B40882331F080E696E024E0FC01258305C04B
S1134B5080E696E024E0FC01268300000F90DF91BC
S1134B60CF910895CF93DF93CDB7DEB781E00E9454
S1134B70992561E070E080E090E00E94B72480E035
S1134B800E9499250000DF91CF910895CF93DF9380
S1134B901F92CDB7DEB78983898182958F700E9479
S1134BA0402580E00E94672580E00E9480250E94C5
S1134BB0B22589818F700E9440250E94B225000091
S1134BC00F90DF91CF910895CF93DF931F92CDB7CC
S1134BD0DEB78983898182958F700E94402581E0A8
S1134BE00E94672580E00E9480250E94B225898169
S1134BF08F700E9440250E94B22500000F90DF9123
S1134C00CF910895EF92FF920F93CF93DF93CDB797
S1134C10DEB780E096E020E1FC01218380E096E0AD
S1134C2020E2FC01218380E096E020E4FC01218362
S1134C3080E096E020E8FC01218380E696E021E014
S1134C40FC01218380E696E022E0FC01218380E6DA
S1134C5096E024E0FC01218380E096E020E036E049
S1134C60F90124812F70FC01248380E696E020E67C
S1134C7036E0F9012481287FFC01248340E066E1C9
S1134C8088E00E94EB0C80934031909341310E9464
S1134C90DF038093423190934331E12CF12C01E006
S1134CA020E030E04EE551E067EB70E280E097E20F
S1134CB00E946C110000DF91CF910F91FF90EF9053
S1134CC00895CF93DF9300D01F92CDB7DEB78983C9
S1134CD09A836B837C8389819A818130910589F0E1
S1134CE0823091051CF4892B39F01AC08230910569
S1134CF069F0039781F014C08B8180580E94C62507
S1134D000FC08B8180540E94C6250AC08B818C56AB
S1134D100E94C62505C08B818C520E94C6250000C6
S1134D2067E270E080E090E00E94B72400002496DF
S1134D30CDBFDEBFDF91CF910895CF93DF931F9254
S1134D40CDB7DEB7898389810E94E4256BE270E0E8
S1134D5080E090E00E94B72400000F90DF91CF9193
S1134D600895CF93DF9300D01F92CDB7DEB78B8326
S1134D709C8319821A8219C089819A812B813C8172
S1134D80820F931FFC0180818823A1F089819A817D
S1134D902B813C81820F931FFC0180810E949D2600
S1134DA089819A81019689839A8389819A8144971A
S1134DB01CF301C0000000002496CDBFDEBFDF91CC
S1134DC0CF910895CF93DF9300D000D0CDB7DEB755
S1134DD089839A836B837C834D835E832B813C819F
S1134DE089819A81B9010E9461268D819E810E94E8
S1134DF0B12600002696CDBFDEBFDF91CF91089586
S1134E00CF93DF93CDB7DEB7C057D109CDBFDEBF97
S1134E109E0121593F4FF9018083918319821A829F
S1134E201B821C821D821E8226C01F8218861AC005
S1134E302D813E8144E1429FC001439F900D112486
S1134E409E012F5F3F4F280F391F8F819885820F56
S1134E50931F089620E2FC0120838F819885019698
S1134E608F8398878F819885449714F38D819E81D1
S1134E7001968D839E838D819E810497B4F260E4B4
S1134E807CE980E090E00E94B72483E00E94402502
S1134E9068E873E180E090E00E94B7240E94B225A4
S1134EA060EA70E080E090E00E94B7240E94B2259E
S1134EB060EA70E080E090E00E94B7240E94B2258E
S1134EC060EA70E080E090E00E94B72482E00E94F3
S1134ED040250E94B22588E20E94C62580E10E94F6
S1134EE0C6258CE00E94C62586E00E94C62568EC93
S1134EF070E080E090E00E94F7138091423190913D
S1134F00433140E050E0BA010E943A05DC01CB0194
S1134F10892B8A2B8B2B09F496C080914231909176
S1134F20433142E050E060E070E00E943A051982AB
S1134F301A8226C01B821C821AC029813A8144E14C
S1134F40429FC001439F900D11249E012F5F3F4F4C
S1134F50280F391F8B819C81820F931F089620E2B2
S1134F60FC0120838B819C8101968B839C838B81A4
S1134F709C81449714F389819A81019689839A8349
S1134F8089819A810497B4F25EC0809140319091F6
S1134F904131BE01675A7F4F2FEF3FEFA9010E94B5
S1134FA0920E882309F44FC019821A8232C0CE01AE
S1134FB0875A9F4FFC018081482F50E0CE01875AC9
S1134FC09F4FFC018181282F30E089819A81820FD3
S1134FD0931FBE01675A7F4F29813A81260F371FDD
S1134FE02E5F3F4FF901608174E1749F9001759FBA
S1134FF0300D1124AE014F5F5F4F240F351F820F18
S1135000931F0896FC01608389819A8101968983A4
S11350109A83CE01875A9F4FFC018181282F30E06B
S113502089819A81820F931F44976CF49E01275AB9
S11350303F4F89819A81820F931F0296FC018081E0
S1135040882309F0B4CF80914031909141310E947E
S1135050520F882309F099CF19821A8219C09E0130
S1135060275F3F4F49815A8164E1649FC001659F76
S1135070900D1124280F391F89819A81A90160E0BC
S113508070E00E94E22689819A81019689839A833D
S113509089819A8104971CF32ACFCF93DF931F92BF
S11350A01F92CDB7DEB7CE010E9689839A832981EC
S11350B03A814C855D856A857B85888599850E94C2
S11350C0672800000F900F90DF91CF9108950F9300
S11350D0CF93DF93CDB7DEB7EC97CDBFDEBF8DABFB
S11350E09EAB6FAB78AF49AF5AAF2BAF3CAF1982D1
S11350F01A821B821C820BC08B819C818D5E9E4C0C
S1135100FC0110828B819C8101968B839C838B8113
S11351109C8144978CF31D821E820BC08D819E81DD
S1135120895D9E4CFC0110828D819E8101968D8348
S11351309E838D819E8144978CF3BEC18D89853277
S113514009F0A0C189AD9AAD9C012F5F3F4F29AFF3
S11351503AAFFC0180818D8B8D89882F90E0853654
S1135160910509F446C18636910554F483369105B8
S113517001F1843691050CF070C0859769F09CC1EB
S11351808337910571F18837910509F4A8C08636F3
S1135190910509F4E6C090C189819A81895D9E4C8C
S11351A025E2FC01208389819A81019689839A836F
S11351B083C18BAD9CAD9C012E5F3F4F2BAF3CAFA9
S11351C0FC01808191818E8B89819A81895D9E4CBD
S11351D02E89FC01208389819A81019689839A838F
S11351E06BC18BAD9CAD9C012E5F3F4F2BAF3CAF91
S11351F0FC01808191818F8B988F1F82188617C044
S113520029813A818F819885820F931F2F81388558
S11352104F89588D240F351FF9012081895D9E4CDB
S1135220FC0120838F81988501968F8398878F89CD
S1135230988D0E9457309C018F819885821793071F
S1135240F8F28F89988D0E9457309C0189819A8148
S1135250820F931F89839A832FC18BAD9CAD9C01D0
S11352602E5F3F4F2BAF3CAFFC0180819181898F32
S11352709A8F898D9A8D4AE050E063E171E30E9430
S1135280603019861A8615C029813A8189859A85E4
S1135290820F931F29853A852D5E3E4CF9012081AA
S11352A0895D9E4CFC01208389859A8501968987B6
S11352B09A8783E191E30E9457309C0189859A85FE
S11352C08217930708F383E191E30E9457309C010E
S11352D089819A81820F931F89839A83EDC08BAD54
S11352E09CAD9C012E5F3F4F2BAF3CAFFC018081F6
S11352F09181898F9A8F898D9A8D40E150E063E185
S113530071E30E9460301B861C8615C029813A8196
S11353108B859C85820F931F2B853C852D5E3E4C8F
S1135320F9012081895D9E4CFC0120838B859C853D
S113533001968B879C8783E191E30E9457309C01FF
S11353408B859C858217930708F383E191E30E9480
S113535057309C0189819A81820F931F89839A8394
S1135360ABC08BAD9CAD9C012C5F3F4F2BAF3CAFD2
S1135370FC0180819181A281B3818B8F9C8FAD8F41
S1135380BE8F8B8D9C8DAD8DBE8DAC01BD0183E137
S113539091E30E94362B1D861E8615C029813A8111
S11353A08D859E85820F931F2D853E852D5E3E4CF7
S11353B0F9012081895D9E4CFC0120838D859E85A9
S11353C001968D879E8783E191E30E9457309C016B
S11353D08D859E858217930708F383E191E30E94EC
S11353E057309C0189819A81820F931F89839A8304
S11353F063C08BAD9CAD9C012C5F3F4F2BAF3CAF8A
S1135400FC0180819181A281B3818B8F9C8FAD8FB0
S1135410BE8F8B8D9C8DAD8DBE8DAC01BD0183E1A6
S113542091E30E94852C1F86188A15C029813A8130
S11354308F859889820F931F2F8538892D5E3E4C66
S1135440F9012081895D9E4CFC0120838F85988918
S113545001968F87988B83E191E30E9457309C01DA
S11354608F8598898217930708F383E191E30E945B
S113547057309C0189819A81820F931F89839A8373
S113548000001AC089819A81895D9E4C2D89FC0196
S1135490208389819A81895D9E4CFC0180818A30B8
S11354A031F489819A81895D9E4CFC011082898145
S11354B09A81019689839A8389AD9AAD9C012F5F65
S11354C03F4F29AF3AAFFC0180818D8B8D898823B2
S11354D009F034CE29813A818FA998AD820F931FA8
S11354E0449754F024E130E08FA998ADA901481BFA
S11354F0590BCA0189839A83198A1A8A0EC09E019C
S11355002F5D3F4F89899A89820F931FFC01108276
S113551089899A890196898B9A8B89899A89449772
S113552074F38DA98F8F8FA988A31B8A1C8A14C03A
S11355308B899C89895D9E4CFC0140819E012F5D75
S11355403F4F8B899C89820F931FFC0140838B8979
S11355509C8901968B8B9C8B2B893C8989819A81B0
S1135560281739072CF38091403190914131BE01C5
S1135570615E7F4F00E02FEF3FEFA9010E94700DA5
S113558089819A81EC96CDBFDEBFDF91CF910F91D7
S11355900895CF93DF93CDB7DEB72897CDBFDEBF95
S11355A08F83988719821A828F819885FC01808164
S11355B09181A281B3818B839C83AD83BE8315C00B
S11355C020E030E040E251E46B817C818D819E815A
S11355D00E94182EDC01CB018B839C83AD83BE8398
S11355E089819A81019689839A8320E030E040E89A
S11355F05FE36B817C818D819E810E94722F882361
S1135600FCF615C020E030E040E251E46B817C817F
S11356108D819E810E94772FDC01CB018B839C833B
S1135620AD83BE8389819A81019789839A832DEC06
S11356303CEC4CEC5DE36B817C818D819E810E940E
S1135640132E8823FCF22F8138858B819C81AD81B8
S1135650BE81F90180839183A283B38389819A8176
S11356602896CDBFDEBFDF91CF910895CF92DF9210
S1135670EF92FF92CF93DF93CDB7DEB72E97CDBFD6
S1135680DEBF89879A874B875C876D877E871982FF
S11356901A821B821C828B859C85AD85BE8520E089
S11356A030E0A901BC01CD010E94132E882359F4D6
S11356B089859A8520E3FC01208389859A85019652
S11356C0FC01108218C18B859C85AD85BE8520E0C8
S11356D030E0A901BC01CD010E94132E88239CF463
S11356E089859A859C012F5F3F4F29873A872DE250
S11356F0FC0120838B859C85AD85BE85B0588B8746
S11357009C87AD87BE87CE010B960E94C92A8983E8
S11357109A8353C08B859C85AD85BE8520E030E09F
S113572040E251E4BC01CD010E94772FDC01CB01A2
S1135730BC01CD010E948A2EDC01CB018D839E83A6
S113574089859A859C012F5F3F4F29873A872D8150
S1135750205DFC0120838B859C85AD85BE8520E082
S113576030E040E251E4BC01CD010E94772FDC011E
S1135770CB016C017D018D819E81092E000CAA0B49
S1135780BB0BBC01CD010E94C22EDC01CB019C01EC
S1135790AD01C701B6010E94A62DDC01CB018B87A8
S11357A09C87AD87BE878B819C8101968B839C836C
S11357B089819A81019789839A8389819A811816AC
S11357C019060CF4A7CF8B819C81892B51F4898510
S11357D09A859C012F5F3F4F29873A8720E3FC017C
S11357E0208389859A859C012F5F3F4F29873A87BB
S11357F02EE2FC01208314C089859A859C012F5FC9
S11358003F4F29873A8720E3FC01208389819A81CD
S1135810019789839A838B819C8101968B839C83D6
S113582089819A8199230CF058C08091C22090916B
S1135830C3202B813C8128173907F4F24EC08B8595
S11358409C85AD85BE8520E030E040E251E4BC019A
S1135850CD010E94772FDC01CB01BC01CD010E9458
S11358608A2EDC01CB018F83988789859A859C01D8
S11358702F5F3F4F29873A872F81205DFC012083CA
S11358808B859C85AD85BE8520E030E040E251E407
S1135890BC01CD010E94772FDC01CB016C017D019D
S11358A08F819885092E000CAA0BBB0BBC01CD017E
S11358B00E94C22EDC01CB019C01AD01C701B601DF
S11358C00E94A62DDC01CB018B879C87AD87BE8708
S11358D08B819C8101968B839C838091C2209091C3
S11358E0C3202B813C81281739070CF4A8CF898564
S11358F09A85FC0110822E96CDBFDEBFDF91CF9139
S1135900FF90EF90DF90CF900895CF92DF92EF92C7
S1135910FF92CF93DF93CDB7DEB72E97CDBFDEBF17
S113592089879A874B875C876D877E871B821C8259
S11359308B859C85AD85BE8520E030E0A901BC0146
S1135940CD010E94132E882359F489859A8520E37A
S1135950FC01208389859A850196FC011082ECC0A4
S11359608B859C85AD85BE8520E030E0A901BC0116
S1135970CD010E94132E88239CF489859A859C016D
S11359802F5F3F4F29873A872DE2FC0120838B85C7
S11359909C85AD85BE85B0588B879C87AD87BE87B7
S11359A0CE010B960E94C92A8B839C838B859C8590
S11359B0AD85BE8520E030E040E251E4BC01CD017C
S11359C00E94772FDC01CB01BC01CD010E948A2EFD
S11359D0DC01CB018D839E8389859A859C012F5F91
S11359E03F4F29873A872D81205DFC0120838B85D9
S11359F09C85AD85BE8520E030E040E251E4BC01E9
S1135A00CD010E94772FDC01CB016C017D018D81DA
S1135A109E81092E000CAA0BBB0BBC01CD010E9478
S1135A20C22EDC01CB019C01AD01C701B6010E946D
S1135A30A62DDC01CB018B879C87AD87BE878B812C
S1135A409C8101978B839C8389859A859C012F5F18
S1135A503F4F29873A872EE2FC01208319821A825C
S1135A604EC08B859C85AD85BE8520E030E040E24C
S1135A7051E4BC01CD010E94772FDC01CB01BC01B4
S1135A80CD010E948A2EDC01CB018F839887898502
S1135A909A859C012F5F3F4F29873A872F81205D8C
S1135AA0FC0120838B859C85AD85BE8520E030E09C
S1135AB040E251E4BC01CD010E94772FDC01CB010F
S1135AC06C017D018F819885092E000CAA0BBB0BFC
S1135AD0BC01CD010E94C22EDC01CB019C01AD01B1
S1135AE0C701B6010E94A62DDC01CB018B879C87E0
S1135AF0AD87BE8789819A81019689839A83809133
S1135B00C4209091C52029813A81281739070CF4C3
S1135B10A8CF89859A859C012F5F3F4F29873A87B3
S1135B2025E6FC01208329853A858B819C814AE006
S1135B3050E0B9010E9460302E96CDBFDEBFDF91E8
S1135B40CF91FF90EF90DF90CF9008955058BB27EE
S1135B50AA270E94BE2D0C94382F0E942A2F38F0B9
S1135B600E94312F20F039F49F3F19F426F40C944D
S1135B70272F0EF4E095E7FB0C94212FE92F0E94C8
S1135B80492F58F3BA17620773078407950720F063
S1135B9079F4A6F50C946B2F0EF4E0950B2EBA2F26
S1135BA0A02D0B01B90190010C01CA01A00111241F
S1135BB0FF27591B99F0593F50F4503E68F11A16CB
S1135BC0F040A22F232F342F4427585FF3CF46955C
S1135BD037952795A795F0405395C9F77EF41F167E
S1135BE0BA0B620B730B840BBAF09150A1F0FF0F48
S1135BF0BB1F661F771F881FC2F70EC0BA0F621F34
S1135C00731F841F48F4879577956795B795F79523
S1135C109E3F08F0B0CF9395880F08F09927EE0FB8
S1135C209795879508950E94FD2E08F481E00895C4
S1135C300E942C2E0C94382F0E94312F58F00E9471
S1135C402A2F40F029F45F3F29F00C94212F5111A1
S1135C500C946C2F0C94272F0E94492F68F39923DE
S1135C60B1F3552391F3951B550BBB27AA27621754
S1135C707307840738F09F5F5F4F220F331F441F61
S1135C80AA1FA9F335D00E2E3AF0E0E832D0915095
S1135C905040E695001CCAF72BD0FE2F29D0660F82
S1135CA0771F881FBB1F261737074807AB07B0E8C5
S1135CB009F0BB0B802DBF01FF2793585F4F3AF0CB
S1135CC09E3F510578F00C94212F0C946C2F5F3F6C
S1135CD0E4F3983ED4F3869577956795B795F79551
S1135CE09F5FC9F7880F911D9695879597F9089539
