S01300004E59435F50495F43414C432E73726563BD
S11300000C94A5010C94CF010C94CF010C94CF0156
S11300100C94CF010C94CF010C94CF010C94CF011C
S11300200C94CF010C94CF010C94CF010C94CF010C
S11300300C94CF010C94CF010C94300C0C94CF0190
S11300400C94CF010C94CF010C94CF010C94CF01EC
S11300500C94CF010C94CF010C94CF010C94CF01DC
S11300600C94CF010C94CF010C94CF010C94CF01CC
S11300700C94CF010C94CF010C94CF010C94CF01BC
S11300800C94CF010C94CF010C94CF010C94CF01AC
S11300900C94CF010C94CF010C94CF010C94CF019C
S11300A00C94CF010C94CF010C94CF010C94CF018C
S11300B00C94CF010C94CF010C94CF010C94CF017C
S11300C00C94CF010C94CF010C94CF010C94CF016C
S11300D00C94CF010C94CF010C94CF010C94CF015C
S11300E00C94CF010C94CF010C94CF010C94CF014C
S11300F00C94CF010C94CF010C94CF010C94CF013C
S11301000C94CF010C94CF010C94CF010C94CF012B
S11301100C94CF010C94CF010C94CF010C94CF011B
S11301200C94CF010C94CF010C94CF010C94CF010B
S11301300C94CF010C94CF010C94CF010C94CF01FB
S11301400C94CF010C94CF010C94CF010C94CF01EB
S11301500C94CF010C94CF010C94CF010C94CF01DB
S11301600C94CF010C94CF010C94CF010C94CF01CB
S11301700C94CF010C94CF010C94CF010C94CF01BB
S11301800C94CF010C94CF010C94CF010C94CF01AB
S11301900C94CF010C94CF010C94CF010C94CF019B
S11301A00C94CF010C94CF010C94CF010C94CF018B
S11301B00C94E9250C94CF010C94CF010C94CF013D
S11301C00C94CF010C94CF010C94CF010C94CF016B
S11301D00C94CF010C94CF010C94CF010C94CF015B
S11301E00C94CF010C94CF010C94CF010C94CF014B
S11301F00C94CF010C94CF010C94CF019E1E9E1E33
S11302009E1E251FF11E1F1F9E1E9E1E251FF11ED2
S11302100C9457230C943B210C941F1F0C940D2415
S11302200C94F1210C94D9190C94B2220C94472506
S11302300C94251F0C94801C0C940E070C947C28A1
S11302400C94F11E0C949E1E6E616E00696E660025
S113025000407A10F35A00A0724E18090010A5D479
S1130260E80000E87648170000E40B54020000CAD6
S11302709A3B000000E1F50500008096980000001C
S113028040420F000000A08601000000102700007B
S11302900000E803000000006400000000000A0001
S11302A0000000000100000000002C76D888DC6704
S11302B04F0823DFC1DFAE59E1B1B796E5E3E4535C
S11302C0C63AE651997696E8E6C28426EB898C9B79
S11302D062ED407C6FFCEFBC9C9F40F2BAA56FA519
S11302E0F490055A2AF75C936B6CF9676DC11BFC9B
S11302F0E0E40D47FEF520E6B500D0ED902E0300B6
S1130300943577050080841E080000204E0A000002
S113031000C80C333333330F986E12831141EF8DC1
S11303202114893BE65516CFFEE6DB18D1844B3801
S11303301BF77C1D901DA4BBE424203284725E2232
S11303408100C9F124ECA1E53D2711241FBECFEFA4
S1130350CDBFDFE3DEBF00E00CBFE4E4F1E38AEAF3
S113036090E48193E030F907E0F3000010E2A0E0AC
S1130370B0E2E2E0FFE600E00BBF02C007900D929E
S1130380A63CB107D9F721E3A6ECB0E201C01D9267
S1130390A434B207E1F70E94D0200C947F370C9468
S11303A00000CF93DF93CDB7DEB780EA96E020E17B
S11303B0FC01228380EA96E020E2FC01228380EAA9
S11303C096E020E4FC01228380EA96E020E8FC0128
S11303D022830000DF91CF910895CF93DF93CDB7AF
S11303E0DEB780EA96E0FC018085882F90E080717A
S11303F0992795958795959587959595879595953D
S11304008795892B89F48091C6209091C7208036E6
S11304109A4E20F58091C6209091C7200196809332
S1130420C6209093C7201AC08091C6209091C720FF
S11304300B9768F08091C6209091C720C39718F05D
S11304401092393107C081E08093393103C082E0D2
S1130450809339311092C6201092C72080EA96E02A
S1130460FC018085882F90E0807299279595879567
S11304709595879595958795959587959595879560
S1130480892B89F48091C8209091C92080369A4E96
S113049020F58091C8209091C92001968093C820AE
S11304A09093C9201AC08091C8209091C9200B97BD
S11304B068F08091C8209091C920C39718F01092D9
S11304C03A3107C081E080933A3103C082E08093DF
S11304D03A311092C8201092C92080EA96E0FC01BB
S11304E08085882F90E080749927082E892F000C2E
S11304F0881F990B000C881F991F892B89F4809100
S1130500CA209091CB2080369A4E20F58091CA2043
S11305109091CB2001968093CA209093CB201AC04F
S11305208091CA209091CB200B9768F08091CA20CB
S11305309091CB20C39718F010923B3107C081E013
S113054080933B3103C082E080933B311092CA20F8
S11305501092CB2080EA96E0FC01808588238CF001
S11305608091CC209091CD2080369A4E20F58091B8
S1130570CC209091CD2001968093CC209093CD20D7
S11305801AC08091CC209091CD200B9768F0809177
S1130590CC209091CD20C39718F010923C3107C025
S11305A081E080933C3103C082E080933C3110921F
S11305B0CC201092CD200000DF91CF910895CF93ED
S11305C0DF931F92CDB7DEB789838981882F90E0AE
S11305D08130910579F0823091051CF4892B39F032
S11305E012C08230910549F0039751F00CC08091FC
S11305F039310AC080913A3107C080913B3104C03F
S113060080913C3101C082E00F90DF91CF91089539
S11306100F93CF93DF9300D000D0CDB7DEB78C8398
S11306209D836E838FE390E0FC0180818B83F8943B
S11306308C819D8189839A838BE390E0FC011082F5
S113064089819A812E81FC0108ED04BF20838FE308
S113065090E02B81FC01208300002696CDBFDEBFF5
S1130660DF91CF910F910895CF93DF9300D0CDB751
S1130670DEB789836A834B8380E590E02A81222355
S113068011F020E201C020E03981322B2B81232B91
S1130690FC01228300002396CDBFDEBFDF91CF9102
S11306A00895CF93DF931F921F92CDB7DEB789834E
S11306B06A838A818F718A8380E590E039812A81F7
S11306C0232BFC01258300000F900F90DF91CF9125
S11306D00895CF93DF931F921F92CDB7DEB78A831D
S11306E080E590E020E530E0F9012081322F2A8175
S11306F020952323FC01208380E590E0FC01908178
S11307008A818923898389810F900F90DF91CF910A
S11307100895CF93DF9300D0CDB7DEB78A836B8380
S11307209A818B81892B8983698181E490E00E947D
S1130730080300002396CDBFDEBFDF91CF9108955B
S1130740CF93DF931F921F92CDB7DEB78A8380E4E5
S113075090E0FC018081982F987F8A81892B89837E
S1130760698180E490E00E94080380E490E0FC0149
S113077090818A818923898389810F900F90DF91E9
S1130780CF910895CF93DF9300D0CDB7DEB789839F
S11307909A836B8389819A81FC018081982F907F51
S11307A08B81892B282F89819A81FC012083000069
S11307B02396CDBFDEBFDF91CF910895CF93DF9312
S11307C000D0CDB7DEB789839A836B8389819A8100
S11307D0FC018181982F987F8B81892B282F898117
S11307E09A81FC01218300002396CDBFDEBFDF91F7
S11307F0CF910895CF93DF9300D0CDB7DEB789832F
S11308009A836B8389819A81FC018681982F9C7FCE
S11308108B81892B282F89819A81FC0126830000F2
S11308202396CDBFDEBFDF91CF910895CF93DF93A1
S113083000D01F92CDB7DEB789839A836B837C8304
S11308408BE20E942A0400002496CDBFDEBFDF9114
S1130850CF910895CF93DF931F921F92CDB7DEB748
S11308608A838A818B3219F481E089830EC08A815C
S11308708C3219F482E0898308C08A818F3219F49A
S113088083E0898302C084E089830E944D040000D0
S11308900F900F90DF91CF910895CF93DF93CDB751
S11308A0DEB7000084E390E028EDFC01208388E7B4
S11308B090E021E0FC0121830000DF91CF910895B5
S11308C0CF93DF931F921F92CDB7DEB780E190E004
S11308D00E949D0789839A8389819A81892B61F07B
S11308E089819A81FC01108211821282138289818A
S11308F09A8104960E94EF0789819A810F900F9044
S1130900DF91CF910895CF92DF92EF92FF920F93F0
S11309101F93CF93DF93CDB7DEB76D97CDBFDEBF07
S11309208A8B9B8B4C8B5D8B6E8B7F8B288F098F77
S1130930CA8EDB8EEC8EFD8E8A899B8989879A8785
S11309401D821E821F8218861B860E94F2148985CE
S11309509A85FC0180819181A281B3818C879D87D6
S1130960AE87BF872C893D894E895F898C859D859B
S1130970AE85BF85098DBC01CD010E942C07888BF3
S11309808889882359F18C859D85AE85BF858983A7
S11309909A83AB83BC831A8E1B8E1C8E1D8E888D0E
S11309A0882309F465C089859A85FC0120813181F9
S11309B0428153818C899D89AE89BF8980959095A8
S11309C0A095B09582239323A423B52329853A8542
S11309D0F90180839183A283B3834AC08A8D9B8D5E
S11309E0AC8DBD8D892B8A2B8B2B59F48C859D85E1
S11309F0AE85BF8589839A83AB83BC8381E08B8773
S1130A0037C0888D882349F08D819E81AF81B88558
S1130A10B1608D839E83AF83B887898D882349F025
S1130A208D819E81AF81B885B4608D839E83AF83B1
S1130A30B8872C893D894E895F898D819E81AF81DC
S1130A40B885822B932BA42BB52B29853A85F901E4
S1130A5034962A8D3B8D4C8D5D8D89019A01AC01B4
S1130A60BD01CF010E94C51719821A821B821C8204
S1130A700E94FF14898B8A8D9B8DAC8DBD8D892B33
S1130A808A2B8B2B09F465C08989882311F40E9471
S1130A90860B0E94831ADC01CB0189839A83AB8382
S1130AA0BC8389819A81AB81BC8188279927AA2735
S1130AB0B270892B8A2B8B2B09F042C0F091A200D3
S1130AC0FF93F87FF093A20089859A85FC018081C9
S1130AD09181A281B38189839A83AB83BC832C895E
S1130AE03D894E895F8989819A81AB81BC81098D59
S1130AF0BC01CD010E942C078823E9F0888D88234E
S1130B00D1F089859A85FC0120813181428153810C
S1130B108C899D89AE89BF8980959095A095B09563
S1130B2082239323A423B52329853A85F90180835D
S1130B309183A283B38381E08B87FF91F093A2001A
S1130B4089819A81AB81BC81BB2789839A83AB83DA
S1130B50BC8389819A81AB81BC81BC01CD016D9636
S1130B60CDBFDEBFDF91CF911F910F91FF90EF902A
S1130B70DF90CF900895CF93DF93CDB7DEB72C9756
S1130B80CDBFDEBF8F83988749875A876B877C8761
S1130B908F81988589839A83F091A200FF93F87FCF
S1130BA0F093A20089819A81FC0180819181A281C4
S1130BB0B3818B839C83AD83BE8389819A81FC013D
S1130BC0208131814281538189859A85AB85BC8599
S1130BD080959095A095B09582239323A423B52363
S1130BE029813A81F90180839183A283B383FF91A0
S1130BF0F093A2008B819C81AD81BE81BC01CD01AB
S1130C002C96CDBFDEBFDF91CF910895CF93DF93B4
S1130C10CDB7DEB76D97CDBFDEBF888F998F4A8F72
S1130C205B8F6C8F7D8F1B821C821D821E82888D40
S1130C30998D888799871F828885998504968A87E4
S1130C409B878A859B8503968C879D870E94F214D7
S1130C508A859B85FC018781908589839A83888511
S1130C609985FC0120813181428153818A8D9B8D3C
S1130C70AC8DBD8D822B932BA42BB52B2885398568
S1130C80F90180839183A283B38395C089819A817A
S1130C90FC01848195818E879F8789819A81FC01DB
S1130CA080819181A281B381888B998BAA8BBB8B24
S1130CB01F8288899989AA89BB8988279927AA27A5
S1130CC08C8B9D8BAE8BBF8B88899989AA89BB89B4
S1130CD0BB27888B998BAA8BBB8B8C899D89AE890A
S1130CE0BF8988279927AA27B470892B8A2B8B2B35
S1130CF0B1F488859985FC01208131814281538139
S1130D0088899989AA89BB8982239323A423B5233B
S1130D10892B8A2B8B2BE9F081E08F831AC088857D
S1130D209985FC0120813181428153818889998987
S1130D30AA89BB89282339234A235B238889998973
S1130D40AA89BB89281739074A075B0711F481E090
S1130D508F838F81882359F18C899D89AE89BF89BE
S1130D6088279927AA27B170892B8A2B8B2B81F08E
S1130D702B813C814D815E8188899989AA89BB89AF
S1130D80822B932BA42BB52B8B839C83AD83BE83A7
S1130D9088859985FC0180819181A281B381B260AB
S1130DA029813A81AC01BD01C9010E94A0188E8538
S1130DB09F8589839A8329813A818C859D8528170B
S1130DC0390709F063CF88859985FC012081318139
S1130DD0428153818B819C81AD81BE8180959095A8
S1130DE0A095B09582239323A423B5232885398520
S1130DF0F90180839183A283B3830E94FF148885C1
S1130E009985FC0180819181A281B381BC01CD01CE
S1130E106D96CDBFDEBFDF91CF910895CF93DF9361
S1130E2000D000D0CDB7DEB789839A834B835C832F
S1130E306D837E838B819C81AD81BE8129813A81C2
S1130E40AC01BD01C9010E94060600002696CDBF73
S1130E50DEBFDF91CF9108950F93CF93DF93CDB78A
S1130E60DEB72A97CDBFDEBF6A837B838C839D83E5
S1130E702E833F83488759870A8719828A85882366
S1130E8099F42A813B814C815D818E819F81A88563
S1130E90B98582239323A423B523892B8A2B8B2BF7
S1130EA0D1F081E0898317C02A813B814C815D8127
S1130EB08E819F81A885B985282339234A235B2302
S1130EC08E819F81A885B985281739074A075B0752
S1130ED011F481E0898389812A96CDBFDEBFDF9139
S1130EE0CF910F9108950F931F93CF93DF93CDB7B5
S1130EF0DEB72997CDBFDEBF8A839B834C835D8396
S1130F006E837F8328873987288539858C819D81E5
S1130F10AE81BF816A817B8189019C01AD018EE034
S1130F2097E00E942F20898389812996CDBFDEBF57
S1130F30DF91CF911F910F910895CF93DF9300D04C
S1130F401F92CDB7DEB78B839C8319821A820E94CD
S1130F50F21420916E3030916F308B819C81820F1E
S1130F60931F803A9F4018F520916E3030916F3076
S1130F708B819C81280F391F80916E3090916F3046
S1130F8082179307A0F480916E3090916F30825352
S1130F909F4D89839A8320916E3030916F308B817D
S1130FA09C81820F931F80936E3090936F300E94C8
S1130FB0FF1489819A812496CDBFDEBFDF91CF9142
S1130FC00895CF93DF931F921F92CDB7DEB7898325
S1130FD09A8300000F900F90DF91CF910895CF93E3
S1130FE0DF931F921F92CDB7DEB789839A838981DD
S1130FF09A819C012D5F3F4F89819A81FC01218355
S1131000328329813A818FEF9FEFDC01F9018383D9
S11310109483A583B68389819A819C012D5F3F4F78
S113102089819A81FC012783308789819A819C0177
S11310302D5F3F4F89819A81FC0121873287898105
S11310409A81FC01108200000F900F90DF91CF91E4
S11310500895CF93DF931F921F92CDB7DEB7898394
S11310609A8389819A81FC011286138600000F906D
S11310700F90DF91CF910895CF93DF9300D000D0EC
S1131080CDB7DEB78B839C836D837E838B819C81FC
S1131090FC018181928189839A838D819E8129813A
S11310A03A81FC012483358389819A81FC0126815C
S11310B037818D819E81FC012683378389819A81C2
S11310C0FC01868197812D813E81FC012483358337
S11310D089819A812D813E81FC01268337838D810C
S11310E09E812B813C81FC01228733878B819C81EB
S11310F0FC01808121E0280F8B819C81FC012083ED
S113110000002696CDBFDEBFDF91CF910895CF9327
S1131110DF93CDB7DEB72A97CDBFDEBF8F83988725
S113112069877A8789859A85FC0180819181A2816A
S1131130B3818B839C83AD83BE838B819C81AD8182
S1131140BE818F3F9F4FAF4FBF4F41F48F81988532
S1131150FC018185928589839A8320C08F8198853B
S1131160039689839A8307C089819A81FC018481CB
S1131170958189839A8389819A81FC0184819581EF
S1131180FC0120813181428153818B819C81AD811D
S1131190BE8182179307A407B50730F789819A8126
S11311A0FC012481358189859A85FC01248335835A
S11311B089859A85FC018481958129853A85FC017C
S11311C02683378389859A8529813A81FC01268380
S11311D0378389819A8129853A85FC012483358363
S11311E089859A852F813885FC01228733878F81F1
S11311F09885FC01808121E0280F8F819885FC016E
S1131200208300002A96CDBFDEBFDF91CF910895E1
S1131210CF93DF9300D01F92CDB7DEB78B839C832F
S11312208B819C81FC018285938589839A838B8140
S11312309C81FC01848195812B813C81F90126816B
S11312403781FC01268337838B819C81FC01868155
S113125097812B813C81F90124813581FC01248310
S1131260358389819A81FC01218132818B819C8122
S11312702817390751F48B819C81FC012681378121
S113128089819A81FC01218332838B819C81FC01B9
S11312901286138689819A81FC0180812FEF280FA1
S11312A089819A81FC01208389819A81FC01808152
S11312B02496CDBFDEBFDF91CF9108951F93CF93C6
S11312C0DF93CDB7DEB780EA90E0FC01128180EABB
S11312D090E020EA30E0F9012281287FFC0122839A
S11312E0812FDF91CF911F910895CF93DF93CDB7D5
S11312F0DEB72A97CDBFDEBF8D839E836F83788749
S113130049875A878D819E8121E1FC0120838D814B
S11313109E8101978D839E838D819E8122E2FC01B3
S113132020838D819E8101978D839E838D819E81F3
S113133023E3FC0120838D819E8101978D839E830D
S11313408F819885CC01A0E0B0E089839A83AB8338
S1131350BC8329818D819E81FC0120838D819E81A6
S113136001978D839E8389819A81AB81BC81892F6A
S11313709A2FAB2FBB2789839A83AB83BC832981A4
S11313808D819E81FC0120838D819E8101978D83B7
S11313909E8389819A81AB81BC81892F9A2FAB2F3F
S11313A0BB2789839A83AB83BC8329818D819E81EA
S11313B0FC0120838D819E8101978D839E838D8185
S11313C09E8121E3FC0120838D819E8101978D8381
S11313D09E838D819E8120E8FC0120838D819E81E6
S11313E001978D839E838D819E8127E8FC01208354
S11313F08D819E8101978D839E838D819E81FC01C9
S113140010828D819E8101978D839E838D819E8123
S1131410FC0110828D819E8101978D839E838D8135
S11314209E8122E0FC0120838D819E8101978D8322
S11314309E838D819E8123E0FC0120838D819E818A
S113144001978D839E838D819E8124E0FC012083FE
S11314508D819E8101978D839E838D819E8125E060
S1131460FC0120838D819E8101978D839E838D81D4
S11314709E8126E0FC0120838D819E8101978D83CE
S11314809E838D819E8127E0FC0120838D819E8136
S113149001978D839E838D819E8128E0FC012083AA
S11314A08D819E8101978D839E838D819E8129E00C
S11314B0FC0120838D819E8101978D839E838D8184
S11314C09E8120E1FC0120838D819E8101978D8383
S11314D09E838D819E8121E1FC0120838D819E81EB
S11314E001978D839E838D819E8122E1FC0120835F
S11314F08D819E8101978D839E838D819E8123E1C1
S1131500FC0120838D819E8101978D839E838D8133
S11315109E8124E1FC0120838D819E8101978D832E
S11315209E838D819E8125E1FC0120838D819E8196
S113153001978D839E838D819E8126E1FC0120830A
S11315408D819E8101978D839E838D819E8127E16C
S1131550FC0120838D819E8101978D839E838D81E3
S11315609E8128E1FC0120838D819E8101978D83DA
S11315709E838D819E8129E1FC0120838D819E8142
S113158001978D839E838D819E8120E2FC012083BF
S11315908D819E8101978D839E838D819E8121E221
S11315A0FC0120838D819E8101978D839E838D8193
S11315B09E8122E2FC0120838D819E8101978D838F
S11315C09E838D819E8123E2FC0120838D819E81F7
S11315D001978D839E8389859A85CC01A0E0B0E034
S11315E089839A83AB83BC8329818D819E81FC018D
S11315F020838D819E8101978D839E8389819A8129
S1131600AB81BC81892F9A2FAB2FBB2789839A8307
S1131610AB83BC8329818D819E81FC0120838D81D4
S11316209E8101978D839E838D819E8126E2FC019C
S113163020838D819E8101978D839E838D819E81E0
S113164027E2FC0120838D819E8101978D839E83F7
S11316508D819E8128E2FC0120838D819E810197EA
S11316608D839E838D819E8129E2FC0120838D815F
S11316709E8101978D839E838D819E8120E3FC0151
S113168020838D819E8101978D839E838D819E8190
S11316902A96CDBFDEBFDF91CF910895CF93DF931C
S11316A0CDB7DEB70E94950CA0917030B091713027
S11316B00D900DBE0D900EBEEF91DF91CF91BF91B5
S11316C0AF919F918F917F916F915F914F913F91D6
S11316D02F911F910F91FF90EF90DF90CF90BF90CB
S11316E0AF909F908F907F906F905F904F903F90BE
S11316F02F901F900F90FF91F093A200FF91FFBFD6
S1131700FF91089581E0DF91CF910895FF93FFB792
S1131710FF93F091A200FF93F87FF093A2000F9241
S11317201F9211242F923F924F925F926F927F9259
S11317308F929F92AF92BF92CF92DF92EF92FF92DD
S11317400F931F932F933F934F935F936F937F93C5
S11317508F939F93AF93BF93CF93DF93EF93A09116
S11317607030B09171300DB60D920EB60D920E948C
S1131770CD16A0917030B09171300D900DBE0D90CA
S11317800EBEEF91DF91CF91BF91AF919F918F9159
S11317907F916F915F914F913F912F911F910F9185
S11317A0FF90EF90DF90CF90BF90AF909F908F907D
S11317B07F906F905F904F903F902F901F900F906D
S11317C0FF91F093A200FF91FFBFFF9108950000E5
S11317D01F93CF93DF931F92CDB7DEB78983809198
S11317E03D31982F8981892B80933D3180EA90E0A7
S11317F0FC018081813061F080EA90E0FC0180810D
S1131800823031F080EA90E0FC018081843079F408
S113181080913D31882359F00E945E09182F10925F
S11318203D310E94CD1680EA90E0FC011283000055
S11318300F90DF91CF911F9108951F93CF93DF9362
S1131840CDB7DEB70E945E09182F0E94BD1580EA4D
S113185090E0FC0112830000DF91CF911F91089565
S1131860FF93FFB7FF93F091A200FF93F87FF093EB
S1131870A2000F921F9211242F923F924F925F92D7
S11318806F927F928F929F92AF92BF92CF92DF928C
S1131890EF92FF920F931F932F933F934F935F9376
S11318A06F937F938F939F93AF93BF93CF93DF9364
S11318B0EF93A0917030B09171300DB60D920EB6C9
S11318C00D920E941D0C81E00E94E80BA0917030E3
S11318D0B09171300D900DBE0D900EBEEF91DF9161
S11318E0CF91BF91AF919F918F917F916F915F91B4
S11318F04F913F912F911F910F91FF90EF90DF90A7
S1131900CF90BF90AF909F908F907F906F905F909B
S11319104F903F902F901F900F90FF91F093A20053
S1131920FF91FFBFFF9118950000CF93DF9300D084
S11319301F92CDB7DEB780E09DE7A0E0B0E08983D9
S11319409A83AB83BC8389819A81AB81BC8168947F
S113195015F8B695A795979587951694D1F7898329
S11319609A83AB83BC8389819A81AB81BC810197C3
S1131970A109B10989839A83AB83BC8380E098E091
S113198029813A81FC0126A337A365E080E098E031
S11319900E94C20361E080E098E00E94FA03000024
S11319A02496CDBFDEBFDF91CF910895CF93DF930F
S11319B0CDB7DEB72597CDBFDEBF8B839C836D8308
S11319C08B819C8189839A83F091A200FF93F87F95
S11319D0F093A20089819A81FC01808191812981FF
S11319E03A81F901278D422F50E029813A81F9018A
S11319F020A1222F30E0429FB001439F700D529FDF
S1131A00700D11249B01280F391F89819A81FC01D3
S1131A102283338389819A81FC01168E89819A817C
S1131A20FC012081318189819A81FC0124833583E1
S1131A3089819A81FC018081918129813A81F9010E
S1131A40278D222F30E0A9014150510929813A8183
S1131A50F90120A1222F30E0429FB001439F700D75
S1131A60529F700D11249B01280F391F89819A817F
S1131A70FC012683378389819A812FEFFC0121A3FE
S1131A8089819A812FEFFC0122A38D81882381F41F
S1131A9089819A81FC0180858823A1F089819A81BA
S1131AA008960E943818882369F00E94860B0AC0A1
S1131AB089819A8108960E94EF0789819A814396C9
S1131AC00E94EF07FF91F093A20081E02596CDBF1D
S1131AD0DEBFDF91CF9108950F931F93CF93DF93D0
S1131AE0CDB7DEB72997CDBFDEBF8F83688749871F
S1131AF08885882319F419821A820FC08F81482F90
S1131B0050E08885282F30E0429FC001439F900D0C
S1131B10529F900D112489839A8389819A81859695
S1131B200E949D078B839C838B819C81892B81F0F0
S1131B308B819C8185968D839E832B813C818D81B5
S1131B409E8189012985AC0168858F810E94B20D2F
S1131B508B819C812996CDBFDEBFDF91CF911F91F0
S1131B600F9108950F931F93CF93DF93CDB7DEB7F3
S1131B702797CDBFDEBF89836A834B835C832D8324
S1131B800E831F838A81882341F48E819F812E8155
S1131B903F81FC012083318307C08E819F812B818B
S1131BA03C81FC01208331838E819F812981FC014A
S1131BB0278F8E819F812A81FC0120A38E819F81A2
S1131BC061E00E94D60C8E819F812D81FC0124A3AB
S1131BD000002796CDBFDEBFDF91CF911F910F91FB
S1131BE008950F93CF93DF93CDB7DEB76297CDBF40
S1131BF0DEBF8A879B876C877D872E873F87488BCC
S1131C00598B0A8B19828A859B858A839B83F091E1
S1131C10A200FF93F87FF093A2008A819B81FC01CC
S1131C20268D8A819B81FC01878D281718F08A896B
S1131C30823019F52C853D858A819B814A89B901B9
S1131C400E94EF0F8C838A819B81FC018389882306
S1131C5051F08A819B8143960E943818882341F071
S1131C600E94860B05C08C81882311F00E94860B8C
S1131C70FF91F093A20081E06FC08E859F85A889B3
S1131C80B989892B8A2B8B2B29F4FF91F093A2001D
S1131C9080E062C08981882331F4CE0105960E94D8
S1131CA0031981E08983FF91F093A2000E94F2144A
S1131CB0F091A200FF93F87FF093A2008A819B81A8
S1131CC0FC0181A18F3F21F48A819B81FC0111A237
S1131CD08A819B81FC0182A18F3F21F48A819B81AF
S1131CE0FC0112A2FF91F093A2009E01225F3F4FDC
S1131CF0CE010596B9010E942619882331F58A81FF
S1131D009B810E947A118823C9F08E859F85A889BA
S1131D10B9892A813B81285F3F4FAC01BD01C901CC
S1131D200E949D178A819B810E94F4100E94FF14D7
S1131D30882309F06CCF0E94860B69CF8A819B812E
S1131D400E94F4100E94FF1462CF8A819B810E943A
S1131D50F4100E94FF1480E06296CDBFDEBFDF91D5
S1131D60CF910F910895CF93DF93CDB7DEB72C9722
S1131D70CDBFDEBF8E839F83688779874A875B8761
S1131D802C878E819F818A839B830E945E098C832A
S1131D908A819B81FC01268D8A819B81FC01878D30
S1131DA0281718F08C85823089F58A819B81FC0183
S1131DB082A18D83288539858A819B814C85B901CF
S1131DC00E94EF0F8D818F3FB9F48A819B81FC01C2
S1131DD083898823C1F08A819B8143960E943818A5
S1131DE0882389F08A859B85892B69F08A859B8560
S1131DF021E0FC01208307C08D818F5F282F8A8119
S1131E009B81FC0122A381E0898301C0198280EABD
S1131E1090E02C81FC01228389812C96CDBFDEBF0A
S1131E20DF91CF910895CF93DF93CDB7DEB761975C
S1131E30CDBFDEBF8A879B876C877D872E873F87D0
S1131E40488B598B19828A859B858A839B83F09161
S1131E50A200FF93F87FF093A2008A819B81FC018A
S1131E60868D8C838C81882311F12C853D858A8114
S1131E709B81B9010E94A4108C812FEF280F8A81C5
S1131E809B81FC01268F8A819B81FC0180858823AC
S1131E9049F08A819B8108960E943818882311F0A2
S1131EA00E94860BFF91F093A20081E076C08E859C
S1131EB09F85A889B989892B8A2B8B2B29F4FF91BB
S1131EC0F093A20080E069C08981882331F4CE01B7
S1131ED005960E94031981E08983FF91F093A20083
S1131EE00E94F214F091A200FF93F87FF093A200F5
S1131EF08A819B81FC0181A18F3F21F48A819B818E
S1131F00FC0111A28A819B81FC0182A18F3F21F4F3
S1131F108A819B81FC0112A2FF91F093A2009E0191
S1131F20225F3F4FCE010596B9010E9426198823EE
S1131F3031F58A819B810E9459118823C9F08E85CD
S1131F409F85A889B9892A813B812D5E3F4FAC01C9
S1131F50BD01C9010E949D178A819B810E94F410D2
S1131F600E94FF14882309F072CF0E94860B6FCF62
S1131F708A819B810E94F4100E94FF1468CF8A8199
S1131F809B810E94F4100E94FF148A819B810E940D
S1131F905911882309F45BCF80E06196CDBFDEBF81
S1131FA0DF91CF910895CF93DF9300D0CDB7DEB703
S1131FB08A839B83F091A200FF93F87FF093A200A1
S1131FC08A819B81FC01868D8983FF91F093A20015
S1131FD089812396CDBFDEBFDF91CF910895CF9342
S1131FE0DF93CDB7DEB72797CDBFDEBF8B839C834E
S1131FF06D837E834F831A828B819C81FC01868D45
S113200089838B819C81FC0180A1882309F48EC083
S11320108F818823D9F58B819C81FC0180A1482F75
S113202050E08B819C81FC01848195812D813E81CE
S1132030B9010E9458368B819C81FC012481358131
S11320408B819C81FC0180A1882F90E0280F391F8F
S11320508B819C81FC01248335838B819C81FC01D1
S1132060248135818B819C81FC0182819381281795
S1132070390708F45BC08B819C81FC01208131818C
S11320808B819C81FC012483358350C08B819C818E
S1132090FC0180A1482F50E08B819C81FC0186814A
S11320A097812D813E81B9010E9458368B819C8194
S11320B0FC01268137818B819C81FC0180A1882FC2
S11320C090E0919581959109280F391F8B819C810E
S11320D0FC01268337838B819C81FC012681378117
S11320E08B819C81FC018081918128173907A8F498
S11320F08B819C81FC01228133818B819C81FC0139
S113210080A1882F90E0919581959109280F391F1E
S11321108B819C81FC01268337838F81823031F44B
S11321208981882319F0898181508983898121E0FB
S1132130280F8B819C81FC01268F8A812796CDBF35
S1132140DEBFDF91CF910895CF93DF9300D01F922C
S1132150CDB7DEB789839A836B837C8389819A8127
S1132160FC0180A18823C9F189819A81FC0126811F
S1132170378189819A81FC0180A1882F90E0280F02
S1132180391F89819A81FC012683378389819A8149
S1132190FC012681378189819A81FC0182819381A6
S11321A02817390750F089819A81FC0120813181F7
S11321B089819A81FC012683378389819A81FC0174
S11321C080A1482F50E089819A81FC0126813781C2
S11321D08B819C81B9010E94583600002496CDBFA2
S11321E0DEBFDF91CF910895CF93DF9300D01F928C
S11321F0CDB7DEB78B839C83F091A200FF93F87F69
S1132200F093A2008B819C81FC0182A1898312C07E
S11322108B819C81FC018389882381F08B819C8143
S113222043960E943818882311F00E94CE198981A0
S113223081508983898118165CF301C000008B8169
S11322409C812FEFFC0122A3FF91F093A200F09157
S1132250A200FF93F87FF093A2008B819C81FC0184
S113226081A18A8312C08B819C81FC018085882393
S113227081F08B819C8108960E943818882311F084
S11322800E94CE198A8181508A838A8118165CF350
S113229001C000008B819C812FEFFC0121A3FF91E1
S11322A0F093A20000002496CDBFDEBFDF91CF9152
S11322B00895CF93DF9300D0CDB7DEB78A839B8395
S11322C0F091A200FF93F87FF093A2008A819B8192
S11322D0FC01868D882319F481E0898301C0198269
S11322E0FF91F093A20089812396CDBFDEBFDF91D9
S11322F0CF910895CF93DF9300D0CDB7DEB78A8313
S11323009B83F091A200FF93F87FF093A2008A814F
S11323109B81FC01268D8A819B81FC01878D281776
S113232019F481E0898301C01982FF91F093A2001E
S113233089812396CDBFDEBFDF91CF910895CF93DE
S1132340DF93CDB7DEB72997CDBFDEBF8B839C83E8
S11323504D835E836F83788729878B819C818983F2
S11323609A83F091A200FF93F87FF093A2008981F1
S11323709A81FC0181A18F3F21F489819A81FC011A
S113238011A289819A81FC0182A18F3F21F4898164
S11323909A81FC0112A2FF91F093A20089819A8193
S11323A0FC01868D882371F489819A81FC017396DE
S11323B08D819E81AF81B8852985AC01BD01CF0196
S11323C00E94041889819A810E94F41000002996C1
S11323D0CDBFDEBFDF91CF9108958F929F92AF92D0
S11323E0BF92CF92DF92EF92FF920F931F93CF93FE
S11323F0DF93CDB7DEB76097CDBFDEBF8E839F83FB
S1132400688779874A875B872C873D870E87EF86A5
S1132410F88A8A859B850E949D078C839D838C8185
S11324209D81892BB9F08CE290E00E949D078983FD
S11324309A8389819A81892B41F089819A812C819F
S11324403D81FC01238F348F07C08C819D810E94C4
S1132450E10702C019821A8289819A81892B09F1C4
S11324608A859B85CC01A0E0B0E009811A814F8563
S113247058892C853D8568857985EE81FF81812C7D
S1132480912C58016A01EE8489019C01AD01CF01B0
S11324900E94641289819A810E943A1381E08B839D
S11324A002C08FEF8B838B816096CDBFDEBFDF913F
S11324B0CF911F910F91FF90EF90DF90CF90BF903D
S11324C0AF909F908F9008958F929F92AF92BF92FA
S11324D0CF92DF92EF92FF920F931F93CF93DF93EC
S11324E0CDB7DEB76497CDBFDEBF8C839D836E838B
S11324F07F83288739874A875B870C871D87EE8609
S1132500CF86D88AA98ABA8A8B8A9C8A28853985F3
S113251089899A89FC01838D948DA90165EA70E00B
S11325200E94613689899A89FC01238D348D8885BE
S113253099850197820F931F8A839B83198221C0F7
S11325408981882F90E02981222F30E04E815F819C
S1132550240F351FF901408129893A89820F931F7D
S11325604D96FC0140838981882F90E02E813F8124
S1132570820F931FFC018081882339F089818F5F4A
S1132580898389818830E0F201C0000089899A89B1
S1132590FC0114A28E85843010F083E08E87898933
S11325A09A892E85FC01228F89899A8902960E9434
S11325B0290889899A890E960E94290889899A8905
S11325C029893A89FC01228733878E85882F90E0F8
S11325D0A0E0B0E024E030E040E050E079018A017E
S11325E0E81AF90A0A0B1B0BD801C70129893A8991
S11325F0F90186879787A08BB18B89899A89298964
S11326003A89FC01268B378B89899A89FC0117A2A8
S113261010A611A612A689899A89FC0113A64C85D5
S11326205D852C813D818A819B81B9010E94750958
S11326309C0189899A89FC01208331838F8598893B
S1132640892B39F08F85988929893A89FC0120835F
S1132650318300006496CDBFDEBFDF91CF911F911F
S11326600F91FF90EF90DF90CF90BF90AF909F902D
S11326708F900895CF93DF931F921F92CDB7DEB74B
S113268089839A83F091A200FF93F87FF093A200CC
S11326908091CE308F5F8093CE3080917030909156
S11326A07130892B69F489819A8180937030909379
S11326B071308091CE308130C9F40E94EC1916C07B
S11326C08091D430882391F480917030909171304E
S11326D0FC01228D89819A81FC01828D821730F060
S11326E089819A8180937030909371308091D83031
S11326F08F5F8093D8302091D83089819A81FC01F2
S113270025A389819A81FC01928D8091D330891708
S113271030F489819A81FC01828D8093D330898140
S11327209A81AC014E5F5F4F89819A81FC01828D51
S1132730282F30E06BE0629FC001639F900D11244D
S11327408E589F4CBA010E943C08FF91F093A2005E
S11327508091D430882371F08091703090917130E1
S1132760FC01228D89819A81FC01828D281710F445
S11327700E94860B00000F900F90DF91CF91089577
S1132780EF92FF920F931F93CF93DF93CDB7DEB7F2
S11327906097CDBFDEBF8B879C874D875E876F8731
S11327A0788B19820E94F2148091CF309091D030AE
S11327B0A091D130B091D2308A839B83AC83BD8306
S11327C08B859C85FC0120813181428153818D85DB
S11327D09E85AF85B889820F931FA41FB51F8E8372
S11327E09F83A887B9878B859C85FC0120813181D3
S11327F0428153818A819B81AC81BD818217930779
S1132800A407B50700F58B859C85FC0120813181E7
S1132810428153818E819F81A885B9858217930750
S1132820A407B50778F52E813F81488559858A81AB
S11328309B81AC81BD8182179307A407B50710F56E
S113284081E089831FC08B859C85FC0120813181B7
S1132850428153818E819F81A885B9858217930710
S1132860A407B50768F02E813F81488559858A8180
S11328709B81AC81BD8182179307A407B50710F42F
S113288081E089832B853C858E819F81A885B985CC
S1132890F90180839183A283B38389818823A9F07A
S11328A02E813F81488559858A819B81AC81BD8178
S11328B079018A01E81AF90A0A0B1B0BD801C7012E
S11328C040E0BC01CD010E94C91A0E94FF148A870E
S11328D08A85882311F40E94860B00006096CDBF80
S11328E0DEBFDF91CF911F910F91FF90EF9008957C
S11328F0CF93DF93CDB7DEB72597CDBFDEBF6A8315
S11329007B838C839D8319828A819B81AC81BD8169
S1132910892B8A2B8B2B71F00E94F2148A819B8164
S1132920AC81BD8140E0BC01CD010E94C91A0E9466
S1132930FF1489838981882311F40E94860B000087
S11329402596CDBFDEBFDF91CF910895EF92FF9220
S11329500F93CF93DF931F92CDB7DEB70F2EFDED0C
S1132960EF2EF0E3FF2EF02D00E020E030E048EC05
S113297050E064E070E289ED99E10E94ED118983F1
S11329808981813019F40E946A1B8983898181308D
S113299009F580EA90E020EA30E0F9012281287FFD
S11329A0FC0122838FEF9FEFDC018093D930909359
S11329B0DA30A093DB30B093DC3081E08093D43004
S11329C01092CF301092D0301092D1301092D23079
S11329D00E944E0B00000F90DF91CF910F91FF905A
S11329E0EF900895CF93DF93CDB7DEB78091DF30BA
S11329F08F5F8093DF300000DF91CF910895CF93F4
S1132A00DF9300D01F92CDB7DEB719821A821B82E2
S1132A10F091A200FF93F87FF093A2008091DF3041
S1132A2081508093DF308091DF30882309F074C0B7
S1132A308091CE30882309F46FC046C08091BF30A6
S1132A409091C030FC018085918589839A83898126
S1132A509A810E960E94080989819A8102960E94A1
S1132A60080989819A81FC01928D8091D33089175C
S1132A7030F489819A81FC01828D8093D3308981DD
S1132A809A81AC014E5F5F4F89819A81FC01828DEE
S1132A90282F30E06BE0629FC001639F900D1124EA
S1132AA08E589F4CBA010E943C0889819A81FC018E
S1132AB0228D8091703090917130FC01828D2817A5
S1132AC018F081E08093D6308091B830882309F0E3
S1132AD0B5CF89819A81892B11F00E942F1A809198
S1132AE0D5308C838C81882379F00E94BD1588238E
S1132AF019F081E08093D6308C8181508C838C8155
S1132B00882399F71092D5308091D630882321F00C
S1132B1081E08B830E94860BFF91F093A2008B814E
S1132B202496CDBFDEBFDF91CF910895CF93DF937D
S1132B3000D01F92CDB7DEB7F091A200FF93F87FCB
S1132B40F093A2008091CF309091D030A091D130F9
S1132B50B091D23089839A83AB83BC83FF91F09385
S1132B60A20089819A81AB81BC81BC01CD012496EC
S1132B70CDBFDEBFDF91CF910895CF93DF93CDB763
S1132B80DEB72D97CDBFDEBF19828091DF30882359
S1132B9009F0F1C08091CF309091D030A091D13024
S1132BA0B091D2300196A11DB11D8A839B83AC8361
S1132BB0BD838A819B81AC81BD818093CF3090930A
S1132BC0D030A093D130B093D2308A819B81AC8134
S1132BD0BD81892B8A2B8B2BD9F48091B4309091B1
S1132BE0B5308E839F838091B6309091B7308093B7
S1132BF0B4309093B5308E819F818093B63090939A
S1132C00B7308091D7308F5F8093D7300E942F1ACE
S1132C108091D9309091DA30A091DB30B091DC30E2
S1132C202A813B814C815D81281739074A075B075C
S1132C3008F48AC08091B4309091B530FC01808151
S1132C40882361F48FEF9FEFDC018093D930909358
S1132C50DA30A093DB30B093DC3076C08091B430AE
S1132C609091B530FC0187819085FC018085918528
S1132C708887998788859985FC0182819381A481BD
S1132C80B5818A879B87AC87BD872A813B814C812C
S1132C905D818A859B85AC85BD85281739074A07E0
S1132CA05B0768F48A859B85AC85BD858093D930A4
S1132CB09093DA30A093DB30B093DC3045C0888544
S1132CC0998502960E94080988859985FC01808D62
S1132CD0918D892B29F0888599850E960E94080983
S1132CE088859985FC01928D8091D330891730F4C1
S1132CF088859985FC01828D8093D3308885998558
S1132D00AC014E5F5F4F88859985FC01828D282F29
S1132D1030E06BE0629FC001639F900D11248E58D8
S1132D209F4CBA010E943C0888859985FC01228D3C
S1132D308091703090917130FC01828D281708F4D5
S1132D4079CF81E0898376CF809170309091713012
S1132D50FC01828D282F30E04BE0429FC001439F4D
S1132D60900D11248E589F4CFC018081823040F0DC
S1132D7081E0898305C08091D5308F5F8093D53001
S1132D808091D630882311F081E0898389812D9642
S1132D90CDBFDEBFDF91CF910895CF93DF93CDB741
S1132DA0DEB72997CDBFDEBF8091DF30882321F0C5
S1132DB081E08093D630BAC01092D63080917030C2
S1132DC090917130FC01838D948D8A839B8385EA75
S1132DD095EADC018C839D83AE83BF838A819B81CA
S1132DE0FC0120813181428153818C819D81AE819E
S1132DF0BF81281739074A075B0799F58A819B81A8
S1132E000496FC0120813181428153818C819D8112
S1132E10AE81BF81281739074A075B0711F58A81FC
S1132E209B810896FC0120813181428153818C81F0
S1132E309D81AE81BF81281739074A075B0789F452
S1132E408A819B810C96FC012081318142815381CE
S1132E508C819D81AE81BF81281739074A075B07A2
S1132E6071F080917030909171309C01235E3F4FDE
S1132E708091703090917130B9010E941604809154
S1132E80D330898303C08981815089838981282F24
S1132E9030E04BE0429FC001439F900D11248E58B7
S1132EA09F4CFC018081882371F38981282F30E0B5
S1132EB04BE0429FC001439F900D11248E589F4CBC
S1132EC08887998788859985FC0181819281FC0195
S1132ED02481358188859985FC0121833283888505
S1132EE09985FC012181328188859985039628176B
S1132EF0390769F488859985FC0181819281FC01F7
S1132F002481358188859985FC01218332838885D4
S1132F109985FC0181819281FC0180859185809352
S1132F2070309093713089818093D330000029965A
S1132F30CDBFDEBFDF91CF910895CF93DF9300D053
S1132F4000D0CDB7DEB789839A834B835C836D83CE
S1132F507E8380917030909171309C01225F3F4F4D
S1132F6089819A81B9010E9487088B819C81AD81F6
S1132F70BE8141E0BC01CD010E94C91A0000269621
S1132F80CDBFDEBFDF91CF9108950F931F93CF93F1
S1132F90DF93CDB7DEB72A97CDBFDEBF89839A838F
S1132FA04B835C836D837E830F83188729873A87DD
S1132FB020917030309171308B819C81AD81BE81C4
S1132FC0B068F90186879787A08BB18B80917030A8
S1132FD0909171309C01225F3F4F89819A81B901A0
S1132FE00E943C088F819885A985BA8541E0BC017F
S1132FF0CD010E94C91A00002A96CDBFDEBFDF9121
S1133000CF911F910F910895CF93DF93CDB7DEB782
S11330102797CDBFDEBF89839A834B835C836D83FF
S11330207E832F8380917030909171309C01225F58
S11330303F4F89819A81B9010E943C088F8188237E
S113304039F08FEF9FEFDC018B839C83AD83BE83CC
S11330508B819C81AD81BE814F81BC01CD010E94D9
S1133060C91A00002796CDBFDEBFDF91CF91089526
S1133070CF93DF93CDB7DEB72597CDBFDEBF8C836B
S11330809D838C819D81FC0187819085FC018085D5
S113309091858A839B838A819B810E960E9408096D
S11330A08091DF30882351F58A819B8102960E94AA
S11330B008098A819B81FC01928D8091D330891704
S11330C030F48A819B81FC01828D8093D3308A8184
S11330D09B81AC014E5F5F4F8A819B81FC01828D95
S11330E0282F30E06BE0629FC001639F900D112494
S11330F08E589F4CBA010E943C0808C08A819B816B
S11331000E96BC0188EB90E30E943C088A819B8167
S1133110FC01228D8091703090917130FC01828D80
S1133120821730F481E0898381E08093D63001C036
S1133130198289812596CDBFDEBFDF91CF91089595
S1133140CF93DF93CDB7DEB72897CDBFDEBF8B8398
S11331509C834D835E836F8378878D819E81AF814D
S1133160B885B0682B813C81F90180839183A28367
S1133170B3838B819C81FC018085918589839A83AB
S11331808B819C810E94080989819A8102960E9400
S1133190080989819A81FC01928D8091D330891725
S11331A030F489819A81FC01828D8093D3308981A6
S11331B09A81AC014E5F5F4F89819A81FC01828DB7
S11331C0282F30E06BE0629FC001639F900D1124B3
S11331D08E589F4CBA010E943C0889819A81FC0157
S11331E0228D8091703090917130FC01828D821714
S11331F018F481E08093D63000002896CDBFDEBF5E
S1133200DF91CF910895CF93DF931F921F92CDB793
S1133210DEB789839A832091D73089819A81FC0112
S113322020838091CF309091D030A091D130B09153
S1133230D23029813A81F90181839283A383B483B3
S113324000000F900F90DF91CF910895EF92FF92BD
S11332500F931F93CF93DF93CDB7DEB72D97CDBFD9
S1133260DEBF8A879B876C877D87F091A200FF93DE
S1133270F87FF093A2008091CF309091D030A0914C
S1133280D130B091D2308A839B83AC83BD838A854D
S11332909B85FC0181819281A381B4812A813B8138
S11332A04C815D8179018A01E81AF90A0A0B1B0B2A
S11332B0D801C7018E839F83A887B9878C859D8594
S11332C0FC0180819181A281B3818F3F9F4FAF4FD9
S11332D0BF4F11F4198254C08A859B85FC019081EB
S11332E08091D730981799F08A859B85FC012181BC
S11332F03281438154818A819B81AC81BD81821753
S11333009307A407B50718F081E0898339C08C8539
S11333109D85FC0120813181428153818E819F8171
S1133320A885B98582179307A407B50700F58C858E
S11333309D85FC0120813181428153818E819F8151
S1133340A885B98579018A01E81AF90A0A0B1B0BC9
S1133350D801C7012C853D85F90180839183A2831F
S1133360B3838A859B850E940319198209C08C85C1
S11333709D85FC01108211821282138281E089836F
S1133380FF91F093A20089812D96CDBFDEBFDF911E
S1133390CF911F910F91FF90EF900895CF93DF93FA
S11333A0CDB7DEB781E08093D6300000DF91CF91B6
S11333B00895CF93DF931F921F92CDB7DEB7898311
S11333C09A830E94271A80917230823010F00E94F2
S11333D0860B0E94C820F5CFCF93DF931F92CDB701
S11333E0DEB7198210C08981282F30E04BE0429F5C
S11333F0C001439F900D11248E589F4C0E94EF07EB
S113340089818F5F89838981843068F38EE990E3B1
S11334100E94EF0789EA90E30E94EF0788EB90E3AC
S11334200E94EF0783EC90E30E94EF078EE990E39C
S11334308093B4309093B53089EA90E38093B630AA
S11334409093B73000000F90DF91CF910895CF9300
S1133450DF93CDB7DEB70000DF91CF910895CF930E
S1133460DF931F921F92CDB7DEB78091B430909155
S1133470B530FC018081882361F48FEF9FEFDC017C
S11334808093D9309093DA30A093DB30B093DC3062
S11334901BC08091B4309091B530FC018781908538
S11334A0FC018085918589839A8389819A81FC01B5
S11334B082819381A481B5818093D9309093DA304D
S11334C0A093DB30B093DC3000000F900F90DF91BD
S11334D0CF910895CF93DF931F92CDB7DEB780913C
S11334E0D430882319F481E0898308C08091DF30C7
S11334F0882319F482E0898301C0198289810F909D
S1133500DF91CF910895EF92FF920F931F93CF9382
S1133510DF9300D01F92CDB7DEB7809170309091C9
S11335207130FC0186859785A089B18989839A8346
S1133530AB83BC8360917030709171308091703036
S113354090917130FC01828D882F90E0A0E0B0E072
S113355024E030E040E050E079018A01E81AF90AF9
S11335600A0B1B0BD801C701FB0186879787A08B29
S1133570B18B89819A81AB81BC81BC01CD01249638
S1133580CDBFDEBFDF91CF911F910F91FF90EF90E0
S11335900895CF93DF93CDB7DEB72D97CDBFDEBFB0
S11335A069877A878B879C874D878091CF309091EC
S11335B0D030A091D130B091D23089839A83AB833B
S11335C0BC83809170309091713002960E940809FA
S11335D089859A85AB85BC858F3F9F4FAF4FBF4F81
S11335E071F48D85882359F08091703090917130F9
S11335F00296BC0183EC90E30E943C0864C02981DC
S11336003A814B815C8189859A85AB85BC85820F23
S1133610931FA41FB51F8D839E83AF83B88720910A
S11336207030309171308D819E81AF81B885F90100
S113363082839383A483B5832D813E814F815885F2
S113364089819A81AB81BC81281739074A075B07B6
S113365078F480917030909171309C012E5F3F4FCF
S11336608091B6309091B730B9010E9487082BC081
S113367080917030909171309C012E5F3F4F80910A
S1133680B4309091B530B9010E9487088091D93047
S11336909091DA30A091DB30B091DC302D813E8105
S11336A04F815885281739074A075B0760F48D81D5
S11336B09E81AF81B8858093D9309093DA30A093FE
S11336C0DB30B093DC3000002D96CDBFDEBFDF9140
S11336D0CF910895EF92FF920F93CF93DF931F92B0
S11336E0CDB7DEB719820E94FB1F8091FA3090910A
S11336F0FB30892B91F00F2EFCEFEF2EF0E3FF2E21
S1133700F02D03E020E030E048EC50E069E070E2A6
S113371080E89CE10E94ED11898389810F90DF91FB
S1133720CF910F91FF90EF900895CF92DF92EF9297
S1133730FF920F931F93CF93DF93CDB7DEB76797B5
S1133740CDBFDEBF8B879C876D872E873F87488BD5
S1133750598B0A8B1B8BCC8ADD8AEE8AFF8A1982ED
S11337608091FA309091FB30892B09F444C08D8507
S11337708A838E859F85A889B9898B839C83AD8331
S1133780BE838B859C858F8398878D85863034F5A1
S11337900E946A1A823099F4E091FA30F091FB3079
S11337A08C899D89AE89BF89BE016E5F7F4F00E021
S11337B09C01AD01CF010E94F10D89831CC0809151
S11337C0FA309091FB30BE016E5F7F4F00E020E045
S11337D030E0A9010E94F10D89830DC08091FA3077
S11337E09091FB304A895B89BE016E5F7F4F20E078
S11337F00E94B30E898389816796CDBFDEBFDF91B6
S1133800CF911F910F91FF90EF90DF90CF9008958B
S1133810CF92DF92EF92FF920F931F93CF93DF9398
S1133820CDB7DEB72B97CDBFDEBF6C837D838E8390
S11338309F83288739874A875B878091F6309091E8
S1133840F730FC0187819085FC018085918589830F
S11338509A8389819A8102960E94080989819A81B2
S1133860FC0182898130B1F589819A81FC01268528
S11338703785408951898C819D81AE81BF81820FBA
S1133880931FA41FB51FEC80FD800E811F81288526
S113389039854A855B85E981FA8167017801890167
S11338A09A01AC01BD01CF010E949E1D882391F0B5
S11338B08C819D81AE81BF81E981FA81C12CD12C9B
S11338C0760100E010E09C01AD0160E0CF010E94B0
S11338D0951B8B8389819A81FC012589368989818D
S11338E09A81F901199500002B96CDBFDEBFDF91B7
S11338F0CF911F910F91FF90EF90DF90CF9008959B
S1133900CF93DF93CDB7DEB72797CDBFDEBF8E83CE
S11339109F83CE0105960E941B1DDC01CB01898388
S11339209A83AB83BC832D8189819A81AB81BC81CD
S1133930422FBC01CD010E94A01C0E94371EE9CF7A
S1133940EF92FF920F931F93CF93DF93CDB7DEB720
S11339502A97CDBFDEBF6E837F83888799874A8786
S11339600E94F214CE0105960E94591DDC01CB0180
S113397089839A83AB83BC838D81882309F04EC0ED
S11339808A858823E1F42E813F8148855985898180
S11339909A81AB81BC8182179307A407B50778F09D
S11339A00E94FF1429813A814B815C818E819F8121
S11339B0A885B985BC01CD010E94081C31C08A8547
S11339C0882359F08091F8309091F930FC0190816E
S11339D081E0992309F080E08A872E813F81488520
S11339E0598589819A81AB81BC8179018A01E81A60
S11339F0F90A0A0B1B0BD801C701E091FA30F091C8
S1133A00FB302A85AC01BD01CF010E949F110E94A9
S1133A10FF14882329F40E94860B02C00E94FF141D
S1133A2000002A96CDBFDEBFDF91CF911F910F9189
S1133A30FF90EF900895CF93DF9300D000D0CDB7DF
S1133A40DEB78D839E838091F6309091F730FC0130
S1133A50908181E0992309F080E0282F8D819E8157
S1133A60FC0120838D819E81FC018081882389F45F
S1133A708091F6309091F730FC0187819085FC01AC
S1133A8080819181A281B38189839A83AB83BC8332
S1133A9004C019821A821B821C8289819A81AB819B
S1133AA0BC81BC01CD012696CDBFDEBFDF91CF9195
S1133AB00895CF93DF9300D000D0CDB7DEB78D83C8
S1133AC09E830E949615DC01CB0189839A83AB8384
S1133AD0BC838091FE309091FF30A0910031B09171
S1133AE0013129813A814B815C81281739074A07C2
S1133AF05B0740F40E94411F8D819E8121E0FC01FF
S1133B00208304C08D819E81FC01108289819A8169
S1133B10AB81BC818093FE309093FF30A093003141
S1133B20B093013189819A81AB81BC81BC01CD0103
S1133B302696CDBFDEBFDF91CF910895CF92DF925D
S1133B40EF92FF920F931F93CF93DF93CDB7DEB71E
S1133B502F97CDBFDEBF8A839B834C835D836E83A7
S1133B607F83088719872A873B87CC86DD86EE8684
S1133B70FF8619822A813B818C819D81AE81BF8120
S1133B80F90182839383A483B5838A819B812A81EB
S1133B903B81FC01228733872C813D814E815F81EB
S1133BA088859985AA85BB8582179307A407B507DD
S1133BB040F1288539854A855B858C859D85AE8550
S1133BC0BF85281B390B4A0B5B0B8A819B81FC0147
S1133BD086859785A089B189281739074A075B0725
S1133BE018F081E0898336C08A819B819C012E5F15
S1133BF03F4F8091F8309091F930B9010E948708C5
S1133C0029C0288539854A855B858C859D85AE8547
S1133C10BF85281739074A075B0780F42C813D814B
S1133C204E815F818C859D85AE85BF8528173907B8
S1133C304A075B0718F081E089830CC08A819B8165
S1133C409C012E5F3F4F8091F6309091F730B9017F
S1133C500E94870889812F96CDBFDEBFDF91CF9167
S1133C601F910F91FF90EF90DF90CF900895CF9226
S1133C70DF92EF92FF920F931F93CF93DF93CDB711
S1133C80DEB76597CDBFDEBFE0C08A858823FCF42C
S1133C90CE010A96019689839A8389819A81FC01CF
S1133CA02081318189819A81FC0184819581A68159
S1133CB0B78149815A81FA010280F381E02DEC8BAE
S1133CC0FD8BAC01BD018C899D89F90119958A850B
S1133CD088230CF4BAC08F8598898B839C838B814D
S1133CE09C81FC0184859585892B29F08B819C819D
S1133CF002960E940809CE0143960E94591DDC01D8
S1133D00CB018D839E83AF83B8878A85082E000CF0
S1133D10990B092E000CAA0BBB0B40E050E029E0E4
S1133D2030E0841B950B2817390708F48DC0FC017B
S1133D308827E250FF4F8F4F0C946D35EB84FC8441
S1133D400D851E852B853C854D855E858B819C81EB
S1133D50FC0186859785A089B189820F931FA41FD2
S1133D60B51F2D813E814F815885EB81FC81670110
S1133D70780189019A01AC01BD01CF010E949E1D09
S1133D80882309F462C08B819C81FC0125893689D2
S1133D908B819C81F90119958B819C81FC0182891D
S1133DA0813009F052C02B853C854D855E858B8121
S1133DB09C81FC0186859785A089B189820F931F18
S1133DC0A41FB51FEB81FC81C12CD12C760100E02E
S1133DD010E09C01AD0160E0CF010E94951B898732
S1133DE034C08B859C85AD85BE852B813C81F901D2
S1133DF086879787A08BB18B8B819C81FC0126855C
S1133E003785408951898D819E81AF81B885820F24
S1133E10931FA41FB51FED80FE800F8118852D818F
S1133E203E814F815885EB81FC81670178018901CE
S1133E309A01AC01BD01CF010E949E1D06C08B8179
S1133E409C810E94E10701C000008091FA309091AA
S1133E50FB30BE01665F7F4F20E030E0A9010E9485
S1133E60130F882309F011CF00006596CDBFDEBF84
S1133E70DF91CF911F910F91FF90EF90DF90CF9042
S1133E800895CF92DF92EF92FF920F931F93CF93F7
S1133E90DF93CDB7DEB72D97CDBFDEBF82C0809153
S1133EA0F6309091F730FC0187819085FC01808188
S1133EB09181A281B38189839A83AB83BC838091EE
S1133EC0F6309091F730FC0187819085FC01808564
S1133ED091858D839E838D819E8102960E9408091F
S1133EE08D819E81FC01258936898D819E81F90110
S1133EF019958D819E81FC018289813009F051C020
S1133F008D819E81FC01268537854089518989816F
S1133F109A81AB81BC81820F931FA41FB51F8F832D
S1133F209887A987BA872F81388549855A858981D9
S1133F309A81AB81BC8182179307A407B507F8F473
S1133F402D813E818F819885A985BA85F901828367
S1133F509383A483B5838D819E812D813E81FC0151
S1133F60228733878D819E819C012E5F3F4F8091F4
S1133F70F6309091F730B9010E94870812C0898108
S1133F809A81AB81BC81ED81FE81C12CD12C76015B
S1133F9000E010E09C01AD0160E0CF010E94951BA0
S1133FA08B878091F6309091F730FC0180818823D3
S1133FB009F075CF8091F6309091F7308C879D870A
S1133FC08091F8309091F9308093F6309093F730E7
S1133FD08C859D858093F8309093F93000002D9660
S1133FE0CDBFDEBFDF91CF911F910F91FF90EF9076
S1133FF0DF90CF900895CF93DF93CDB7DEB7F091E4
S1134000A200FF93F87FF093A2008091FA30909180
S1134010FB30892BE9F480EE90E30E94EF078BEEEE
S113402090E30E94EF0780EE90E38093F630909344
S1134030F7308BEE90E38093F8309093F93040E0C2
S113404069E085E00E946C0D8093FA309093FB3018
S1134050FF91F093A2000000DF91CF9108950F9398
S11340601F93CF93DF93CDB7DEB76497CDBFDEBF89
S11340708B879C876D877E872F87388B498B5A8BDC
S11340800B8B1C8B8EEF8A838B859C858B839C8307
S11340908D859E858D839E838F859889A989BA890C
S11340A08F839887A987BA878091FA309091FB30E3
S11340B04B895C89BE016E5F7F4F20E00E94B30E86
S11340C0898389816496CDBFDEBFDF91CF911F9133
S11340D00F910895CF93DF93CDB7DEB780E590E0DD
S11340E020E530E0F90120812160FC01208380E596
S11340F090E0FC018181882F90E081709927892BC1
S1134100B1F380E00E94A0038EE10E94690360E0A5
S113411080E00E94890343E060E080E40E9434036D
S113412080E590E020E530E0F90120812860FC0181
S1134130208380E590E0FC018181882F90E08870E5
S11341409927892BB1F364E080EC0E94510380E548
S113415090E020E530E0F90120812061FC0120831A
S113416060E080E00E94890380E590E0FC018181A9
S1134170882F90E080719927892BB1F384E00E9405
S1134180A00387E00E9469030000DF91CF910895A6
S1134190CF93DF93CDB7DEB70000DF91CF910895C1
S11341A0EF92FF920F93CF93DF93CDB7DEB70E94C8
S11341B06A200E947E27E12CF12C03E020E030E00D
S11341C04EE551E061E170E287E495E20E94ED1171
S11341D0E12CF12C01E020E030E042ED50E06EE112
S11341E070E281EF91E20E94ED11E12CF12C01E0EB
S11341F020E030E042ED50E06BE270E282EB92E2CC
S11342000E94ED11E12CF12C02E020E030E042EDBF
S113421050E068E370E287E593E20E94ED11E12C3F
S1134220F12C03E020E030E04EE551E062E470E27E
S11342308DE094E20E94ED11E12CF12C02E020E0EB
S113424030E04CE251E06CE470E28BE391E20E94D6
S1134250ED110E94600480933E3190933F310E949F
S1134260C9290E94A61480E090E0DF91CF910F91BC
S1134270FF90EF900895CF93DF93CDB7DEB72A97E1
S1134280CDBFDEBF89879A870E949615DC01CB01DA
S11342908D839E83AF83B88719821A821B821C8206
S11342A080913E3190913F3140E050E0BA010E944C
S11342B0BB05DC01CB019927AA27BB2789839A83F5
S11342C0AB83BC8389819A81AB81BC818870992737
S11342D0AA27BB27892B8A2B8B2BD1F180910E31F6
S11342E090910F31019680930E3190930F3180910C
S11342F00E3190910F31843691056CF010920E318D
S113430010920F3180910A3190910B310196809374
S11343100A3190930B3180910A3190910B31CC97F3
S11343206CF010920A3110920B3180910C31909103
S11343300D31019680930C3190930D3180910C31A5
S113434090910D31CC9724F010920C3110920D31D4
S113435089819A81AB81BC8187709927AA27BB2761
S11343600797A105B105A1F510920E3110920F31F6
S113437010920A3110920B3110920C3110920D31BF
S113438080913E3190913F3142E050E060E070E036
S11343900E94BB0580913E3190913F3144E050E052
S11343A060E070E00E94BB0580913E3190913F3106
S11343B041E050E060E070E00E94BB0580913E3136
S11343C090913F3148E050E060E070E00E94BB050E
S11343D0CE0105964AE050E060E070E00E94C01310
S11343E05FCFEF92FF920F931F93CF93DF93CDB7DD
S11343F0DEB72E97CDBFDEBF8D879E8719821A82C6
S11344001B821C8219861A861B861C8680E090E01B
S1134410A0E8BFE38D839E83AF83B88780913E314C
S113442090913F3140E050E0BA010E94BB05DC01AD
S1134430CB019927AA27BB2789879A87AB87BC8793
S113444080911031823009F05CC069817A818B815E
S11344509C810E944E30DC01CB019C01AD01BC016A
S1134460CD010E94352FDC01CB0120E030E040E893
S11344705FE3BC01CD010E94352FDC01CB019C011F
S1134480AD016D817E818F8198850E94A62FDC010C
S1134490CB0120E030E040E850E4BC01CD010E94B3
S11344A00531DC01CB017C018D01809102319091B9
S11344B00331A0910431B09105319C01AD01C801D3
S11344C0B7010E94352FDC01CB0180930231909318
S11344D00331A0930431B09305318D819E81AF8166
S11344E0B885B0588D839E83AF83B88789819A81BC
S11344F0AB81BC810196A11DB11D89839A83AB83D5
S1134500BC8389859A85AB85BC8581709927AA2748
S1134510BB27892B8A2B8B2BF1F01092023110923E
S11345200331109204311092053119821A821B82D0
S11345301C8280E090E0A0E8BFE38D839E83AF837C
S1134540B88780913E3190913F3142E050E060E085
S113455070E00E94060661E070E080E090E00E9456
S113456078145CCFCF93DF93CDB7DEB72E97CDBF52
S1134570DEBF8D879E8780E090E0A0E8BFE389835B
S11345809A83AB83BC831D821E821F821886198680
S11345901A861B861C8680913E3190913F3140E003
S11345A050E0BA010E94BB05DC01CB019927AA2780
S11345B0BB2789879A87AB87BC878091103183306A
S11345C009F044C020E030E040E050E46D817E8199
S11345D08F8198850E94352FDC01CB01BC01CD0170
S11345E00E947831DC01CB018D839E83AF83B88731
S11345F020E030E040E050E46D817E818F81988539
S11346000E94A62FDC01CB019C01AD0169817A8156
S11346108B819C810E940531DC01CB0189839A83C3
S1134620AB83BC8329813A814B815C8160E070E07B
S113463080E090E40E94A62FDC01CB018093063138
S113464090930731A0930831B093093189859A85F5
S1134650AB85BC8581709927AA27BB27892B8A2B18
S11346608B2BF1F080E090E0A0E8BFE389839A838C
S1134670AB83BC831D821E821F8218861092063172
S113468010920731109208311092093180913E3115
S113469090913F3144E050E060E070E00E940606F3
S11346A061E070E080E090E00E94781474CFCF93D2
S11346B0DF93CDB7DEB76297CDBFDEBF898B9A8B10
S11346C019821A821B821C821D821E821F821886F6
S11346D019861A861B861C861D861E861F86188AC6
S11346E080913E3190913F3140E050E0BA010E9408
S11346F0BB05DC01CB019927AA27BB278D879E87A1
S1134700AF87B88B8091063190910731A091083121
S1134710B091093120E030E543EC57E4BC01CD0110
S11347200E940531DC01CB01BC01CD010E941F3088
S1134730DC01CB0189839A83AB83BC8380910231F2
S113474090910331A0910431B091053120E030E51E
S113475043EC57E4BC01CD010E940531DC01CB01DF
S1134760BC01CD010E941F30DC01CB018D839E83EF
S1134770AF83B8878091002090910120A0910220FE
S1134780B091032020E030E543EC57E4BC01CD01B7
S11347900E940531DC01CB01BC01CD010E941F3018
S11347A0DC01CB0189879A87AB87BC878D859E8581
S11347B0AF85B88988709927AA27BB27892B8A2BAC
S11347C08B2B21F129853A854B855C858D819E81D2
S11347D0AF81B885281739074A075B0769F029852F
S11347E03A854B855C8589819A81AB81BC81281788
S11347F039074A075B0751F480913E3190913F316C
S113480048E050E060E070E00E94BB056AE070E0C0
S113481080E090E00E94781463CFCF93DF93CDB70C
S1134820DEB7C655D109CDBFDEBF9E012B5A3F4F1F
S1134830F901808391830E949615DC01CB01898361
S11348409A83AB83BC8380911031882F90E08130B0
S11348509105C9F1823091051CF4892B39F060C0AF
S11348608230910519F0039771F15AC0CE018D96EB
S113487020E1E1E6F0E2DC0101900D922A95E1F7F6
S11348808091023190910331A0910431B0910531AE
S11348902B2F2F932A2F2F93292F2F938F9381E739
S11348A090E2892F8F9381E790E28F93CE01059652
S11348B0292F2F938F930E94E8368DB79EB70896C1
S11348C0CDBFDEBF30C0CE018D9620E1E0E8F0E23E
S11348D0DC0101900D922A95E1F7809106319091C7
S11348E00731A0910831B09109312B2F2F932A2F32
S11348F02F93292F2F938F9381E790E2892F8F9302
S113490081E790E28F93CE010596292F2F938F9301
S11349100E94E836EDB7FEB73896CDBFDEBF03C0C0
S11349201092103100008091002090910120A091FC
S11349300220B09103202B2F2F932A2F2F93292F5E
S11349402F938F9380E990E2892F8F9380E990E2EF
S11349508F93CE014996292F2F938F930E94E83687
S11349608DB79EB70896CDBFDEBF40910E315091F2
S11349700F3120910A3130910B3180910C3190919B
S11349800D31652F6F934F93432F4F932F93292FFF
S11349902F938F938FE990E2892F8F938FE990E281
S11349A08F93CE018F5B9F4F292F2F938F930E945C
S11349B0E836EDB7FEB73A96CDBFDEBFCE018D9691
S11349C0292F2F938F9384EB90E2892F8F9384EB7D
S11349D090E28F931F921F921F921F920E94DB29D5
S11349E08DB79EB70896CDBFDEBFCE010596292FA1
S11349F02F938F9384EB90E2892F8F9384EB90E233
S1134A008F931F921F921F9281E08F930E94DB2944
S1134A10EDB7FEB73896CDBFDEBFCE014996292F3C
S1134A202F938F9384EB90E2892F8F9384EB90E202
S1134A308F931F921F921F9282E08F930E94DB2913
S1134A408DB79EB70896CDBFDEBFCE018F5B9F4F5B
S1134A50292F2F938F9384EB90E2892F8F9384EBEC
S1134A6090E28F931F921F921F9283E08F930E9474
S1134A70DB29EDB7FEB73896CDBFDEBF44EF51E07A
S1134A8060E070E0CE0101960E94C013DCCECF93AB
S1134A90DF931F921F92CDB7DEB789839A830E945A
S1134AA0D1010E94ED0180E00E94DF02813019F5FE
S1134AB080911031882371F482E0809310318091C9
S1134AC03E3190913F3148E050E060E070E00E9458
S1134AD0060611C080911031813069F483E080931F
S1134AE0103180913E3190913F3148E050E060E0D8
S1134AF070E00E94060681E00E94DF02813011F519
S1134B0080911031823069F41092103180913E31DD
S1134B1090913F3148E050E060E070E00E94BB05B6
S1134B2011C080911031833069F481E08093103199
S1134B3080913E3190913F3148E050E060E070E078
S1134B400E94BB0582E00E94DF028130C1F48091A3
S1134B503E3190913F3141E050E060E070E00E94CE
S1134B60060680911031823019F41092103107C07A
S1134B7080911031833019F481E08093103183E007
S1134B800E94DF028130F1F480911031882321F4F6
S1134B9081E08093103116C080911031813019F476
S1134BA0109210310FC080911031823021F483E0D3
S1134BB08093103107C080911031833019F482E062
S1134BC0809310316AE070E080E090E00E947814F5
S1134BD068CF1F920F9200903F000F921124009013
S1134BE03B000F922F933F934F935F936F937F9369
S1134BF08F939F93AF93BF93EF93FF93CF93DF93E1
S1134C001F92CDB7DEB71982809142319091433122
S1134C109E012F5F3F4F41E050E060E070E00E9452
S1134C20730760E080E09BE00E94C20380E09BE0A9
S1134C30FC01168200000F90DF91CF91FF91EF915C
S1134C40BF91AF919F918F917F916F915F914F91A0
S1134C503F912F910F9000923B000F9000923F00E4
S1134C600F901F901895CF92DF92EF92FF920F93BF
S1134C70CF93DF9300D01F92CDB7DEB769837A83D9
S1134C808B839C8389819A81AB81BC810297A10526
S1134C90B10540F482E090E0A0E0B0E089839A831B
S1134CA0AB83BC8380E09BE021E0FC01268380E0B1
S1134CB09BE0FC0110A211A260E080E09BE00E9456
S1134CC0DE0389819A81AB81BC818E3F9F4FA10510
S1134CD0B10598F420E03BE089819A81AB81BC81E5
S1134CE0B695A79597958795F90186A397A365E04F
S1134CF080E09BE00E94C2031FC089819A81AB813E
S1134D00BC8180349244AF40B105B0F420E03BE074
S1134D1089819A81AB81BC81689414F8B695A79572
S1134D20979587951694D1F7F90186A397A367E021
S1134D3080E09BE00E94C203809142319091433114
S1134D400F2EF4EFCF2EDD24D394E12CF12CF02D93
S1134D5000E021E041E050E060E070E00E94830464
S1134D6000002496CDBFDEBFDF91CF910F91FF905D
S1134D70EF90DF90CF900895CF93DF931F92CDB73C
S1134D80DEB7898389818F70898389818295807F49
S1134D90898380E096E020E036E0F90134812981BE
S1134DA02F602323FC01248380E096E020E036E09A
S1134DB0F90134812981232BFC01248300000F9005
S1134DC0DF91CF910895CF93DF931F92CDB7DEB7D4
S1134DD089838981882331F080E696E021E0FC0113
S1134DE0258305C080E696E021E0FC0126830000CF
S1134DF00F90DF91CF910895CF93DF931F92CDB79A
S1134E00DEB789838981882331F080E696E022E049
S1134E10FC01258305C080E696E022E0FC012683A0
S1134E2000000F90DF91CF910895CF93DF931F92ED
S1134E30CDB7DEB789838981882331F080E696E097
S1134E4024E0FC01258305C080E696E024E0FC0113
S1134E50268300000F90DF91CF910895CF93DF93C5
S1134E60CDB7DEB781E00E94152761E070E080E0F5
S1134E7090E00E94332680E00E9415270000DF9115
S1134E80CF910895CF93DF931F92CDB7DEB7898377
S1134E90898182958F700E94BC2680E00E94E3265F
S1134EA080E00E94FC260E942E2789818F700E9438
S1134EB0BC260E942E2700000F90DF91CF91089509
S1134EC0CF93DF931F92CDB7DEB789838981829513
S1134ED08F700E94BC2681E00E94E32680E00E943D
S1134EE0FC260E942E2789818F700E94BC260E9476
S1134EF02E2700000F90DF91CF910895EF92FF923B
S1134F000F93CF93DF93CDB7DEB780E096E020E137
S1134F10FC01218380E096E020E2FC01218380E013
S1134F2096E020E4FC01218380E096E020E8FC0187
S1134F30218380E696E021E0FC01218380E696E06F
S1134F4022E0FC01218380E696E024E0FC01218339
S1134F5080E096E020E036E0F90124812F70FC0126
S1134F60248380E696E020E636E0F9012481287F58
S1134F70FC01248340E066E188E00E946C0D80938C
S1134F804031909341310E94600480934231909368
S1134F904331E12CF12C01E020E030E04EE551E01A
S1134FA067EB70E28CE798E20E94ED110000DF915C
S1134FB0CF910F91FF90EF900895CF93DF9300D09E
S1134FC01F92CDB7DEB789839A836B837C838981F3
S1134FD09A818130910589F0823091051CF4892BE6
S1134FE039F01AC08230910569F0039781F014C03A
S1134FF08B8180580E9442270FC08B8180540E946D
S113500042270AC08B818C560E94422705C08B819F
S11350108C520E944227000067E270E080E090E03A
S11350200E94332600002496CDBFDEBFDF91CF91CE
S11350300895CF93DF931F92CDB7DEB7898389811B
S11350400E9460276BE270E080E090E00E943326CB
S113505000000F90DF91CF910895CF93DF9300D09C
S11350601F92CDB7DEB78B839C8319821A8219C035
S113507089819A812B813C81820F931FFC0180815D
S11350808823A1F089819A812B813C81820F931F0F
S1135090FC0180810E94192889819A810196898363
S11350A09A8389819A8144971CF301C0000000000F
S11350B02496CDBFDEBFDF91CF910895CF93DF93C8
S11350C000D000D0CDB7DEB789839A836B837C830D
S11350D04D835E832B813C8189819A81B9010E9431
S11350E0DD278D819E810E942D2800002696CDBF4C
S11350F0DEBFDF91CF910895CF93DF93CDB7DEB7B5
S1135100C057D109CDBFDEBF9E0121593F4FF901E0
S11351108083918319821A821B821C821D821E82C3
S113512026C01F8218861AC02D813E8144E1429F09
S1135130C001439F900D11249E012F5F3F4F280F04
S1135140391F8F819885820F931F089620E2FC01F6
S113515020838F81988501968F8398878F81988586
S1135160449714F38D819E8101968D839E838D8156
S11351709E810497B4F260E47CE980E090E00E94B0
S1135180332683E00E94BC2668E873E180E090E067
S11351900E9433260E942E2760EA70E080E090E0AF
S11351A00E9433260E942E2760EA70E080E090E09F
S11351B00E9433260E942E2760EA70E080E090E08F
S11351C00E94332682E00E94BC260E942E2788E299
S11351D00E94422780E10E9442278CE00E944227DD
S11351E086E00E94422768EC70E080E090E00E9434
S11351F07814809142319091433140E050E0BA01FB
S11352000E94BB05DC01CB01892B8A2B8B2B09F473
S113521096C0809142319091433142E050E060E089
S113522070E00E94BB0519821A8226C01B821C8270
S11352301AC029813A8144E1429FC001439F900DE5
S113524011249E012F5F3F4F280F391F8B819C81B2
S1135250820F931F089620E2FC0120838B819C819E
S113526001968B839C838B819C81449714F3898161
S11352709A81019689839A8389819A810497B4F2E9
S11352805EC08091403190914131BE01675A7F4F99
S11352902FEF3FEFA9010E94130F882309F44FC099
S11352A019821A8232C0CE01875A9F4FFC01808135
S11352B0482F50E0CE01875A9F4FFC018181282F4F
S11352C030E089819A81820F931FBE01675A7F4F14
S11352D029813A81260F371F2E5F3F4FF9016081E4
S11352E074E1749F9001759F300D1124AE014F5FDE
S11352F05F4F240F351F820F931F0896FC016083B4
S113530089819A81019689839A83CE01875A9F4F16
S1135310FC018181282F30E089819A81820F931FBB
S113532044976CF49E01275A3F4F89819A81820FDA
S1135330931F0296FC018081882309F0B4CF8091E9
S11353404031909141310E94D30F882309F099CFC5
S113535019821A8219C09E01275F3F4F49815A81E1
S113536064E1649FC001659F900D1124280F391FCB
S113537089819A81A90160E070E00E945E28898198
S11353809A81019689839A8389819A8104971CF36F
S11353902ACFCF93DF93CDB7DEB78091423190917E
S11353A0433142E050E060E070E00E9406060000F5
S11353B0DF91CF910895CF93DF931F921F92CDB7C2
S11353C0DEB7CE010E9689839A8329813A814C8572
S11353D05D856A857B85888599850E94F52900000D
S11353E00F900F90DF91CF9108950F93CF93DF9398
S11353F0CDB7DEB7EC97CDBFDEBF8DAB9EAB6FAB49
S113540078AF49AF5AAF2BAF3CAF19821A821B82D7
S11354101C820BC08B819C818F5E9E4CFC01108290
S11354208B819C8101968B839C838B819C81449787
S11354308CF31D821E820BC08D819E818B5D9E4CE0
S1135440FC0110828D819E8101968D839E838D81C6
S11354509E8144978CF3BEC18D89853209F0A0C129
S113546089AD9AAD9C012F5F3F4F29AF3AAFFC0144
S113547080818D8B8D89882F90E08536910509F484
S113548046C18636910554F48336910501F184367C
S113549091050CF070C0859769F09CC18337910524
S11354A071F18837910509F4A8C08636910509F48D
S11354B0E6C090C189819A818B5D9E4C25E2FC01F6
S11354C0208389819A81019689839A8383C18BADD4
S11354D09CAD9C012E5F3F4F2BAF3CAFFC01808104
S11354E091818E8B89819A818B5D9E4C2E89FC01E2
S11354F0208389819A81019689839A836BC18BADBC
S11355009CAD9C012E5F3F4F2BAF3CAFFC018081D3
S113551091818F8B988F1F82188617C029813A81B9
S11355208F819885820F931F2F8138854F89588DDD
S1135530240F351FF90120818B5D9E4CFC012083D3
S11355408F81988501968F8398878F89988D0E9483
S113555068369C018F81988582179307F8F28F89AA
S1135560988D0E9468369C0189819A81820F931FCD
S113557089839A832FC18BAD9CAD9C012E5F3F4FD5
S11355802BAF3CAFFC0180819181898F9A8F898DEB
S11355909A8D4AE050E061E171E30E947C361986FD
S11355A01A8615C029813A8189859A85820F931FAD
S11355B029853A852F5E3E4CF90120818B5D9E4CF6
S11355C0FC01208389859A85019689879A8781E1E0
S11355D091E30E9468369C0189859A858217930716
S11355E008F381E191E30E9468369C0189819A81E4
S11355F0820F931F89839A83EDC08BAD9CAD9C0170
S11356002E5F3F4F2BAF3CAFFC0180819181898F8E
S11356109A8F898D9A8D40E150E061E171E30E9497
S11356207C361B861C8615C029813A818B859C8516
S1135630820F931F2B853C852F5E3E4CF901208100
S11356408B5D9E4CFC0120838B859C8501968B870A
S11356509C8781E191E30E9468369C018B859C853F
S11356608217930708F381E191E30E9468369C0155
S113567089819A81820F931F89839A83ABC08BADF2
S11356809CAD9C012C5F3F4F2BAF3CAFFC01808154
S11356909181A281B3818B8F9C8FAD8FBE8F8B8DB7
S11356A09C8DAD8DBE8DAC01BD0181E191E30E9465
S11356B0C42C1D861E8615C029813A818D859E8540
S11356C0820F931F2D853E852F5E3E4CF90120816C
S11356D08B5D9E4CFC0120838D859E8501968D8774
S11356E09E8781E191E30E9468369C018D859E85A9
S11356F08217930708F381E191E30E9468369C01C5
S113570089819A81820F931F89839A8363C08BADA9
S11357109CAD9C012C5F3F4F2BAF3CAFFC018081C3
S11357209181A281B3818B8F9C8FAD8FBE8F8B8D26
S11357309C8DAD8DBE8DAC01BD0181E191E30E94D4
S1135740132E1F86188A15C029813A818F8598895E
S1135750820F931F2F8538892F5E3E4CF9012081DB
S11357608B5D9E4CFC0120838F85988901968F87E1
S1135770988B81E191E30E9468369C018F8598891A
S11357808217930708F381E191E30E9468369C0134
S113579089819A81820F931F89839A8300001AC09A
S11357A089819A818B5D9E4C2D89FC01208389819E
S11357B09A818B5D9E4CFC0180818A3031F4898111
S11357C09A818B5D9E4CFC01108289819A8101969D
S11357D089839A8389AD9AAD9C012F5F3F4F29AF8E
S11357E03AAFFC0180818D8B8D89882309F034CEFA
S11357F029813A818FA998AD820F931F449754F061
S113580024E130E08FA998ADA901481B590BCA01C6
S113581089839A83198A1A8A0EC09E012F5D3F4F8D
S113582089899A89820F931FFC01108289899A8938
S11358300196898B9A8B89899A89449774F38DA9E7
S11358408F8F8FA988A31B8A1C8A14C08B899C897B
S11358508B5D9E4CFC0140819E012F5D3F4F8B89E7
S11358609C89820F931FFC0140838B899C8901963C
S11358708B8B9C8B2B893C8989819A8128173907CA
S11358802CF38091403190914131BE01615E7F4F94
S113589000E02FEF3FEFA9010E94F10D89819A8169
S11358A0EC96CDBFDEBFDF91CF910F910895CF93DA
S11358B0DF93CDB7DEB72897CDBFDEBF8F83988740
S11358C019821A828F819885FC0180819181A2813D
S11358D0B3818B839C83AD83BE8315C020E030E00D
S11358E040E251E46B817C818D819E810E94A62FD0
S11358F0DC01CB018B839C83AD83BE8389819A8138
S1135900019689839A8320E030E040E85FE36B816D
S11359107C818D819E810E9400318823FCF615C014
S113592020E030E040E251E46B817C818D819E81F6
S11359300E940531DC01CB018B839C83AD83BE8344
S113594089819A81019789839A832DEC3CEC4CECF4
S11359505DE36B817C818D819E810E94A12F8823D0
S1135960FCF22F8138858B819C81AD81BE81F90148
S113597080839183A283B38389819A812896CDBF42
S1135980DEBFDF91CF910895CF92DF92EF92FF9225
S1135990CF93DF93CDB7DEB72E97CDBFDEBF898718
S11359A09A874B875C876D877E8719821A821B8250
S11359B01C828B859C85AD85BE8520E030E0A901E5
S11359C0BC01CD010E94A12F882359F489859A85B1
S11359D020E3FC01208389859A850196FC011082CD
S11359E018C18B859C85AD85BE8520E030E0A9017A
S11359F0BC01CD010E94A12F88239CF489859A853E
S1135A009C012F5F3F4F29873A872DE2FC012083B9
S1135A108B859C85AD85BE85B0588B879C87AD876B
S1135A20BE87CE010B960E94572C89839A8353C05C
S1135A308B859C85AD85BE8520E030E040E251E455
S1135A40BC01CD010E940531DC01CB01BC01CD01BB
S1135A500E941830DC01CB018D839E8389859A8551
S1135A609C012F5F3F4F29873A872D81205DFC01E0
S1135A7020838B859C85AD85BE8520E030E040E2A7
S1135A8051E4BC01CD010E940531DC01CB016C0164
S1135A907D018D819E81092E000CAA0BBB0BBC01DC
S1135AA0CD010E945030DC01CB019C01AD01C70146
S1135AB0B6010E94342FDC01CB018B879C87AD8714
S1135AC0BE878B819C8101968B839C8389819A817B
S1135AD0019789839A8389819A81181619060CF48F
S1135AE0A7CF8B819C81892B51F489859A859C0150
S1135AF02F5F3F4F29873A8720E3FC012083898564
S1135B009A859C012F5F3F4F29873A872EE2FC013B
S1135B10208314C089859A859C012F5F3F4F298774
S1135B203A8720E3FC01208389819A810197898344
S1135B309A838B819C8101968B839C8389819A8132
S1135B4099230CF058C08091C2209091C3202B81DE
S1135B503C8128173907F4F24EC08B859C85AD85AE
S1135B60BE8520E030E040E251E4BC01CD010E945A
S1135B700531DC01CB01BC01CD010E941830DC01F0
S1135B80CB018F83988789859A859C012F5F3F4F2E
S1135B9029873A872F81205DFC0120838B859C8592
S1135BA0AD85BE8520E030E040E251E4BC01CD018A
S1135BB00E940531DC01CB016C017D018F81988548
S1135BC0092E000CAA0BBB0BBC01CD010E94503066
S1135BD0DC01CB019C01AD01C701B6010E94342F49
S1135BE0DC01CB018B879C87AD87BE878B819C8131
S1135BF001968B839C838091C2209091C3202B813A
S1135C003C81281739070CF4A8CF89859A85FC01B3
S1135C1010822E96CDBFDEBFDF91CF91FF90EF9023
S1135C20DF90CF900895CF92DF92EF92FF92CF93BF
S1135C30DF93CDB7DEB72E97CDBFDEBF89879A87B6
S1135C404B875C876D877E871B821C828B859C8536
S1135C50AD85BE8520E030E0A901BC01CD010E94E4
S1135C60A12F882359F489859A8520E3FC01208398
S1135C7089859A850196FC011082ECC08B859C85F0
S1135C80AD85BE8520E030E0A901BC01CD010E94B4
S1135C90A12F88239CF489859A859C012F5F3F4F0F
S1135CA029873A872DE2FC0120838B859C85AD856D
S1135CB0BE85B0588B879C87AD87BE87CE010B9677
S1135CC00E94572C8B839C838B859C85AD85BE85D8
S1135CD020E030E040E251E4BC01CD010E940531F6
S1135CE0DC01CB01BC01CD010E941830DC01CB01E9
