:100000000C941E010C9447010C9447010C94470179
:100010000C9447010C9447010C9447010C94470140
:100020000C9447010C9447010C9447010C94470130
:100030000C9447010C9447010C9426060C9447013C
:100040000C9447010C9447010C9447010C94470110
:100050000C9447010C9447010C9447010C94470100
:100060000C9447010C9447010C9447010C944701F0
:100070000C9447010C9447010C9447010C944701E0
:100080000C9447010C9447010C9447010C944701D0
:100090000C9447010C9447010C9447010C944701C0
:1000A0000C9447010C9447010C9447010C944701B0
:1000B0000C9447010C9447010C9447010C944701A0
:1000C0000C9447010C9447010C9447010C94470190
:1000D0000C9447010C9447010C9447010C94470180
:1000E0000C9447010C9447010C9447010C94470170
:1000F0000C9447010C9447010C9447010C94470160
:100100000C9447010C9447010C9447010C9447014F
:100110000C9447010C9447010C9447010C9447013F
:100120000C9447010C9447010C9447010C9447012F
:100130000C9447010C9447010C9447010C9447011F
:100140000C9447010C9447010C9447010C9447010F
:100150000C9447010C9447010C9447010C944701FF
:100160000C9447010C9447010C9447010C944701EF
:100170000C9447010C9447010C9447010C944701DF
:100180000C9447010C9447010C9447010C944701CF
:100190000C9447010C9447010C9447010C944701BF
:1001A0000C9447010C9447010C9447010C944701AF
:1001B0000C947A170C9447010C9447010C94470156
:1001C0000C9447010C9447010C9447010C9447018F
:1001D0000C9447010C9447010C9447010C9447017F
:1001E0000C9447010C9447010C9447010C9447016F
:1001F0000C9447010C9447010C944701DF11DF1167
:10020000DF112C1214122912DF11DF112C1214121B
:100210000C94FD120C94360B0C9414120C942C12AA
:100220000C9439130C9448120C94B6120C94DF11F0
:100230000C9429120C9404040C941E1911241FBE52
:10024000CFEFCDBFDFE3DEBF00E00CBFE5EDFCE2AA
:100250008AEA90E48193E030F907E0F310E2A0E04D
:10026000B0E2E2EDFFE300E00BBF02C007900D92A9
:10027000A834B107D9F72CE2A8E4B0E201C01D927E
:10028000A53DB207E1F70E9488130C94E71F0C9478
:100290000000E0EAF6E080E1828380E2828380E48D
:1002A000828380E8828308958091A80684FD0EC031
:1002B00080914E2090914F2080362AEE9207E8F4EC
:1002C000019680934E2090934F2017C080914E202E
:1002D00090914F208B30910548F0C39718F0109201
:1002E000CC2C07C081E08093CC2C03C082E08093AB
:1002F000CC2C10924E2010924F208091A80685FDA4
:100300000EC080914C2090914D2080362AEE9207AD
:10031000E8F4019680934C2090934D2017C0809173
:100320004C2090914D208B30910548F0C39718F0E8
:100330001092CD2C07C081E08093CD2C03C082E0C9
:100340008093CD2C10924C2010924D208091A806C5
:1003500086FD0EC080914A2090914B2080362AEE77
:100360009207E8F4019680934A2090934B2017C09F
:1003700080914A2090914B208B30910548F0C39793
:1003800018F01092CE2C07C081E08093CE2C03C0D1
:1003900082E08093CE2C10924A2010924B208091C4
:1003A000A806882374F080914820909149208036D7
:1003B0002AEE9207E8F40196809348209093492012
:1003C000089580914820909149208B30910548F004
:1003D000C39718F01092CF2C07C081E08093CF2CE8
:1003E00003C082E08093CF2C1092482010924920C5
:1003F0000895813049F028F0823049F0833051F07F
:100400000CC08091CC2C08958091CD2C08958091C2
:10041000CE2C08958091CF2C089582E008950F93FB
:10042000CF93DF931F92CDB7DEB72FB72983F89410
:100430001BBEFC0108ED04BF608389818FBF0F9054
:10044000DF91CF910F910895662311F090E201C0E2
:1004500090E0892B482B4093520008956F71862BB2
:10046000809355000895E0E5F0E09081282F2095D5
:1004700092239083908189230895682B81E490E0F2
:100480000E940F0208950F931F93CF93C82F00E48B
:1004900010E0F8016081687F682B80E490E00E94A2
:1004A0000F02F80180818C23CF911F910F91089545
:1004B000FC019081907F692B60830895FC019181FC
:1004C000987F692B61830895FC0196819C7F692B3D
:1004D00066830895000088ED84BF81E080937900F1
:1004E00008950E946A0208958BE20E9471020895A5
:1004F0000F9301110CC0DC01CB0182239323A423B1
:10050000B523892B8A2B8B2B79F480E010C0DC017A
:10051000CB0182239323A423B523281739074A0745
:100520005B0721F080E003C081E001C081E00F9112
:100530000895CF93DF9380E190E00E941404EC01D2
:10054000009741F0FC011192119211921192CF018A
:100550000E943B04CE01DF91CF9108952F923F92EC
:100560004F925F926F927F928F929F92AF92BF92C3
:10057000CF92DF92EF92FF920F931F93CF93DF936F
:10058000EC014A015B01622E702E0E94CE0B288086
:1005900039804A805B80A5019401C201B1010E94AB
:1005A00078028823A1F0662089F1D501C4018095E5
:1005B0009095A095B09582219321A421B52188839F
:1005C0009983AA83BB83C12CD12C760122C0C1148C
:1005D000D104E104F104E9F0611004C040E050E00E
:1005E000BA0104C040E050E060E071E07110746056
:1005F000482959296A297B2997018601CE01049649
:100600000E94DD0D212C312C210103C0C12CD12CE5
:1006100076010E94B60CCD28CE28CF2889F1811111
:1006200002C00E94A6050E94240F6B017C0191FD6F
:1006300024C0F091A200FF93F87FF093A200C8803D
:10064000D980EA80FB80072DA5019401C701B6017E
:100650000E947802882371F0662061F08094909463
:10066000A094B0948C209D20AE20BF2088829982D7
:10067000AA82BB82FF91F093A200160127015524A4
:10068000C201B101DF91CF911F910F91FF90EF90C7
:10069000DF90CF90BF90AF909F908F907F906F90A2
:1006A0005F904F903F902F9008950F931F93F0917C
:1006B000A200FF93F87FF093A200FC01008111815A
:1006C0002281338140955095609570954023512348
:1006D000622373234083518362837383FF91F0937A
:1006E000A200C901B8011F910F9108954F925F9226
:1006F0006F927F92AF92BF92CF92DF92EF92FF9272
:100700000F931F93CF93DF93EC016A017B018C0160
:10071000095F1F4F0E94CE0BEB85FC858881998174
:10072000AA81BB81C82AD92AEA2AFB2AC882D9828F
:10073000EA82FB82C12CD12C76013DC0A480B58019
:1007400080819181A281B381AC01BD017727B2FD87
:100750000EC0488059806A807B80442255226622E0
:10076000772245284628472889F420E012C048808F
:1007700059806A807B804422552266227722441564
:1007800055056605770521F020E003C021E001C092
:1007900021E0222371F0B0FF04C0C42AD52AE62A42
:1007A000F72A488159816A817B817260CF010E945A
:1007B000650EEA2DFB2DE017F10709F0BFCFC094BD
:1007C000D094E094F09488819981AA81BB81C82259
:1007D000D922EA22FB22C882D982EA82FB820E94C5
:1007E000B60C688179818A819B81DF91CF911F91BD
:1007F0000F91FF90EF90DF90CF90BF90AF907F90E0
:100800006F905F904F9008950E94760308950F9324
:100810001F9389019A01AB01BC0184E094E00E941E
:1008200057121F910F910895CF93DF93EC010E940F
:10083000CE0B2091502030915120C9018C0F9D1F6B
:10084000883B4BE0940758F42817390758F4E9011E
:10085000CE5ADF4D809350209093512005C0C0E0C8
:10086000D0E002C0C0E0D0E00E94B60CCE01DF9123
:10087000CF9108950895FC010396818392834FEFF1
:100880005FEFBA01438354836583768387839087C0
:100890008187928710820895FC011286138608953D
:1008A000CF93DF939C01FB01DC011196CD91DC918C
:1008B0001297C483D5838E819F81868397838E818F
:1008C0009F81DC0114966D937C9315976E837F83D3
:1008D00022873387F90180818F5F8083DF91CF91F9
:1008E00008950F931F93CF93DF93EB010881198134
:1008F0002A813B810F3F4FEF14072407340721F46F
:10090000FC01A185B28511C0DC01139601C0DF0195
:100910001496ED91FC91159740815181628173810C
:10092000041715072607370790F71496ED91FC91E9
:100930001597EC83FD83C683D783AE83BF8314965C
:10094000CD93DC9315978A879B87FC0120812F5FCD
:100950002083DF91CF911F910F910895CF93DF9363
:10096000FC01A285B385C481D581868197818E8360
:100970009F83C681D781848195818C839D831196C5
:100980008D919C911297E817F90731F48681978130
:1009900011968D939C931297128613868C91815099
:1009A0008C938C91DF91CF91089583EF91E08093A8
:1009B00026089093270865E080E098E00E9458029E
:1009C00061E080E098E00E9464020895E0EAF0E0CF
:1009D00082819281987F92830895CF930E94E6044A
:1009E000C82F0E94E60BC093A200CF910895CF922A
:1009F000DF92EF92FF9231E1FC013083319722E2E6
:100A000020833197A3E3A0836B01E12CF12C319774
:100A100060833197D0823197E082319761E36083C0
:100A2000319760E86083319767E86083319710827F
:100A300031971082319762E06083319763E0608381
:100A4000319764E06083319765E06083319766E0B9
:100A50006083319767E06083319768E06083319706
:100A600069E06083319760E160833197308331972B
:100A700032E13083319733E13083319734E1308391
:100A8000319735E13083319736E13083319737E163
:100A90003083319738E13083319739E130833197B2
:100AA00030E23083319731E23083319720833197C0
:100AB00023E220836A01319740833197D0823197B6
:100AC00026E22083319727E22083319728E2208392
:100AD000319729E22083319720E320838897FF9084
:100AE000EF90DF90CF9008950E94D504A091782CCC
:100AF000B091792C0D900DBE0D900EBEEF91DF914F
:100B0000CF91BF91AF919F918F917F916F915F91A5
:100B10004F913F912F911F910F91FF90EF90DF9098
:100B2000CF90BF90AF909F908F907F906F905F908D
:100B30004F903F902F901F900F90FF91F093A20045
:100B4000FF91FFBFFF91089581E00895FF93FFB7E4
:100B5000FF93F091A200FF93F87FF093A2000F9211
:100B60001F9211242F923F924F925F926F927F9229
:100B70008F929F92AF92BF92CF92DF92EF92FF92AD
:100B80000F931F932F933F934F935F936F937F9395
:100B90008F939F93AF93BF93CF93DF93EF93A091E6
:100BA000782CB091792C0DB60D920EB60D920E9454
:100BB000440DA091782CB091792C0D900DBE0D9024
:100BC0000EBEEF91DF91CF91BF91AF919F918F9129
:100BD0007F916F915F914F913F912F911F910F9155
:100BE000FF90EF90DF90CF90BF90AF909F908F904D
:100BF0007F906F905F904F903F902F901F900F903D
:100C0000FF91F093A200FF91FFBFFF910895CF9352
:100C10009091D02C892B8093D02C9091A000913072
:100C200041F09091A000923021F09091A00094307A
:100C300059F4882349F00E94E604C82F1092D02C62
:100C40000E94440DC093A200CF910895FF93FFB777
:100C5000FF93F091A200FF93F87FF093A2000F9210
:100C60001F9211242F923F924F925F926F927F9228
:100C70008F929F92AF92BF92CF92DF92EF92FF92AC
:100C80000F931F932F933F934F935F936F937F9394
:100C90008F939F93AF93BF93CF93DF93EF93A091E5
:100CA000782CB091792C0DB60D920EB60D920E9453
:100CB000ED0481E00E940706A091782CB091792C78
:100CC0000D900DBE0D900EBEEF91DF91CF91BF91B3
:100CD000AF919F918F917F916F915F914F913F91D4
:100CE0002F911F910F91FF90EF90DF90CF90BF90C9
:100CF000AF909F908F907F906F905F904F903F90BC
:100D00002F901F900F90FF91F093A200FF91FFBFD3
:100D1000FF911895F091A200FF93F87FF093A20045
:100D2000FC01868D811102C081E001C080E0FF914D
:100D3000F093A2000895F091A200FF93F87FF09342
:100D4000A200FC01268D878D281302C081E001C01E
:100D500080E0FF91F093A20008950F931F93CF932B
:100D6000DF93EC01042F1E8D48A14423B9F101113A
:100D700016C050E08C819D810E94C51C28A18C81E9
:100D80009D81820F911D8C839D832A813B818217D7
:100D9000930720F1888199818C839D831FC050E047
:100DA0008E819F810E94C51C88A190E091958195BC
:100DB00091092E813F81280F391F2E833F8348815F
:100DC00059812417350730F42A813B81820F931F04
:100DD0008E839F83023011F4111111501F5F1E8FFB
:100DE00080E0DF91CF911F910F910895FC0140A108
:100DF0004423A9F050E026813781240F351F268334
:100E00003783828193812817390720F0808191816F
:100E100086839783CB01668177810E94C51C0895E4
:100E20001F93CF93DF93EC01F091A200FF93F87F23
:100E3000F093A2001AA10BC08B89882351F0CE0138
:100E400043960E94230E81110E94120F1150111619
:100E50009CF38FEF8AA3FF91F093A200F091A20080
:100E6000FF93F87FF093A20019A10BC08885882317
:100E700051F0CE0108960E94230E81110E94120F9C
:100E8000115011169CF38FEF89A3FF91F093A200EC
:100E9000DF91CF911F910895CF93DF93EC01F091F3
:100EA000A200FF93F87FF093A200E881F9818F8D73
:100EB00090E028A130E0829FA001839F500D929F77
:100EC000500D11244E0F5F1F4A835B831E8EEC83EF
:100ED000FD830197289FA001299F500D389F500D39
:100EE0001124CF01840F951F8E839F838FEF89A3D9
:100EF0008AA361110CC08885882389F0CE010896E9
:100F00000E94230E882359F00E94A60508C0CE0136
:100F100008960E943B04CE0143960E943B04FF9139
:100F2000F093A20081E0DF91CF910895FF920F939B
:100F30001F93CF93DF93F22EE801611103C0088362
:100F4000198302C0488359838F8F68A361E0CE0163
:100F50000E944C07FCA2DF91CF911F910F91FF904F
:100F60000895DF92EF92FF920F931F93CF93DF9339
:100F7000E82EF62ED42E662321F0869FC001112480
:100F800002C080E090E085960E941404EC01009776
:100F900049F08C012D2DAC014B5D5F4F6F2D8E2DD7
:100FA0000E949607CE01DF91CF911F910F91FF9084
:100FB000EF90DF900895CF92DF92EF92FF920F9320
:100FC0001F93CF93DF93CDB7DEB72997CDBFDEBF99
:100FD0007C016B012E833F834887598710E0F09195
:100FE000A200FF93F87FF093A200F701968D878D02
:100FF000981710F00230D1F4402FB601C7010E94BB
:10100000AD06F7019389992349F0C70143960E94E1
:10101000230E882331F00E94A60503C081110E948F
:10102000A605FF91F093A20081E058C08E819F81B8
:10103000A885B985892B8A2B8B2B29F4FF91F093F6
:10104000A20080E04BC0111105C0CE0101960E94A4
:10105000990E11E0FF91F093A2000E94CE0BF09147
:10106000A200FF93F87FF093A200F70181A18F3FC8
:1010700009F411A2F70182A18F3F09F412A2FF9196
:10108000F093A200BE016A5F7F4FCE0101960E94DD
:10109000AA0E81111DC0C7010E949B06882391F0F2
:1010A0004E815F8168857985C70108960E94C50DCC
:1010B000C7010E9410070E94B60C811190CF0E94B8
:1010C000A6058DCFC7010E9410070E94B60C87CFDE
:1010D000C7010E9410070E94B60C80E02996CDBF80
:1010E000DEBFDF91CF911F910F91FF90EF90DF90C6
:1010F000CF900895AF92BF92CF92DF92FF920F935D
:101100001F93CF93DF93EC016B015A01022F0E94D2
:10111000E604F82E9E8D8F8D981710F00230E1F4C2
:101120001AA1402FB601CE010E94AD061F3F81F4E7
:101130008B89882399F0CE0143960E94230E882341
:1011400079F0A114B10471F081E0F50180830BC046
:101150001F5F1AA381E007C080E005C081E003C0E3
:1011600081E001C081E0F092A200DF91CF911F9158
:101170000F91FF90DF90CF90BF90AF900895CF92E6
:10118000DF92EF92FF920F931F93CF93DF93CDB730
:10119000DEB72997CDBFDEBF8C016B012E833F8365
:1011A00048875987E12CF091A200FF93F87FF093D4
:1011B000A200F801F68CFF20B1F0B601C8010E9430
:1011C000F606FA94F801F68E8085882339F0C80176
:1011D00008960E94230E81110E94A605FF91F093AC
:1011E000A20081E05FC08E819F81A885B985892B8F
:1011F0008A2B8B2B29F4FF91F093A20080E052C040
:10120000E11006C0CE0101960E94990EEE24E394EF
:10121000FF91F093A2000E94CE0BF091A200FF93E9
:10122000F87FF093A200F80181A18F3F09F411A289
:10123000F80182A18F3F09F412A2FF91F093A2005E
:10124000BE016A5F7F4FCE0101960E94AA0E8111F6
:101250001DC0C8010E948A06882391F04E815F81DB
:1012600068857985C80143960E94C50DC8010E9412
:1012700010070E94B60C811196CF0E94A60593CF4D
:10128000C8010E9410070E94B60C8DCFC8010E94B1
:1012900010070E94B60CC8010E948A06882309F430
:1012A00082CF80E02996CDBFDEBFDF91CF911F9125
:1012B0000F91FF90EF90DF90CF900895F091A200F2
:1012C000FF93F87FF093A200FC01868DFF91F093CD
:1012D000A2000895CF93DF93EC01F091A200FF9359
:1012E000F87FF093A20089A18F3F09F419A28AA187
:1012F0008F3F09F41AA2FF91F093A2008E8D811105
:1013000004C0CE0143960E94020ECE010E94100737
:10131000DF91CF910895E091342CF091352C8081AC
:1013200081110CC08FEF9FEFDC0180930D2C909307
:101330000E2CA0930F2CB093102C0895E091342C18
:10134000F091352C0780F085E02D0084F185E02DAB
:1013500082819381A481B58180930D2C90930E2C72
:10136000A0930F2CB093102C08952F923F924F9280
:101370005F926F927F928F929F92AF92BF92CF9225
:10138000DF92EF920F931F93CF93DF93CDB7DEB72A
:101390001C014B0129013A01A90165EA70E0F50140
:1013A000838D948D0E94CE1CF501838D948DF1E088
:1013B0004F1A5108480E591E20E00FC0822F90E0AE
:1013C000F401E80FF91F3081D501A80FB91F5D9610
:1013D0003C938081882319F02F5F283078F3F50142
:1013E00014A2F3E0FE1520F40F2EF3E0EF2EF02D03
:1013F000F501E28EC50102960E944C04C5010E96CD
:101400000E944C04F501A286B38684E090E0A0E03F
:10141000B0E08E199109A109B10986879787A08B41
:10142000B18BA68AB78A17A210A611A612A613A678
:10143000A801B101C2010E94F704F50180839183E4
:10144000C114D10419F0F601A082B182DF91CF91CD
:101450001F910F91EF90DF90CF90BF90AF909F9032
:101460008F907F906F905F904F903F902F90089556
:10147000CF93C0E009C02BE0C29FC0011124845B60
:10148000934D0E943B04CF5FC430A8F381E49CE2FB
:101490000E943B0486E39CE20E943B0487E29CE2BC
:1014A0000E943B048CE19CE20E943B0481E49CE2AC
:1014B0008093342C9093352C86E39CE28093322CDD
:1014C0009093332CCF910895CF93DF93EC01F0915B
:1014D000A200FF93F87FF093A20080911B2C8F5FF6
:1014E00080931B2C8091782C9091792C892B59F426
:1014F000C093782CD093792C80911B2C813099F457
:101500000E94380A10C08091152C81110CC0E09106
:10151000782CF091792C928D8A8D891720F0C093C8
:10152000782CD093792C8091112C8F5F8093112C83
:101530008DA38A8D9091162C981710F48093162CF9
:101540002BE0829FC0011124BE016E5F7F4F845B40
:10155000934D0E945004FF91F093A2008091152CAE
:10156000882351F0E091782CF091792C928D8A8D1E
:10157000981710F40E94A605DF91CF9108958F92DD
:101580009F92AF92BF92CF92DF92EF92FF92CF9352
:101590006B017C01C42F8090172C9090182CA09088
:1015A000192CB0901A2C8091782C9091792C02965D
:1015B0000E94AE048FEFC816D806E806F80669F454
:1015C000CC2359F06091782C7091792C6E5F7F4F0D
:1015D0008CE19CE20E9450043FC0C80CD91CEA1C5C
:1015E000FB1CE091782CF091792CC282D382E482AA
:1015F000F582C814D904EA04FB0468F46091782CDD
:101600007091792C8091322C9091332C6E5F7F4FAA
:101610000E94710421C06091782C7091792C809186
:10162000342C9091352C6E5F7F4F0E947104809115
:101630000D2C90910E2CA0910F2CB091102CC8164F
:10164000D906EA06FB0640F4C0920D2CD0920E2C6F
:10165000E0920F2CF092102CCF91FF90EF90DF9042
:10166000CF90BF90AF909F908F90089580914C2C19
:10167000823010F00E94A6050E948713F7CF2F92A8
:101680003F924F925F926F927F928F929F92AF9212
:10169000BF92CF92DF92EF92FF920F931F93CF935F
:1016A000DF933C011B015A012901CA010E94140465
:1016B0006C01892B71F08CE290E00E941404EC0123
:1016C000892B19F0CB8EDC8E06C0C6010E943A042D
:1016D00002C0C0E0D0E0209791F0950140E050E0DA
:1016E000812C912C5E016701E02E8201B101C301C2
:1016F0000E94B509CE010E94640A81E001C08FEF0B
:10170000DF91CF911F910F91FF90EF90DF90CF90DD
:10171000BF90AF909F908F907F906F905F904F9011
:101720003F902F900895EF92FF920F930F2EFBE0C2
:10173000EF2EFCE2FF2EF02D00E020E030E048EC40
:1017400050E060E070E286E39BE00E943F0B813056
:1017500011F40E94DA0F8130E9F4E0EAF0E08281CE
:10176000887F82838FEF9FEFDC0180930D2C909315
:101770000E2CA0930F2CB093102C81E08093152C8D
:101780001092172C1092182C1092192C10921A2CBF
:101790000E9474050F91FF90EF90089580910A2C9C
:1017A0008F5F80930A2C0895F091A200FF93F87F39
:1017B000F093A2006091172C7091182C8091192C35
:1017C00090911A2CFF91F093A2000895BF92CF92AE
:1017D000DF92EF92FF920F931F93CF93DF9380914D
:1017E0000A2C8111A9C0C090172CD090182CE09021
:1017F000192CF0901A2C2FEFC21AD20AE20AF20A20
:10180000C092172CD092182CE092192CF0921A2C1E
:10181000C114D104E104F104B9F48091342C909105
:10182000352C2091322C3091332C2093342C309352
:10183000352C8093322C9093332C8091122C8F5F17
:101840008093122C0E948B0980910D2C90910E2C6C
:10185000A0910F2CB091102CC816D906EA06FB06F1
:1018600028F4B12C5AC0BB24B39401C0B12CE09130
:10187000342CF091352C808181110CC08FEF9FEFBB
:10188000DC0180930D2C90930E2CA0930F2CB09321
:10189000102C43C0E091342CF091352C0780F0855A
:1018A000E02DC085D1858A819B81AC81BD81C81620
:1018B000D906EA06FB0648F480930D2C90930E2C73
:1018C000A0930F2CB093102C28C08E010E5F1F4FD9
:1018D000C8010E94AE04888D998D892B21F0CE011C
:1018E0000E960E94AE048A8D9091162C981710F4D3
:1018F0008093162C2BE0829FC0011124B801845BD9
:10190000934D0E9450049A8DE091782CF091792C9F
:10191000828D981708F0A7CFAACFE091782CF0918C
:10192000792CE28D8BE0E89FF0011124E45BF34D0C
:101930008081823040F409C08091142C8F5F8093A5
:10194000142CB12C02C0BB24B3948091132C882397
:1019500011F0BB24B3948B2DDF91CF911F910F9188
:10196000FF90EF90DF90CF90BF9008950F931F935B
:10197000CF93DF93F091A200FF93F87FF093A20042
:1019800080910A2C815080930A2C80910A2C81111D
:1019900052C080911B2C81112DC050C0E0912E2C83
:1019A000F0912F2CC085D185CE010E960E94AE04F9
:1019B0008E010E5F1F4FC8010E94AE048A8D909168
:1019C000162C981710F48093162C2BE0829FC001E0
:1019D0001124B801845B934D0E9450049A8DE091CC
:1019E000782CF091792C828D981730F081E08093DB
:1019F000132C02C0C0E0D0E08091272C8111CECF03
:101A0000CD2B11F00E948B09C091142CCC2359F0DE
:101A10000E94E60B882319F081E08093132CC150BB
:101A2000B9F71092142C8091132C882331F00E9466
:101A3000A60581E003C080E001C080E0FF91F09343
:101A4000A200DF91CF911F910F910895CF92DF9265
:101A5000EF92FF926B017C01672B682B692B51F091
:101A60000E94CE0B40E0C701B6010E94BF0A0E944F
:101A7000B60C01C080E0811102C00E94A605FF9053
:101A8000EF90DF90CF90089580910A2C882321F069
:101A900081E08093132C08951092132CE091782C00
:101AA000F091792C038CF48DE02D80819181A281BD
:101AB000B381853A954AA54AB54AD9F4848195817E
:101AC000A681B781853A954AA54AB54A91F48085A1
:101AD0009185A285B385853A954AA54AB54A49F4C8
:101AE00084859585A685B785853A954AA54AB54AE0
:101AF00061F06091782C7091792C635E7F4F8091BA
:101B0000782C9091792C0E9474028091162C01C03F
:101B10008150282F30E09BE0929FF001939FF00DC1
:101B20001124E45BF34D9081992391F39BE0929F04
:101B3000A001939F500D1124DF010180F281E02D5F
:101B40000480F581E02D1196ED93FC931297415B93
:101B5000534DE417F50729F444815581FD01418374
:101B600052839BE0929FF001939FF00D1124E45B60
:101B7000F34D0180F281E02D208531852093782C72
:101B80003093792C8093162C0895CF92DF92EF92A8
:101B9000FF926A017B016091782C7091792C625FD1
:101BA0007F4F0E94710441E0C701B6010E94BF0A45
:101BB000FF90EF90DF90CF900895CF92DF92EF9259
:101BC000FF920F931F9368017901E091782CF091B7
:101BD000792C706846875787608B718B6091782C61
:101BE0007091792C625F7F4F0E94500441E0C701E1
:101BF000B6010E94BF0A1F910F91FF90EF90DF90F6
:101C0000CF900895CF92DF92EF92FF92CF936A0127
:101C10007B01C22F6091782C7091792C625F7F4F8D
:101C20000E945004CC2321F0CC24CA94DC2C7601F1
:101C30004C2FC701B6010E94BF0ACF91FF90EF90D1
:101C4000DF90CF9008950F931F93CF93DF93DC0124
:101C50001796ED91FC911897C085D1858E01025F92
:101C60001F4FC8010E94AE0480910A2C811116C03A
:101C70000C501109C8010E94AE048A8D9091162C57
:101C8000981710F48093162CBBE08B9FC001112491
:101C9000B801845B934D0E94500405C0B80187E2EF
:101CA0009CE20E9450049A8DE091782CF091792C5E
:101CB000828D891720F481E08093132C01C080E08D
:101CC000DF91CF911F910F9108950F931F93CF93A1
:101CD000DF937068FC014083518362837383C08506
:101CE000D1850E94AE048E010E5F1F4FC8010E9475
:101CF000AE048A8D9091162C981710F48093162CB0
:101D0000FBE08F9FC0011124B801845B934D0E94BA
:101D100050049A8DE091782CF091792C828D89175E
:101D200018F481E08093132CDF91CF911F910F91D4
:101D300008952091122CFC0120834091172C509182
:101D4000182C6091192C70911A2C41835283638353
:101D5000748308958F929F92AF92BF92CF92DF9239
:101D6000EF92FF920F931F93CF93DF93DB01F091DC
:101D7000A200FF93F87FF093A200C090172CD090A0
:101D8000182CE090192CF0901A2CEC0109811A8182
:101D90002B813C8146015701801A910AA20AB30A9D
:101DA0004D915D916D917C9113974F3FDFEF5D07F2
:101DB0006D077D0721F1EC01F881E091122CFE17EF
:101DC00029F0C016D106E206F306D8F4841695066B
:101DD000A606B70668F4481959096A097B094D93A4
:101DE0005D936D937C9313970E94990E80E00AC0D7
:101DF0001D921D921D921C92139781E003C080E0FA
:101E000001C081E0FF91F093A200DF91CF911F917B
:101E10000F91FF90EF90DF90CF90BF90AF909F9089
:101E20008F90089581E08093132C08958091152C54
:101E3000882331F080910A2C811104C082E008953A
:101E400081E0089580E00895CF92DF92EF92FF92B3
:101E5000E091782CF091792C66857785808991893D
:101E6000E091782CF091792CA091782CB091792C7C
:101E70005A962C91C12CD12C76016894C2F8C21AC2
:101E8000D108E108F108C686D786E08AF18AFF907A
:101E9000EF90DF90CF900895DC01E091842CF091D9
:101EA000852C808191E0811190E09C93911108C074
:101EB0000780F085E02D6081718182819381089592
:101EC00060E070E0CB010895CF92DF92EF92FF9235
:101ED0000F931F93FC01428353836483758382872E
:101EE00093870417150726073707C0F00C191D093B
:101EF0002E093F0986859785A089B189081719079A
:101F00002A073B0700F5BF016E5F7F4F8091822C4F
:101F10009091832C0E94710480E018C00C151D055F
:101F20002E053F0528F44C155D056E057F0568F408
:101F3000BF016E5F7F4F8091842C9091852C0E9411
:101F4000710480E003C081E001C081E01F910F9126
:101F5000FF90EF90DF90CF900895F091A200FF9353
:101F6000F87FF093A2008091802C9091812C892B96
:101F7000E9F481E99CE20E943B0486E89CE20E942D
:101F80003B0481E99CE28093842C9093852C86E825
:101F90009CE28093822C9093832C40E069E085E062
:101FA0000E94B1078093802C9093812CFF91F09335
:101FB000A2000895EF92FF920F930E94AD0F8091BF
:101FC000802C9091812C892B91F00F2EFEE7EF2E23
:101FD000FCE2FF2EF02D03E020E030E048EC50E082
:101FE00065E070E288E492E10E943F0B01C080E06E
:101FF0000F91FF90EF9008958F929F92AF92BF92B2
:10200000CF92DF92EF92FF920F931F93CF93DF93C4
:10201000CDB7DEB72997CDBFDEBFE091802CF09120
:10202000812C309789F169832A833B834C835D83BC
:102030008E839F836630FCF40E94160F823069F411
:1020400000E0A7019601BE016F5F7F4F8091802C59
:102050009091812C0E94DB0718C000E020E030E066
:10206000A901BE016F5F7F4F8091802C9091812CE0
:102070000E94DB070AC020E0A801BE016F5F7F4F0E
:10208000CF010E947A0801C080E02996CDBFDEBF53
:10209000DF91CF911F910F91FF90EF90DF90CF9044
:1020A000BF90AF909F908F9008958F929F92AF9224
:1020B000BF92CF92DF92EF92FF920F931F93CF9335
:1020C000DF933CC00780F085E02D80809180A28066
:1020D000B380C085D1858E010E5F1F4FC8010E945D
:1020E000AE04ED89FE89CE0119958A89813031F5DA
:1020F0008E859F85A889B989880D991DAA1DBB1D4C
:1021000088169906AA06BB0670F48A839B83AC8363
:10211000BD83CA87DB87B8018091842C9091852C80
:102120000E9471040BC0C12CD12C760100E010E09C
:10213000A501940160E0CE010E94FC0FE091842C87
:10214000F091852C80818111BDCF8091822C90915E
:10215000832C8093842C9093852CE093822CF09395
:10216000832CDF91CF911F910F91FF90EF90DF9023
:10217000CF90BF90AF909F908F900895CF92DF92B5
:10218000EF92FF92CF93DF93EC010E94D40B6B018F
:102190007C0180917A2C90917B2CA0917C2CB09129
:1021A0007D2CC816D906EA06FB0628F40E945510B5
:1021B00081E0888301C01882C0927A2CD0927B2C57
:1021C000E0927C2CF0927D2CC701B601DF91CF917B
:1021D000FF90EF90DF90CF9008954F925F926F92B3
:1021E0007F928F929F92AF92BF92CF92DF92EF92A7
:1021F000FF920F931F93CF93DF934B015C01290153
:102200003A01E091842CF091852C0780F085E02D37
:10221000C085D185CE0102960E94AE048A898130A4
:10222000E1F44E855F8568897989480D591D6A1DDD
:102230007B1D7501640193018201CE010E94640F30
:10224000882359F0C12CD12C760100E010E0A501C3
:10225000940160E0CE010E94FC0FED89FE89CE0161
:102260001995DF91CF911F910F91FF90EF90DF9023
:10227000CF90BF90AF909F908F907F906F905F9026
:102280004F9008958F929F92AF92BF92CF92DF921C
:10229000EF92FF921F93CF93DF931F92CDB7DEB7DC
:1022A0006B017C01142F0E94CE0BCE0101960E947F
:1022B000BE104B015C01898181112EC011110EC02D
:1022C0008C149D04AE04BF0448F00E94B60CA50116
:1022D0009401C701B6010E94ED1020C0112341F006
:1022E000E091822CF091832C808111E0811110E02B
:1022F000B701A601481959096A097B09212F809164
:10230000802C9091812C0E946A090E94B60C811148
:1023100005C00E94A60502C00E94B60C0F90DF9176
:10232000CF911F91FF90EF90DF90CF90BF90AF9033
:102330009F908F900895AF92BF92CF92DF92EF92CD
:10234000FF920F931F93CF93DF93CDB7DEB72A97FA
:10235000CDBFDEBF81C0898188234CF4EA81FB8137
:102360004E815F81688579858C819D8119958981F0
:1023700088230CF471C0AE80BF80D5011C968D916E
:102380009C911D97892B21F0C50102960E94AE04F5
:10239000CE010A960E94BE108B019C018981082EF5
:1023A000000C990BAA0BBB0B8A30910508F054C0A6
:1023B000FC018827E250FF4F8F4F0C94BD1CCA8050
:1023C000DB80EC80FD80F501468557856089718949
:1023D0004C0D5D1D6E1D7F1DC5010E94640F88237D
:1023E000D9F1D5015596ED91FC915697C5011995F6
:1023F000F5018289813081F54A815B816C817D8123
:1024000086859785A089B1899A01AB01280F391F6C
:102410004A1F5B1FC12CD12C760100E010E060E068
:10242000C5010E94FC0F18C04A815B816C817D81CF
:10243000D5011E964D935D936D937C935197400FFC
:10244000511F621F731F68017901C5010E94640F4B
:1024500003C0C5010E943A0420E030E0A901BE019A
:102460006F5F7F4F8091802C9091812C0E94BF08DC
:10247000811171CF2A96CDBFDEBFDF91CF911F9121
:102480000F91FF90EF90DF90CF90BF90AF900895A5
:10249000CF93DF931F92CDB7DEB7CE0101960E9496
:1024A0004C0F49810E9442110E949B11F6CF0F935D
:1024B0001F93CF93DF93CDB7DEB72997CDBFDEBF94
:1024C000EEEFE9838A839B836C837D832E833F8336
:1024D0004887598720E0A801BE016F5F7F4F809138
:1024E000802C9091812C0E947A082996CDBFDEBF66
:1024F000DF91CF911F910F910895E0E5F0E0808189
:10250000816080838091510080FFFCCF80E00E9439
:1025100043028EE10E94330260E080E00E943D02AF
:1025200043E060E080E40E942402E0E5F0E0808186
:10253000886080838091510083FFFCCF64E080EC51
:102540000E942E02E0E5F0E080818061808360E0FF
:1025500080E00E943D028091510084FFFCCF84E026
:102560000E94430287E00E94330208950F2E812CBF
:10257000912CF0E8AF2EFFE3BF2EF02DC12CD12C13
:102580007601D701C601880F991FAA1FBB1FBC0186
:10259000CD016F5F7F4F8F4F9F4F0E943E1B9B016E
:1025A000AC01C501B4010E94961A20E030E040E879
:1025B00050E40E94F51B2091A02C3091A12C409159
:1025C000A22C5091A32C0E94251A6093A02C7093EA
:1025D000A12C8093A22C9093A32CB7FAB094B7F8B7
:1025E000B0948FEFC81AD80AE80AF80A6AE070E0D7
:1025F00080E090E00E94260DC4CF812C912C5401E4
:102600000F2EC12CD12CF0E8EF2EFFE3FF2EF02D82
:1026100020E030E040E050E4C501B4010E94251AFA
:102620000E94681C4B015C0120E030E040E05FE369
:102630000E94F51B9B01AC01C701B6010E94F51B6E
:102640006B017C019B01AC0160E070E080E090E4F4
:102650000E94961A60939C2C70939D2C80939E2CC4
:1026600090939F2C6AE070E080E090E00E94260D3D
:10267000CFCFCF93DF93CDB7DEB72C97CDBFDEBFE3
:102680000E9449010E94540180E00E94F9018130BA
:1026900011F580E48F9389E48F938FE08F938BED16
:1026A0008F938DE090E29F938F938E010F5F1F4F6A
:1026B0001F930F930E94FA1C1F930F9386E190E2E1
:1026C0009F938F931F921F921F9281E08F930E947E
:1026D000121ACDBFDEBF81E00E94F90182E00E94A4
:1026E000F90183E00E94F90180E00E94F90181E094
:1026F0000E94F90182E00E94F90183E00E94F90141
:102700006AE070E080E090E00E94260DBBCF089563
:10271000EF92FF920F930E947D120E948618E12C87
:10272000F12C03E020E030E04EE551E069E170E299
:1027300089E393E10E943F0B20E030E042ED50E05E
:1027400065E270E286EB92E10E943F0B02E020E03E
:1027500030E042ED50E061E370E28DEF92E10E94E3
:102760003F0B0E94930B80E090E00F91FF90EF9061
:102770000895CF92DF92EF92FF920F931F93CF9322
:10278000DF938C01FC01C080D180E280F380C0E047
:10279000D0E00BC020E030E040E251E4C701B601D8
:1027A0000E94961A6B017C01219620E030E040E8FF
:1027B0005FE3C701B6010E94F01B88235CF70BC0E2
:1027C00020E030E040E251E4C701B6010E94F51B71
:1027D0006B017C0121972DEC3CEC4CEC5DE3C701D7
:1027E000B6010E94911A88235CF3F801C082D1825D
:1027F000E282F382CE01DF91CF911F910F91FF9082
:10280000EF90DF90CF9008954F925F926F927F92FA
:102810008F929F92AF92BF92CF92DF92EF92FF92F0
:102820000F931F93CF93DF9300D01F92CDB7DEB7E6
:102830005C01E42EF52E062F172F49835A836B83F4
:102840007C8320E030E0A9016E2D7F2D802F912F19
:102850000E94911A811105C080E3F50180831182E5
:10286000B9C020E030E0A9016E2D7F2D802F912F7F
:102870000E94911A88237CF48DE2F501808389817E
:102880009A81AB81BC81B05889839A83AB83BC8326
:10289000C50101965C01CE0101960E94B9137C012D
:1028A00000E010E038C020E030E040E251E469810F
:1028B0007A818B819C810E94F51B0E94081B2B0151
:1028C0003C0165019FEFC91AD90A80E3840DF50127
:1028D000808320E030E040E251E469817A818B819D
:1028E0009C810E94F51B4B015C01B201550C880BC9
:1028F000990B0E94401B9B01AC01C501B4010E94D1
:10290000241A69837A838B839C830F5F1F4FF1E0C6
:10291000EF1AF10856011E141F042CF201151105BF
:1029200031F480E3F5018083C50101965C01650106
:102930009FEFC91AD90A8EE2F50180830BC080E3AC
:10294000F6018083F1E0EF1AF1080F5F1F4FC60117
:1029500001966C01FF20CCF50430110584F335C0DD
:1029600020E030E040E251E469817A818B819C81F2
:102970000E94F51B0E94081B4B015C0176019FEF32
:10298000E91AF90A80E3880DF601808320E030E03F
:1029900040E251E469817A818B819C810E94F51B20
:1029A0002B013C01B401990C880B990B0E94401B30
:1029B0009B01AC01C301B2010E94241A69837A838E
:1029C0008B839C830F5F1F4F67010430110544F216
:1029D000F60110822496CDBFDEBFDF91CF911F910B
:1029E0000F91FF90EF90DF90CF90BF90AF909F90AE
:1029F0008F907F906F905F904F9008952F923F92AD
:102A00004F925F926F927F928F929F92AF92BF92FE
:102A1000CF92DF92EF92FF920F931F93CF93DF93AA
:102A2000CDB7DEB72897CDBFDEBF7C01C42ED52E33
:102A3000062F172F49835A836B837C8320E030E075
:102A4000A9016C2D7D2D802F912F0E94911A81114B
:102A500005C080E3F70180831182A2C020E030E04E
:102A6000A9016C2D7D2D802F912F0E94911A882312
:102A70007CF48DE2F701808389819A81AB81BC81EE
:102A8000B05889839A83AB83BC83C70101967C01CC
:102A9000CE0101960E94B9135C0120E030E040E2D3
:102AA00051E469817A818B819C810E94F51B0E948F
:102AB000081B2B013C0180E3840DF701808320E09B
:102AC00030E040E251E469817A818B819C810E94EF
:102AD000F51B6D837E838F839887B201550C880B1D
:102AE000990B0E94401B9B01AC016D817E818F81FF
:102AF00098850E94241A69837A838B839C831501AD
:102B0000F1E02F1A310887010E5F1F4F8EE2F701A7
:102B10008183E12CF12C36C020E030E040E251E42A
:102B200069817A818B819C810E94F51B0E94081B20
:102B30002B013C016801FFEFCF1ADF0A80E3840D0F
:102B4000F801808320E030E040E251E469817A813D
:102B50008B819C810E94F51B4B015C01B201550CDD
:102B6000880B990B0E94401B9B01AC01C501B4016D
:102B70000E94241A69837A838B839C83FFEFEF1A68
:102B8000FF0A860184E0E816F10434F2B8016F5FB1
:102B90007F4F85E6F80180834AE0C1010E94D51C81
:102BA0002896CDBFDEBFDF91CF911F910F91FF908F
:102BB000EF90DF90CF90BF90AF909F908F907F90DD
:102BC0006F905F904F903F902F9008956F927F92FB
:102BD0008F929F92BF92CF92DF92EF92FF920F93CC
:102BE0001F93CF93DF93CDB7DEB76697CDBFDEBF20
:102BF000B82E8B01DA01390180E090E005C0FC01BC
:102C0000E854F34D1082019684319105C4F380E0BD
:102C100090E005C0FC01EC55F34D10820196843123
:102C20009105C4F3E12CF12C14C1853209F001C1E6
:102C30006D0182E0C80ED11C11968C91853609F485
:102C4000CDC038F48336C1F008F049C0853251F068
:102C5000FFC08337F9F0883709F46BC0863609F076
:102C6000F7C091C0D701AC55B34D85E28C939FEF6F
:102C7000E91AF90AD601EDC0F3018081D701AC55FC
:102C8000B34D8C93FFEFEF1AFF0AC30102963C018C
:102C9000D601DFC093012E5F3F4FF301A081B181C8
:102CA00080E090E00DC0B701680F791FAD01480FBB
:102CB000591FFA014081FB01EC55F34D4083019609
:102CC000FD0101900020E9F73197EA1BFB0B8E17FD
:102CD0009F0748F3EE0EFF1E3901D601BAC043012B
:102CE000F2E08F0E911C4AE068EB7CE2F3018081F8
:102CF00091810E94D51C80E090E00BC0F701E80FA5
:102D0000F91FDC01A854B34D2C91EC55F34D2083F1
:102D10000196E8EBFCE201900020E9F73197E85BCF
:102D2000FC428E179F0750F3EE0EFF1E3401D601B2
:102D300090C04301F2E08F0E911C40E168EB7CE211
:102D4000F301808191810E94D51C80E090E00BC04E
:102D5000F701E80FF91FDC01A854B34D2C91EC5595
:102D6000F34D20830196E8EBFCE201900020E9F7A7
:102D70003197E85BFC428E179F0750F3EE0EFF1E63
:102D80003401D60166C04301F4E08F0E911CF301BB
:102D9000408151816281738188EB9CE20E9404141E
:102DA00080E090E00BC0F701E80FF91FDC01A854A8
:102DB000B34D2C91EC55F34D20830196E8EBFCE2EA
:102DC00001900020E9F73197E85BFC428E179F07DE
:102DD00050F3EE0EFF1E3401D6013BC04301F4E078
:102DE0008F0E911CF301408151816281738188EBC8
:102DF0009CE20E94FE1480E090E00BC0F701E80F17
:102E0000F91FDC01A854B34D2C91EC55F34D2083F0
:102E10000196E8EBFCE201900020E9F73197E85BCE
:102E2000FC428E179F0750F3EE0EFF1E3401D601B1
:102E300010C0D701AC55B34D8C938A3021F4D70123
:102E4000AC55B34D1C92FFEFEF1AFF0AD90101C038
:102E5000D6019D012F5F3F4F8C918111E6CEC701B6
:102E6000800F911F44972CF084E190E07C01E01AE0
:102E7000F10A80E090E008C0E3E0F0E0EC0FFD1F15
:102E8000E80FF91F1082019684319105ACF3B982E5
:102E90000A8380E090E00CC0FC01EC55F34D2081EA
:102EA000E3E0F0E0EC0FFD1FE80FF91F208301962F
:102EB0008E159F058CF300E02FEF3FEFA901BE01B7
:102EC0006F5F7F4F8091D12C9091D22C0E94DB07B5
:102ED000C7016696CDBFDEBFDF91CF911F910F91E5
:102EE000FF90EF90DF90CF90BF909F908F907F905A
:102EF0006F9008951F920F920FB60F9211240BB688
:102F00000F922F933F934F935F936F937F938F9382
:102F10009F93AF93BF93EF93FF93CF93DF931F9252
:102F2000CDB7DEB719829E012F5F3F4F41E050E0E1
:102F300060E070E08091D32C9091D42C0E94070423
:102F400060E080E09BE00E9458021092060B0F9018
:102F5000DF91CF91FF91EF91BF91AF919F918F91B1
:102F60007F916F915F914F913F912F910F900BBE89
:102F70000F900FBE0F901F901895CF92DF92EF9297
:102F8000FF920F936B017C0182E0C816D104E1042B
:102F9000F10428F4C12CD12C76016894C1F8E0E04A
:102FA000FBE081E0868310A211A260E080E09BE05C
:102FB0000E945E028EEFC8168FEFD806E104F1047E
:102FC00070F4F694E794D794C794C092260BD092ED
:102FD000270B65E080E09BE00E94580219C080E466
:102FE000C81682E4D8068FE0E806F10488F46894F5
:102FF00014F8F694E794D794C7941694D1F7C09236
:10300000260BD092270B67E080E09BE00E945802DD
:103010000F2EF4EFCF2EDD24D394E12CF12CF02DE4
:1030200000E021E041E050E060E070E08091D32CCE
:103030009091D42C0E94AE020F91FF90EF90DF9000
:10304000CF9008958295807FE0E0F6E09481282F6C
:103050002F60922394839481892B848308958823FD
:1030600021F081E080936506089581E080936606F3
:103070000895882321F082E080936506089582E018
:10308000809366060895882321F084E08093650686
:10309000089584E080936606089581E00E944318B5
:1030A00061E070E080E090E00E94BD1780E00E9447
:1030B00043180895CF93C82F82958F700E942218CD
:1030C00080E00E942F1880E00E9439180E944D185D
:1030D0008C2F8F700E9422180E944D18CF91089556
:1030E000CF93C82F82958F700E94221881E00E9492
:1030F0002F1880E00E9439180E944D188C2F8F7075
:103100000E9422180E944D18CF910895EF92FF92CD
:103110000F93E0E0F6E080E1818380E2818380E448
:10312000818380E88183A0E6B6E081E011968C93EC
:10313000119782E011968C93119784E011968C93ED
:10314000119784818F70848314968C911497887F53
:1031500014968C9340E066E188E00E94B10780936A
:10316000D12C9093D22C0E9499028093D32C9093CF
:10317000D42CE12CF12C01E020E030E04EE551E0D0
:103180006DE370E28EE199E10E943F0B0F91FF9099
:10319000EF9008958130910579F01CF4892B39F076
:1031A00019C08230910569F0039781F013C080E85F
:1031B000860F0E945A180EC080EC860F0E945A1883
:1031C00009C084E9860F0E945A1804C084ED860F56
:1031D0000E945A1867E270E080E090E00E94BD17FC
:1031E00008950E9470186BE270E080E090E00E9409
:1031F000BD1708950F931F93CF93DF938C01C0E009
:10320000D0E009C0F801EC0FFD1F8081882331F068
:103210000E94F1182196C431D105A4F3DF91CF911A
:103220001F910F910895CF93DF93EA010E94CA186E
:10323000CE010E94FA18DF91CF910895CF93DF93CA
:10324000CDB7DEB7C656D109CDBFDEBF80E090E076
:1032500019C044E1489FF001499FF00D112441E05D
:1032600050E04C0F5D1FE40FF51FE20FF31F40E22B
:1032700040832F5F3F4F02C020E030E02431310512
:1032800044F3019684309105BCF360E47CE980E06E
:1032900090E00E94BD1783E00E94221868E873E165
:1032A00080E090E00E94BD170E944D1860EA70E037
:1032B00080E090E00E94BD170E944D1860EA70E027
:1032C00080E090E00E94BD170E944D1860EA70E017
:1032D00080E090E00E94BD1782E00E9422180E94C8
:1032E0004D1888E20E945A1880E10E945A188CE01A
:1032F0000E945A1886E00E945A1868EC70E080E03C
:1033000090E00E94260D40E050E0BA018091D32C5D
:103310009091D42C0E945503672B682B692B09F4DC
:103320005FC042E050E060E070E08091D32C90916B
:10333000D42C0E94550340E050E019C024E1249FA2
:10334000F001259FF00D112421E030E02C0F3D1FEE
:10335000E20FF31FE80FF91F20E22083019602C05D
:1033600080E090E0843191054CF34F5F5F4F443033
:103370005105B4F335C02FEF3FEFA901BE016F5ADD
:103380007F4F8091D12C9091D22C0E94BF0888232E
:1033900039F112C062964FAD6297E1E0F0E0EC0FB8
:1033A000FD1F74E1479FE00DF11D1124E80FF91F87
:1033B00060832F5F3F4F02C020E030E063968FAD07
:1033C0006397F901E80FF11DCF0174974CF4E1E523
:1033D000F0E0EC0FFD1FE20FF31F62816111DACF05
:1033E0008091D12C9091D22C0E945E098111C3CF83
:1033F00000E010E013C084E1809FA001819F500D88
:10340000112421E030E02C0F3D1F420F531F60E0DC
:1034100070E0C8010E9413190F5F1F4F043011059F
:1034200054F36BCFCF93DF93CDB7DEB79E01245F0C
:103430003F4F4A855B85688579858E819F810E9493
:10344000E615DF91CF9108955058BB27AA270E9417
:103450003C1A0C94B61B0E94A81B38F00E94AF1BAC
:1034600020F039F49F3F19F426F40C94A51B0EF4B8
:10347000E095E7FB0C949F1BE92F0E94C71B58F3B4
:10348000BA17620773078407950720F079F4A6F549
:103490000C94E91B0EF4E0950B2EBA2FA02D0B0116
:1034A000B90190010C01CA01A0011124FF27591B89
:1034B00099F0593F50F4503E68F11A16F040A22F8F
:1034C000232F342F4427585FF3CF46953795279500
:1034D000A795F0405395C9F77EF41F16BA0B620BFF
:1034E000730B840BBAF09150A1F0FF0FBB1F661F46
:1034F000771F881FC2F70EC0BA0F621F731F841F89
:1035000048F4879577956795B795F7959E3F08F0AE
:10351000B0CF9395880F08F09927EE0F9795879570
:1035200008950E947B1B08F481E008950E94AA1A66
:103530000C94B61B0E94AF1B58F00E94A81B40F0D1
:1035400029F45F3F29F00C949F1B51110C94EA1B46
:103550000C94A51B0E94C71B68F39923B1F3552354
:1035600091F3951B550BBB27AA2762177307840796
:1035700038F09F5F5F4F220F331F441FAA1FA9F32C
:1035800035D00E2E3AF0E0E832D091505040E6951A
:10359000001CCAF72BD0FE2F29D0660F771F881F7B
:1035A000BB1F261737074807AB07B0E809F0BB0B6E
:1035B000802DBF01FF2793585F4F3AF09E3F510582
:1035C00078F00C949F1B0C94EA1B5F3FE4F3983E49
:1035D000D4F3869577956795B795F7959F5FC9F76B
:1035E000880F911D9695879597F90895E1E0660FEC
:1035F000771F881FBB1F621773078407BA0720F065
:10360000621B730B840BBA0BEE1F88F7E0950895CD
:103610000E940F1B6894B1110C94EA1B08950E943C
:10362000CF1B88F09F5798F0B92F9927B751B0F06A
:10363000E1F0660F771F881F991F1AF0BA95C9F736
:1036400014C0B13091F00E94E91BB1E008950C94D0
:10365000E91B672F782F8827B85F39F0B93FCCF383
:10366000869577956795B395D9F73EF490958095B3
:10367000709561957F4F8F4F9F4F0895E89409C0D3
:1036800097FB3EF490958095709561957F4F8F4F95
:103690009F4F9923A9F0F92F96E9BB279395F695AB
:1036A000879577956795B795F111F8CFFAF4BB0F29
:1036B00011F460FF1BC06F5F7F4F8F4F9F4F16C08D
:1036C000882311F096E911C0772321F09EE8872F17
:1036D000762F05C0662371F096E8862F70E060E0D3
:1036E0002AF09A95660F771F881FDAF7880F96954C
:1036F000879597F90895990F0008550FAA0BE0E8F0
:10370000FEEF16161706E807F907C0F012161306A3
:10371000E407F50798F0621B730B840B950B39F4E3
:103720000A2661F0232B242B252B21F408950A2649
:1037300009F4A140A6958FEF811D811D089597F989
:103740009F6780E870E060E008959FEF80EC089547
:1037500000240A9416161706180609060895002470
:103760000A9412161306140605060895092E0394EA
:10377000000C11F4882352F0BB0F40F4BF2B11F45E
:1037800060FF04C06F5F7F4F8F4F9F4F089557FDBD
:103790009058440F551F59F05F3F71F04795880FBF
:1037A00097FB991F61F09F3F79F087950895121656
:1037B00013061406551FF2CF4695F1DF08C0161602
:1037C00017061806991FF1CF8695710561050894B3
:1037D0000895E894BB2766277727CB0197F90895CA
:1037E0000E947B1B08F48FEF08950E94081C0C9424
:1037F000B61B0E94A81B38F00E94AF1B20F0952337
:1038000011F00C949F1B0C94A51B11240C94EA1B23
:103810000E94C71B70F3959FC1F3950F50E0551F91
:10382000629FF001729FBB27F00DB11D639FAA2715
:10383000F00DB11DAA1F649F6627B00DA11D661F64
:10384000829F2227B00DA11D621F739FB00DA11D85
:10385000621F839FA00D611D221F749F3327A00D3F
:10386000611D231F849F600D211D822F762F6A2FDB
:1038700011249F5750409AF0F1F088234AF0EE0F40
:10388000FF1FBB1F661F771F881F91505040A9F76D
:103890009E3F510580F00C949F1B0C94EA1B5F3FE8
:1038A000E4F3983ED4F3869577956795B795F795A9
:1038B000E7959F5FC1F7FE2B880F911D9695879521
:1038C00097F9089519F416F40C94A51B0C94A81CF0
:1038D0000E94CF1BB8F39923C9F3B6F39F57550B3A
:1038E00087FF0E94B61C0024A0E640EA90018058A1
:1038F0005695979528F4805C660F771F881F20F0F7
:1039000026173707480730F4621B730B840B2029F6
:1039100031294A2BA69517940794202531254A274B
:1039200058F7660F771F881F20F0261737074807BC
:1039300030F4620B730B840B200D311D411DA095DB
:1039400081F7B901842F9158880F9695879508952E
:103950009F3F31F0915020F4879577956795B79503
:10396000880F911D9695879597F90895915050402D
:10397000660F771F881FD2F70895EE0FFF1F881F6D
:103980008BBF0790F691E02D1994FB01DC0102C07A
:1039900001900D9241505040D8F70895DC0101C0CC
:1039A0006D9341505040E0F70895BB274A3031F401
:1039B000992322F4BDE2909581959F4F0C94E11CD0
:1039C000BB27FB015527AA27880F991FAA1FA417F9
:1039D00010F0A41B83955051B9F7A05DAA3308F0ED
:1039E000A95DA193009779F7B111B1931192CB0121
:1039F0000C943D1F0F931F93CF93DF93CDB7DEB78A
:103A00002E97CDBFDEBF0E891F8986E08C83098388
:103A10001A838FEF9FE78D839E83AE01465E5F4FD3
:103A2000688D798DCE0101960E94231DEF81F88566
:103A3000E00FF11F10822E96CDBFDEBFDF91CF9138
:103A40001F910F9108952F923F924F925F926F9224
:103A50007F928F929F92AF92BF92CF92DF92EF921E
:103A6000FF920F931F93CF93DF93CDB7DEB72B97C2
:103A7000CDBFDEBF6C017B018A01FC01168217827B
:103A8000838181FFCCC1CE0101963C01F601938177
:103A9000F70193FD859193FF81917F01882309F4BC
:103AA000BAC1853239F493FD859193FF81917F01ED
:103AB000853229F4B60190E00E944D1FE7CF912C8A
:103AC000212C312CFFE1F315D8F08B3279F038F44A
:103AD000803279F08332A1F4232D20611DC08D3214
:103AE00061F0803369F4232D216016C0832D82603C
:103AF000382EE32DE4603E2E2AC0F32DF8601DC061
:103B000037FC2DC020ED280F2A3040F08E32B9F45A
:103B100036FC81C1232D2064322E19C036FE06C02A
:103B20008AE0989E200D1124922E11C0EAE02E9E6C
:103B3000200D1124222EF32DF0623F2E08C08C366A
:103B400021F4832D8068382E02C0883641F4F701B5
:103B500093FD859193FF81917F018111B3CF982FC0
:103B60009F7D9554933028F40C5F1F4F9FE39983FA
:103B70000DC0833631F0833771F0833509F059C0B9
:103B800021C0F801808189830E5F1F4F88248394B0
:103B9000912C530113C02801F2E04F0E511CF80183
:103BA000A080B18036FE03C0692D70E002C06FEFC7
:103BB0007FEFC5010E94321F4C018201F32DFF7778
:103BC0003F2E16C0280122E0420E511CF801A080B1
:103BD000B18036FE03C0692D70E002C06FEF7FEF49
:103BE000C5010E94271F4C01F32DF0683F2E820172
:103BF00033FC1BC0822D90E088169906B0F4B60104
:103C000080E290E00E944D1F2A94F4CFF50137FC2A
:103C1000859137FE81915F01B60190E00E944D1FB2
:103C200021102A9421E0821A91088114910471F7DD
:103C3000E8C0843611F0893641F5F80137FE07C037
:103C400060817181828193810C5F1F4F08C0608108
:103C50007181072E000C880B990B0E5F1F4FF32DFF
:103C6000FF763F2E97FF09C09095809570956195DE
:103C70007F4F8F4F9F4FF0683F2E2AE030E0A30127
:103C80000E94891F882E861845C0853731F4232D60
:103C90002F7EB22E2AE030E025C0932D997FB92ED9
:103CA0008F36C1F018F4883579F0B5C0803719F037
:103CB000883721F0B0C0E92FE061BE2EB4FE0DC000
:103CC000FB2DF460BF2E09C034FE0AC0292F2660E8
:103CD000B22E06C028E030E005C020E130E002C08E
:103CE00020E132E0F801B7FE07C060817181828176
:103CF00093810C5F1F4F06C06081718180E090E06E
:103D00000E5F1F4FA3010E94891F882E8618FB2D6E
:103D1000FF773F2E36FE0DC0232D2E7FA22E891455
:103D200058F434FE0BC032FC09C0832D8E7EA82EC1
:103D300005C0B82CA32C03C0B82C01C0B92CA4FE1C
:103D40000FC0FE01E80DF11D8081803321F49A2D12
:103D5000997EA92E09C0A2FE06C0B394B39404C0F4
:103D60008A2D867809F0B394A3FC11C0A0FE06C08A
:103D7000B21488F4280C922C9B180EC0B21460F474
:103D8000B60180E290E00E944D1FB394F7CFB214C9
:103D900018F42B1802C0982C212CA4FE10C0B601D8
:103DA00080E390E00E944D1FA2FE17C0A1FC03C05B
:103DB00088E790E002C088E590E0B6010CC08A2D4B
:103DC000867859F0A1FE02C08BE201C080E2A7FC18
:103DD0008DE2B60190E00E944D1F891438F4B601BF
:103DE00080E390E00E944D1F9A94F7CF8A94F301EC
:103DF000E80DF11D8081B60190E00E944D1F8110F9
:103E0000F5CF222009F442CEB60180E290E00E9474
:103E10004D1F2A94F6CFF6018681978102C08FEF5D
:103E20009FEF2B96CDBFDEBFDF91CF911F910F91FA
:103E3000FF90EF90DF90CF90BF90AF909F908F90CA
:103E40007F906F905F904F903F902F900895FC016E
:103E50000590615070400110D8F7809590958E0FB5
:103E60009F1F0895FC016150704001900110D8F728
:103E7000809590958E0F9F1F0895DC01FC01672FA0
:103E800071917723E1F7329704C07C916D93708331
:103E90006291AE17BF07C8F308950F931F93CF9396
:103EA000DF93FB01238121FD03C08FEF9FEF2CC027
:103EB00022FF16C04681578124813581421753075E
:103EC00044F4A081B1819D012F5F3F4F2083318356
:103ED0008C93268137812F5F3F4F2683378314C011
:103EE0008B01EC01FB010084F185E02D1995892BF4
:103EF000E1F6D80116968D919C911797019616962A
:103F00008D939C931797CE01DF91CF911F910F91C5
:103F10000895FA01AA27283051F1203181F1E8945F
:103F20006F936E7F6E5F7F4F8F4F9F4FAF4FB1E0AC
:103F30003ED0B4E03CD0670F781F891F9A1FA11DA7
:103F4000680F791F8A1F911DA11D6A0F711D811DA8
:103F5000911DA11D20D009F468943F912AE0269F6D
:103F600011243019305D3193DEF6CF010895462FCC
:103F70004770405D4193B3E00FD0C9F7F6CF462FAD
:103F80004F70405D4A3318F0495D31FD4052419316
:103F900002D0A9F7EACFB4E0A695979587957795D3
:103FA0006795BA95C9F700976105710508959B015A
:103FB000AC010A2E06945795479537952795BA95E3
:103FC000C9F7620F731F841F951FA01D0895F894F1
:023FD000FFCF21
:103FD20049444C4500546D72205376630050493A6F
:103FE20020252E386600257300636F6E74726F6C25
:103FF2005F74736B004C6569626E697A5F74736B90
:1040020000764172656150695F74736B0064697315
:084012007055706461746500D3
:00000001FF
